:10000000022D578B228A2389241231E57F44122F37
:100010005412324B1231E57FCB122F54AB22AA235C
:10002000A924121DF3FF122F5412324B7F647E005D
:100030001231A81231E57FCB122F54122F47123202
:100040004B1231E57FC1122F54AB22AA23A92412EF
:100050001DF3FF122F5412324B7F647E001231A821
:100060001231E57FCB122F54900002122F4A123228
:100070004B1231E57FC1122F54122F4712324B120F
:1000800031E57FC4122F54AB22AA23A924121DF3F9
:10009000FF122F5412324B7F647E001231A81231AE
:1000A000E57FCB122F54AB22AA23A9249000031280
:1000B0002F5012324B1231E57FC1122F54AB22AABE
:1000C00023A924900002122F5012324B1231E57FE7
:1000D000C4122F54122F4712324B1231E57FC31234
:1000E0002F54AB22AA23A924121DF3FF122F54125E
:1000F000324B7F647E001231A81231E57FCB122F84
:1001000054AB22AA23A924900004122F5012324B80
:100110001231E57FC1122F54AB22AA23A9249000EB
:1001200003122F5012324B1231E57FC4122F54AB01
:1001300022AA23A924900002122F5012324B12310E
:10014000E57FC3122F54122F4712324B1231E57F35
:10015000C6122F54AB22AA23A924121DF3FF122F7B
:100160005412324B7F647E001231A81231E57FCBEE
:10017000122F54AB22AA23A924900005122F50124B
:10018000324B1231E57FC1122F54AB22AA23A9248E
:10019000900004122F5012324B1231E57FC4122FFF
:1001A00054AB22AA23A924900003122F5012324BE1
:1001B0001231E57FC3122F54AB22AA23A924900049
:1001C00002122F5012324B1231E57FC6122F5412F9
:1001D0002F4712324B1231E57FC5122F54AB22AAA2
:1001E00023A924121DF3FF122F5412324B7F647E79
:1001F000001231A81231E57FCB122F54AB22AA2373
:10020000A924900006122F5012324B1231E57FC103
:10021000122F54AB22AA23A924900005122F5012AA
:10022000324B1231E57FC4122F54AB22AA23A924EA
:10023000900004122F5012324B1231E57FC3122F5F
:1002400054AB22AA23A924900003122F5012324B40
:100250001231E57FC6122F54AB22AA23A9249000A5
:1002600002122F5012324B1231E57FC5122F541259
:100270002F4712324B1231E57FC8122F54AB22AAFE
:1002800023A924121DF3FF122F5412324B7F647ED8
:10029000001231A81231E57FCB122F54AB22AA23D2
:1002A000A924900007122F5012324B1231E57FC162
:1002B000122F54AB22AA23A924900006122F501209
:1002C000324B1231E57FC4122F54AB22AA23A9244A
:1002D000900005122F5012324B1231E57FC3122FBE
:1002E00054AB22AA23A924900004122F5012324B9F
:1002F0001231E57FC6122F54AB22AA23A924900005
:1003000003122F5012324B1231E57FC5122F54AB1E
:1003100022AA23A924900002122F5012324B12312C
:10032000E57FC8122F54122F4712324B1231E57F4E
:10033000C7122F54AB22AA23A924121DF3FF122F98
:100340005412324B7F647E001231A81231E57FCB0C
:10035000122F54AB22AA23A924900008122F501266
:10036000324B1231E57FC1122F54AB22AA23A924AC
:10037000900007122F5012324B1231E57FC4122F1A
:1003800054AB22AA23A924900006122F5012324BFC
:100390001231E57FC3122F54AB22AA23A924900067
:1003A00005122F5012324B1231E57FC6122F54AB7B
:1003B00022AA23A924900004122F5012324B12318A
:1003C000E57FC5122F54AB22AA23A9249000031263
:1003D0002F5012324B1231E57FC8122F54AB22AA94
:1003E00023A924900002122F5012324B1231E57FC4
:1003F000C7122F54122F4712324B1231E57FCA1207
:100400002F54AB22AA23A924121DF3FF122F54123A
:10041000324B7F647E001231A81231E57FCB122F60
:1004200054AB22AA23A924900009122F5012324B58
:100430001231E57FC1122F54AB22AA23A9249000C8
:1004400008122F5012324B1231E57FC4122F54ABD9
:1004500022AA23A924900007122F5012324B1231E6
:10046000E57FC3122F54AB22AA23A92490000612C1
:100470002F5012324B1231E57FC6122F54AB22AAF5
:1004800023A924900005122F5012324B1231E57F20
:10049000C5122F54AB22AA23A924900004122F5076
:1004A00012324B1231E57FC8122F54AB22AA23A976
:1004B00024900003122F5012324B1231E57FC712E5
:1004C0002F54AB22AA23A924900002122F501232DB
:1004D0004B1231E57FCA122F54122F4712324B12A2
:1004E00031E57FC9122F54AB22AA23A924121DF390
:1004F000FF122F5412324B7F647E001231A812314A
:10050000E57FCB122F54AB22AA23A92490000A1214
:100510002F5012324B1231E57FC1122F54AB22AA59
:1005200023A924900009122F5012324B1231E57F7B
:10053000C4122F54AB22AA23A924900008122F50D2
:1005400012324B1231E57FC3122F54AB22AA23A9DA
:1005500024900007122F5012324B1231E57FC61241
:100560002F54AB22AA23A924900006122F50123236
:100570004B1231E57FC5122F54AB22AA23A9249038
:100580000005122F5012324B1231E57FC8122F5442
:10059000AB22AA23A924900004122F5012324B122E
:1005A00031E57FC7122F54AB22AA23A92490000360
:1005B000122F5012324B1231E57FCA122F54AB2248
:1005C000AA23A924900002122F5012324B1231E5B7
:1005D0007FC9122F54122F4712324B7F647E0012B4
:1005E00031A81231E57FCB122F54AB22AA23A924C4
:1005F00090000B122F5012324B1231E57FC1122F97
:1006000054AB22AA23A92490000A122F5012324B75
:100610001231E57FC4122F54AB22AA23A9249000E3
:1006200009122F5012324B1231E57FC3122F54ABF7
:1006300022AA23A924900008122F5012324B123103
:10064000E57FC6122F54AB22AA23A92490000712DB
:100650002F5012324B1231E57FC5122F54AB22AA14
:1006600023A924900006122F5012324B1231E57F3D
:10067000C8122F54AB22AA23A924900005122F5090
:1006800012324B1231E57FC7122F54AB22AA23A995
:1006900024900004122F5012324B1231E57FCA12FF
:1006A0002F54AB22AA23A924900003122F501232F8
:1006B0004B1231E57FC9122F54AB22AA23A92490F3
:1006C0000002122F5012324B7F647E001231A812AA
:1006D00031E57FCB122F54AB22AA23A92490000C22
:1006E000122F5012324B1231E57FC1122F54AB2220
:1006F000AA23A92490000B122F5012324B1231E57D
:100700007FC4122F54AB22AA23A92490000A122FCF
:100710005012324B1231E57FC3122F54AB22AA2361
:10072000A924900009122F5012324B1231E57FC6D6
:10073000122F54AB22AA23A924900008122F501282
:10074000324B1231E57FC5122F54AB22AA23A924C4
:10075000900007122F5012324B1231E57FC8122F32
:1007600054AB22AA23A924900006122F5012324B18
:100770001231E57FC7122F54AB22AA23A92490007F
:1007800005122F5012324B1231E57FCA122F54AB93
:1007900022AA23A924900004122F5012324B1231A6
:1007A000E57FC9122F54AB22AA23A924900003127B
:1007B0002F5012324B7F647E001231A81231E57F38
:1007C000CB122F54AB22AA23A92490000D122F5034
:1007D00012324B1231E57FC1122F54AB22AA23A94A
:1007E0002490000C122F5012324B1231E57FC412AC
:1007F0002F54AB22AA23A92490000B122F5012329F
:100800004B1231E57FC3122F54AB22AA23A92490A7
:10081000000A122F5012324B1231E57FC6122F54AC
:10082000AB22AA23A924900009122F5012324B1296
:1008300031E57FC5122F54AB22AA23A924900008CA
:10084000122F5012324B1231E57FC8122F54AB22B7
:10085000AA23A924900007122F5012324B1231E51F
:100860007FC7122F54AB22AA23A924900006122F6F
:100870005012324B1231E57FCA122F54AB22AA23F9
:10088000A924900005122F5012324B1231E57FC976
:10089000122F54AB22AA23A924900004122F501225
:1008A000324B7F647E001231A81231E57FCB122FCC
:1008B00054AB22AA23A92490000E122F5012324BBF
:1008C0001231E57FC1122F54AB22AA23A924900034
:1008D0000D122F5012324B1231E57FC4122F54AB40
:1008E00022AA23A92490000C122F5012324B12314D
:1008F000E57FC3122F54AB22AA23A92490000B1228
:100900002F5012324B1231E57FC6122F54AB22AA60
:1009100023A92490000A122F5012324B1231E57F86
:10092000C5122F54AB22AA23A924900009122F50DC
:1009300012324B1231E57FC8122F54AB22AA23A9E1
:1009400024900008122F5012324B1231E57FC7124B
:100950002F54AB22AA23A924900007122F50123241
:100960004B1231E57FCA122F54AB22AA23A924903F
:100970000006122F5012324B1231E57FC9122F544C
:10098000AB22AA23A924900005122F5012324B7FCC
:10099000647E001231A81231E57FCB122F54AB22B6
:1009A000AA23A92490000F122F5012324B1231E5C6
:1009B0007FC1122F54AB22AA23A92490000E122F1C
:1009C0005012324B1231E57FC4122F54AB22AA23AE
:1009D000A92490000D122F5012324B1231E57FC323
:1009E000122F54AB22AA23A92490000C122F5012CC
:1009F000324B1231E57FC6122F54AB22AA23A92411
:100A000090000B122F5012324B1231E57FC5122F7E
:100A100054AB22AA23A92490000A122F5012324B61
:100A20001231E57FC8122F54AB22AA23A9249000CB
:100A300009122F5012324B1231E57FC7122F54ABDF
:100A400022AA23A924900008122F5012324B1231EF
:100A5000E57FCA122F54AB22AA23A92490000712C3
:100A60002F5012324B1231E57FC9122F54AB22AAFC
:100A700023A924900006122F5012324B7F647E006F
:100A80001231A81231E57FCB122F54AB22AA23A931
:100A900024900010122F5012324B1231E57FC112F8
:100AA0002F54AB22AA23A92490000F122F501232E8
:100AB0004B1231E57FC4122F54AB22AA23A92490F4
:100AC000000E122F5012324B1231E57FC3122F54F9
:100AD000AB22AA23A92490000D122F5012324B12E0
:100AE00031E57FC6122F54AB22AA23A92490000C13
:100AF000122F5012324B1231E57FC5122F54AB2208
:100B0000AA23A92490000B122F5012324B1231E568
:100B10007FC8122F54AB22AA23A92490000A122FB7
:100B20005012324B1231E57FC7122F54AB22AA2349
:100B3000A924900009122F5012324B1231E57FCABE
:100B4000122F54AB22AA23A924900008122F50126E
:100B5000324B1231E57FC9122F54AB22AA23A924AC
:100B6000900007122F5012324B7F647E001231A882
:100B70001231E57FCB122F54AB22AA23A924900077
:100B800011122F5012324B1231E57FC1122F54AB8C
:100B900022AA23A924900010122F5012324B123196
:100BA000E57FC4122F54AB22AA23A92490000F1270
:100BB0002F5012324B1231E57FC3122F54AB22AAB1
:100BC00023A92490000E122F5012324B1231E57FD0
:100BD000C6122F54AB22AA23A92490000D122F5025
:100BE00012324B1231E57FC5122F54AB22AA23A932
:100BF0002490000C122F5012324B1231E57FC81294
:100C00002F54AB22AA23A92490000B122F5012328A
:100C10004B1231E57FC7122F54AB22AA23A924908F
:100C2000000A122F5012324B1231E57FCA122F5494
:100C3000AB22AA23A924900009122F5012324B1282
:100C400031E57FC9122F54AB22AA23A924900008B2
:100C5000122F5012324B7F647E001231A81231E500
:100C60007FCB122F54AB22AA23A924900012122F5B
:100C70005012324B1231E57FC1122F54AB22AA23FE
:100C8000A924900011122F5012324B1231E57FC46B
:100C9000122F54AB22AA23A924900010122F501215
:100CA000324B1231E57FC3122F54AB22AA23A92461
:100CB00090000F122F5012324B1231E57FC6122FC7
:100CC00054AB22AA23A92490000E122F5012324BAB
:100CD0001231E57FC5122F54AB22AA23A92490001C
:100CE0000D122F5012324B1231E57FC8122F54AB28
:100CF00022AA23A92490000C122F5012324B123139
:100D0000E57FC7122F54AB22AA23A92490000B120F
:100D10002F5012324B1231E57FCA122F54AB22AA48
:100D200023A92490000A122F5012324B1231E57F72
:100D3000C9122F54AB22AA23A924900009122F50C4
:100D400012324B7F647E001231A81231E57FCB1244
:100D50002F54AB22AA23A924900013122F50123231
:100D60004B1231E57FC1122F54AB22AA23A9249044
:100D70000012122F5012324B1231E57FC4122F5441
:100D8000AB22AA23A924900011122F5012324B1229
:100D900031E57FC3122F54AB22AA23A9249000105F
:100DA000122F5012324B1231E57FC6122F54AB2254
:100DB000AA23A92490000F122F5012324B1231E5B2
:100DC0007FC5122F54AB22AA23A92490000E122F04
:100DD0005012324B1231E57FC8122F54AB22AA2396
:100DE000A92490000D122F5012324B1231E57FC70B
:100DF000122F54AB22AA23A92490000C122F5012B8
:100E0000324B1231E57FCA122F54AB22AA23A924F8
:100E100090000B122F5012324B1231E57FC9122F66
:100E200054AB22AA23A92490000A122F5012324B4D
:100E30001231E57F8B122F5402324B8B228A238989
:100E4000241231E57F44122F5412324B1231E57FC8
:100E5000C2122F54AB22AA23A924121DF3FF122F72
:100E60005412324B1231E57FC0122F54AB22AA2309
:100E7000A924121DF3FF122F5412324B1231E57FB9
:100E8000CC122F54AB22AA23A924121DF3FF122F38
:100E90005412324B1231E57FCE122F54AB22AA23CB
:100EA000A924121DF3FF122F5412324B1231E57F89
:100EB000CF122F54AB22AA23A924121DF3FF122F05
:100EC0005412324B1231E57FCD122F54AB22AA239C
:100ED000A924121DF3FF122F5412324B1231E57F59
:100EE000CB122F54AB22AA23A924121DF3FF122FD9
:100EF0005412324B1231E57FC1122F54AB22AA2378
:100F0000A924121DF3FF122F5412324B1231E57F28
:100F1000C4122F54AB22AA23A924121DF3FF122FAF
:100F20005412324B1231E57FC3122F54AB22AA2345
:100F3000A924121DF3FF122F5412324B1231E57FF8
:100F4000C6122F54AB22AA23A924121DF3FF122F7D
:100F50005412324B1231E57FC5122F54AB22AA2313
:100F6000A924121DF3FF122F5412324B1231E57FC8
:100F7000C8122F54AB22AA23A924121DF3FF122F4B
:100F80005412324B1231E57FC7122F54AB22AA23E1
:100F9000A924121DF3FF122F5412324B1231E57F98
:100FA000CA122F54AB22AA23A924121DF3FF122F19
:100FB0005412324B1231E57FC9122F54AB22AA23AF
:100FC000A924121DF3FF122F5412324B7FF47E011D
:100FD0001231A81231E57FC2122F54AB22AA23A9E5
:100FE00024900001122F5012324B1231E57FC012B3
:100FF0002F54AB22AA23A924900001122F501232A1
:101000004B1231E57FCC122F54AB22AA23A9249096
:101010000001122F5012324B1231E57FCE122F54A5
:10102000AB22AA23A924900001122F5012324B1296
:1010300031E57FCF122F54AB22AA23A924900001BF
:10104000122F5012324B1231E57FCD122F54AB22AA
:10105000AA23A924900001122F5012324B1231E51D
:101060007FCB122F54AB22AA23A924900001122F68
:101070005012324B1231E57FC1122F54AB22AA23FA
:10108000A924900001122F5012324B1231E57FC477
:10109000122F54AB22AA23A924900001122F501220
:1010A000324B1231E57FC3122F54AB22AA23A9245D
:1010B000900001122F5012324B1231E57FC6122FD1
:1010C00054AB22AA23A924900001122F5012324BB4
:1010D0001231E57FC5122F54AB22AA23A924900018
:1010E00001122F5012324B1231E57FC8122F54AB30
:1010F00022AA23A924900001122F5012324B123140
:10110000E57FC7122F54AB22AA23A9249000011215
:101110002F5012324B1231E57FCA122F54AB22AA44
:1011200023A924900001122F5012324B1231E57F77
:10113000C9122F54AB22AA23A924900001122F50C8
:1011400012324B7FF47E011231A81231E57FC212B8
:101150002F54AB22AA23A924900002122F5012323E
:101160004B1231E57FC0122F54AB22AA23A9249041
:101170000002122F5012324B1231E57FCC122F5445
:10118000AB22AA23A924900002122F5012324B1234
:1011900031E57FCE122F54AB22AA23A9249000025E
:1011A000122F5012324B1231E57FCF122F54AB2247
:1011B000AA23A924900002122F5012324B1231E5BB
:1011C0007FCD122F54AB22AA23A924900002122F04
:1011D0005012324B1231E57FCB122F54AB22AA238F
:1011E000A924900002122F5012324B1231E57FC118
:1011F000122F54AB22AA23A924900002122F5012BE
:10120000324B1231E57FC4122F54AB22AA23A924FA
:10121000900002122F5012324B1231E57FC3122F71
:1012200054AB22AA23A924900002122F5012324B51
:101230001231E57FC6122F54AB22AA23A9249000B5
:1012400002122F5012324B1231E57FC5122F54ABD0
:1012500022AA23A924900002122F5012324B1231DD
:10126000E57FC8122F54AB22AA23A92490000212B2
:101270002F5012324B1231E57FC7122F54AB22AAE6
:1012800023A924900002122F5012324B1231E57F15
:10129000CA122F54AB22AA23A924900002122F5065
:1012A00012324B1231E57FC9122F54AB22AA23A967
:1012B00024900002122F5012324B7FF47E01123123
:1012C000A81231E57FC2122F54AB22AA23A9249081
:1012D0000003122F5012324B1231E57FC0122F54EF
:1012E000AB22AA23A924900003122F5012324B12D2
:1012F00031E57FCC122F54AB22AA23A924900003FE
:10130000122F5012324B1231E57FCE122F54AB22E6
:10131000AA23A924900003122F5012324B1231E558
:101320007FCF122F54AB22AA23A924900003122F9F
:101330005012324B1231E57FCD122F54AB22AA232B
:10134000A924900003122F5012324B1231E57FCBAB
:10135000122F54AB22AA23A924900003122F50125B
:10136000324B1231E57FC1122F54AB22AA23A9249C
:10137000900003122F5012324B1231E57FC4122F0E
:1013800054AB22AA23A924900003122F5012324BEF
:101390001231E57FC3122F54AB22AA23A924900057
:1013A00003122F5012324B1231E57FC6122F54AB6D
:1013B00022AA23A924900003122F5012324B12317B
:1013C000E57FC5122F54AB22AA23A9249000031253
:1013D0002F5012324B1231E57FC8122F54AB22AA84
:1013E00023A924900003122F5012324B1231E57FB3
:1013F000C7122F54AB22AA23A924900003122F5006
:1014000012324B1231E57FCA122F54AB22AA23A904
:1014100024900003122F5012324B1231E57FC91273
:101420002F54AB22AA23A924900003122F5012326A
:101430004B7FF47E011231A81231E57FC2122F5486
:10144000AB22AA23A924900004122F5012324B126F
:1014500031E57FC0122F54AB22AA23A924900004A7
:10146000122F5012324B1231E57FCC122F54AB2287
:10147000AA23A924900004122F5012324B1231E5F6
:101480007FCE122F54AB22AA23A924900004122F3E
:101490005012324B1231E57FCF122F54AB22AA23C8
:1014A000A924900004122F5012324B1231E57FCD47
:1014B000122F54AB22AA23A924900004122F5012F9
:1014C000324B1231E57FCB122F54AB22AA23A92431
:1014D000900004122F5012324B1231E57FC1122FAF
:1014E00054AB22AA23A924900004122F5012324B8D
:1014F0001231E57FC4122F54AB22AA23A9249000F5
:1015000004122F5012324B1231E57FC3122F54AB0D
:1015100022AA23A924900004122F5012324B123118
:10152000E57FC6122F54AB22AA23A92490000412EF
:101530002F5012324B1231E57FC5122F54AB22AA25
:1015400023A924900004122F5012324B1231E57F50
:10155000C8122F54AB22AA23A924900004122F50A2
:1015600012324B1231E57FC7122F54AB22AA23A9A6
:1015700024900004122F5012324B1231E57FCA1210
:101580002F54AB22AA23A924900004122F50123208
:101590004B1231E57FC9122F54AB22AA23A9249004
:1015A0000004122F5012324B7FF47E011231A81228
:1015B00031E57FC2122F54AB22AA23A92490000543
:1015C000122F5012324B1231E57FC0122F54AB2232
:1015D000AA23A924900005122F5012324B1231E594
:1015E0007FCC122F54AB22AA23A924900005122FDE
:1015F0005012324B1231E57FCE122F54AB22AA2368
:10160000A924900005122F5012324B1231E57FCFE2
:10161000122F54AB22AA23A924900005122F501296
:10162000324B1231E57FCD122F54AB22AA23A924CD
:10163000900005122F5012324B1231E57FCB122F42
:1016400054AB22AA23A924900005122F5012324B2A
:101650001231E57FC1122F54AB22AA23A924900096
:1016600005122F5012324B1231E57FC4122F54ABAA
:1016700022AA23A924900005122F5012324B1231B6
:10168000E57FC3122F54AB22AA23A9249000051290
:101690002F5012324B1231E57FC6122F54AB22AAC3
:1016A00023A924900005122F5012324B1231E57FEE
:1016B000C5122F54AB22AA23A924900005122F5043
:1016C00012324B1231E57FC8122F54AB22AA23A944
:1016D00024900005122F5012324B1231E57FC712B1
:1016E0002F54AB22AA23A924900005122F501232A6
:1016F0004B1231E57FCA122F54AB22AA23A92490A2
:101700000005122F5012324B1231E57FC9122F54AF
:10171000AB22AA23A924900005122F5012324B7F2E
:10172000F47E011231A81231E57FC2122F54AB2290
:10173000AA23A924900006122F5012324B1231E531
:101740007FC0122F54AB22AA23A924900006122F87
:101750005012324B1231E57FCC122F54AB22AA2308
:10176000A924900006122F5012324B1231E57FCE81
:10177000122F54AB22AA23A924900006122F501234
:10178000324B1231E57FCF122F54AB22AA23A9246A
:10179000900006122F5012324B1231E57FCD122FDE
:1017A00054AB22AA23A924900006122F5012324BC8
:1017B0001231E57FCB122F54AB22AA23A92490002B
:1017C00006122F5012324B1231E57FC1122F54AB4B
:1017D00022AA23A924900006122F5012324B123154
:1017E000E57FC4122F54AB22AA23A924900006122D
:1017F0002F5012324B1231E57FC3122F54AB22AA65
:1018000023A924900006122F5012324B1231E57F8B
:10181000C6122F54AB22AA23A924900006122F50DF
:1018200012324B1231E57FC5122F54AB22AA23A9E5
:1018300024900006122F5012324B1231E57FC8124D
:101840002F54AB22AA23A924900006122F50123243
:101850004B1231E57FC7122F54AB22AA23A9249043
:101860000006122F5012324B1231E57FCA122F544C
:10187000AB22AA23A924900006122F5012324B1239
:1018800031E57FC9122F54AB22AA23A92490000668
:10189000122F5012324B1231E57F8B122F5402322D
:1018A0004BEC4D6011E8497017ED33EC3304600DDB
:1018B000E4FCFFFEFD22E933E8330470F8021A5518
:1018C000121A2058046009E4CC24815006285009DB
:1018D000021A5F284003021A5CC0E0EB4A7044B968
:1018E0008006D0E0FB021A4BEF4E701CBD8008EB67
:1018F000FFEAFEE9FD80EBE98DF0A4FEE5F00219B8
:101900008AE9CDF9EAFEEBFFEF89F0A4FCE5F0CE21
:1019100089F0A42EFFE435F0CD89F0A42DFEE43546
:10192000F08067EF4E7005BD80D780C3EF8BF0A4C9
:10193000ACF0EE8BF0A42CFCE435F0F8EF8AF0A4C8
:101940002CE5F038FCE433CB8DF0A42CFCE5F03B27
:10195000F8EE8AF0A42CFCE5F038F8E433CF89F0F7
:10196000A42CFCE5F038CF3400CE89F0A42FFFE59D
:10197000F03EFEE433C98DF0A42EFEE5F039CD8AA9
:10198000F0A42FFFE5F03EFEE43DFD33D0E0FB5038
:10199000070BBB000F021A5FEC2CFCEF33FFEE339A
:1019A000FEED33FD021A3774F8CC6480CCC8648035
:1019B000C8F58204604FC3EB9FF5F0EA9E42F0E960
:1019C0009D42F0E89C45F0603C501DE5825FFFE5DC
:1019D00082D313CB5BCBF42B5582FB50280ABA0081
:1019E0002409B9002008801DE5825BFBE582D31342
:1019F000CF5FCFF4C3132F5582FF50090EBE0005F1
:101A00000DBD00010CC3EB9FF5F0EA9E42F0E99D8D
:101A100042F0E89C45F06007CC4820E701B3EC2297
:101A2000E9D2E7C933E833F892D5EDD2E7CD33EC0C
:101A300033FC5002B2D522EC30E7100FBF000C0E81
:101A4000BE00080DBD00040BEB6014A2D5EB13FC27
:101A5000ED92E7FD2274FFFCFDFEFF22E480F8A278
:101A6000D574FF13FC7D80E480EFF920E72824F98A
:101A700050037907E4F42402FB18DBFDE624FB5055
:101A800014E9600DE4F618E604F6B40A08E4F6D9A1
:101A9000F57401F60A22C2D522ED33EC3392D5FA61
:101AA000602AB4FF33EDC2E77BFF60067A1A79BE85
:101AB000E4227A1A79C720D5047A1A79C2224E61B3
:101AC0004E002B494E46002D494E4600E47A08F65A
:101AD00008DAFC7B00740722E8C0E0ECC0E0EDC04F
:101AE000E0EEC0E0EFC0E0EA75F010A4CAABF0751C
:101AF000F04DA42BFBE435F0FCEA2410FAEB34C5DE
:101B0000FBEC34D9FCEDC2E7FF75F056A4F42411C8
:101B1000C5F0F434C58FF0A42AE5F03BE43CF62090
:101B2000E714121DB3D0E0FFD0E0FED0E0FDD0E01E
:101B3000FC121C978014F404121DB3D0E0FFD0E017
:101B4000FED0E0FDD0E0FC1218A1D0E0F8E6FAEDFE
:101B5000D2E7CD33EC332482FBE4C3CF33CFCE3393
:101B6000CECD33CD33DBF37B0775F00A846004F60A
:101B7000081B0AE5F0F6088FF0740AA4FFACF08E9B
:101B8000F0740AA42CFEACF050010C8DF0740AA481
:101B90002CFDE435F0F608DBDE740722021A55E866
:101BA0006480F8E933E83360110460F0ED33EC331E
:101BB0007009E8FCE9FDEAFEEBFF220460DED3EBEE
:101BC0009FEA9EE99DE8C2E78CF0C2F795F0400CD1
:101BD000E8CCF8E9CDF9EACEFAEBCFFB121A208572
:101BE000D0F05804700320D5B3E80470075002B257
:101BF000D5021A5F92D5EC0460F7E4CCC0E0C3983C
:101C0000F8603B94186008400DD0E0FB021A37E4FE
:101C1000FBFAC9FC8028E830E406E4C9FBE4CAFC0E
:101C2000E830E305E4C9CACBFCE854076010F8C308
:101C3000E913F9EA13FAEB13FBEC13FCD8F130F5D6
:101C40002FC3E49CFCEF9BFFEE9AFEED99FDD0E0E4
:101C5000FBEF4E4D4C701222DB03021A5CEC2CFCA5
:101C6000EF33FFEE33FEED33FDED30E7EB021A37D5
:101C7000EF2BFFEE3AFEED39FDD0E0FB50130BBB2E
:101C80000003021A5FED13FDEE13FEEF13FFEC13DA
:101C9000FC021A37021A5FEC5D046005E859047013
:101CA00003021A55121A20580460F6EC4860F2EC50
:101CB0007004FDFEFF22C860DB2481C85009C39870
:101CC00060025006021A5C9850CAF582E9294B4A14
:101CD0007005AB82021A4B75F0007C1A7880C3EF56
:101CE0009BEE9AED99400DC3EF9BFFEE9AFEED99A6
:101CF000FDE842F0DC23ACF0D0E0FFD0E0FED0E025
:101D0000FDAB8220E7101BEB60BAEC2CFCEF33FF3D
:101D1000EE33FEED33FD021A37E803F830E705C075
:101D2000F075F000EF2FFFEE33FEED33FD40B830DD
:101D3000E7C280AAED33EC33600A047003BD80046F
:101D4000ECB2E7FC2275F020800E75F0108005756E
:101D5000F0087D007E007F003392D530D503121E3F
:101D60006DEC334010EF33FFEE33FEED33FDEC331B
:101D7000FCD5F0ED22E5F0247EA2D513CC92E7CD80
:101D8000CEFF223F8000004120000042C8000044F6
:101D90007A0000461C400047C35000497424004BA1
:101DA0001896804CBEBC205A0E1BCA6753C21C74C6
:101DB0009DC5AEFB60065407601C2323121DE1EB9A
:101DC00054386009121DCD121DDC1218A1ECF8ED7B
:101DD000F9EEFAEFCB22EB121DDC80F1543803242C
:101DE0001C901D83FE93FC0EEE93FD0EEE930ECE23
:101DF00093FF22BB010689828A83E0225002E722F8
:101E0000BBFE02E32289828A83E49322BB010CE5B4
:101E10008229F582E5833AF583E0225006E925829E
:101E2000F8E622BBFE06E92582F8E222E58229F5E2
:101E300082E5833AF583E49322BB010689828A8393
:101E4000F0225002F722BBFE01F322F8BB010DE5A0
:101E50008229F582E5833AF583E8F0225006E925E8
:101E600082C8F622BBFE05E92582C8F222C3E49FA0
:101E7000FFE49EFEE49DFDE49CFC22EB9FF5F0EA6E
:101E80009E42F0E99D42F0E89C45F022E0FCA3E090
:101E9000FDA3E0FEA3E0FF22E0F8A3E0F9A3E0FA4F
:101EA000A3E0FB22ECF0A3EDF0A3EEF0A3EFF02211
:101EB000A8828583F0D083D082121EC7121EC7125B
:101EC0001EC7121EC7E473E493A3C583C5F0C58380
:101ED000C8C582C8F0A3C583C5F0C583C8C582C87C
:101EE00022FAE6FB0808E6F925F0F618E6CA3AF603
:101EF00022D083D082F8E4937012740193700DA302
:101F0000A393F8740193F5828883E4737402936851
:101F100060EFA3A3A380DFE55D2449F8E6055D2219
:101F200078463007027849E475F001121EE1021D7F
:101F3000F32000EB7F2ED2008018EF540F2490D4B2
:101F40003440D4FF30040BEF24BFB41A00500324F4
:101F500061FFE55E6002155E0561E5617002056086
:101F600030070D7846E475F001121EE1EF021E39CC
:101F70000231817403D2078003E4C207F55D8B460A
:101F80008A478948E4F55EF560F561E55E60077FA4
:101F900020121F5280F5755FFFC201C200C202C24B
:101FA00003C205C206C208121F20FF700D300705CC
:101FB0007F00121F63AF61AE6022B4255FC2D5C23D
:101FC00004121F20FF24D0B40A00501A75F00A78BA
:101FD0005E30D50508B6FF0106C6A426F620D50456
:101FE0007002D20380D924CFB41A00EF5004C2E5A6
:101FF000D204022250D20180C6D20080C0D2028018
:10200000BCD2D580BAD20580B47F20121F522002E4
:10201000077401B55E0040F1121F17FF121F520234
:102020001F8BD208D2068095121F17FB121F17FABA
:10203000121F17F94A4B700679477A237BFF20025B
:102040002EE55E602A7E008E82758300121E0C6073
:10205000060EEE655F70F0C2D5EBC0E0EAC0E0E9C5
:10206000C0E0EE1222B0D0E0F9D0E0FAD0E0FB12EE
:102070001DF3FF60AAEBC0E0EAC0E0E9C0E0121F78
:1020800052D0E02401F9D0E03400FAD0E0FBE55F63
:102090000460DCD55FD98087D20280A212229360CF
:1020A000F7E55F700104121A6AA95F600DE55F60D1
:1020B0000914F55F12233AEF60F3EA30E702F40403
:1020C000C3995077EAF4255F0430E701E404F55F33
:1020D000800D12229360C1EA055F255F121A6AEA39
:1020E000785CF630E701E4255F04D55F0420050144
:1020F000141222B0E4C0E012233A785CE6601320A8
:10210000E70714F6121F3A802204F6D0E014C0E06C
:102110007F00121F3AE55F6007121F31155F800BC9
:10212000300503121F31D0E0021F8BD0E00480C5C0
:1021300012229360A0E55F04121A6A785CEAF6E561
:102140005F20050260010424041222B074FF04C061
:10215000E012233A121F3AE55F2005026003121FC6
:1021600031D0E0B55FE87F45121F44785CE67F2BF5
:1021700030E7047F2DF404C0E0121F52D0E075F068
:102180000A84C0F0121F3BD0E0121F3B021F8B7964
:102190001080027908C206C2088008D2D5790A8068
:1021A00004790AC2D5E55F047002F55FE4FAFDFE2A
:1021B000FF121F17FC7B08200113121F17FD7B1055
:1021C00030000A121F17FE121F17FF7B20EC33820C
:1021D000D592D55013C3E43000069FFFE49EFEE481
:1021E0002001039DFDE49CFCE4CBF8C201EC700CE3
:1021F000CFCECDCCE824F8F870F38017C3EF33FFCF
:10220000EE33FEED33FDEC33FCEB33FB994002FB88
:102210000FD8E9EB300105F8D0E0C448B201C0E0C6
:102220000AEC4D4E4F78207B0070C2EAB55F00404B
:10223000BCC0E01222B2D0F0D0E0200104C4C0E063
:10224000C4B201C0F0121F3BD0F0D5F0EB021F8BDF
:10225000121EF1202853218F581FF94C1FF54221DF
:10226000934F219B44219B49200E4321A15520D20D
:1022700046213045209C472367501FFD2D20012E0D
:1022800020242B20052320222023502A1FBD480074
:1022900000201CE55FB4FF03755F06121F17FC12D8
:1022A0001F17FD121F17FE121F17FF7855021A99EC
:1022B000790AA2D5200314300509B910020404B923
:1022C000080104A2D52006025001042002689202EF
:1022D000B55E005034C0E07F203003197F30A20289
:1022E00072067205500F122309C202C206C205C24D
:1022F000087F30800F300503E9C0E0121F5230051F
:1023000003D0E0F9D0E0B55ECC3005177F30B910CE
:102310000C121F527F583004077F788003B90803DE
:10232000121F523002057F2D021F527F202008F815
:102330007F2B2006F322920280CF7F00B40700504B
:10234000052455F8E6FF22286E756C6C2900D20131
:10235000121F173001F8C201785E30D50108F6026D
:102360001FBD2D50434958121F172403B4050040C8
:1023700001E490236293121F43743A121F43D20365
:10238000755E0402218F121E8C752A00752B059034
:102390000066E0F52CA3E0F52D8F298E288D278C83
:1023A00026E4F53EF53FF540F541F542F543E52DD0
:1023B000452C70137549FF754A32754B968F4F8EB9
:1023C0004E8D4D8C4C805BE52D6401452C7017754E
:1023D00049FF754A32754B9B85294F85284E8527C5
:1023E0004D85264C803CE52D6402452C70177549BF
:1023F000FF754A32754BA085294F85284E85274D9C
:1024000085264C801DE52D6403452C701D7549FF04
:10241000754A32754BA585294F85284E85274D85F0
:10242000264CFB7A00792E121F73E4F544F5457BA8
:10243000007A00792E123236C3E5459FE5449E505E
:102440001C742E2545F8E6642E6012053FE53F70AA
:1024500002053E0545E54570D6054480D2E53F2599
:102460002DFFE53E352CFED3EF952BE52A6480F851
:10247000EE64809840077B017A00791E227B007A07
:1024800000792E123236EF24FFF545EE34FFF54485
:10249000D3E54594FFE5446480947F40317B007A26
:1024A00000792E123236EF24FFFFEE34FFFEC3EF29
:1024B0009545FFEE9544FE742E2545F8E6FD7436ED
:1024C0002FF8A605E545154570C6154480C27B006A
:1024D0007A00792E12323674362FF8E4F6F544F588
:1024E00045C3E545952BE52A6480F8E5446480986A
:1024F000501874682545F58274003544F583E4F07E
:102500000545E54570DB054480D7E4F544F5457B9A
:10251000007A007936123236C3E5459FE5449E5075
:102520007374362545F8E6FFB42E0E7540007541EC
:10253000017542007543018050EF540F7E00244D19
:10254000F582EE3400F583E0FFE543640145427017
:102550002AE5416401454070184307027467254528
:10256000F58274003544F583EFF0E4F540F54180E1
:102570001874672545F5827400800874682545F550
:102580008274003544F583EFF00545E5457002059A
:102590004402250F7B017A007968227F41E4FEEE38
:1025A000FDC394057480948040030226C2ED70320E
:1025B000D290C291C292C293C2943095052095FDEB
:1025C0007F013096052096FD7F0230A20520A2FDF6
:1025D0007F0330A40520A4FD7F1730A60520A6FDAB
:1025E0007F04EE64017032C290D291C292C293C253
:1025F000943095052095FD7F043096052096FD7F4B
:102600000530A20520A2FD7F0630A40520A4FD7F91
:102610001530A60520A6FD7F16EE64027032C2902A
:10262000C291D292C293C2943095052095FD7F0746
:102630003096052096FD7F0830A20520A2FD7F0977
:1026400030A40520A4FD7F1330A60520A6FD7F142D
:10265000EE64037032C290C291C292D293C294309F
:1026600095052095FDE4FF3096052096FD7F0A3004
:10267000A20520A2FD7F0B30A40520A4FD7F113010
:10268000A60520A6FD7F12EE64047032C290C291AE
:10269000C292C293D2943095052095FD7F0F30965B
:1026A000052096FD7F0E30A20520A2FD7F1030A4EC
:1026B0000520A4FD7F0C30A60520A6FD7F0D0E028F
:1026C000259F2212328112321EE4FF1231267F0A28
:1026D0007E001231A87B017A007933122C377B01FE
:1026E0007A007933122CC77B017A007933122B9050
:1026F0007B017A007948122C37122ED77B017A00A1
:10270000795F122B90122ED77B017A007933122B2E
:10271000907B017A007933122C377B017A00793370
:10272000122CC7122ED77B017A00790A12000312ED
:102730002ED77B017A007939120E3B122ED77B01FE
:102740007A007933122B907B017A007933122C377F
:102750007B017A007933122CC7122ED7122ED7752F
:102760002A00752B05752C00752D027F007E007DDB
:10277000007C001223998B198A1A891B122CC7AB73
:1027800019AA1AA91B122C37752A00752B0690005E
:1027900066E0F52CA3E0F52D7F007E007D007C0037
:1027A0001223998B198A1A891B122B90123295E4E5
:1027B00090002AF0900028F0A304F022C201C20287
:1027C000C203C204F9E4F525F526FCFDFEFFE9107D
:1027D00000EA20030CB42D04D203D322B42B02D37D
:1027E0002224D0504794095041240A300415F8851A
:1027F00026F0740AA42872E74051C5F0704D85F0A8
:1028000026D322D202C0E0E4FBFA792078411218E4
:10281000A1ECF8EDF9EEFAEFFBD0E0FCE4121D4F6D
:10282000121BA33001B41525D322240A200420B49E
:10283000FE0720011AD201D32224EB600424E070A9
:102840000EA2039201D204C203D322C3021A55E49A
:1028500030040BE526300302F404A2019203300297
:10286000EA252520D2E5A2E792045002F404B4261A
:102870000050D8CCC0E0EDC0E0EEC0E0EFC0E0EC2E
:10288000121DB3D0E0FFD0E0FED0E0FDD0E0FC2090
:1028900004051218A18003121C97300303121D3483
:1028A000C32290005EE0640B700612320202297DA2
:1028B00090005EE0C3940A74809480500D900008EC
:1028C000E07002A3E0700302297A90005EE0FF7ED0
:1028D00000640A7012900008E07002A3E070089093
:1028E0000008F0A304F022C3EF940AEE6480948001
:1028F0005063900008E07004A3E0640170579000FA
:102900005CE07002A3E0704D900040742EF07525DD
:10291000017526007527407B017A00792A1230ACB8
:1029200090005EE04430F0900040F075250175267F
:10293000007527407B017A00792A1230AC90005C48
:10294000E4F0A304F0FB7A00792A1230259000000D
:10295000121EA4802890005EE0C3940A74809480C4
:10296000501B900008E07004A3E06401700F900019
:102970005CE07004A3E0640170031231551230EA88
:10298000221226C312328C900004121EA412259B20
:1029900090005EEFF07F0A7E001231A890005EE0AA
:1029A000FF64417003022A2E900028E07004A3E027
:1029B00064017032EF64107016900028F0A3740266
:1029C000F09000657411F01232021230EA80B59076
:1029D000005EE0D3941074809480400512306D80C6
:1029E000A3122A388045900028E07004A3E0640216
:1029F0007005122A388037900028E07004A3E06444
:102A000003702B90005EE0640B7010123202900095
:102A100028E4F0A304F01230EA801090005EE0D3C6
:102A2000941074809480400312306D1232727F0AC9
:102A30007E001231A8022984900008E07004A3E00F
:102A4000640170127B017A00792A123236C3EF9446
:102A500006EE94004058900008E07002A3E0702653
:102A60007B017A00792A123236900067E02FFF90BE
:102A70000066E03EFEC3EF9406EE9400500890001E
:102A80005EE0640A6028900008E07002A3E0702411
:102A90007B017A00792A123236900067E02FFF908E
:102AA0000066E03EFEC3EF9405EE940050067E0003
:102AB0007F0080047E007F01900031EEF0A3EFF0F4
:102AC00090005EE0FF7E00C3940B74809480500AF7
:102AD000900031E07002A3E06006EF640B4E7003DB
:102AE0001228A22246001E1010101010104A004D8D
:102AF000EDA0D9F8B47C7DE0FDFC47003940C0E092
:102B0000E8E9EDFD450048004D45D50046005FED84
:102B1000A200455DAD54000AB55D0D0DED107C4D74
:102B2000F50D00000000000000000000460033002A
:102B30000000000000450041001DF5FD0045005764
:102B4000B4A2A00000420008000042005C00004265
:102B500000660002420028000142003100004400EB
:102B60007F434A800044008742B5333344006FBF3F
:102B700080000044007BBF800000440077BF8000DD
:102B800000440083BF800000440073BF8000000049
:102B90008B268A2789281231E57F44122F5412325E
:102BA0004B1231E57FC2122F54AB26AA27A9281257
:102BB0001DF3FF122F5412324B1231E57FC0122F3A
:102BC00054AB26AA27A928900001122F5012324B8D
:102BD0001231E57FCC122F54AB26AA27A9289000EA
:102BE00002122F5012324B1231E57FCE122F54AB0E
:102BF00026AA27A928900003122F5012324B123117
:102C0000E57FCF122F54AB26AA27A92890000412E3
:102C10002F5012324B1231E57FCD122F54AB26AA22
:102C200027A928900005122F5012324B1231E57F50
:102C30008B122F5402324B8B228A2389241231E5C6
:102C40007F44122F5412324B1231E57FC5122F549C
:102C5000AB22AA23A924121DF3FF122F5412324BC8
:102C60001231E57FC8122F54AB22AA23A924900069
:102C700001122F5012324B1231E57FC7122F54AB85
:102C800022AA23A924900002122F5012324B123193
:102C9000E57FCA122F54AB22AA23A9249000031265
:102CA0002F5012324B1231E57FC9122F54AB22AA9A
:102CB00023A924900004122F5012324B1231E57FC9
:102CC0008B122F5402324B8B268A2789281231E52A
:102CD0007F44122F5412324B1231E57FCB122F5406
:102CE000AB26AA27A928121DF3FF122F5412324B2C
:102CF0001231E57FC1122F54AB26AA27A9289000D4
:102D000001122F5012324B1231E57FC4122F54ABF7
:102D100026AA27A928900002122F5012324B1231F6
:102D2000E57FC3122F54AB26AA27A92890000312CF
:102D30002F5012324B1231E57FC6122F54AB26AA08
:102D400027A928900004122F5012324B1231E57F30
:102D50008B122F5402324B787FE4F6D8FD758161D7
:102D6000022D9E022981E493A3F8E493A34003F685
:102D70008001F208DFF48029E493A3F85407240CBF
:102D8000C8C333C4540F4420C8834004F4568001A0
:102D900046F6DFE4800B0102040810204080902AF0
:102DA000E4E47E019360BCA3FF543F30E509541F67
:102DB000FEE493A360010ECF54C025E060A840B8A4
:102DC000E493A3FAE493A3F8E493A3C8C582C8CA22
:102DD000C583CAF0A3C8C582C8CAC583CADFE9DEF5
:102DE000E780BEEF24EFB407005059902DF975F03D
:102DF00003A4C58325F0C58373022E0E022E16028E
:102E00002E1E022E26022E2E022E36022E3EE4F515
:102E10000D750E03802E750D04750E078026750D39
:102E200008750E0B801E750D0C750E0F8016750D36
:102E300010750E13800E750D14750E178006750D26
:102E400018750E1B75BF0B75E78075E502850DE3E0
:102E5000850EE48509E275E64675E6B975E5007507
:102E6000E70022EF24EFB407005058902E7975F058
:102E700003A4C58325F0C58373022E8E022E930210
:102E80002E98022E9D022EA2022EA7022EAC90009A
:102E90007F801C900087801790006F801290007BCD
:102EA000800D90007780089000838003900073E08D
:102EB000FCA3E0FDA3E0FEA3E0F5298E288D278C7E
:102EC00026800BE4F529F5287527807526BFAF29E4
:102ED000AE28AD27AC2622E4F525F524F523F5220E
:102EE000E47F32FEFDFCAB25AA24A923A822C3124D
:102EF0001E7B5052E4F529F528F527F526E47FE8F6
:102F00007E03FDFCAB29AA28A927A826C3121E7B95
:102F1000501AE5292401FFE43528FEE43527FDE4B5
:102F200035268F298E288D27F52680D1E525240189
:102F3000FFE43524FEE43523FDE435228F258E247D
:102F40008D23F522809A22900001AB22AA23A92486
:102F5000121E0CFF8F2AC2A0C2A1E4F529C3E529E5
:102F60009408748094805027C2A17F017E001231A2
:102F7000A8E52A30E004D2A08002C2A07F017E0032
:102F80001231A8D2A1E52AC313F52A052980CEC2A1
:102F9000A1C2A022EFC3940A74809480500AE490E6
:102FA0000046F0A3EFF08012EF75F00A849000461F
:102FB000F0EF75F00A84A3E5F0F0900046E0244DB0
:102FC000F582E43400F583E0900046F0A3E0244D60
:102FD000F582E43400F583E0900047F0228B158AF7
:102FE0001689171231E57F44122F5412324B1231D9
:102FF000E57FCD122F54E4F518C3E51894017480D1
:1030000094805013AB15AA16A917851882758300F2
:10301000122F50051880E212324B1231E57F8B12CD
:103020002F5402324BD2008B228A23892412306122
:10303000C0E0FF12325FD0E040F31227CF40012200
:10304000ECC0E0EDC0E0EEC0E0EFC0E0123061D0D7
:10305000F0AFF0D0F0AEF0D0F0ADF0D0F0ACF0804A
:10306000D9E475F0017822121EE1021DF390005E92
:10307000E0FF122E638F258E248D238C22E4FFFE29
:103080007D807CBFAB25AA24A923A8221219A760A2
:103090001A900028E4F0A37403F0AF25AE24AD230A
:1030A000AC22900000121EA41230EA228B228A2346
:1030B0008924E4FFFEAB22AA23A9248F828E8312E7
:1030C0001E0C60070FBF00010E80EAAB25AA26A9DF
:1030D00027121DF3AB22AA23A9248F828E83121EEE
:1030E0004B8F828E83A3E4021E4B900004121E8C31
:1030F000900000121E981218A1900024121EA49095
:1031000000001223868B198A1A891B122CC7900083
:1031100024121E8C752A00752B0612238F8B198A98
:103120001A891B022B908F22D2A07F017E001231C0
:10313000A8D2A1E52270071231E57F8080101231FC
:10314000E57F44122F5412324B1231E57F8F122F3C
:103150005412324B2290005EE04430F0900040F078
:103160007525017526007527407B017A00792A12A2
:1031700030AC7B017A00792A123025900000021EC3
:10318000A4EFB40A07740D12318C740A309811A898
:1031900099B8130CC2983098FDA899C298B811F646
:1031A0003099FDC299F59922E4FDFCC3ED9FEC9E98
:1031B0005015E4FBFA0BBB00010ABA01F8BB4DF550
:1031C0000DBD00010C80E422900047E0F50F900057
:1031D00046E0F510E4F511F512F513F514FB7A004D
:1031E000790F022B90D2A0D2A17F017E001231A8CC
:1031F000C2A07F017E001231A8C2A17F017E000221
:1032000031A8E490002AF0900008F0A3F090005C50
:10321000F0A3F0900000121EB00000000022759193
:103220001FD2A2D2A4D2A6D296D295C290C291C2E7
:1032300092C293C29422E4FFFE121DF3600C0FEFC2
:1032400070010E09E970F20A80EF22C2A0D2A17FBC
:10325000017E001231A8D2A07F017E000231A8EFCA
:10326000C394094005EF940E4003BF2003D38001AF
:10327000C3229000041223868B198A1A891B022C00
:1032800037759503C2A0C2A1E4F5B4227FA47E7075
:103290007DCC7C412222252E306600252E31660011
:0A32A000252E326600252E3366004D
:00000001FF
