:10000000022CDA8B228A238924122F197F44122D85
:10001000DD122F63122F197FCB122DDDAB22AA2305
:10002000A924121D7AFF122DDD122F637F647E003A
:10003000122EF9122F197FCB122DDD122DD0122F77
:1000400063122F197FC1122DDDAB22AA23A924121E
:100050001D7AFF122DDD122F637F647E00122EF9B0
:10006000122F197FCB122DDD900002122DD3122FEB
:1000700063122F197FC1122DDD122DD0122F6312A2
:100080002F197FC4122DDDAB22AA23A924121D7AB9
:10009000FF122DDD122F637F647E00122EF9122FC6
:1000A000197FCB122DDDAB22AA23A92490000312C5
:1000B0002DD9122F63122F197FC1122DDDAB22AA69
:1000C00023A924900002122DD9122F63122F197F19
:1000D000C4122DDD122DD0122F63122F197FC312DF
:1000E0002DDDAB22AA23A924121D7AFF122DDD12C9
:1000F0002F637F647E00122EF9122F197FCB122DF1
:10010000DDAB22AA23A924900004122DD9122F635B
:10011000122F197FC1122DDDAB22AA23A924900032
:1001200003122DD9122F63122F197FC4122DDDABAC
:1001300022AA23A924900002122DD9122F63122F74
:10014000197FC3122DDD122DD0122F63122F197FAC
:10015000C6122DDDAB22AA23A924121D7AFF122D6F
:10016000DD122F637F647E00122EF9122F197FCBD0
:10017000122DDDAB22AA23A924900005122DD9123D
:100180002F63122F197FC1122DDDAB22AA23A924C0
:10019000900004122DD9122F63122F197FC4122D33
:1001A000DDAB22AA23A924900003122DD9122F63BC
:1001B000122F197FC3122DDDAB22AA23A924900090
:1001C00002122DD9122F63122F197FC6122DDD12A4
:1001D0002DD0122F63122F197FC5122DDDAB22AA4D
:1001E00023A924121D7AFF122DDD122F637F647E56
:1001F00000122EF9122F197FCB122DDDAB22AA236C
:10020000A924900006122DD9122F63122F197FC135
:10021000122DDDAB22AA23A924900005122DD9129C
:100220002F63122F197FC4122DDDAB22AA23A9241C
:10023000900004122DD9122F63122F197FC3122D93
:10024000DDAB22AA23A924900003122DD9122F631B
:10025000122F197FC6122DDDAB22AA23A9249000EC
:1002600002122DD9122F63122F197FC5122DDD1204
:100270002DD0122F63122F197FC8122DDDAB22AAA9
:1002800023A924121D7AFF122DDD122F637F647EB5
:1002900000122EF9122F197FCB122DDDAB22AA23CB
:1002A000A924900007122DD9122F63122F197FC194
:1002B000122DDDAB22AA23A924900006122DD912FB
:1002C0002F63122F197FC4122DDDAB22AA23A9247C
:1002D000900005122DD9122F63122F197FC3122DF2
:1002E000DDAB22AA23A924900004122DD9122F637A
:1002F000122F197FC6122DDDAB22AA23A92490004C
:1003000003122DD9122F63122F197FC5122DDDABC9
:1003100022AA23A924900002122DD9122F63122F92
:10032000197FC8122DDD122DD0122F63122F197FC5
:10033000C7122DDDAB22AA23A924121D7AFF122D8C
:10034000DD122F637F647E00122EF9122F197FCBEE
:10035000122DDDAB22AA23A924900008122DD91258
:100360002F63122F197FC1122DDDAB22AA23A924DE
:10037000900007122DD9122F63122F197FC4122D4E
:10038000DDAB22AA23A924900006122DD9122F63D7
:10039000122F197FC3122DDDAB22AA23A9249000AE
:1003A00005122DD9122F63122F197FC6122DDDAB26
:1003B00022AA23A924900004122DD9122F63122FF0
:1003C000197FC5122DDDAB22AA23A92490000312A8
:1003D0002DD9122F63122F197FC8122DDDAB22AA3F
:1003E00023A924900002122DD9122F63122F197FF6
:1003F000C7122DDD122DD0122F63122F197FCA12B2
:100400002DDDAB22AA23A924121D7AFF122DDD12A5
:100410002F637F647E00122EF9122F197FCB122DCD
:10042000DDAB22AA23A924900009122DD9122F6333
:10043000122F197FC1122DDDAB22AA23A92490000F
:1004400008122DD9122F63122F197FC4122DDDAB84
:1004500022AA23A924900007122DD9122F63122F4C
:10046000197FC3122DDDAB22AA23A9249000061206
:100470002DD9122F63122F197FC6122DDDAB22AAA0
:1004800023A924900005122DD9122F63122F197F52
:10049000C5122DDDAB22AA23A924900004122DD968
:1004A000122F63122F197FC8122DDDAB22AA23A9A8
:1004B00024900003122DD9122F63122F197FC71217
:1004C0002DDDAB22AA23A924900002122DD9122FD0
:1004D00063122F197FCA122DDD122DD0122F631235
:1004E0002F197FC9122DDDAB22AA23A924121D7A50
:1004F000FF122DDD122F637F647E00122EF9122F62
:10050000197FCB122DDDAB22AA23A92490000A1259
:100510002DD9122F63122F197FC1122DDDAB22AA04
:1005200023A924900009122DD9122F63122F197FAD
:10053000C4122DDDAB22AA23A924900008122DD9C4
:10054000122F63122F197FC3122DDDAB22AA23A90C
:1005500024900007122DD9122F63122F197FC61273
:100560002DDDAB22AA23A924900006122DD9122F2B
:1005700063122F197FC5122DDDAB22AA23A9249067
:100580000005122DD9122F63122F197FC8122DDDED
:10059000AB22AA23A924900004122DD9122F631292
:1005A0002F197FC7122DDDAB22AA23A924900003A7
:1005B000122DD9122F63122F197FCA122DDDAB22F3
:1005C000AA23A924900002122DD9122F63122F19E9
:1005D0007FC9122DDD122DD0122F637F647E001291
:1005E0002EF9122F197FCB122DDDAB22AA23A924BD
:1005F00090000B122DD9122F63122F197FC1122DCB
:10060000DDAB22AA23A92490000A122DD9122F6350
:10061000122F197FC4122DDDAB22AA23A92490002A
:1006200009122DD9122F63122F197FC3122DDDABA2
:1006300022AA23A924900008122DD9122F63122F69
:10064000197FC6122DDDAB22AA23A9249000071220
:100650002DD9122F63122F197FC5122DDDAB22AABF
:1006600023A924900006122DD9122F63122F197F6F
:10067000C8122DDDAB22AA23A924900005122DD982
:10068000122F63122F197FC7122DDDAB22AA23A9C7
:1006900024900004122DD9122F63122F197FCA1231
:1006A0002DDDAB22AA23A924900003122DD9122FED
:1006B00063122F197FC9122DDDAB22AA23A9249022
:1006C0000002122DD9122F637F647E00122EF912C0
:1006D0002F197FCB122DDDAB22AA23A92490000C69
:1006E000122DD9122F63122F197FC1122DDDAB22CB
:1006F000AA23A92490000B122DD9122F63122F19AF
:100700007FC4122DDDAB22AA23A92490000A122D4A
:10071000D9122F63122F197FC3122DDDAB22AA230A
:10072000A924900009122DD9122F63122F197FC608
:10073000122DDDAB22AA23A924900008122DD91274
:100740002F63122F197FC5122DDDAB22AA23A924F6
:10075000900007122DD9122F63122F197FC8122D66
:10076000DDAB22AA23A924900006122DD9122F63F3
:10077000122F197FC7122DDDAB22AA23A9249000C6
:1007800005122DD9122F63122F197FCA122DDDAB3E
:1007900022AA23A924900004122DD9122F63122F0C
:1007A000197FC9122DDDAB22AA23A92490000312C0
:1007B0002DD9122F637F647E00122EF9122F197F1C
:1007C000CB122DDDAB22AA23A92490000D122DD926
:1007D000122F63122F197FC1122DDDAB22AA23A97C
:1007E0002490000C122DD9122F63122F197FC412DE
:1007F0002DDDAB22AA23A92490000B122DD9122F94
:1008000063122F197FC3122DDDAB22AA23A92490D6
:10081000000A122DD9122F63122F197FC6122DDD57
:10082000AB22AA23A924900009122DD9122F6312FA
:100830002F197FC5122DDDAB22AA23A92490000811
:10084000122DD9122F63122F197FC8122DDDAB2262
:10085000AA23A924900007122DD9122F63122F1951
:100860007FC7122DDDAB22AA23A924900006122DEA
:10087000D9122F63122F197FCA122DDDAB22AA23A2
:10088000A924900005122DD9122F63122F197FC9A8
:10089000122DDDAB22AA23A924900004122DD91217
:1008A0002F637F647E00122EF9122F197FCB122D39
:1008B000DDAB22AA23A92490000E122DD9122F639A
:1008C000122F197FC1122DDDAB22AA23A92490007B
:1008D0000D122DD9122F63122F197FC4122DDDABEB
:1008E00022AA23A92490000C122DD9122F63122FB3
:1008F000197FC3122DDDAB22AA23A92490000B126D
:100900002DD9122F63122F197FC6122DDDAB22AA0B
:1009100023A92490000A122DD9122F63122F197FB8
:10092000C5122DDDAB22AA23A924900009122DD9CE
:10093000122F63122F197FC8122DDDAB22AA23A913
:1009400024900008122DD9122F63122F197FC7127D
:100950002DDDAB22AA23A924900007122DD9122F36
:1009600063122F197FCA122DDDAB22AA23A924906E
:100970000006122DD9122F63122F197FC9122DDDF7
:10098000AB22AA23A924900005122DD9122F637F30
:10099000647E00122EF9122F197FCB122DDDAB22AF
:1009A000AA23A92490000F122DD9122F63122F19F8
:1009B0007FC1122DDDAB22AA23A92490000E122D97
:1009C000D9122F63122F197FC4122DDDAB22AA2357
:1009D000A92490000D122DD9122F63122F197FC355
:1009E000122DDDAB22AA23A92490000C122DD912BE
:1009F0002F63122F197FC6122DDDAB22AA23A92443
:100A000090000B122DD9122F63122F197FC5122DB2
:100A1000DDAB22AA23A92490000A122DD9122F633C
:100A2000122F197FC8122DDDAB22AA23A924900012
:100A300009122DD9122F63122F197FC7122DDDAB8A
:100A400022AA23A924900008122DD9122F63122F55
:100A5000197FCA122DDDAB22AA23A9249000071208
:100A60002DD9122F63122F197FC9122DDDAB22AAA7
:100A700023A924900006122DD9122F637F647E00D3
:100A8000122EF9122F197FCB122DDDAB22AA23A92A
:100A900024900010122DD9122F63122F197FC1122A
:100AA0002DDDAB22AA23A92490000F122DD9122FDD
:100AB00063122F197FC4122DDDAB22AA23A9249023
:100AC000000E122DD9122F63122F197FC3122DDDA4
:100AD000AB22AA23A92490000D122DD9122F631244
:100AE0002F197FC6122DDDAB22AA23A92490000C5A
:100AF000122DD9122F63122F197FC5122DDDAB22B3
:100B0000AA23A92490000B122DD9122F63122F199A
:100B10007FC8122DDDAB22AA23A92490000A122D32
:100B2000D9122F63122F197FC7122DDDAB22AA23F2
:100B3000A924900009122DD9122F63122F197FCAF0
:100B4000122DDDAB22AA23A924900008122DD91260
:100B50002F63122F197FC9122DDDAB22AA23A924DE
:100B6000900007122DD9122F637F647E00122EF998
:100B7000122F197FCB122DDDAB22AA23A9249000BE
:100B800011122DD9122F63122F197FC1122DDDAB37
:100B900022AA23A924900010122DD9122F63122FFC
:100BA000197FC4122DDDAB22AA23A92490000F12B5
:100BB0002DD9122F63122F197FC3122DDDAB22AA5C
:100BC00023A92490000E122DD9122F63122F197F02
:100BD000C6122DDDAB22AA23A92490000D122DD917
:100BE000122F63122F197FC5122DDDAB22AA23A964
:100BF0002490000C122DD9122F63122F197FC812C6
:100C00002DDDAB22AA23A92490000B122DD9122F7F
:100C100063122F197FC7122DDDAB22AA23A92490BE
:100C2000000A122DD9122F63122F197FCA122DDD3F
:100C3000AB22AA23A924900009122DD9122F6312E6
:100C40002F197FC9122DDDAB22AA23A924900008F9
:100C5000122DD9122F637F647E00122EF9122F19E4
:100C60007FCB122DDDAB22AA23A924900012122DD6
:100C7000D9122F63122F197FC1122DDDAB22AA23A7
:100C8000A924900011122DD9122F63122F197FC49D
:100C9000122DDDAB22AA23A924900010122DD91207
:100CA0002F63122F197FC3122DDDAB22AA23A92493
:100CB00090000F122DD9122F63122F197FC6122DFB
:100CC000DDAB22AA23A92490000E122DD9122F6386
:100CD000122F197FC5122DDDAB22AA23A924900063
:100CE0000D122DD9122F63122F197FC8122DDDABD3
:100CF00022AA23A92490000C122DD9122F63122F9F
:100D0000197FC7122DDDAB22AA23A92490000B1254
:100D10002DD9122F63122F197FCA122DDDAB22AAF3
:100D200023A92490000A122DD9122F63122F197FA4
:100D3000C9122DDDAB22AA23A924900009122DD9B6
:100D4000122F637F647E00122EF9122F197FCB12AF
:100D50002DDDAB22AA23A924900013122DD9122F26
:100D600063122F197FC1122DDDAB22AA23A9249073
:100D70000012122DD9122F63122F197FC4122DDDEC
:100D8000AB22AA23A924900011122DD9122F63128D
:100D90002F197FC3122DDDAB22AA23A924900010A6
:100DA000122DD9122F63122F197FC6122DDDAB22FF
:100DB000AA23A92490000F122DD9122F63122F19E4
:100DC0007FC5122DDDAB22AA23A92490000E122D7F
:100DD000D9122F63122F197FC8122DDDAB22AA233F
:100DE000A92490000D122DD9122F63122F197FC73D
:100DF000122DDDAB22AA23A92490000C122DD912AA
:100E00002F63122F197FCA122DDDAB22AA23A9242A
:100E100090000B122DD9122F63122F197FC9122D9A
:100E2000DDAB22AA23A92490000A122DD9122F6328
:100E3000122F197F8B122DDD022F638B228A2389BB
:100E400024122F197F44122DDD122F63122F197FC8
:100E5000C2122DDDAB22AA23A924121D7AFF122D66
:100E6000DD122F63122F197FC0122DDDAB22AA23B2
:100E7000A924121D7AFF122DDD122F63122F197F64
:100E8000CC122DDDAB22AA23A924121D7AFF122D2C
:100E9000DD122F63122F197FCE122DDDAB22AA2374
:100EA000A924121D7AFF122DDD122F63122F197F34
:100EB000CF122DDDAB22AA23A924121D7AFF122DF9
:100EC000DD122F63122F197FCD122DDDAB22AA2345
:100ED000A924121D7AFF122DDD122F63122F197F04
:100EE000CB122DDDAB22AA23A924121D7AFF122DCD
:100EF000DD122F63122F197FC1122DDDAB22AA2321
:100F0000A924121D7AFF122DDD122F63122F197FD3
:100F1000C4122DDDAB22AA23A924121D7AFF122DA3
:100F2000DD122F63122F197FC3122DDDAB22AA23EE
:100F3000A924121D7AFF122DDD122F63122F197FA3
:100F4000C6122DDDAB22AA23A924121D7AFF122D71
:100F5000DD122F63122F197FC5122DDDAB22AA23BC
:100F6000A924121D7AFF122DDD122F63122F197F73
:100F7000C8122DDDAB22AA23A924121D7AFF122D3F
:100F8000DD122F63122F197FC7122DDDAB22AA238A
:100F9000A924121D7AFF122DDD122F63122F197F43
:100FA000CA122DDDAB22AA23A924121D7AFF122D0D
:100FB000DD122F63122F197FC9122DDDAB22AA2358
:100FC000A924121D7AFF122DDD122F637FF47E01FA
:100FD000122EF9122F197FC2122DDDAB22AA23A9DE
:100FE00024900001122DD9122F63122F197FC012E5
:100FF0002DDDAB22AA23A924900001122DD9122F96
:1010000063122F197FCC122DDDAB22AA23A92490C5
:101010000001122DD9122F63122F197FCE122DDD50
:10102000AB22AA23A924900001122DD9122F6312FA
:101030002F197FCF122DDDAB22AA23A92490000106
:10104000122DD9122F63122F197FCD122DDDAB2255
:10105000AA23A924900001122DD9122F63122F194F
:101060007FCB122DDDAB22AA23A924900001122DE3
:10107000D9122F63122F197FC1122DDDAB22AA23A3
:10108000A924900001122DD9122F63122F197FC4A9
:10109000122DDDAB22AA23A924900001122DD91212
:1010A0002F63122F197FC3122DDDAB22AA23A9248F
:1010B000900001122DD9122F63122F197FC6122D05
:1010C000DDAB22AA23A924900001122DD9122F638F
:1010D000122F197FC5122DDDAB22AA23A92490005F
:1010E00001122DD9122F63122F197FC8122DDDABDB
:1010F00022AA23A924900001122DD9122F63122FA6
:10110000197FC7122DDDAB22AA23A924900001125A
:101110002DD9122F63122F197FCA122DDDAB22AAEF
:1011200023A924900001122DD9122F63122F197FA9
:10113000C9122DDDAB22AA23A924900001122DD9BA
:10114000122F637FF47E01122EF9122F197FC21223
:101150002DDDAB22AA23A924900002122DD9122F33
:1011600063122F197FC0122DDDAB22AA23A9249070
:101170000002122DD9122F63122F197FCC122DDDF0
:10118000AB22AA23A924900002122DD9122F631298
:101190002F197FCE122DDDAB22AA23A924900002A5
:1011A000122DD9122F63122F197FCF122DDDAB22F2
:1011B000AA23A924900002122DD9122F63122F19ED
:1011C0007FCD122DDDAB22AA23A924900002122D7F
:1011D000D9122F63122F197FCB122DDDAB22AA2338
:1011E000A924900002122DD9122F63122F197FC14A
:1011F000122DDDAB22AA23A924900002122DD912B0
:101200002F63122F197FC4122DDDAB22AA23A9242C
:10121000900002122DD9122F63122F197FC3122DA5
:10122000DDAB22AA23A924900002122DD9122F632C
:10123000122F197FC6122DDDAB22AA23A9249000FC
:1012400002122DD9122F63122F197FC5122DDDAB7B
:1012500022AA23A924900002122DD9122F63122F43
:10126000197FC8122DDDAB22AA23A92490000212F7
:101270002DD9122F63122F197FC7122DDDAB22AA91
:1012800023A924900002122DD9122F63122F197F47
:10129000CA122DDDAB22AA23A924900002122DD957
:1012A000122F63122F197FC9122DDDAB22AA23A999
:1012B00024900002122DD9122F637FF47E01122E8A
:1012C000F9122F197FC2122DDDAB22AA23A9249077
:1012D0000003122DD9122F63122F197FC0122DDD9A
:1012E000AB22AA23A924900003122DD9122F631236
:1012F0002F197FCC122DDDAB22AA23A92490000345
:10130000122DD9122F63122F197FCE122DDDAB2291
:10131000AA23A924900003122DD9122F63122F198A
:101320007FCF122DDDAB22AA23A924900003122D1A
:10133000D9122F63122F197FCD122DDDAB22AA23D4
:10134000A924900003122DD9122F63122F197FCBDD
:10135000122DDDAB22AA23A924900003122DD9124D
:101360002F63122F197FC1122DDDAB22AA23A924CE
:10137000900003122DD9122F63122F197FC4122D42
:10138000DDAB22AA23A924900003122DD9122F63CA
:10139000122F197FC3122DDDAB22AA23A92490009E
:1013A00003122DD9122F63122F197FC6122DDDAB18
:1013B00022AA23A924900003122DD9122F63122FE1
:1013C000197FC5122DDDAB22AA23A9249000031298
:1013D0002DD9122F63122F197FC8122DDDAB22AA2F
:1013E00023A924900003122DD9122F63122F197FE5
:1013F000C7122DDDAB22AA23A924900003122DD9F8
:10140000122F63122F197FCA122DDDAB22AA23A936
:1014100024900003122DD9122F63122F197FC912A5
:101420002DDDAB22AA23A924900003122DD9122F5F
:10143000637FF47E01122EF9122F197FC2122DDD67
:10144000AB22AA23A924900004122DD9122F6312D3
:101450002F197FC0122DDDAB22AA23A924900004EE
:10146000122DD9122F63122F197FCC122DDDAB2232
:10147000AA23A924900004122DD9122F63122F1928
:101480007FCE122DDDAB22AA23A924900004122DB9
:10149000D9122F63122F197FCF122DDDAB22AA2371
:1014A000A924900004122DD9122F63122F197FCD79
:1014B000122DDDAB22AA23A924900004122DD912EB
:1014C0002F63122F197FCB122DDDAB22AA23A92463
:1014D000900004122DD9122F63122F197FC1122DE3
:1014E000DDAB22AA23A924900004122DD9122F6368
:1014F000122F197FC4122DDDAB22AA23A92490003C
:1015000004122DD9122F63122F197FC3122DDDABB8
:1015100022AA23A924900004122DD9122F63122F7E
:10152000197FC6122DDDAB22AA23A9249000041234
:101530002DD9122F63122F197FC5122DDDAB22AAD0
:1015400023A924900004122DD9122F63122F197F82
:10155000C8122DDDAB22AA23A924900004122DD994
:10156000122F63122F197FC7122DDDAB22AA23A9D8
:1015700024900004122DD9122F63122F197FCA1242
:101580002DDDAB22AA23A924900004122DD9122FFD
:1015900063122F197FC9122DDDAB22AA23A9249033
:1015A0000004122DD9122F637FF47E01122EF9123E
:1015B0002F197FC2122DDDAB22AA23A9249000058A
:1015C000122DD9122F63122F197FC0122DDDAB22DD
:1015D000AA23A924900005122DD9122F63122F19C6
:1015E0007FCC122DDDAB22AA23A924900005122D59
:1015F000D9122F63122F197FCE122DDDAB22AA2311
:10160000A924900005122DD9122F63122F197FCF14
:10161000122DDDAB22AA23A924900005122DD91288
:101620002F63122F197FCD122DDDAB22AA23A924FF
:10163000900005122DD9122F63122F197FCB122D76
:10164000DDAB22AA23A924900005122DD9122F6305
:10165000122F197FC1122DDDAB22AA23A9249000DD
:1016600005122DD9122F63122F197FC4122DDDAB55
:1016700022AA23A924900005122DD9122F63122F1C
:10168000197FC3122DDDAB22AA23A92490000512D5
:101690002DD9122F63122F197FC6122DDDAB22AA6E
:1016A00023A924900005122DD9122F63122F197F20
:1016B000C5122DDDAB22AA23A924900005122DD935
:1016C000122F63122F197FC8122DDDAB22AA23A976
:1016D00024900005122DD9122F63122F197FC712E3
:1016E0002DDDAB22AA23A924900005122DD9122F9B
:1016F00063122F197FCA122DDDAB22AA23A92490D1
:101700000005122DD9122F63122F197FC9122DDD5A
:10171000AB22AA23A924900005122DD9122F637F92
:10172000F47E01122EF9122F197FC2122DDDAB2289
:10173000AA23A924900006122DD9122F63122F1963
:101740007FC0122DDDAB22AA23A924900006122D02
:10175000D9122F63122F197FCC122DDDAB22AA23B1
:10176000A924900006122DD9122F63122F197FCEB3
:10177000122DDDAB22AA23A924900006122DD91226
:101780002F63122F197FCF122DDDAB22AA23A9249C
:10179000900006122DD9122F63122F197FCD122D12
:1017A000DDAB22AA23A924900006122DD9122F63A3
:1017B000122F197FCB122DDDAB22AA23A924900072
:1017C00006122DD9122F63122F197FC1122DDDABF6
:1017D00022AA23A924900006122DD9122F63122FBA
:1017E000197FC4122DDDAB22AA23A9249000061272
:1017F0002DD9122F63122F197FC3122DDDAB22AA10
:1018000023A924900006122DD9122F63122F197FBD
:10181000C6122DDDAB22AA23A924900006122DD9D1
:10182000122F63122F197FC5122DDDAB22AA23A917
:1018300024900006122DD9122F63122F197FC8127F
:101840002DDDAB22AA23A924900006122DD9122F38
:1018500063122F197FC7122DDDAB22AA23A9249072
:101860000006122DD9122F63122F197FCA122DDDF7
:10187000AB22AA23A924900006122DD9122F63129D
:101880002F197FC9122DDDAB22AA23A924900006AF
:10189000122DD9122F63122F197F8B122DDD022FDB
:1018A00063EC4D6011E8497017ED33EC3304600DC3
:1018B000E4FCFFFEFD22E933E8330470F80219DC92
:1018C0001219A758046009E4CC2481500628500955
:1018D0000219E62840030219E3C0E0EB4A7044B95C
:1018E0008006D0E0FB0219D2EF4E701CBD8008EBE1
:1018F000FFEAFEE9FD80EBE98DF0A4FEE5F00219B8
:101900008AE9CDF9EAFEEBFFEF89F0A4FCE5F0CE21
:1019100089F0A42EFFE435F0CD89F0A42DFEE43546
:10192000F08067EF4E7005BD80D780C3EF8BF0A4C9
:10193000ACF0EE8BF0A42CFCE435F0F8EF8AF0A4C8
:101940002CE5F038FCE433CB8DF0A42CFCE5F03B27
:10195000F8EE8AF0A42CFCE5F038F8E433CF89F0F7
:10196000A42CFCE5F038CF3400CE89F0A42FFFE59D
:10197000F03EFEE433C98DF0A42EFEE5F039CD8AA9
:10198000F0A42FFFE5F03EFEE43DFD33D0E0FB5038
:10199000070BBB000F0219E6EC2CFCEF33FFEE3314
:1019A000FEED33FD0219BEE9D2E7C933E833F89200
:1019B000D5EDD2E7CD33EC33FC5002B2D522EC307A
:1019C000E7100FBF000C0EBE00080DBD00040BEBAE
:1019D0006014A2D5EB13FCED92E7FD2274FFFCFD31
:1019E000FEFF22E480F8A2D574FF13FC7D80E48022
:1019F000EFF920E72824F950037907E4F42402FBE7
:101A000018DBFDE624FB5014E9600DE4F618E6044B
:101A1000F6B40A08E4F6D9F57401F60A22C2D52212
:101A2000ED33EC3392D5FA602AB4FF33EDC2E77B95
:101A3000FF60067A1A7945E4227A1A794E20D50495
:101A40007A1A7949224E614E002B494E46002D49A3
:101A50004E4600E47A08F608DAFC7B00740722E8B8
:101A6000C0E0ECC0E0EDC0E0EEC0E0EFC0E0EA7541
:101A7000F010A4CAABF075F04DA42BFBE435F0FCDC
:101A8000EA2410FAEB34C5FBEC34D9FCEDC2E7FFD5
:101A900075F056A4F42411C5F0F434C58FF0A42ACF
:101AA000E5F03BE43CF620E714121D3AD0E0FFD00D
:101AB000E0FED0E0FDD0E0FC121C1E8014F4041205
:101AC0001D3AD0E0FFD0E0FED0E0FDD0E0FC1218DF
:101AD000A1D0E0F8E6FAEDD2E7CD33EC332482FB77
:101AE000E4C3CF33CFCE33CECD33CD33DBF37B075F
:101AF00075F00A846004F6081B0AE5F0F6088FF01A
:101B0000740AA4FFACF08EF0740AA42CFEACF05062
:101B1000010C8DF0740AA42CFDE435F0F608DBDE30
:101B20007407220219DCE86480F8E933E8336011B5
:101B30000460F0ED33EC337009E8FCE9FDEAFEEBFC
:101B4000FF220460DED3EB9FEA9EE99DE8C2E78CAA
:101B5000F0C2F795F0400CE8CCF8E9CDF9EACEFAFE
:101B6000EBCFFB1219A785D0F05804700320D5B332
:101B7000E80470075002B2D50219E692D5EC046071
:101B8000F7E4CCC0E0C398F8603B94186008400DBF
:101B9000D0E0FB0219BEE4FBFAC9FC8028E830E47F
:101BA00006E4C9FBE4CAFCE830E305E4C9CACBFC9F
:101BB000E854076010F8C3E913F9EA13FAEB13FBD2
:101BC000EC13FCD8F130F52FC3E49CFCEF9BFFEE47
:101BD0009AFEED99FDD0E0FBEF4E4D4C701222DBEA
:101BE000030219E3EC2CFCEF33FFEE33FEED33FD83
:101BF000ED30E7EB0219BEEF2BFFEE3AFEED39FDBB
:101C0000D0E0FB50130BBB00030219E6ED13FDEE11
:101C100013FEEF13FFEC13FC0219BE0219E6EC5D94
:101C2000046005E8590470030219DC1219A758046E
:101C300060F6EC4860F2EC7004FDFEFF22C860DB49
:101C40002481C85009C398600250060219E39850D5
:101C5000CAF582E9294B4A7005AB820219D275F0A8
:101C6000007C1A7880C3EF9BEE9AED99400DC3EF8C
:101C70009BFFEE9AFEED99FDE842F0DC23ACF0D03C
:101C8000E0FFD0E0FED0E0FDAB8220E7101BEB6070
:101C9000BAEC2CFCEF33FFEE33FEED33FD0219BE40
:101CA000E803F830E705C0F075F000EF2FFFEE33E2
:101CB000FEED33FD40B830E7C280AAED33EC33606F
:101CC0000A047003BD8004ECB2E7FC2275F02080AA
:101CD0000E75F010800575F0087D007E007F0033E2
:101CE00092D530D503121DF4EC334010EF33FFEEE4
:101CF00033FEED33FDEC33FCD5F0ED22E5F0247E30
:101D0000A2D513CC92E7CDCEFF223F800000412028
:101D1000000042C80000447A0000461C400047C34F
:101D20005000497424004B1896804CBEBC205A0EBB
:101D30001BCA6753C21C749DC5AEFB600654076086
:101D40001C2323121D68EB54386009121D54121D08
:101D5000631218A1ECF8EDF9EEFAEFCB22EB121DAD
:101D60006380F1543803241C901D0AFE93FC0EEE90
:101D700093FD0EEE930ECE93FF22BB010689828A5D
:101D800083E0225002E722BBFE02E32289828A839B
:101D9000E49322BB010CE58229F582E5833AF583C1
:101DA000E0225006E92582F8E622BBFE06E92582FC
:101DB000F8E222E58229F582E5833AF583E493226D
:101DC000BB010689828A83F0225002F722BBFE0102
:101DD000F322F8BB010DE58229F582E5833AF5830C
:101DE000E8F0225006E92582C8F622BBFE05E92567
:101DF00082C8F222C3E49FFFE49EFEE49DFDE49CC2
:101E0000FC22EB9FF5F0EA9E42F0E99D42F0E89C4F
:101E100045F022ECF0A3EDF0A3EEF0A3EFF022A842
:101E2000828583F0D083D082121E36121E36121E97
:101E300036121E36E473E493A3C583C5F0C583C888
:101E4000C582C8F0A3C583C5F0C583C8C582C822B2
:101E5000FAE6FB0808E6F925F0F618E6CA3AF62293
:101E6000D083D082F8E4937012740193700DA3A311
:101E700093F8740193F5828883E473740293686025
:101E8000EFA3A3A380DFE5592445F8E6055922789E
:101E9000423007027845E475F001121E50021D7AA7
:101EA0002000EB7F2ED2008018EF540F2490D43402
:101EB00040D4FF30040BEF24BFB41A005003246158
:101EC000FFE55A6002155A055DE55D7002055C305C
:101ED000070D7842E475F001121E50EF021DC0029A
:101EE0002ED27403D2078003E4C207F5598B428ACD
:101EF000438944E4F55AF55CF55DE55A60077F20B7
:101F0000121EC180F5755BFFC201C200C202C2038E
:101F1000C205C206C208121E8FFF700D3007057F72
:101F200000121ED2AF5DAE5C22B4255FC2D5C204E2
:101F3000121E8FFF24D0B40A00501A75F00A785A86
:101F400030D50508B6FF0106C6A426F620D50470D4
:101F500002D20380D924CFB41A00EF5004C2E5D2D4
:101F6000040221BFD20180C6D20080C0D20280BC50
:101F7000D2D580BAD20580B47F20121EC1200207BC
:101F80007401B55A0040F1121E86FF121EC1021ED6
:101F9000FAD208D2068095121E86FB121E86FA120D
:101FA0001E86F94A4B700679B67A227BFF20022EF4
:101FB000E55A602A7E008E82758300121D936006AA
:101FC0000EEE655B70F0C2D5EBC0E0EAC0E0E9C0A0
:101FD000E0EE12221FD0E0F9D0E0FAD0E0FB121DB3
:101FE0007AFF60AAEBC0E0EAC0E0E9C0E0121EC1DF
:101FF000D0E02401F9D0E03400FAD0E0FBE55B0446
:1020000060DCD55BD98087D20280A212220260F701
:10201000E55B7001041219F1A95B600DE55B6009D5
:1020200014F55B1222A9EF60F3EA30E702F404C36F
:10203000995077EAF4255B0430E701E404F55B800E
:102040000D12220260C1EA055B255B1219F1EA78E4
:1020500058F630E701E4255B04D55B042005011444
:1020600012221FE4C0E01222A97858E6601320E78C
:102070000714F6121EA9802204F6D0E014C0E07FF7
:1020800000121EA9E55B6007121EA0155B800B30D5
:102090000503121EA0D0E0021EFAD0E00480C51293
:1020A000220260A0E55B041219F17858EAF6E55BBC
:1020B000200502600104240412221F74FF04C0E002
:1020C0001222A9121EA9E55B2005026003121EA0C0
:1020D000D0E0B55BE87F45121EB37858E67F2B3021
:1020E000E7047F2DF404C0E0121EC1D0E075F00AB1
:1020F00084C0F0121EAAD0E0121EAA021EFA7910A5
:1021000080027908C206C2088008D2D5790A800404
:10211000790AC2D5E55B047002F55BE4FAFDFEFFC7
:10212000121E86FC7B08200113121E86FD7B1030D8
:10213000000A121E86FE121E86FF7B20EC3382D51B
:1021400092D55013C3E43000069FFFE49EFEE420C6
:1021500001039DFDE49CFCE4CBF8C201EC700CCFC4
:10216000CECDCCE824F8F870F38017C3EF33FFEE40
:1021700033FEED33FDEC33FCEB33FB994002FB0FF8
:10218000D8E9EB300105F8D0E0C448B201C0E00A5C
:10219000EC4D4E4F78207B0070C2EAB55B0040BC2E
:1021A000C0E0122221D0F0D0E0200104C4C0E0C47D
:1021B000B201C0F0121EAAD0F0D5F0EB021EFA1246
:1021C0001E601F975320FE581F684C1F6442210257
:1021D0004F210A44210A491F7D43211055204146C1
:1021E000209F45200B4722D6501F6C2D1F702E1F9D
:1021F000932B1F74231F912022BF2A1F2C480000FD
:102200001F8BE55BB4FF03755B06121E86FC121E76
:1022100086FD121E86FE121E86FF7851021A207954
:102220000AA2D5200314300509B910020404B90824
:102230000104A2D52006025001042002689202B5D2
:102240005A005034C0E07F203003197F30A2027260
:10225000067205500F122278C202C206C205C208D9
:102260007F30800F300503E9C0E0121EC130050346
:10227000D0E0F9D0E0B55ACC3005177F30B9100C5A
:10228000121EC17F583004077F788003B9080312FB
:102290001EC13002057F2D021EC17F202008F87F5D
:1022A0002B2006F322920280CF7F00B40700500556
:1022B0002451F8E6FF22286E756C6C2900D20112B9
:1022C0001E863001F8C201785A30D50108F6021F87
:1022D0002C2D50434958121E862403B4050040019A
:1022E000E49022D193121EB2743A121EB2D2037538
:1022F0005A040220FEE0FCA3E0FDA3E0FEA3E0FF01
:10230000752600752705900066E0F528A3E0F529FD
:102310008F258E248D238C22E4F53AF53BF53CF590
:102320003DF53EF53FE529452870137545FF754697
:102330002F75479F8F4B8E4A8D498C48805BE529CE
:102340006401452870177545FF75462F7547A485AC
:10235000254B85244A852349852248803CE529640C
:1023600002452870177545FF75462F7547A98525C5
:102370004B85244A852349852248801DE52964032D
:102380004528701D7545FF75462F7547AE85254B51
:1023900085244A852349852248FB7A00792A121E22
:1023A000E2E4F540F5417B007A00792A122F4EC312
:1023B000E5419FE5409E501C742A2541F8E6642EB5
:1023C0006012053BE53B7002053A0541E54170D6D8
:1023D000054080D2E53B2529FFE53A3528FED3EFBD
:1023E0009527E5266480F8EE64809840077B017AA3
:1023F00000791E227B007A00792A122F4EEF24FFEB
:10240000F541EE34FFF540D3E54194FFE5406480AB
:10241000947F40317B007A00792A122F4EEF24FFFF
:10242000FFEE34FFFEC3EF9541FFEE9540FE742AA8
:102430002541F8E6FD74322FF8A605E541154170F7
:10244000C6154080C27B007A00792A122F4E743262
:102450002FF8E4F6F540F541C3E5419527E52664FC
:1024600080F8E540648098501874682541F58274BE
:10247000003540F583E4F00541E54170DB0540801F
:10248000D7E4F540F5417B007A007932122F4EC334
:10249000E5419FE5409E507374322541F8E6FFB454
:1024A0002E0E753C00753D01753E00753F01805054
:1024B000EF540F7E00244EF582EE3400F583E0FFEA
:1024C000E53F6401453E702AE53D6401453C7018D6
:1024D00043070274672541F58274003540F583EFA8
:1024E000F0E4F53CF53D801874672541F5827400F1
:1024F000800874682541F58274003540F583EFF05B
:102500000541E541700205400224867B017A00798D
:10251000682290005FE0F9FB7A00640B701D900068
:1025200028F0900008F0A3F090005DF0A3F0900078
:1025300000121E1F00000000022623C3EB940AEACB
:1025400064809480500E900008E07002A3E0700454
:10255000E90225F890005FE0640A7012900008E03C
:102560007002A3E07008900008F0A304F02290002D
:102570005FE0C3940A748094805056900008E07025
:1025800004A3E06401704A90005DE07002A3E07073
:1025900040900041742EF075250175260075274185
:1025A0007B017A007928122E6590005FE04430F0BC
:1025B000900041F07525017526007527417B017A51
:1025C000007928122E6590005DE4F0A304F0FB80F2
:1025D0004590005FE0FFC3940A748094805044905B
:1025E0000008E07004A3E06401703890005DE070C2
:1025F00004A3E06401702CEF443090005FF0900081
:1026000041F07525017526007527417B017A007917
:1026100028122E657B017A007928122E1D90000069
:10262000121E13900004E0FCA3E0FDA3E0FEA3E073
:10263000FF900000E0F8A3E0F9A3E0FAA3E0FB12AA
:1026400018A1900024121E139000001222F5900091
:102650002FEBF0A3EAF0A3E9F0122C4A900024E05B
:10266000FCA3E0FDA3E0FEA3E0FF752600752706AE
:1026700012230690002FEBF0A3EAF0A3E9F0122B4F
:1026800013227F41E4FEEEFDC394057480948040E4
:10269000030227A9ED7032D290C291C292C293C2B6
:1026A000943095052095FD7F013096052096FD7F9D
:1026B0000230A20520A2FD7F0330A40520A4FD7FE7
:1026C0001730A60520A6FD7F04EE64017032C2908B
:1026D000D291C292C293C2943095052095FD7F0499
:1026E0003096052096FD7F0530A20520A2FD7F06CD
:1026F00030A40520A4FD7F1530A60520A6FD7F1679
:10270000EE64027032C290C291D292C293C29430EF
:1027100095052095FD7F073096052096FD7F0830B2
:10272000A20520A2FD7F0930A40520A4FD7F13305F
:10273000A60520A6FD7F14EE64037032C290C291FC
:10274000C292D293C2943095052095FDE4FF309655
:10275000052096FD7F0A30A20520A2FD7F0B30A444
:102760000520A4FD7F1130A60520A6FD7F12EE6492
:10277000047032C290C291C292C293D29430950535
:102780002095FD7F0F3096052096FD7F0E30A20527
:1027900020A2FD7F1030A40520A4FD7F0C30A605EB
:1027A00020A6FD7F0D0E02268622122899122F9553
:1027B000900004121E139000041222F590002FEBDB
:1027C000F0A3EAF0A3E9F0122BBA12268290005F80
:1027D000EFF07F0A7E00122EF990005FE0644170F6
:1027E0000302288F900008E07004A3E064017012D7
:1027F0007B017A007928122F4EC3EF9406EE9400E5
:102800004058900008E07002A3E070267B017A0037
:102810007928122F4E900067E02FFF900066E03E6F
:10282000FEC3EF9406EE9400500890005FE0640A47
:102830006028900008E07002A3E070247B017A0019
:102840007928122F4E900067E02FFF900066E03E3F
:10285000FEC3EF9405EE940050067E007F008004D6
:102860007E007F01900032EEF0A3EFF090005FE079
:10287000FF7E00C3940B74809480500A900032E075
:102880007002A3E06006EF640B4E70031225127F06
:102890000A7E00122EF90227AD122F8A122F36E47B
:1028A000FF122EA37F0A7E00122EF97B017A007997
:1028B00034122BBA7B017A007934122C4A7B017ACC
:1028C000007934122B137B017A007949122BBA124A
:1028D0002D667B017A007960122B13122D667B0125
:1028E0007A007934122B137B017A007934122BBAD7
:1028F0007B017A007934122C4A122D667B017A0012
:10290000790A120003122D667B017A00793A120EC1
:102910003B122D667B017A007934122B137B017AEE
:10292000007934122BBA7B017A007934122C4A12C6
:102930002D66122D667526007527057528007529E8
:10294000027F007E007D007C0012231090002FEBA0
:10295000F0A3EAF0A3E9F0122C4A752600752706C9
:10296000900066E0F528A3E0F5297F007E007D0059
:102970007C0012231090002FEBF0A3EAF0A3E9F003
:10298000122B13022F9EC201C202C203C204F9E439
:10299000F525F526FCFDFEFFE91000EA20030CB446
:1029A0002D04D203D322B42B02D32224D050479437
:1029B000095041240A300415F88526F0740AA42829
:1029C00072E74051C5F0704D85F026D322D202C087
:1029D000E0E4FBFA792078411218A1ECF8EDF9EE69
:1029E000FAEFFBD0E0FCE4121CD6121B2A3001B433
:1029F0001525D322240A200420B4FE0720011AD270
:102A000001D32224EB600424E0700EA2039201D2D1
:102A100004C203D322C30219DCE430040BE52630E0
:102A20000302F404A20192033002EA252520D2E534
:102A3000A2E792045002F404B4260050D8CCC0E0BF
:102A4000EDC0E0EEC0E0EFC0E0EC121D3AD0E0FFD8
:102A5000D0E0FED0E0FDD0E0FC2004051218A180FB
:102A600003121C1E300303121CBBC32244007FBF91
:102A7000800000440087BF80000044006FBF8000DA
:102A80000044007BBF800000440077BF800000440A
:102A90000083BF800000440073BF80000046001E1A
:102AA0001010101010104A004EEDA0D9F8B47C7D23
:102AB000E0FDFC47003A40C0E0E8E9EDFD45004993
:102AC000004D45D500460060EDA200455DAD5400C7
:102AD0000AB55D0D0DED107C4DF50D0000000000F8
:102AE0000000000000460034000000000000450027
:102AF00042001DF5FD00450058B4A2A000004200B0
:102B000008000042005D0000420066000242003200
:102B10000000008B228A238924122F197F44122D52
:102B2000DD122F63122F197FC2122DDDAB22AA23D3
:102B3000A924121D7AFF122DDD122F63122F197F87
:102B4000C0122DDDAB22AA23A924900001122DD999
:102B5000122F63122F197FCC122DDDAB22AA23A9CD
:102B600024900002122DD9122F63122F197FCE123A
:102B70002DDDAB22AA23A924900003122DD9122FF8
:102B800063122F197FCF122DDDAB22AA23A9249027
:102B90000004122DD9122F63122F197FCD122DDDB3
:102BA000AB22AA23A924900005122DD9122F63125B
:102BB0002F197F8B122DDD022F638B228A2389240C
:102BC000122F197F44122DDD122F63122F197FC58A
:102BD000122DDDAB22AA23A924121D7AFF122DDDAE
:102BE000122F63122F197FC8122DDDAB22AA23A941
:102BF00024900001122DD9122F63122F197FC712B2
:102C00002DDDAB22AA23A924900002122DD9122F68
:102C100063122F197FCA122DDDAB22AA23A924909B
:102C20000003122DD9122F63122F197FC9122DDD27
:102C3000AB22AA23A924900004122DD9122F6312CB
:102C40002F197F8B122DDD022F638B228A2389247B
:102C5000122F197F44122DDD122F63122F197FCBF3
:102C6000122DDDAB22AA23A924121D7AFF122DDD1D
:102C7000122F63122F197FC1122DDDAB22AA23A9B7
:102C800024900001122DD9122F63122F197FC41224
:102C90002DDDAB22AA23A924900002122DD9122FD8
:102CA00063122F197FC3122DDDAB22AA23A9249012
:102CB0000003122DD9122F63122F197FC6122DDD9A
:102CC000AB22AA23A924900004122DD9122F63123B
:102CD0002F197F8B122DDD022F63787FE4F6D8FD4C
:102CE00075815D022D210227AAE493A3F8E493A342
:102CF0004003F68001F208DFF48029E493A3F8543E
:102D000007240CC8C333C4540F4420C8834004F4C0
:102D100056800146F6DFE4800B01020408102040D3
:102D200080902A6CE47E019360BCA3FF543F30E5A1
:102D300009541FFEE493A360010ECF54C025E06048
:102D4000A840B8E493A3FAE493A3F8E493A3C8C516
:102D500082C8CAC583CAF0A3C8C582C8CAC583CA07
:102D6000DFE9DEE780BEE4F525F524F523F522E46E
:102D70007F32FEFDFCAB25AA24A923A822C3121E84
:102D800002504CE4F529F528F527F526E47FE87E86
:102D900003FDFCAB29AA28A927A826C3121E0250AE
:102DA00017E5292401F529E43528F528E43527F528
:102DB00027E43526F52680D4E5252401F525E435DC
:102DC00024F524E43523F523E43522F52280A022DE
:102DD000900001AB22AA23A924121D93FF8F26C2C3
:102DE000A0C2A1E4F525C3E5259408748094805021
:102DF00027C2A17F017E00122EF9E52630E004D221
:102E0000A08002C2A07F017E00122EF9D2A1E52689
:102E1000C313F526052580CEC2A1C2A022D2008B05
:102E2000228A238924122E59C0E0FF122F77D0E086
:102E300040F3122999400122ECC0E0EDC0E0EEC061
:102E4000E0EFC0E0122E59D0F0AFF0D0F0AEF0D0ED
:102E5000F0ADF0D0F0ACF080D9E475F0017822123A
:102E60001E50021D7A8B228A238924E4FFFEAB22A6
:102E7000AA23A9248F828E83121D9360070FBF009F
:102E8000010E80EAAB25AA26A927121D7AAB22AA39
:102E900023A9248F828E83121DD28F828E83A3E476
:102EA000021DD28F22D2A07F017E00122EF9D2A164
:102EB000E5227007122F197F808010122F197F448E
:102EC000122DDD122F63122F197F8F122DDD122F7D
:102ED0006322EFB40A07740D122EDD740A309811C4
:102EE000A899B8130CC2983098FDA899C298B81147
:102EF000F63099FDC299F59922E4FDFCC3ED9FECF3
:102F00009E5015E4FBFA0BBB00010ABA01F8BB4D59
:102F1000F50DBD00010C80E422D2A0D2A17F017E7C
:102F200000122EF9C2A07F017E00122EF9C2A17FED
:102F3000017E00022EF975911FD2A2D2A4D2A6D290
:102F400096D295C290C291C292C293C29422E4FFDB
:102F5000FE121D7A600C0FEF70010E09E970F20A83
:102F600080EF22C2A0D2A17F017E00122EF9D2A052
:102F70007F017E00022EF9EFC394094005EF940E05
:102F80004003BF2003D38001C322759503C2A0C2B2
:102F9000A1E4F5B4227FA47E707DCC7C4122222561
:102FA0002E306600252E316600252E326600252E35
:032FB00033660085
:00000001FF
