:102FCA00252E306C6600252E316C6600252E326C5B
:082FDA006600252E336C660031
:102D88004600141010101010104A0031EDA0D9F8A8
:102D9800B47C7DE0FDFC47002040C0E0E8E9EDFDA3
:102DA80045002C004D45D500460040EDA200455D8C
:102DB800AD540000B55D0D0DED107C4DF50D000016
:102DC800000000000000000046001A00000000009B
:102DD80000450027001DF5FD0045003BB4A2A000FA
:012DE80000EA
:10275200753C00753D02122A1D1222968B388A3969
:10276200893A122C021222968B388A39893A122A15
:10277200CB1230298F2A8E298D288C27754200751D
:102782004305853C44853D451222AA8B388A398906
:102792003A122B7212262A8F267F0A7E00122F757A
:1027A200E52664417003022839C3E526940B748040
:1027B2009480400302283943263085263B75410028
:1027C20075420075433B7B007A007933122DEA7B18
:1027D200007A007933122ED78F258E248D238C22F6
:1027E200AF2AAE29AD28AC27AB25AA24A923A8225B
:1027F2001219998F2E8E2D8D2C8C2B7B007A0079BD
:1028020033853C43853D447D057C001224908B3802
:102812008A39893A122C02AF2EAE2DAD2CAC2B7513
:102822004200754306853C44853D451222AA8B38F9
:102832008A39893A122ACB7F0A7E00122F757F6469
:082842007E00122F75022773BE
:102FB20075911FD2A2D2A4D2A6D296D295C290C2A5
:082FC20091C292C293C2942255
:0A2490008C418D428B3E8A3F89404B
:10249A00E4F545F546F547F548F549F54A122ED7CC
:1024AA008F538E528D518C50E54445437013755F9E
:1024BA00FF75602F7561CA8F658E648D638C62802B
:1024CA005BE544640145437017755FFF75602F75BE
:1024DA0061D0855365855264855163855062803C1D
:1024EA00E544640245437017755FFF75602F756197
:1024FA00D6855365855264855163855062801DE592
:10250A004464034543701E755FFF75602F7561DC77
:10251A00855365855264855163855062AB3EAA3FF7
:10252A00A940121E83E4FFFEAB3EAA3FA9408F8258
:10253A008E83121D93642E60130546E546700205CC
:10254A00450FBF00010EEF64034E70DCE5462544DB
:10255A00FDE5453543FCD3ED9542E5416480F8EC51
:10256A0064809840077B017A007914227E007F02FA
:10257A00C374029FF54CE49EF54BAB3EAA3FA940BB
:10258A008F828E83121D93FD744D254CF8A605EF9C
:10259A001F70011EBEFFD9BFFFD6E4FEFFC3EF9531
:1025AA0042E5416480F8EE648098500D74192FF862
:1025BA00E4F60FBF00010E80E4E4FEFF744D2FF82D
:1025CA00E6FDB42E0E754700754801754900754A37
:1025DA0001803BED540F7C002431F582EC3400F588
:1025EA0083E0FDE54A64014549701DE548640145FB
:1025FA00477011ED4402FD74182FF8A605E4F5475B
:10260A00F548800A7418800274192FF8A6050FBFBE
:0F261A0000010EEF64034E70A37B007A00791964
:01262900228E
:10229600754200754305853C44853D457F007E00BB
:0422A6007D007C003B
:0822AA008F418E408D3F8C3EF8
:1022B200E4F554F555F556F557F558F559E5454504
:1022C200447013755FFF75602F7561CA8F658E64E8
:1022D2008D638C62805BE545640145447017755FD0
:1022E200FF75602F7561D0854165854064853F63C8
:1022F200853E62803CE545640245447017755FFF88
:1023020075602F7561D6854165854064853F63851B
:102312003E62801DE54564034544701D755FFF758F
:10232200602F7561DC854165854064853F63853E2C
:1023320062FB7A007946121E83E4F55AF55B7B0054
:102342007A007946122FE2C3E55B9FE55A9E501C44
:102352007446255BF8E6642E60120555E555700259
:102362000554055BE55B70D6055A80D2E5552545D7
:10237200FFE5543544FED3EF9543E5426480F8EE21
:1023820064809840077B017A007914227B007A00EE
:102392007946122FE2EF24FFF55BEE34FFF55AD3B4
:1023A200E55B94FFE55A6480947F40317B007A00BC
:1023B2007946122FE2EF24FFFFEE34FFFEC3EF95C2
:1023C2005BFFEE955AFE7446255BF8E6FD744D2FD1
:1023D200F8A605E55B155B70C6155A80C27B007ACC
:1023E200007946122FE2744D2FF8E4F6F55AF55BA8
:1023F200C3E55B9543E5426480F8E55A64809850F2
:10240200117419255BF8E4F6055BE55B70E2055A89
:1024120080DEE4F55AF55B7B007A00794D122FE2FB
:10242200C3E55B9FE55A9E505E744D255BF8E6FF5F
:10243200B42E0E75560075570175580075590180F6
:102442003CEF540F7E002431F582EE3400F583E038
:10245200FFE55964014558701DE557640145567002
:10246200114307027418255BF8A607E4F556F557E1
:10247200800B741880027419255BF8A607055BE5CA
:0D2482005B7094055A80907B007A007919F8
:01248F00222A
:102A1D0012301E122FB2E4FF122F1F7F0A7E0012FA
:102A2D002F757B017A00791A122B727B017A00794E
:102A3D001A122C027B017A00791A122ACB7B017AA9
:102A4D0000792C122B72122D1E7B017A0079401207
:102A5D002ACB122D1E7B017A00791A122ACB7B010B
:102A6D007A00791A122B727B017A00791A122C02D4
:102A7D00122D1E7B017A007900120003122D1E7B90
:102A8D00017A007920120E3B122D1E7B017A0079FE
:102A9D001A122ACB7B017A00791A122B727B017ADA
:102AAD0000791A122C02122D1E7B017A0079271241
:0E2ABD002B727B017A00793B122C02022D1E37
:102F1F008F3ED2A07F017E00122F75D2A1E53E70A9
:102F2F0007122F957F808010122F957F44122E4FFE
:0F2F3F00122FF7122F957F8F122E4F122FF7227E
:102F9500D2A0D2A17F017E00122F75C2A07F017E33
:0D2FA50000122F75C2A17F017E00022F7562
:0D2E4200900001AB3EAA3FA940121D93FF76
:102E4F008F42C2A0C2A1E4F541C3E541940874804A
:102E5F0094805027C2A17F017E00122F75E542306A
:102E6F00E004D2A08002C2A07F017E00122F75D293
:0F2E7F00A1E542C313F542054180CEC2A1C2A016
:012E8E002221
:102FF700C2A0D2A17F017E00122F75D2A07F017ED1
:0430070000022F751F
:062E8F008B788A79897A34
:102E9500122F957F44122E4F122FF7122F957FCDAB
:102EA500122E4FE4F57BC3E57B940174809480502A
:102EB50013AB78AA79A97A857B82758300122E4B8C
:102EC500057B80E2122FF7122F957F8B122E4F0272
:022ED5002FF7D5
:102B72008B3E8A3F8940122F957F44122E4F122F8F
:102B8200F7122F957FC5122E4FAB3EAA3FA94012D6
:102B92001D7AFF122E4F122FF7122F957FC8122E79
:102BA2004FAB3EAA3FA940900001122E4B122FF7C5
:102BB200122F957FC7122E4FAB3EAA3FA94090001D
:102BC20002122E4B122FF7122F957FCA122E4FABE5
:102BD2003EAA3FA940900003122E4B122FF7122F4C
:102BE200957FC9122E4FAB3EAA3FA9409000041216
:102BF2002E4B122FF7122F957F8B122E4F022FF78B
:102C02008B3E8A3F8940122F957F44122E4F122FFE
:102C1200F7122F957FCB122E4FAB3EAA3FA940123F
:102C22001D7AFF122E4F122FF7122F957FC1122EEF
:102C32004FAB3EAA3FA940900001122E4B122FF734
:102C4200122F957FC4122E4FAB3EAA3FA94090008F
:102C520002122E4B122FF7122F957FC3122E4FAB5B
:102C62003EAA3FA940900003122E4B122FF7122FBB
:102C7200957FC6122E4FAB3EAA3FA9409000041288
:102C82002E4B122FF7122F957F8B122E4F022FF7FA
:100003008B3E8A3F8940122F957F44122E4F122F29
:10001300F7122F957FCB122E4FAB3EAA3FA940126A
:100023001D7AFF122E4F122FF77F647E00122F7559
:10003300122F957FCB122E4F122E42122FF7122F13
:10004300957FC1122E4FAB3EAA3FA940121D7AFFE6
:10005300122E4F122FF77F647E00122F75122F95E9
:100063007FCB122E4F900002122E45122FF7122F24
:10007300957FC1122E4F122E42122FF7122F957F0A
:10008300C4122E4FAB3EAA3FA940121D7AFF122E77
:100093004F122FF77F647E00122F75122F957FCB9F
:1000A300122E4FAB3EAA3FA940900003122E4B12D3
:1000B3002FF7122F957FC1122E4FAB3EAA3FA940B7
:1000C300900002122E4B122FF7122F957FC4122E7F
:1000D3004F122E42122FF7122F957FC3122E4FABC2
:1000E3003EAA3FA940121D7AFF122E4F122FF77F0F
:1000F300647E00122F75122F957FCB122E4FAB3ECD
:10010300AA3FA940900004122E4B122FF7122F95ED
:100113007FC1122E4FAB3EAA3FA940900003122E7F
:100123004B122FF7122F957FC4122E4FAB3EAA3FCF
:10013300A940900002122E4B122FF7122F957FC366
:10014300122E4F122E42122FF7122F957FC6122E08
:100153004FAB3EAA3FA940121D7AFF122E4F122F1A
:10016300F77F647E00122F75122F957FCB122E4FCF
:10017300AB3EAA3FA940900005122E4B122FF71257
:100183002F957FC1122E4FAB3EAA3FA9409000048A
:10019300122E4B122FF7122F957FC4122E4FAB3E08
:1001A300AA3FA940900003122E4B122FF7122F954E
:1001B3007FC3122E4FAB3EAA3FA940900002122EDE
:1001C3004B122FF7122F957FC6122E4F122E42126B
:1001D3002FF7122F957FC5122E4FAB3EAA3FA94092
:1001E300121D7AFF122E4F122FF77F647E00122FFB
:1001F30075122F957FCB122E4FAB3EAA3FA940908D
:100203000006122E4B122FF7122F957FC1122E4F7D
:10021300AB3EAA3FA940900005122E4B122FF712B6
:100223002F957FC4122E4FAB3EAA3FA940900004E6
:10023300122E4B122FF7122F957FC3122E4FAB3E68
:10024300AA3FA940900003122E4B122FF7122F95AD
:100253007FC6122E4FAB3EAA3FA940900002122E3A
:100263004B122FF7122F957FC5122E4F122E4212CB
:100273002FF7122F957FC8122E4FAB3EAA3FA940EE
:10028300121D7AFF122E4F122FF77F647E00122F5A
:1002930075122F957FCB122E4FAB3EAA3FA94090EC
:1002A3000007122E4B122FF7122F957FC1122E4FDC
:1002B300AB3EAA3FA940900006122E4B122FF71215
:1002C3002F957FC4122E4FAB3EAA3FA94090000545
:1002D300122E4B122FF7122F957FC3122E4FAB3EC8
:1002E300AA3FA940900004122E4B122FF7122F950C
:1002F3007FC6122E4FAB3EAA3FA940900003122E99
:100303004B122FF7122F957FC5122E4FAB3EAA3FEC
:10031300A940900002122E4B122FF7122F957FC87F
:10032300122E4F122E42122FF7122F957FC7122E25
:100333004FAB3EAA3FA940121D7AFF122E4F122F38
:10034300F77F647E00122F75122F957FCB122E4FED
:10035300AB3EAA3FA940900008122E4B122FF71272
:100363002F957FC1122E4FAB3EAA3FA940900007A5
:10037300122E4B122FF7122F957FC4122E4FAB3E26
:10038300AA3FA940900006122E4B122FF7122F9569
:100393007FC3122E4FAB3EAA3FA940900005122EF9
:1003A3004B122FF7122F957FC6122E4FAB3EAA3F4B
:1003B300A940900004122E4B122FF7122F957FC5E0
:1003C300122E4FAB3EAA3FA940900003122E4B12B0
:1003D3002FF7122F957FC8122E4FAB3EAA3FA9408D
:1003E300900002122E4B122FF7122F957FC7122E59
:1003F3004F122E42122FF7122F957FCA122E4FAB98
:100403003EAA3FA940121D7AFF122E4F122FF77FEB
:10041300647E00122F75122F957FCB122E4FAB3EA9
:10042300AA3FA940900009122E4B122FF7122F95C5
:100433007FC1122E4FAB3EAA3FA940900008122E57
:100443004B122FF7122F957FC4122E4FAB3EAA3FAC
:10045300A940900007122E4B122FF7122F957FC33E
:10046300122E4FAB3EAA3FA940900006122E4B120C
:100473002FF7122F957FC6122E4FAB3EAA3FA940EE
:10048300900005122E4B122FF7122F957FC5122EB7
:100493004FAB3EAA3FA940900004122E4B122FF7F8
:1004A300122F957FC8122E4FAB3EAA3FA940900052
:1004B30003122E4B122FF7122F957FC7122E4FAB1D
:1004C3003EAA3FA940900002122E4B122FF7122F83
:1004D300957FCA122E4F122E42122FF7122F957F9D
:1004E300C9122E4FAB3EAA3FA940121D7AFF122E0E
:1004F3004F122FF77F647E00122F75122F957FCB3B
:10050300122E4FAB3EAA3FA94090000A122E4B1267
:100513002FF7122F957FC1122E4FAB3EAA3FA94052
:10052300900009122E4B122FF7122F957FC4122E13
:100533004FAB3EAA3FA940900008122E4B122FF753
:10054300122F957FC3122E4FAB3EAA3FA9409000B6
:1005530007122E4B122FF7122F957FC6122E4FAB79
:100563003EAA3FA940900006122E4B122FF7122FDE
:10057300957FC5122E4FAB3EAA3FA94090000512AE
:100583002E4B122FF7122F957FC8122E4FAB3EAA78
:100593003FA940900004122E4B122FF7122F957F84
:1005A300C7122E4FAB3EAA3FA940900003122E4B19
:1005B300122FF7122F957FCA122E4FAB3EAA3FA9D7
:1005C30040900002122E4B122FF7122F957FC91263
:1005D3002E4F122E42122FF77F647E00122F7512B8
:1005E3002F957FCB122E4FAB3EAA3FA94090000B15
:1005F300122E4B122FF7122F957FC1122E4FAB3EA7
:10060300AA3FA94090000A122E4B122FF7122F95E2
:100613007FC4122E4FAB3EAA3FA940900009122E71
:100623004B122FF7122F957FC3122E4FAB3EAA3FCB
:10063300A940900008122E4B122FF7122F957FC658
:10064300122E4FAB3EAA3FA940900007122E4B1229
:100653002FF7122F957FC5122E4FAB3EAA3FA9400D
:10066300900006122E4B122FF7122F957FC8122ED1
:100673004FAB3EAA3FA940900005122E4B122FF715
:10068300122F957FC7122E4FAB3EAA3FA940900071
:1006930004122E4B122FF7122F957FCA122E4FAB37
:1006A3003EAA3FA940900003122E4B122FF7122FA0
:1006B300957FC9122E4FAB3EAA3FA940900002126C
:1006C3002E4B122FF77F647E00122F75122F957F0A
:1006D300CB122E4FAB3EAA3FA94090000C122E4BDB
:1006E300122FF7122F957FC1122E4FAB3EAA3FA9AF
:1006F3004090000B122E4B122FF7122F957FC4122E
:100703002E4FAB3EAA3FA94090000A122E4B122F48
:10071300F7122F957FC3122E4FAB3EAA3FA94090ED
:100723000009122E4B122FF7122F957FC6122E4F50
:10073300AB3EAA3FA940900008122E4B122FF7128E
:100743002F957FC5122E4FAB3EAA3FA940900007BD
:10075300122E4B122FF7122F957FC8122E4FAB3E3E
:10076300AA3FA940900006122E4B122FF7122F9585
:100773007FC7122E4FAB3EAA3FA940900005122E11
:100783004B122FF7122F957FCA122E4FAB3EAA3F63
:10079300A940900004122E4B122FF7122F957FC9F8
:1007A300122E4FAB3EAA3FA940900003122E4B12CC
:1007B3002FF77F647E00122F75122F957FCB122E99
:1007C3004FAB3EAA3FA94090000D122E4B122FF7BC
:1007D300122F957FC1122E4FAB3EAA3FA940900026
:1007E3000C122E4B122FF7122F957FC4122E4FABE4
:1007F3003EAA3FA94090000B122E4B122FF7122F47
:10080300957FC3122E4FAB3EAA3FA94090000A1218
:100813002E4B122FF7122F957FC6122E4FAB3EAAE7
:100823003FA940900009122E4B122FF7122F957FEC
:10083300C5122E4FAB3EAA3FA940900008122E4B83
:10084300122FF7122F957FC8122E4FAB3EAA3FA946
:1008530040900007122E4B122FF7122F957FC712CD
:100863002E4FAB3EAA3FA940900006122E4B122FEB
:10087300F7122F957FCA122E4FAB3EAA3FA9409085
:100883000005122E4B122FF7122F957FC9122E4FF0
:10089300AB3EAA3FA940900004122E4B122FF77FC4
:1008A300647E00122F75122F957FCB122E4FAB3E15
:1008B300AA3FA94090000E122E4B122FF7122F952C
:1008C3007FC1122E4FAB3EAA3FA94090000D122EBE
:1008D3004B122FF7122F957FC4122E4FAB3EAA3F18
:1008E300A94090000C122E4B122FF7122F957FC3A5
:1008F300122E4FAB3EAA3FA94090000B122E4B1273
:100903002FF7122F957FC6122E4FAB3EAA3FA94059
:1009130090000A122E4B122FF7122F957FC5122E1D
:100923004FAB3EAA3FA940900009122E4B122FF75E
:10093300122F957FC8122E4FAB3EAA3FA9409000BD
:1009430008122E4B122FF7122F957FC7122E4FAB83
:100953003EAA3FA940900007122E4B122FF7122FE9
:10096300957FCA122E4FAB3EAA3FA94090000612B4
:100973002E4B122FF7122F957FC9122E4FAB3EAA83
:100983003FA940900005122E4B122FF77F647E0083
:10099300122F75122F957FCB122E4FAB3EAA3FA974
:1009A3004090000F122E4B122FF7122F957FC1127A
:1009B3002E4FAB3EAA3FA94090000E122E4B122F92
:1009C300F7122F957FC4122E4FAB3EAA3FA940903A
:1009D300000D122E4B122FF7122F957FC3122E4F9D
:1009E300AB3EAA3FA94090000C122E4B122FF712D8
:1009F3002F957FC6122E4FAB3EAA3FA94090000B06
:100A0300122E4B122FF7122F957FC5122E4FAB3E8E
:100A1300AA3FA94090000A122E4B122FF7122F95CE
:100A23007FC8122E4FAB3EAA3FA940900009122E59
:100A33004B122FF7122F957FC7122E4FAB3EAA3FB3
:100A4300A940900008122E4B122FF7122F957FCA40
:100A5300122E4FAB3EAA3FA940900007122E4B1215
:100A63002FF7122F957FC9122E4FAB3EAA3FA940F5
:100A7300900006122E4B122FF77F647E00122F7503
:100A8300122F957FCB122E4FAB3EAA3FA940900069
:100A930010122E4B122FF7122F957FC1122E4FAB30
:100AA3003EAA3FA94090000F122E4B122FF7122F90
:100AB300957FC4122E4FAB3EAA3FA94090000E1261
:100AC3002E4B122FF7122F957FC3122E4FAB3EAA38
:100AD3003FA94090000D122E4B122FF7122F957F36
:100AE300C6122E4FAB3EAA3FA94090000C122E4BCC
:100AF300122FF7122F957FC5122E4FAB3EAA3FA997
:100B03004090000B122E4B122FF7122F957FC81215
:100B13002E4FAB3EAA3FA94090000A122E4B122F34
:100B2300F7122F957FC7122E4FAB3EAA3FA94090D5
:100B33000009122E4B122FF7122F957FCA122E4F38
:100B4300AB3EAA3FA940900008122E4B122FF7127A
:100B53002F957FC9122E4FAB3EAA3FA940900007A5
:100B6300122E4B122FF77F647E00122F75122F95D2
:100B73007FCB122E4FAB3EAA3FA940900011122EFD
:100B83004B122FF7122F957FC1122E4FAB3EAA3F68
:100B9300A940900010122E4B122FF7122F957FC4ED
:100BA300122E4FAB3EAA3FA94090000F122E4B12BC
:100BB3002FF7122F957FC3122E4FAB3EAA3FA940AA
:100BC30090000E122E4B122FF7122F957FC6122E66
:100BD3004FAB3EAA3FA94090000D122E4B122FF7A8
:100BE300122F957FC5122E4FAB3EAA3FA94090000E
:100BF3000C122E4B122FF7122F957FC8122E4FABCC
:100C03003EAA3FA94090000B122E4B122FF7122F32
:100C1300957FC7122E4FAB3EAA3FA94090000A1200
:100C23002E4B122FF7122F957FCA122E4FAB3EAACF
:100C33003FA940900009122E4B122FF7122F957FD8
:100C4300C9122E4FAB3EAA3FA940900008122E4B6B
:100C5300122FF77F647E00122F75122F957FCB1210
:100C63002E4FAB3EAA3FA940900012122E4B122FDB
:100C7300F7122F957FC1122E4FAB3EAA3FA940908A
:100C83000011122E4B122FF7122F957FC4122E4FE5
:100C9300AB3EAA3FA940900010122E4B122FF71221
:100CA3002F957FC3122E4FAB3EAA3FA94090000F52
:100CB300122E4B122FF7122F957FC6122E4FAB3EDB
:100CC300AA3FA94090000E122E4B122FF7122F9518
:100CD3007FC5122E4FAB3EAA3FA94090000D122EA6
:100CE3004B122FF7122F957FC8122E4FAB3EAA3F00
:100CF300A94090000C122E4B122FF7122F957FC78D
:100D0300122E4FAB3EAA3FA94090000B122E4B125E
:100D13002FF7122F957FCA122E4FAB3EAA3FA94041
:100D230090000A122E4B122FF7122F957FC9122E05
:100D33004FAB3EAA3FA940900009122E4B122FF74A
:100D43007F647E00122F75122F957FCB122E4FAB2F
:100D53003EAA3FA940900013122E4B122FF7122FD9
:100D6300957FC1122E4FAB3EAA3FA94090001212AD
:100D73002E4B122FF7122F957FC4122E4FAB3EAA84
:100D83003FA940900011122E4B122FF7122F957F7F
:100D9300C3122E4FAB3EAA3FA940900010122E4B18
:100DA300122FF7122F957FC6122E4FAB3EAA3FA9E3
:100DB3004090000F122E4B122FF7122F957FC51262
:100DC3002E4FAB3EAA3FA94090000E122E4B122F7E
:100DD300F7122F957FC8122E4FAB3EAA3FA9409022
:100DE300000D122E4B122FF7122F957FC7122E4F85
:100DF300AB3EAA3FA94090000C122E4B122FF712C4
:100E03002F957FCA122E4FAB3EAA3FA94090000BED
:100E1300122E4B122FF7122F957FC9122E4FAB3E76
:100E2300AA3FA94090000A122E4B122FF7122F95BA
:080E33007F8B122E4F022FF7F6
:100E3B008B3E8A3F8940122F957F44122E4F122FE3
:100E4B00F7122F957FC2122E4FAB3EAA3FA940122D
:100E5B001D7AFF122E4F122FF7122F957FC0122ED5
:100E6B004FAB3EAA3FA940121D7AFF122E4F122FF5
:100E7B00F7122F957FCC122E4FAB3EAA3FA94012F3
:100E8B001D7AFF122E4F122FF7122F957FCE122E97
:100E9B004FAB3EAA3FA940121D7AFF122E4F122FC5
:100EAB00F7122F957FCF122E4FAB3EAA3FA94012C0
:100EBB001D7AFF122E4F122FF7122F957FCD122E68
:100ECB004FAB3EAA3FA940121D7AFF122E4F122F95
:100EDB00F7122F957FCB122E4FAB3EAA3FA9401294
:100EEB001D7AFF122E4F122FF7122F957FC1122E44
:100EFB004FAB3EAA3FA940121D7AFF122E4F122F65
:100F0B00F7122F957FC4122E4FAB3EAA3FA940126A
:100F1B001D7AFF122E4F122FF7122F957FC3122E11
:100F2B004FAB3EAA3FA940121D7AFF122E4F122F34
:100F3B00F7122F957FC6122E4FAB3EAA3FA9401238
:100F4B001D7AFF122E4F122FF7122F957FC5122EDF
:100F5B004FAB3EAA3FA940121D7AFF122E4F122F04
:100F6B00F7122F957FC8122E4FAB3EAA3FA9401206
:100F7B001D7AFF122E4F122FF7122F957FC7122EAD
:100F8B004FAB3EAA3FA940121D7AFF122E4F122FD4
:100F9B00F7122F957FCA122E4FAB3EAA3FA94012D4
:100FAB001D7AFF122E4F122FF7122F957FC9122E7B
:100FBB004FAB3EAA3FA940121D7AFF122E4F122FA4
:100FCB00F77FF47E01122F75122F957FC2122E4FD1
:100FDB00AB3EAA3FA940900001122E4B122FF712E5
:100FEB002F957FC0122E4FAB3EAA3FA94090000118
:100FFB00122E4B122FF7122F957FCC122E4FAB3E8A
:10100B00AA3FA940900001122E4B122FF7122F95D9
:10101B007FCE122E4FAB3EAA3FA940900001122E5D
:10102B004B122FF7122F957FCF122E4FAB3EAA3FAD
:10103B00A940900001122E4B122FF7122F957FCD46
:10104B00122E4FAB3EAA3FA940900001122E4B121D
:10105B002FF7122F957FCB122E4FAB3EAA3FA940F5
:10106B00900001122E4B122FF7122F957FC1122ECB
:10107B004FAB3EAA3FA940900001122E4B122FF707
:10108B00122F957FC4122E4FAB3EAA3FA940900062
:10109B0001122E4B122FF7122F957FC3122E4FAB2F
:1010AB003EAA3FA940900001122E4B122FF7122F90
:1010BB00957FC6122E4FAB3EAA3FA940900001125E
:1010CB002E4B122FF7122F957FC5122E4FAB3EAA28
:1010DB003FA940900001122E4B122FF7122F957F34
:1010EB00C8122E4FAB3EAA3FA940900001122E4BC7
:1010FB00122FF7122F957FC7122E4FAB3EAA3FA987
:10110B0040900001122E4B122FF7122F957FCA120F
:10111B002E4FAB3EAA3FA940900001122E4B122F2F
:10112B00F7122F957FC9122E4FAB3EAA3FA94090C5
:10113B000001122E4B122FF77FF47E01122F751226
:10114B002F957FC2122E4FAB3EAA3FA940900002B3
:10115B00122E4B122FF7122F957FC0122E4FAB3E34
:10116B00AA3FA940900002122E4B122FF7122F9577
:10117B007FCC122E4FAB3EAA3FA940900002122EFD
:10118B004B122FF7122F957FCE122E4FAB3EAA3F4D
:10119B00A940900002122E4B122FF7122F957FCFE2
:1011AB00122E4FAB3EAA3FA940900002122E4B12BB
:1011BB002FF7122F957FCD122E4FAB3EAA3FA94092
:1011CB00900002122E4B122FF7122F957FCB122E5F
:1011DB004FAB3EAA3FA940900002122E4B122FF7A5
:1011EB00122F957FC1122E4FAB3EAA3FA940900004
:1011FB0002122E4B122FF7122F957FC4122E4FABCC
:10120B003EAA3FA940900002122E4B122FF7122F2D
:10121B00957FC3122E4FAB3EAA3FA94090000212FE
:10122B002E4B122FF7122F957FC6122E4FAB3EAAC5
:10123B003FA940900002122E4B122FF7122F957FD1
:10124B00C5122E4FAB3EAA3FA940900002122E4B67
:10125B00122FF7122F957FC8122E4FAB3EAA3FA924
:10126B0040900002122E4B122FF7122F957FC712B0
:10127B002E4FAB3EAA3FA940900002122E4B122FCD
:10128B00F7122F957FCA122E4FAB3EAA3FA9409063
:10129B000002122E4B122FF7122F957FC9122E4FD1
:1012AB00AB3EAA3FA940900002122E4B122FF77FA4
:1012BB00F47E01122F75122F957FC2122E4FAB3E6B
:1012CB00AA3FA940900003122E4B122FF7122F9515
:1012DB007FC0122E4FAB3EAA3FA940900003122EA7
:1012EB004B122FF7122F957FCC122E4FAB3EAA3FEE
:1012FB00A940900003122E4B122FF7122F957FCE81
:10130B00122E4FAB3EAA3FA940900003122E4B1258
:10131B002FF7122F957FCF122E4FAB3EAA3FA9402E
:10132B00900003122E4B122FF7122F957FCD122EFA
:10133B004FAB3EAA3FA940900003122E4B122FF742
:10134B00122F957FCB122E4FAB3EAA3FA940900098
:10135B0003122E4B122FF7122F957FC1122E4FAB6C
:10136B003EAA3FA940900003122E4B122FF7122FCB
:10137B00957FC4122E4FAB3EAA3FA940900003129B
:10138B002E4B122FF7122F957FC3122E4FAB3EAA67
:10139B003FA940900003122E4B122FF7122F957F6F
:1013AB00C6122E4FAB3EAA3FA940900003122E4B04
:1013BB00122FF7122F957FC5122E4FAB3EAA3FA9C6
:1013CB0040900003122E4B122FF7122F957FC8124D
:1013DB002E4FAB3EAA3FA940900003122E4B122F6B
:1013EB00F7122F957FC7122E4FAB3EAA3FA9409005
:1013FB000003122E4B122FF7122F957FCA122E4F6E
:10140B00AB3EAA3FA940900003122E4B122FF712AE
:10141B002F957FC9122E4FAB3EAA3FA940900003D8
:10142B00122E4B122FF77FF47E01122F75122F9570
:10143B007FC2122E4FAB3EAA3FA940900004122E42
:10144B004B122FF7122F957FC0122E4FAB3EAA3F98
:10145B00A940900004122E4B122FF7122F957FCC20
:10146B00122E4FAB3EAA3FA940900004122E4B12F6
:10147B002FF7122F957FCE122E4FAB3EAA3FA940CE
:10148B00900004122E4B122FF7122F957FCF122E96
:10149B004FAB3EAA3FA940900004122E4B122FF7E0
:1014AB00122F957FCD122E4FAB3EAA3FA940900035
:1014BB0004122E4B122FF7122F957FCB122E4FAB00
:1014CB003EAA3FA940900004122E4B122FF7122F69
:1014DB00957FC1122E4FAB3EAA3FA940900004123C
:1014EB002E4B122FF7122F957FC4122E4FAB3EAA05
:1014FB003FA940900004122E4B122FF7122F957F0D
:10150B00C3122E4FAB3EAA3FA940900004122E4BA4
:10151B00122FF7122F957FC6122E4FAB3EAA3FA963
:10152B0040900004122E4B122FF7122F957FC512ED
:10153B002E4FAB3EAA3FA940900004122E4B122F08
:10154B00F7122F957FC8122E4FAB3EAA3FA94090A2
:10155B000004122E4B122FF7122F957FC7122E4F0E
:10156B00AB3EAA3FA940900004122E4B122FF7124C
:10157B002F957FCA122E4FAB3EAA3FA94090000475
:10158B00122E4B122FF7122F957FC9122E4FAB3EF7
:10159B00AA3FA940900004122E4B122FF77FF47E26
:1015AB0001122F75122F957FC2122E4FAB3EAA3F01
:1015BB00A940900005122E4B122FF7122F957FC0CA
:1015CB00122E4FAB3EAA3FA940900005122E4B1294
:1015DB002FF7122F957FCC122E4FAB3EAA3FA9406F
:1015EB00900005122E4B122FF7122F957FCE122E35
:1015FB004FAB3EAA3FA940900005122E4B122FF77E
:10160B00122F957FCF122E4FAB3EAA3FA9409000D1
:10161B0005122E4B122FF7122F957FCD122E4FAB9B
:10162B003EAA3FA940900005122E4B122FF7122F06
:10163B00957FCB122E4FAB3EAA3FA94090000512CF
:10164B002E4B122FF7122F957FC1122E4FAB3EAAA6
:10165B003FA940900005122E4B122FF7122F957FAA
:10166B00C4122E4FAB3EAA3FA940900005122E4B41
:10167B00122FF7122F957FC3122E4FAB3EAA3FA905
:10168B0040900005122E4B122FF7122F957FC6128A
:10169B002E4FAB3EAA3FA940900005122E4B122FA6
:1016AB00F7122F957FC5122E4FAB3EAA3FA9409044
:1016BB000005122E4B122FF7122F957FC8122E4FAB
:1016CB00AB3EAA3FA940900005122E4B122FF712EA
:1016DB002F957FC7122E4FAB3EAA3FA94090000516
:1016EB00122E4B122FF7122F957FCA122E4FAB3E95
:1016FB00AA3FA940900005122E4B122FF7122F95DF
:10170B007FC9122E4FAB3EAA3FA940900005122E67
:10171B004B122FF77FF47E01122F75122F957FC27C
:10172B00122E4FAB3EAA3FA940900006122E4B1231
:10173B002FF7122F957FC0122E4FAB3EAA3FA94019
:10174B00900006122E4B122FF7122F957FCC122ED4
:10175B004FAB3EAA3FA940900006122E4B122FF71B
:10176B00122F957FCE122E4FAB3EAA3FA940900071
:10177B0006122E4B122FF7122F957FCF122E4FAB37
:10178B003EAA3FA940900006122E4B122FF7122FA4
:10179B00957FCD122E4FAB3EAA3FA940900006126B
:1017AB002E4B122FF7122F957FCB122E4FAB3EAA3B
:1017BB003FA940900006122E4B122FF7122F957F48
:1017CB00C1122E4FAB3EAA3FA940900006122E4BE2
:1017DB00122FF7122F957FC4122E4FAB3EAA3FA9A3
:1017EB0040900006122E4B122FF7122F957FC3122B
:1017FB002E4FAB3EAA3FA940900006122E4B122F44
:10180B00F7122F957FC6122E4FAB3EAA3FA94090E1
:10181B000006122E4B122FF7122F957FC5122E4F4B
:10182B00AB3EAA3FA940900006122E4B122FF71287
:10183B002F957FC8122E4FAB3EAA3FA940900006B2
:10184B00122E4B122FF7122F957FC7122E4FAB3E36
:10185B00AA3FA940900006122E4B122FF7122F957C
:10186B007FCA122E4FAB3EAA3FA940900006122E04
:10187B004B122FF7122F957FC9122E4FAB3EAA3F5B
:10188B00A940900006122E4B122FF7122F957F8B2B
:06189B00122E4F022FF790
:102ACB008B3E8A3F8940122F957F44122E4F122F37
:102ADB00F7122F957FC2122E4FAB3EAA3FA9401281
:102AEB001D7AFF122E4F122FF7122F957FC0122E29
:102AFB004FAB3EAA3FA940900001122E4B122FF76D
:102B0B00122F957FCC122E4FAB3EAA3FA9409000BF
:102B1B0002122E4B122FF7122F957FCE122E4FAB88
:102B2B003EAA3FA940900003122E4B122FF7122FF3
:102B3B00957FCF122E4FAB3EAA3FA94090000412B7
:102B4B002E4B122FF7122F957FCD122E4FAB3EAA85
:102B5B003FA940900005122E4B122FF7122F957F95
:072B6B008B122E4F022FF721
:0B301E00759503C2A0C2A1E4F5B42226
:102D1E00E4F541F540F53FF53EE47F32FEFDFCABB8
:102D2E0041AA40A93FA83EC3121DE0504CE4F54510
:102D3E00F544F543F542E47FE87E03FDFCAB45AA7E
:102D4E0044A943A842C3121DE05017E5452401F5DE
:102D5E0045E43544F544E43543F543E43542F54264
:102D6E0080D4E5412401F541E43540F540E4353F9A
:092D7E00F53FE4353EF53E80A06E
:012D87002229
:102F7500E4FDFCC3ED9FEC9E5015E4FBFA0BBB0092
:0F2F8500010ABA01F8BB4DF50DBD00010C80E447
:012F9400221A
:06284A008B088A09890ACF
:10285000E4F50EF50DF50CF50BF512F5117510807C
:10286000750F3F121D7AB42D167401250AF50AE47E
:102870003509F509E4F512F511751080750FBFE4FF
:10288000F513F514AB08AA09A90A121D7AFF700303
:10289000022924B42E087513007514018078EF33D3
:1028A00095E0FEEF24D0F516EE34FFF515C36480F5
:1028B00094804062D3E5169409E5156480948050B5
:1028C00055E5144513601AAF12AE11AD10AC0FE40C
:1028D000FBFA79207841121AA28F128E118D108C7A
:1028E0000FAC15AD16EC121B44C004C005C006C0E9
:1028F00007E4FFFE7D207C41AB0EAA0DA90CA80BBE
:10290000121999D003D002D001D0001218A88F0E4E
:102910008E0D8D0C8C0B7401250AF50AE43509F532
:1029200009022884AF12AE11AD10AC0FAB0EAA0D88
:07293000A90CA80B02199984
:10262A007F41E4FEEEFDC39405748094804003026A
:10263A002751ED7032D290C291C292C293C29430A5
:10264A0095052095FD7F013096052096FD7F023085
:10265A00A20520A2FD7F0330A40520A4FD7F173028
:10266A00A60520A6FD7F04EE64017032C290D291C5
:10267A00C292C293C2943095052095FD7F0430968C
:10268A00052096FD7F0530A20520A2FD7F0630A415
:10269A000520A4FD7F1530A60520A6FD7F16EE6451
:1026AA00027032C290C291D292C293C294309505FE
:1026BA002095FD7F073096052096FD7F0830A205FC
:1026CA0020A2FD7F0930A40520A4FD7F1330A605B2
:1026DA0020A6FD7F14EE64037032C290C291C292AA
:1026EA00D293C2943095052095FDE4FF30960520DB
:1026FA0096FD7F0A30A20520A2FD7F0B30A405209B
:10270A00A4FD7F1130A60520A6FD7F12EE64047099
:10271A0032C290C291C292C293D29430950520954A
:10272A00FD7F0F3096052096FD7F0E30A20520A270
:10273A00FD7F1030A40520A4FD7F0C30A60520A63D
:07274A00FD7F0D0E02262E9B
:012751002265
:093029007F337E337D237C4022BD
:1018A100021BB2E86480F8E933E83360110460F0A8
:1018B100ED33EC337009E8FCE9FDEAFEEBFF2204AD
:1018C10060DED3EB9FEA9EE99DE8C2E78CF0C2F7A8
:1018D10095F0400CE8CCF8E9CDF9EACEFAEBCFFB74
:1018E100121B7D85D0F05804700320D5B3E8047035
:1018F100075002B2D5021BBC92D5EC0460F7E4CCD0
:10190100C0E0C398F8603B94186008400DD0E0FB3C
:10191100021B94E4FBFAC9FC8028E830E406E4C920
:10192100FBE4CAFCE830E305E4C9CACBFCE8540790
:101931006010F8C3E913F9EA13FAEB13FBEC13FC9B
:10194100D8F130F52FC3E49CFCEF9BFFEE9AFEED3E
:1019510099FDD0E0FBEF4E4D4C701222DB03021BD0
:10196100B9EC2CFCEF33FFEE33FEED33FDED30E748
:10197100EB021B94EF2BFFEE3AFEED39FDD0E0FBBD
:1019810050130BBB0003021BBCED13FDEE13FEEF66
:0819910013FFEC13FC021B9490
:10199900EC4D6011E8497017ED33EC3304600DE448
:1019A900FCFFFEFD22E933E8330470F8021BB21292
:1019B9001B7D58046009E4CC248150062850090293
:1019C9001BBC284003021BB9C0E0EB4A7044B98034
:1019D90006D0E0FB021BA8EF4E701CBD8008EBFF90
:1019E900EAFEE9FD80EBE98DF0A4FEE5F0021A823A
:1019F900E9CDF9EAFEEBFFEF89F0A4FCE5F0CE8929
:101A0900F0A42EFFE435F0CD89F0A42DFEE435F0E5
:101A19008067EF4E7005BD80D780C3EF8BF0A4AC13
:101A2900F0EE8BF0A42CFCE435F0F8EF8AF0A42C4E
:101A3900E5F038FCE433CB8DF0A42CFCE5F03BF861
:101A4900EE8AF0A42CFCE5F038F8E433CF89F0A451
:101A59002CFCE5F038CF3400CE89F0A42FFFE5F057
:101A69003EFEE433C98DF0A42EFEE5F039CD8AF0AF
:101A7900A42FFFE5F03EFEE43DFD33D0E0FB500727
:101A89000BBB000F021BBCEC2CFCEF33FFEE33FE4B
:061A9900ED33FD021B9479
:101A9F00021BBCEC5D046005E859047003021BB225
:101AAF00121B7D580460F6EC4860F2EC7004FDFEEA
:101ABF00FF22C860DB2481C85009C398600250061A
:101ACF00021BB99850CAF582E9294B4A7005AB82BF
:101ADF00021BA875F0007C1A7880C3EF9BEE9AED7D
:101AEF0099400DC3EF9BFFEE9AFEED99FDE842F092
:101AFF00DC23ACF0D0E0FFD0E0FED0E0FDAB8220E5
:101B0F00E7101BEB60BAEC2CFCEF33FFEE33FEED6E
:101B1F0033FD021B94E803F830E705C0F075F000C1
:101B2F00EF2FFFEE33FEED33FD40B830E7C280AA52
:101B3F0075F020800E75F010800575F0087D007E21
:101B4F00007F003392D530D503121DD2EC334010F5
:101B5F00EF33FFEE33FEED33FDEC33FCD5F0ED222A
:0E1B6F00E5F0247EA2D513CC92E7CDCEFF2266
:101E2700E573245FF8E6057322785C300702785F74
:101E3700E475F001121DF1021D7A2000EB7F2ED20E
:101E4700008018EF540F2490D43440D4FF30040B93
:101E5700EF24BFB41A0050032461FFE57460021534
:101E6700740577E5777002057630070D785CE475C1
:101E7700F001121DF1EF021DC0022F4E7403D207AD
:101E87008003E4C207F5738B5C8A5D895EE4F574B1
:101E9700F576F577E57460077F20121E6280F57589
:101EA70075FFC201C200C202C203C205C206C20850
:101EB700121E30FF700D3007057F00121E73AF77BB
:101EC700AE7622B4255FC2D5C204121E30FF24D0DD
:101ED700B40A00501A75F00A787430D50508B6FFB1
:101EE7000106C6A426F620D5047002D20380D924A1
:101EF700CFB41A00EF5004C2E5D204022160D20128
:101F070080C6D20080C0D20280BCD2D580BAD205AA
:101F170080B47F20121E622002077401B57400404E
:101F2700F1121E27FF121E62021E9BD208D20680E4
:101F370095121E27FB121E27FA121E27F94A4B700D
:101F47000679577A227BFF20022EE574602A7E00ED
:101F57008E82758300121D9360060EEE657570F014
:101F6700C2D5EBC0E0EAC0E0E9C0E0EE1221C0D084
:101F7700E0F9D0E0FAD0E0FB121D7AFF60AAEBC0CF
:101F8700E0EAC0E0E9C0E0121E62D0E02401F9D027
:101F9700E03400FAD0E0FBE5750460DCD575D98044
:101FA70087D20280A21221A360F7E575700104129F
:101FB7001BC7A975600DE575600914F57512224AEE
:101FC700EF60F3EA30E702F404C3995077EAF425A7
:101FD700750430E701E404F575800D1221A360C193
:101FE700EA05752575121BC7EA7872F630E701E432
:101FF700257504D57504200501141221C0E4C0E03D
:1020070012224A7872E6601320E70714F6121E4A76
:10201700802204F6D0E014C0E07F00121E4AE57566
:102027006007121E411575800B300503121E41D043
:10203700E0021E9BD0E00480C51221A360A0E575D5
:1020470004121BC77872EAF6E575200502600104E1
:0520570024041221C069
:10205C0074FF04C0E012224A121E4AE575200502E4
:10206C006003121E41D0E0B575E87F45121E54780E
:10207C0072E67F2B30E7047F2DF404C0E0121E6261
:10208C00D0E075F00A84C0F0121E4BD0E0121E4B4B
:10209C00021E9B791080027908C206C2088008D201
:1020AC00D5790A8004790AC2D5E575047002F575F4
:1020BC00E4FAFDFEFF121E27FC7B08200113121E02
:1020CC0027FD7B1030000A121E27FE121E27FF7BF5
:1020DC0020EC3382D592D55013C3E43000069FFF19
:1020EC00E49EFEE42001039DFDE49CFCE4CBF8C2DD
:1020FC0001EC700CCFCECDCCE824F8F870F380173F
:10210C00C3EF33FFEE33FEED33FDEC33FCEB33FB6F
:10211C00994002FB0FD8E9EB300105F8D0E0C44838
:10212C00B201C0E00AEC4D4E4F78207B0070C2EA41
:10213C00B5750040BCC0E01221C2D0F0D0E0200147
:10214C0004C4C0E0C4B201C0F0121E4BD0F0D5F0F4
:10215C00EB021E9B121E011F3853209F581F094C67
:10216C001F054220A34F20AB4420AB491F1E432028
:10217C00B1551FE2462040451FAC472277501F0D3A
:10218C002D1F112E1F342B1F15231F322022602AC6
:10219C001ECD4800001F2CE575B4FF0375750612A3
:1021AC001E27FC121E27FD121E27FE121E27FF786B
:1021BC006B021BF6790AA2D5200314300509B9105D
:1021CC00020404B9080104A2D5200602500104201F
:1021DC0002689202B574005034C0E07F20300319BD
:1021EC007F30A20272067205500F122219C202C26F
:1021FC0006C205C2087F30800F300503E9C0E0122B
:10220C001E62300503D0E0F9D0E0B574CC30051770
:10221C007F30B9100C121E627F583004077F788013
:10222C0003B90803121E623002057F2D021E627F65
:10223C00202008F87F2B2006F322920280CF7F000B
:10224C00B407005005246BF8E6FF22286E756C6C01
:10225C002900D201121E273001F8C201787430D542
:10226C000108F6021ECD2D50434958121E27240397
:10227C00B405004001E490227293121E53743A127A
:0A228C001E53D20375740402209F54
:102ED700D2008B548A558956122F13C0E0FF123047
:102EE7000BD0E040F312294A400122ECC0E0EDC0CC
:102EF700E0EEC0E0EFC0E0122F13D0F0AFF0D0F05B
:102F0700AEF0D0F0ADF0D0F0ACF080D9E475F001C0
:082F17007854121DF1021D7A2D
:101B7D00E9D2E7C933E833F892D5EDD2E7CD33ECAE
:071B8D0033FC5002B2D52227
:101B9400EC30E7100FBF000C0EBE00080DBD0004B2
:101BA4000BEB6014A2D5EB13FCED92E7FD2274FF5E
:101BB400FCFDFEFF22E480F8A2D574FF13FC7D80B7
:031BC400E480EFCB
:101BC700F920E72824F950037907E4F42402FB18E5
:101BD700DBFDE624FB5014E9600DE4F618E604F695
:0F1BE700B40A08E4F6D9F57401F60A22C2D52231
:101BF600ED33EC3392D5FA602AB4FF33EDC2E77BBE
:101C0600FF60067A1C791BE4227A1C792420D5040D
:101C16007A1C791F224E614E002B494E46002D49F3
:101C26004E4600E47A08F608DAFC7B00740722E8E0
:101C3600C0E0ECC0E0EDC0E0EEC0E0EFC0E0EA7569
:101C4600F010A4CAABF075F04DA42BFBE435F0FC04
:101C5600EA2410FAEB34C5FBEC34D9FCEDC2E7FFFD
:101C660075F056A4F42411C5F0F434C58FF0A42AF7
:101C7600E5F03BE43CF620E714121D3AD0E0FFD035
:101C8600E0FED0E0FDD0E0FC121AA28014F40412AB
:101C96001D3AD0E0FFD0E0FED0E0FDD0E0FC121906
:101CA60099D0E0F8E6FAEDD2E7CD33EC332482FBA7
:101CB600E4C3CF33CFCE33CECD33CD33DBF37B0787
:101CC60075F00A846004F6081B0AE5F0F6088FF042
:101CD600740AA4FFACF08EF0740AA42CFEACF0508B
:101CE600010C8DF0740AA42CFDE435F0F608DBDE59
:031CF6007407224E
:10293700C201C202C203C204F9E4F557F558FCFD0F
:10294700FEFFE91000EA20030CB42D04D203D322C2
:10295700B42B02D32224D0504794095041240A3083
:102967000415F88558F0740AA42872E74051C5F099
:10297700704D85F058D322D202C0E0E4FBFA7920EB
:102987007841121999ECF8EDF9EEFAEFFBD0E0FC7B
:10299700E4121B491218A83001B41557D322240A90
:1029A700200420B4FE0720011AD201D32224EB60B1
:1029B7000424E0700EA2039201D204C203D322C3FF
:1029C700021BB2E430040BE558300302F404A20101
:1029D70092033002EA255720D2E5A2E7920450027B
:1029E700F404B4260050D8CCC0E0EDC0E0EEC0E05F
:1029F700EFC0E0EC121D3AD0E0FFD0E0FED0E0FDE2
:102A0700D0E0FC2004051219998003121AA23003A2
:062A170003121CF9C322AA
:101CF900ED33EC33600A047003BD8004ECB2E7FCF9
:011D090022B7
:101D0A003F8000004120000042C80000447A0000E1
:101D1A00461C400047C35000497424004B18968063
:101D2A004CBEBC205A0E1BCA6753C21C749DC5AE5A
:101D3A00FB60065407601C2323121D68EB543860AD
:101D4A0009121D54121D63121999ECF8EDF9EEFAF5
:101D5A00EFCB22EB121D6380F1543803241C901D33
:101D6A000AFE93FC0EEE93FD0EEE930ECE93FF2227
:03000000022C923D
:0C2C9200787FE4F6D8FD75817B022CD918
:101D7A00BB010689828A83E0225002E722BBFE0267
:091D8A00E32289828A83E493229A
:101D9300BB010CE58229F582E5833AF583E0225005
:101DA30006E92582F8E622BBFE06E92582F8E2224F
:0D1DB300E58229F582E5833AF583E4932269
:101DC000BB010689828A83F0225002F722BBFE0102
:021DD000F322FC
:0E1DD200C3E49FFFE49EFEE49DFDE49CFC2222
:101DE000EB9FF5F0EA9E42F0E99D42F0E89C45F059
:011DF00022D0
:101DF100FAE6FB0808E6F925F0F618E6CA3AF622F3
:101E0100D083D082F8E4937012740193700DA3A370
:101E110093F8740193F5828883E473740293686084
:061E2100EFA3A3A380DF84
:102F4E00EFB40A07740D122F59740A309811A8990C
:102F5E00B8130CC2983098FDA899C298B811F630E3
:072F6E0099FDC299F59922BB
:10300B00EFC394094005EF940E4003BF2003D38018
:03301B0001C322CC
:102DEA008B3E8A3F89408B448A458946AB3E0540E3
:102DFA00E540AA3F7002053F14F9121D7A70ED747E
:102E0A00FF2540F54074FF353FF53FAB410543E5EB
:102E1A0043AA427002054214F9121D7AFFAB3E051D
:102E2A0040E540AA3F7002053F14F9EF121DC07039
:082E3A00DAAB44AA45A94622C7
:102FE200E4FFFE121D7A600C0FEF70010E09E9700A
:052FF200F20A80EF224D
:102C9E00022752E493A3F8E493A34003F68001F2D3
:102CAE0008DFF48029E493A3F85407240CC8C33337
:102CBE00C4540F4420C8834004F456800146F6DF06
:102CCE00E4800B0102040810204080902D88E47EE1
:102CDE00019360BCA3FF543F30E509541FFEE493FB
:102CEE00A360010ECF54C025E060A840B8E493A3C2
:102CFE00FAE493A3F8E493A3C8C582C8CAC583CAED
:102D0E00F0A3C8C582C8CAC583CADFE9DEE780BEA4
:012DE90000E9
:00000001FF
