:102F0A00252E306C6600252E316C6600252E326C1B
:082F1A006600252E336C6600F1
:102CC8004600141010101010104A0031EDA0D9F869
:102CD800B47C7DE0FDFC47002040C0E0E8E9EDFD64
:102CE80045002C004D45D500460040EDA200455D4D
:102CF800AD540000B55D0D0DED107C4DF50D0000D7
:102D0800000000000000000046001A00000000005B
:102D180000450027001DF5FD0045003BB4A2A000BA
:012D280000AA
:10288C00753C00753D0212295D122F548F2A8E293A
:10289C008D288C277542007543051224318B388A9C
:1028AC0039893A122AB21225918F267F0A7E00129C
:1028BC002EB5E5266441700302294CC3E526940B22
:1028CC0074809480507A53263F85263B7541007561
:1028DC00420075433B7B007A007933122D2A7B0032
:1028EC007A007933122E178F258E248D238C22AFEC
:1028FC002AAE29AD28AC27AB25AA24A923A82212DD
:10290C0019998F2E8E2D8D2C8C2B7B007A00793380
:10291C00853C43853D447D057C001222968B388A8C
:10292C0039893A122B42AF2EAE2DAD2CAC2B754201
:10293C00007543061224318B388A39893A122A0BD6
:10294C007F0A7E00122EB57F647E00122EB50228FF
:01295C0095E5
:102EF20075911FD2A2D2A4D2A6D296D295C290C266
:082F020091C292C293C2942215
:0A2296008C418D428B3E8A3F894047
:1022A000E4F545F546F547F548F549F54A122E1788
:1022B0008F538E528D518C50E544454370137559A0
:1022C000FF755A2F755B0A8F5F8E5E8D5D8C5C800B
:1022D0005BE5446401454370177559FF755A2F75C6
:1022E0005B1085535F85525E85515D85505C803CF7
:1022F000E5446402454370177559FF755A2F755BA5
:102300001685535F85525E85515D85505C801DE565
:102310004464034543701E7559FF755A2F755B1C45
:1023200085535F85525E85515D85505CAB3EAA3F0B
:10233000A940121E83E4FFFEAB3EAA3FA9408F8254
:102340008E83121D93642E60130546E546700205C8
:10235000450FBF00010EEF64034E70DCE5462544D7
:10236000FDE5453543FCD3ED9542E5416480F8EC4D
:1023700064809840077B017A007914227E007F03F5
:10238000C374029FF54CE49EF54BAB3EAA3FA940B7
:102390008F828E83121D93FD744D254CF8A605EF98
:1023A0001F70011EBEFFD9BFFFD6E4FEFFC3EF952D
:1023B00042E5416480F8EE648098500D74192FF85E
:1023C000E4F60FBF00010E80E47E007F01744D2F04
:1023D000F8E6FDB42E0E7547007548017549007585
:1023E0004A01803BED540F7C002431F582EC34002F
:1023F000F583E0FDE54A64014549701DE548640147
:1024000045477011ED4402FD74172FF8A605E4F559
:1024100047F548800A7417800274182FF8A6050F34
:10242000BF00010EEF64034E70A37B007A007919A0
:012430002289
:06243100853C44853D4599
:082437008F418E408D3F8C3E69
:10243F00E4F550F551F552F553F554F555E545458D
:10244F004470137559FF755A2F755B0A8F5F8E5E37
:10245F008D5D8C5C805BE545640145447017755953
:10246F00FF755A2F755B1085415F85405E853F5D17
:10247F00853E5C803CE5456402454470177559FF05
:10248F00755A2F755B1685415F85405E853F5D856B
:10249F003E5C801DE54564034544701D7559FF750D
:1024AF005A2F755B1C85415F85405E853F5D853E7C
:1024BF005CFB7A007946121E83E4FFFE74462FF808
:1024CF00E6642E60130551E551700205500FBF00F1
:1024DF00010EEF64054E70E47E007F05C374049F08
:1024EF00FDE49EFC74462FF8E6FB744B2DF8A60313
:1024FF00EF1F70011EBEFFE4BFFFE1E4FEFFC3EF5D
:10250F009543E5426480F8EE648098500D74192F5E
:10251F00F8E4F60FBF00010E80E47E007F01744BDC
:10252F002FF8E6FDB42E0E75520075530175540049
:10253F00755501803BED540F7C002431F582EC344E
:10254F0000F583E0FDE55564014554701DE55364C6
:10255F000145527011ED4402FD74172FF8A605E4E2
:10256F00F552F553800A7417800274182FF8A605D8
:10257F000FBF00010EEF64054E70A37B007A007948
:01258F001932
:012590002228
:10295D00122F49122EF2E4FF122E5F7F0A7E001213
:10296D002EB57B017A00791A122AB27B017A007991
:10297D001A122B427B017A00791A122A0B7B017AEB
:10298D0000792C122AB2122C5E7B017A007940124A
:10299D002A0B122C5E7B017A00791A122A0B7B010D
:1029AD007A00791A122AB27B017A00791A122B4217
:1029BD00122C5E7B017A007900120003122C5E7BD3
:1029CD00017A007920120E3B122C5E7B017A007980
:1029DD001A122A0B7B017A00791A122AB27B017A1C
:1029ED0000791A122B42122C5E7B017A0079271284
:0E29FD002AB27B017A00793B122B42022C5E3B
:102E5F008F3ED2A07F017E00122EB5D2A1E53E702B
:102E6F0007122ED57F808010122ED57F44122D8F02
:0F2E7F00122F22122ED57F8F122D8F122F22226B
:102ED500D2A0D2A17F017E00122EB5C2A07F017EB5
:0D2EE50000122EB5C2A17F017E00022EB5A5
:0D2D8200900001AB3EAA3FA940121D93FF37
:102D8F008F42C2A0C2A1E4F541C3E541940874800B
:102D9F0094805027C2A17F017E00122EB5E54230EC
:102DAF00E004D2A08002C2A07F017E00122EB5D215
:0F2DBF00A1E542C313F542054180CEC2A1C2A0D7
:012DCE0022E2
:102F2200C2A0D2A17F017E00122EB5D2A07F017E67
:042F320000022EB5B6
:062DCF008B728A73897407
:102DD500122ED57F44122D8F122F22122ED57FCD84
:102DE500122D8FE4F575C3E57594017480948050B8
:102DF50013AB72AA73A974857582758300122D8B26
:102E0500057580E2122F22122ED57F8B122D8F028F
:022E15002F226A
:102AB2008B3E8A3F8940122ED57F44122D8F122FD2
:102AC20022122ED57FC5122D8FAB3EAA3FA94012EE
:102AD2001D7AFF122D8F122F22122ED57FC8122D92
:102AE2008FAB3EAA3FA940900001122D8B122F22DC
:102AF200122ED57FC7122D8FAB3EAA3FA940900060
:102B020002122D8B122F22122ED57FCA122D8FABBD
:102B12003EAA3FA940900003122D8B122F22122EA3
:102B2200D57FC9122D8FAB3EAA3FA9409000041257
:102B32002D8B122F22122ED57F8B122D8F022F2238
:102B42008B3E8A3F8940122ED57F44122D8F122F41
:102B520022122ED57FCB122D8FAB3EAA3FA9401257
:102B62001D7AFF122D8F122F22122ED57FC1122D08
:102B72008FAB3EAA3FA940900001122D8B122F224B
:102B8200122ED57FC4122D8FAB3EAA3FA9409000D2
:102B920002122D8B122F22122ED57FC3122D8FAB34
:102BA2003EAA3FA940900003122D8B122F22122E13
:102BB200D57FC6122D8FAB3EAA3FA94090000412CA
:102BC2002D8B122F22122ED57F8B122D8F022F22A8
:100003008B3E8A3F8940122ED57F44122D8F122FAB
:1000130022122ED57FCB122D8FAB3EAA3FA94012C1
:100023001D7AFF122D8F122F227F647E00122EB5B0
:10003300122ED57FCB122D8F122D82122F22122E2C
:10004300D57FC1122D8FAB3EAA3FA940121D7AFF67
:10005300122D8F122F227F647E00122EB5122ED501
:100063007FCB122D8F900002122D85122F22122E7C
:10007300D57FC1122D8F122D82122F22122ED57FE2
:10008300C4122D8FAB3EAA3FA940121D7AFF122D39
:100093008F122F227F647E00122EB5122ED57FCBB6
:1000A300122D8FAB3EAA3FA940900003122D8B1255
:1000B3002F22122ED57FC1122D8FAB3EAA3FA9400E
:1000C300900002122D8B122F22122ED57FC4122DD7
:1000D3008F122D82122F22122ED57FC3122D8FAB9A
:1000E3003EAA3FA940121D7AFF122D8F122F227FA5
:1000F300647E00122EB5122ED57FCB122D8FAB3E10
:10010300AA3FA940900004122D8B122F22122ED544
:100113007FC1122D8FAB3EAA3FA940900003122D41
:100123008B122F22122ED57FC4122D8FAB3EAA3FE6
:10013300A940900002122D8B122F22122ED57FC3BD
:10014300122D8F122D82122F22122ED57FC6122D21
:100153008FAB3EAA3FA940121D7AFF122D8F122F9B
:10016300227F647E00122EB5122ED57FCB122D8FE7
:10017300AB3EAA3FA940900005122D8B122F2212ED
:100183002ED57FC1122D8FAB3EAA3FA9409000040C
:10019300122D8B122F22122ED57FC4122D8FAB3E20
:1001A300AA3FA940900003122D8B122F22122ED5A5
:1001B3007FC3122D8FAB3EAA3FA940900002122DA0
:1001C3008B122F22122ED57FC6122D8F122D821243
:1001D3002F22122ED57FC5122D8FAB3EAA3FA940E9
:1001E300121D7AFF122D8F122F227F647E00122E92
:1001F300B5122ED57FCB122D8FAB3EAA3FA94090CF
:100203000006122D8B122F22122ED57FC1122D8F95
:10021300AB3EAA3FA940900005122D8B122F22124C
:100223002ED57FC4122D8FAB3EAA3FA94090000468
:10023300122D8B122F22122ED57FC3122D8FAB3E80
:10024300AA3FA940900003122D8B122F22122ED504
:100253007FC6122D8FAB3EAA3FA940900002122DFC
:100263008B122F22122ED57FC5122D8F122D8212A3
:100273002F22122ED57FC8122D8FAB3EAA3FA94045
:10028300121D7AFF122D8F122F227F647E00122EF1
:10029300B5122ED57FCB122D8FAB3EAA3FA940902E
:1002A3000007122D8B122F22122ED57FC1122D8FF4
:1002B300AB3EAA3FA940900006122D8B122F2212AB
:1002C3002ED57FC4122D8FAB3EAA3FA940900005C7
:1002D300122D8B122F22122ED57FC3122D8FAB3EE0
:1002E300AA3FA940900004122D8B122F22122ED563
:1002F3007FC6122D8FAB3EAA3FA940900003122D5B
:100303008B122F22122ED57FC5122D8FAB3EAA3F03
:10031300A940900002122D8B122F22122ED57FC8D6
:10032300122D8F122D82122F22122ED57FC7122D3E
:100333008FAB3EAA3FA940121D7AFF122D8F122FB9
:10034300227F647E00122EB5122ED57FCB122D8F05
:10035300AB3EAA3FA940900008122D8B122F221208
:100363002ED57FC1122D8FAB3EAA3FA94090000727
:10037300122D8B122F22122ED57FC4122D8FAB3E3E
:10038300AA3FA940900006122D8B122F22122ED5C0
:100393007FC3122D8FAB3EAA3FA940900005122DBB
:1003A3008B122F22122ED57FC6122D8FAB3EAA3F62
:1003B300A940900004122D8B122F22122ED57FC537
:1003C300122D8FAB3EAA3FA940900003122D8B1232
:1003D3002F22122ED57FC8122D8FAB3EAA3FA940E4
:1003E300900002122D8B122F22122ED57FC7122DB1
:1003F3008F122D82122F22122ED57FCA122D8FAB70
:100403003EAA3FA940121D7AFF122D8F122F227F81
:10041300647E00122EB5122ED57FCB122D8FAB3EEC
:10042300AA3FA940900009122D8B122F22122ED51C
:100433007FC1122D8FAB3EAA3FA940900008122D19
:100443008B122F22122ED57FC4122D8FAB3EAA3FC3
:10045300A940900007122D8B122F22122ED57FC395
:10046300122D8FAB3EAA3FA940900006122D8B128E
:100473002F22122ED57FC6122D8FAB3EAA3FA94045
:10048300900005122D8B122F22122ED57FC5122D0F
:100493008FAB3EAA3FA940900004122D8B122F224E
:1004A300122ED57FC8122D8FAB3EAA3FA9409000D4
:1004B30003122D8B122F22122ED57FC7122D8FAB35
:1004C3003EAA3FA940900002122D8B122F22122E1A
:1004D300D57FCA122D8F122D82122F22122ED57F75
:1004E300C9122D8FAB3EAA3FA940121D7AFF122DD0
:1004F3008F122F227F647E00122EB5122ED57FCB52
:10050300122D8FAB3EAA3FA94090000A122D8B12E9
:100513002F22122ED57FC1122D8FAB3EAA3FA940A9
:10052300900009122D8B122F22122ED57FC4122D6B
:100533008FAB3EAA3FA940900008122D8B122F22A9
:10054300122ED57FC3122D8FAB3EAA3FA940900038
:1005530007122D8B122F22122ED57FC6122D8FAB91
:100563003EAA3FA940900006122D8B122F22122E75
:10057300D57FC5122D8FAB3EAA3FA940900005122F
:100583002D8B122F22122ED57FC8122D8FAB3EAA90
:100593003FA940900004122D8B122F22122ED57FDB
:1005A300C7122D8FAB3EAA3FA940900003122D8B9B
:1005B300122F22122ED57FCA122D8FAB3EAA3FA92E
:1005C30040900002122D8B122F22122ED57FC912BA
:1005D3002D8F122D82122F227F647E00122EB512D0
:1005E3002ED57FCB122D8FAB3EAA3FA94090000B97
:1005F300122D8B122F22122ED57FC1122D8FAB3EBF
:10060300AA3FA94090000A122D8B122F22122ED539
:100613007FC4122D8FAB3EAA3FA940900009122D33
:100623008B122F22122ED57FC3122D8FAB3EAA3FE2
:10063300A940900008122D8B122F22122ED57FC6AF
:10064300122D8FAB3EAA3FA940900007122D8B12AB
:100653002F22122ED57FC5122D8FAB3EAA3FA94064
:10066300900006122D8B122F22122ED57FC8122D29
:100673008FAB3EAA3FA940900005122D8B122F226B
:10068300122ED57FC7122D8FAB3EAA3FA9409000F3
:1006930004122D8B122F22122ED57FCA122D8FAB4F
:1006A3003EAA3FA940900003122D8B122F22122E37
:1006B300D57FC9122D8FAB3EAA3FA94090000212ED
:1006C3002D8B122F227F647E00122EB5122ED57F22
:1006D300CB122D8FAB3EAA3FA94090000C122D8B5D
:1006E300122F22122ED57FC1122D8FAB3EAA3FA906
:1006F3004090000B122D8B122F22122ED57FC41285
:100703002D8FAB3EAA3FA94090000A122D8B122FCA
:1007130022122ED57FC3122D8FAB3EAA3FA9409044
:100723000009122D8B122F22122ED57FC6122D8F68
:10073300AB3EAA3FA940900008122D8B122F221224
:100743002ED57FC5122D8FAB3EAA3FA9409000073F
:10075300122D8B122F22122ED57FC8122D8FAB3E56
:10076300AA3FA940900006122D8B122F22122ED5DC
:100773007FC7122D8FAB3EAA3FA940900005122DD3
:100783008B122F22122ED57FCA122D8FAB3EAA3F7A
:10079300A940900004122D8B122F22122ED57FC94F
:1007A300122D8FAB3EAA3FA940900003122D8B124E
:1007B3002F227F647E00122EB5122ED57FCB122DF1
:1007C3008FAB3EAA3FA94090000D122D8B122F2212
:1007D300122ED57FC1122D8FAB3EAA3FA9409000A8
:1007E3000C122D8B122F22122ED57FC4122D8FABFC
:1007F3003EAA3FA94090000B122D8B122F22122EDE
:10080300D57FC3122D8FAB3EAA3FA94090000A1299
:100813002D8B122F22122ED57FC6122D8FAB3EAAFF
:100823003FA940900009122D8B122F22122ED57F43
:10083300C5122D8FAB3EAA3FA940900008122D8B05
:10084300122F22122ED57FC8122D8FAB3EAA3FA99D
:1008530040900007122D8B122F22122ED57FC71224
:100863002D8FAB3EAA3FA940900006122D8B122F6D
:1008730022122ED57FCA122D8FAB3EAA3FA94090DC
:100883000005122D8B122F22122ED57FC9122D8F08
:10089300AB3EAA3FA940900004122D8B122F227F5A
:1008A300647E00122EB5122ED57FCB122D8FAB3E58
:1008B300AA3FA94090000E122D8B122F22122ED583
:1008C3007FC1122D8FAB3EAA3FA94090000D122D80
:1008D3008B122F22122ED57FC4122D8FAB3EAA3F2F
:1008E300A94090000C122D8B122F22122ED57FC3FC
:1008F300122D8FAB3EAA3FA94090000B122D8B12F5
:100903002F22122ED57FC6122D8FAB3EAA3FA940B0
:1009130090000A122D8B122F22122ED57FC5122D75
:100923008FAB3EAA3FA940900009122D8B122F22B4
:10093300122ED57FC8122D8FAB3EAA3FA94090003F
:1009430008122D8B122F22122ED57FC7122D8FAB9B
:100953003EAA3FA940900007122D8B122F22122E80
:10096300D57FCA122D8FAB3EAA3FA9409000061235
:100973002D8B122F22122ED57FC9122D8FAB3EAA9B
:100983003FA940900005122D8B122F227F647E0019
:10099300122EB5122ED57FCB122D8FAB3EAA3FA9B7
:1009A3004090000F122D8B122F22122ED57FC112D1
:1009B3002D8FAB3EAA3FA94090000E122D8B122F14
:1009C30022122ED57FC4122D8FAB3EAA3FA9409091
:1009D300000D122D8B122F22122ED57FC3122D8FB5
:1009E300AB3EAA3FA94090000C122D8B122F22126E
:1009F3002ED57FC6122D8FAB3EAA3FA94090000B88
:100A0300122D8B122F22122ED57FC5122D8FAB3EA6
:100A1300AA3FA94090000A122D8B122F22122ED525
:100A23007FC8122D8FAB3EAA3FA940900009122D1B
:100A33008B122F22122ED57FC7122D8FAB3EAA3FCA
:100A4300A940900008122D8B122F22122ED57FCA97
:100A5300122D8FAB3EAA3FA940900007122D8B1297
:100A63002F22122ED57FC9122D8FAB3EAA3FA9404C
:100A7300900006122D8B122F227F647E00122EB55A
:100A8300122ED57FCB122D8FAB3EAA3FA9409000EB
:100A930010122D8B122F22122ED57FC1122D8FAB48
:100AA3003EAA3FA94090000F122D8B122F22122E27
:100AB300D57FC4122D8FAB3EAA3FA94090000E12E2
:100AC3002D8B122F22122ED57FC3122D8FAB3EAA50
:100AD3003FA94090000D122D8B122F22122ED57F8D
:100AE300C6122D8FAB3EAA3FA94090000C122D8B4E
:100AF300122F22122ED57FC5122D8FAB3EAA3FA9EE
:100B03004090000B122D8B122F22122ED57FC8126C
:100B13002D8FAB3EAA3FA94090000A122D8B122FB6
:100B230022122ED57FC7122D8FAB3EAA3FA940902C
:100B33000009122D8B122F22122ED57FCA122D8F50
:100B4300AB3EAA3FA940900008122D8B122F221210
:100B53002ED57FC9122D8FAB3EAA3FA94090000727
:100B6300122D8B122F227F647E00122EB5122ED5EA
:100B73007FCB122D8FAB3EAA3FA940900011122DBF
:100B83008B122F22122ED57FC1122D8FAB3EAA3F7F
:100B9300A940900010122D8B122F22122ED57FC444
:100BA300122D8FAB3EAA3FA94090000F122D8B123E
:100BB3002F22122ED57FC3122D8FAB3EAA3FA94001
:100BC30090000E122D8B122F22122ED57FC6122DBE
:100BD3008FAB3EAA3FA94090000D122D8B122F22FE
:100BE300122ED57FC5122D8FAB3EAA3FA940900090
:100BF3000C122D8B122F22122ED57FC8122D8FABE4
:100C03003EAA3FA94090000B122D8B122F22122EC9
:100C1300D57FC7122D8FAB3EAA3FA94090000A1281
:100C23002D8B122F22122ED57FCA122D8FAB3EAAE7
:100C33003FA940900009122D8B122F22122ED57F2F
:100C4300C9122D8FAB3EAA3FA940900008122D8BED
:100C5300122F227F647E00122EB5122ED57FCB1267
:100C63002D8FAB3EAA3FA940900012122D8B122F5D
:100C730022122ED57FC1122D8FAB3EAA3FA94090E1
:100C83000011122D8B122F22122ED57FC4122D8FFD
:100C9300AB3EAA3FA940900010122D8B122F2212B7
:100CA3002ED57FC3122D8FAB3EAA3FA94090000FD4
:100CB300122D8B122F22122ED57FC6122D8FAB3EF3
:100CC300AA3FA94090000E122D8B122F22122ED56F
:100CD3007FC5122D8FAB3EAA3FA94090000D122D68
:100CE3008B122F22122ED57FC8122D8FAB3EAA3F17
:100CF300A94090000C122D8B122F22122ED57FC7E4
:100D0300122D8FAB3EAA3FA94090000B122D8B12E0
:100D13002F22122ED57FCA122D8FAB3EAA3FA94098
:100D230090000A122D8B122F22122ED57FC9122D5D
:100D33008FAB3EAA3FA940900009122D8B122F22A0
:100D43007F647E00122EB5122ED57FCB122D8FAB72
:100D53003EAA3FA940900013122D8B122F22122E70
:100D6300D57FC1122D8FAB3EAA3FA940900012122E
:100D73002D8B122F22122ED57FC4122D8FAB3EAA9C
:100D83003FA940900011122D8B122F22122ED57FD6
:100D9300C3122D8FAB3EAA3FA940900010122D8B9A
:100DA300122F22122ED57FC6122D8FAB3EAA3FA93A
:100DB3004090000F122D8B122F22122ED57FC512B9
:100DC3002D8FAB3EAA3FA94090000E122D8B122F00
:100DD30022122ED57FC8122D8FAB3EAA3FA9409079
:100DE300000D122D8B122F22122ED57FC7122D8F9D
:100DF300AB3EAA3FA94090000C122D8B122F22125A
:100E03002ED57FCA122D8FAB3EAA3FA94090000B6F
:100E1300122D8B122F22122ED57FC9122D8FAB3E8E
:100E2300AA3FA94090000A122D8B122F22122ED511
:080E33007F8B122D8F022F228C
:100E3B008B3E8A3F8940122ED57F44122D8F122F65
:100E4B0022122ED57FC2122D8FAB3EAA3FA9401284
:100E5B001D7AFF122D8F122F22122ED57FC0122D2D
:100E6B008FAB3EAA3FA940121D7AFF122D8F122F76
:100E7B0022122ED57FCC122D8FAB3EAA3FA940124A
:100E8B001D7AFF122D8F122F22122ED57FCE122DEF
:100E9B008FAB3EAA3FA940121D7AFF122D8F122F46
:100EAB0022122ED57FCF122D8FAB3EAA3FA9401217
:100EBB001D7AFF122D8F122F22122ED57FCD122DC0
:100ECB008FAB3EAA3FA940121D7AFF122D8F122F16
:100EDB0022122ED57FCB122D8FAB3EAA3FA94012EB
:100EEB001D7AFF122D8F122F22122ED57FC1122D9C
:100EFB008FAB3EAA3FA940121D7AFF122D8F122FE6
:100F0B0022122ED57FC4122D8FAB3EAA3FA94012C1
:100F1B001D7AFF122D8F122F22122ED57FC3122D69
:100F2B008FAB3EAA3FA940121D7AFF122D8F122FB5
:100F3B0022122ED57FC6122D8FAB3EAA3FA940128F
:100F4B001D7AFF122D8F122F22122ED57FC5122D37
:100F5B008FAB3EAA3FA940121D7AFF122D8F122F85
:100F6B0022122ED57FC8122D8FAB3EAA3FA940125D
:100F7B001D7AFF122D8F122F22122ED57FC7122D05
:100F8B008FAB3EAA3FA940121D7AFF122D8F122F55
:100F9B0022122ED57FCA122D8FAB3EAA3FA940122B
:100FAB001D7AFF122D8F122F22122ED57FC9122DD3
:100FBB008FAB3EAA3FA940121D7AFF122D8F122F25
:100FCB00227FF47E01122EB5122ED57FC2122D8FE9
:100FDB00AB3EAA3FA940900001122D8B122F22127B
:100FEB002ED57FC0122D8FAB3EAA3FA9409000019A
:100FFB00122D8B122F22122ED57FCC122D8FAB3EA2
:10100B00AA3FA940900001122D8B122F22122ED530
:10101B007FCE122D8FAB3EAA3FA940900001122D1F
:10102B008B122F22122ED57FCF122D8FAB3EAA3FC4
:10103B00A940900001122D8B122F22122ED57FCD9D
:10104B00122D8FAB3EAA3FA940900001122D8B129F
:10105B002F22122ED57FCB122D8FAB3EAA3FA9404C
:10106B00900001122D8B122F22122ED57FC1122D23
:10107B008FAB3EAA3FA940900001122D8B122F225D
:10108B00122ED57FC4122D8FAB3EAA3FA9409000E4
:10109B0001122D8B122F22122ED57FC3122D8FAB47
:1010AB003EAA3FA940900001122D8B122F22122E27
:1010BB00D57FC6122D8FAB3EAA3FA94090000112DF
:1010CB002D8B122F22122ED57FC5122D8FAB3EAA40
:1010DB003FA940900001122D8B122F22122ED57F8B
:1010EB00C8122D8FAB3EAA3FA940900001122D8B49
:1010FB00122F22122ED57FC7122D8FAB3EAA3FA9DE
:10110B0040900001122D8B122F22122ED57FCA1266
:10111B002D8FAB3EAA3FA940900001122D8B122FB1
:10112B0022122ED57FC9122D8FAB3EAA3FA940901C
:10113B000001122D8B122F227FF47E01122EB5127D
:10114B002ED57FC2122D8FAB3EAA3FA94090000235
:10115B00122D8B122F22122ED57FC0122D8FAB3E4C
:10116B00AA3FA940900002122D8B122F22122ED5CE
:10117B007FCC122D8FAB3EAA3FA940900002122DBF
:10118B008B122F22122ED57FCE122D8FAB3EAA3F64
:10119B00A940900002122D8B122F22122ED57FCF39
:1011AB00122D8FAB3EAA3FA940900002122D8B123D
:1011BB002F22122ED57FCD122D8FAB3EAA3FA940E9
:1011CB00900002122D8B122F22122ED57FCB122DB7
:1011DB008FAB3EAA3FA940900002122D8B122F22FB
:1011EB00122ED57FC1122D8FAB3EAA3FA940900086
:1011FB0002122D8B122F22122ED57FC4122D8FABE4
:10120B003EAA3FA940900002122D8B122F22122EC4
:10121B00D57FC3122D8FAB3EAA3FA940900002127F
:10122B002D8B122F22122ED57FC6122D8FAB3EAADD
:10123B003FA940900002122D8B122F22122ED57F28
:10124B00C5122D8FAB3EAA3FA940900002122D8BE9
:10125B00122F22122ED57FC8122D8FAB3EAA3FA97B
:10126B0040900002122D8B122F22122ED57FC71207
:10127B002D8FAB3EAA3FA940900002122D8B122F4F
:10128B0022122ED57FCA122D8FAB3EAA3FA94090BA
:10129B000002122D8B122F22122ED57FC9122D8FE9
:1012AB00AB3EAA3FA940900002122D8B122F227F3A
:1012BB00F47E01122EB5122ED57FC2122D8FAB3EAE
:1012CB00AA3FA940900003122D8B122F22122ED56C
:1012DB007FC0122D8FAB3EAA3FA940900003122D69
:1012EB008B122F22122ED57FCC122D8FAB3EAA3F05
:1012FB00A940900003122D8B122F22122ED57FCED8
:10130B00122D8FAB3EAA3FA940900003122D8B12DA
:10131B002F22122ED57FCF122D8FAB3EAA3FA94085
:10132B00900003122D8B122F22122ED57FCD122D52
:10133B008FAB3EAA3FA940900003122D8B122F2298
:10134B00122ED57FCB122D8FAB3EAA3FA94090001A
:10135B0003122D8B122F22122ED57FC1122D8FAB84
:10136B003EAA3FA940900003122D8B122F22122E62
:10137B00D57FC4122D8FAB3EAA3FA940900003121C
:10138B002D8B122F22122ED57FC3122D8FAB3EAA7F
:10139B003FA940900003122D8B122F22122ED57FC6
:1013AB00C6122D8FAB3EAA3FA940900003122D8B86
:1013BB00122F22122ED57FC5122D8FAB3EAA3FA91D
:1013CB0040900003122D8B122F22122ED57FC812A4
:1013DB002D8FAB3EAA3FA940900003122D8B122FED
:1013EB0022122ED57FC7122D8FAB3EAA3FA940905C
:1013FB000003122D8B122F22122ED57FCA122D8F86
:10140B00AB3EAA3FA940900003122D8B122F221244
:10141B002ED57FC9122D8FAB3EAA3FA9409000035A
:10142B00122D8B122F227FF47E01122EB5122ED588
:10143B007FC2122D8FAB3EAA3FA940900004122D04
:10144B008B122F22122ED57FC0122D8FAB3EAA3FAF
:10145B00A940900004122D8B122F22122ED57FCC77
:10146B00122D8FAB3EAA3FA940900004122D8B1278
:10147B002F22122ED57FCE122D8FAB3EAA3FA94025
:10148B00900004122D8B122F22122ED57FCF122DEE
:10149B008FAB3EAA3FA940900004122D8B122F2236
:1014AB00122ED57FCD122D8FAB3EAA3FA9409000B7
:1014BB0004122D8B122F22122ED57FCB122D8FAB18
:1014CB003EAA3FA940900004122D8B122F22122E00
:1014DB00D57FC1122D8FAB3EAA3FA94090000412BD
:1014EB002D8B122F22122ED57FC4122D8FAB3EAA1D
:1014FB003FA940900004122D8B122F22122ED57F64
:10150B00C3122D8FAB3EAA3FA940900004122D8B26
:10151B00122F22122ED57FC6122D8FAB3EAA3FA9BA
:10152B0040900004122D8B122F22122ED57FC51244
:10153B002D8FAB3EAA3FA940900004122D8B122F8A
:10154B0022122ED57FC8122D8FAB3EAA3FA94090F9
:10155B000004122D8B122F22122ED57FC7122D8F26
:10156B00AB3EAA3FA940900004122D8B122F2212E2
:10157B002ED57FCA122D8FAB3EAA3FA940900004F7
:10158B00122D8B122F22122ED57FC9122D8FAB3E0F
:10159B00AA3FA940900004122D8B122F227FF47EBC
:1015AB0001122EB5122ED57FC2122D8FAB3EAA3F44
:1015BB00A940900005122D8B122F22122ED57FC021
:1015CB00122D8FAB3EAA3FA940900005122D8B1216
:1015DB002F22122ED57FCC122D8FAB3EAA3FA940C6
:1015EB00900005122D8B122F22122ED57FCE122D8D
:1015FB008FAB3EAA3FA940900005122D8B122F22D4
:10160B00122ED57FCF122D8FAB3EAA3FA940900053
:10161B0005122D8B122F22122ED57FCD122D8FABB3
:10162B003EAA3FA940900005122D8B122F22122E9D
:10163B00D57FCB122D8FAB3EAA3FA9409000051250
:10164B002D8B122F22122ED57FC1122D8FAB3EAABE
:10165B003FA940900005122D8B122F22122ED57F01
:10166B00C4122D8FAB3EAA3FA940900005122D8BC3
:10167B00122F22122ED57FC3122D8FAB3EAA3FA95C
:10168B0040900005122D8B122F22122ED57FC612E1
:10169B002D8FAB3EAA3FA940900005122D8B122F28
:1016AB0022122ED57FC5122D8FAB3EAA3FA940909B
:1016BB000005122D8B122F22122ED57FC8122D8FC3
:1016CB00AB3EAA3FA940900005122D8B122F221280
:1016DB002ED57FC7122D8FAB3EAA3FA94090000598
:1016EB00122D8B122F22122ED57FCA122D8FAB3EAD
:1016FB00AA3FA940900005122D8B122F22122ED536
:10170B007FC9122D8FAB3EAA3FA940900005122D29
:10171B008B122F227FF47E01122EB5122ED57FC293
:10172B00122D8FAB3EAA3FA940900006122D8B12B3
:10173B002F22122ED57FC0122D8FAB3EAA3FA94070
:10174B00900006122D8B122F22122ED57FCC122D2C
:10175B008FAB3EAA3FA940900006122D8B122F2271
:10176B00122ED57FCE122D8FAB3EAA3FA9409000F3
:10177B0006122D8B122F22122ED57FCF122D8FAB4F
:10178B003EAA3FA940900006122D8B122F22122E3B
:10179B00D57FCD122D8FAB3EAA3FA94090000612EC
:1017AB002D8B122F22122ED57FCB122D8FAB3EAA53
:1017BB003FA940900006122D8B122F22122ED57F9F
:1017CB00C1122D8FAB3EAA3FA940900006122D8B64
:1017DB00122F22122ED57FC4122D8FAB3EAA3FA9FA
:1017EB0040900006122D8B122F22122ED57FC31282
:1017FB002D8FAB3EAA3FA940900006122D8B122FC6
:10180B0022122ED57FC6122D8FAB3EAA3FA9409038
:10181B000006122D8B122F22122ED57FC5122D8F63
:10182B00AB3EAA3FA940900006122D8B122F22121D
:10183B002ED57FC8122D8FAB3EAA3FA94090000634
:10184B00122D8B122F22122ED57FC7122D8FAB3E4E
:10185B00AA3FA940900006122D8B122F22122ED5D3
:10186B007FCA122D8FAB3EAA3FA940900006122DC6
:10187B008B122F22122ED57FC9122D8FAB3EAA3F72
:10188B00A940900006122D8B122F22122ED57F8B82
:06189B00122D8F022F2226
:102A0B008B3E8A3F8940122ED57F44122D8F122F79
:102A1B0022122ED57FC2122D8FAB3EAA3FA9401298
:102A2B001D7AFF122D8F122F22122ED57FC0122D41
:102A3B008FAB3EAA3FA940900001122D8B122F2283
:102A4B00122ED57FCC122D8FAB3EAA3FA940900002
:102A5B0002122D8B122F22122ED57FCE122D8FAB61
:102A6B003EAA3FA940900003122D8B122F22122E4B
:102A7B00D57FCF122D8FAB3EAA3FA94090000412F9
:102A8B002D8B122F22122ED57FCD122D8FAB3EAA5E
:102A9B003FA940900005122D8B122F22122ED57FAD
:072AAB008B122D8F022F2278
:0B2F4900759503C2A0C2A1E4F5B422FC
:102C5E00E4F541F540F53FF53EE47F32FEFDFCAB79
:102C6E0041AA40A93FA83EC3121DE0504CE4F545D1
:102C7E00F544F543F542E47FE87E03FDFCAB45AA3F
:102C8E0044A943A842C3121DE05017E5452401F59F
:102C9E0045E43544F544E43543F543E43542F54225
:102CAE0080D4E5412401F541E43540F540E4353F5B
:092CBE00F53FE4353EF53E80A02F
:012CC70022EA
:102EB500E4FDFCC3ED9FEC9E5015E4FBFA0BBB0053
:0F2EC500010ABA01F8BB4DF50DBD00010C80E408
:012ED40022DB
:0626B9008B088A09890A62
:1026BF00E4F50EF50DF50CF50BF512F5117510800F
:1026CF00750F3F121D7AB42D167401250AF50AE411
:1026DF003509F509E4F512F511751080750FBFE492
:1026EF00F513F514AB08AA09A90A121D7AFF700396
:1026FF00022793B42E087513007514018078EF33F9
:10270F0095E0FEEF24D0F516EE34FFF515C3648087
:10271F0094804062D3E5169409E515648094805047
:10272F0055E5144513601AAF12AE11AD10AC0FE49E
:10273F00FBFA79207841121AA28F128E118D108C0C
:10274F000FAC15AD16EC121B44C004C005C006C07B
:10275F0007E4FFFE7D207C41AB0EAA0DA90CA80B50
:10276F00121999D003D002D001D0001218A88F0EE1
:10277F008E0D8D0C8C0B7401250AF50AE43509F5C5
:10278F00090226F3AF12AE11AD10AC0FAB0EAA0DAE
:07279F00A90CA80B02199917
:102591007F41E4FEEEFDC394057480948040030204
:1025A10026B8ED7032D290C291C292C293C29430D9
:1025B10095052095FD7F013096052096FD7F02301F
:1025C100A20520A2FD7F0330A40520A4FD7F1730C2
:1025D100A60520A6FD7F04EE64017032C290D2915F
:1025E100C292C293C2943095052095FD7F04309626
:1025F100052096FD7F0530A20520A2FD7F0630A4AF
:102601000520A4FD7F1530A60520A6FD7F16EE64EA
:10261100027032C290C291D292C293C29430950597
:102621002095FD7F073096052096FD7F0830A20595
:1026310020A2FD7F0930A40520A4FD7F1330A6054B
:1026410020A6FD7F14EE64037032C290C291C29243
:10265100D293C2943095052095FDE4FF3096052074
:1026610096FD7F0A30A20520A2FD7F0B30A4052034
:10267100A4FD7F1130A60520A6FD7F12EE64047033
:1026810032C290C291C292C293D2943095052095E4
:10269100FD7F0F3096052096FD7F0E30A20520A20A
:1026A100FD7F1030A40520A4FD7F0C30A60520A6D7
:0726B100FD7F0D0E022595CF
:0126B80022FF
:092F54007F337E337D237C402293
:1018A100021BB2E86480F8E933E83360110460F0A8
:1018B100ED33EC337009E8FCE9FDEAFEEBFF2204AD
:1018C10060DED3EB9FEA9EE99DE8C2E78CF0C2F7A8
:1018D10095F0400CE8CCF8E9CDF9EACEFAEBCFFB74
:1018E100121B7D85D0F05804700320D5B3E8047035
:1018F100075002B2D5021BBC92D5EC0460F7E4CCD0
:10190100C0E0C398F8603B94186008400DD0E0FB3C
:10191100021B94E4FBFAC9FC8028E830E406E4C920
:10192100FBE4CAFCE830E305E4C9CACBFCE8540790
:101931006010F8C3E913F9EA13FAEB13FBEC13FC9B
:10194100D8F130F52FC3E49CFCEF9BFFEE9AFEED3E
:1019510099FDD0E0FBEF4E4D4C701222DB03021BD0
:10196100B9EC2CFCEF33FFEE33FEED33FDED30E748
:10197100EB021B94EF2BFFEE3AFEED39FDD0E0FBBD
:1019810050130BBB0003021BBCED13FDEE13FEEF66
:0819910013FFEC13FC021B9490
:10199900EC4D6011E8497017ED33EC3304600DE448
:1019A900FCFFFEFD22E933E8330470F8021BB21292
:1019B9001B7D58046009E4CC248150062850090293
:1019C9001BBC284003021BB9C0E0EB4A7044B98034
:1019D90006D0E0FB021BA8EF4E701CBD8008EBFF90
:1019E900EAFEE9FD80EBE98DF0A4FEE5F0021A823A
:1019F900E9CDF9EAFEEBFFEF89F0A4FCE5F0CE8929
:101A0900F0A42EFFE435F0CD89F0A42DFEE435F0E5
:101A19008067EF4E7005BD80D780C3EF8BF0A4AC13
:101A2900F0EE8BF0A42CFCE435F0F8EF8AF0A42C4E
:101A3900E5F038FCE433CB8DF0A42CFCE5F03BF861
:101A4900EE8AF0A42CFCE5F038F8E433CF89F0A451
:101A59002CFCE5F038CF3400CE89F0A42FFFE5F057
:101A69003EFEE433C98DF0A42EFEE5F039CD8AF0AF
:101A7900A42FFFE5F03EFEE43DFD33D0E0FB500727
:101A89000BBB000F021BBCEC2CFCEF33FFEE33FE4B
:061A9900ED33FD021B9479
:101A9F00021BBCEC5D046005E859047003021BB225
:101AAF00121B7D580460F6EC4860F2EC7004FDFEEA
:101ABF00FF22C860DB2481C85009C398600250061A
:101ACF00021BB99850CAF582E9294B4A7005AB82BF
:101ADF00021BA875F0007C1A7880C3EF9BEE9AED7D
:101AEF0099400DC3EF9BFFEE9AFEED99FDE842F092
:101AFF00DC23ACF0D0E0FFD0E0FED0E0FDAB8220E5
:101B0F00E7101BEB60BAEC2CFCEF33FFEE33FEED6E
:101B1F0033FD021B94E803F830E705C0F075F000C1
:101B2F00EF2FFFEE33FEED33FD40B830E7C280AA52
:101B3F0075F020800E75F010800575F0087D007E21
:101B4F00007F003392D530D503121DD2EC334010F5
:101B5F00EF33FFEE33FEED33FDEC33FCD5F0ED222A
:0E1B6F00E5F0247EA2D513CC92E7CDCEFF2266
:101E2700E56D2459F8E6056D227856300702785992
:101E3700E475F001121DF1021D7A2000EB7F2ED20E
:101E4700008018EF540F2490D43440D4FF30040B93
:101E5700EF24BFB41A0050032461FFE56E6002153A
:101E67006E0571E5717002057030070D7856E475DF
:101E7700F001121DF1EF021DC0022E8E7403D2076E
:101E87008003E4C207F56D8B568A578958E4F56ECF
:101E9700F570F571E56E60077F20121E6280F5759B
:101EA7006FFFC201C200C202C203C205C206C20856
:101EB700121E30FF700D3007057F00121E73AF71C1
:101EC700AE7022B4255FC2D5C204121E30FF24D0E3
:101ED700B40A00501A75F00A786E30D50508B6FFB7
:101EE7000106C6A426F620D5047002D20380D924A1
:101EF700CFB41A00EF5004C2E5D204022160D20128
:101F070080C6D20080C0D20280BCD2D580BAD205AA
:101F170080B47F20121E622002077401B56E004054
:101F2700F1121E27FF121E62021E9BD208D20680E4
:101F370095121E27FB121E27FA121E27F94A4B700D
:101F47000679577A227BFF20022EE56E602A7E00F3
:101F57008E82758300121D9360060EEE656F70F01A
:101F6700C2D5EBC0E0EAC0E0E9C0E0EE1221C0D084
:101F7700E0F9D0E0FAD0E0FB121D7AFF60AAEBC0CF
:101F8700E0EAC0E0E9C0E0121E62D0E02401F9D027
:101F9700E03400FAD0E0FBE56F0460DCD56FD98050
:101FA70087D20280A21221A360F7E56F70010412A5
:101FB7001BC7A96F600DE56F600914F56F12224A00
:101FC700EF60F3EA30E702F404C3995077EAF425A7
:101FD7006F0430E701E404F56F800D1221A360C19F
:101FE700EA056F256F121BC7EA786CF630E701E444
:101FF700256F04D56F04200501141221C0E4C0E049
:1020070012224A786CE6601320E70714F6121E4A7C
:10201700802204F6D0E014C0E07F00121E4AE56F6C
:102027006007121E41156F800B300503121E41D049
:10203700E0021E9BD0E00480C51221A360A0E56FDB
:1020470004121BC7786CEAF6E56F200502600104ED
:0520570024041221C069
:10205C0074FF04C0E012224A121E4AE56F200502EA
:10206C006003121E41D0E0B56FE87F45121E547814
:10207C006CE67F2B30E7047F2DF404C0E0121E6267
:10208C00D0E075F00A84C0F0121E4BD0E0121E4B4B
:10209C00021E9B791080027908C206C2088008D201
:1020AC00D5790A8004790AC2D5E56F047002F56F00
:1020BC00E4FAFDFEFF121E27FC7B08200113121E02
:1020CC0027FD7B1030000A121E27FE121E27FF7BF5
:1020DC0020EC3382D592D55013C3E43000069FFF19
:1020EC00E49EFEE42001039DFDE49CFCE4CBF8C2DD
:1020FC0001EC700CCFCECDCCE824F8F870F380173F
:10210C00C3EF33FFEE33FEED33FDEC33FCEB33FB6F
:10211C00994002FB0FD8E9EB300105F8D0E0C44838
:10212C00B201C0E00AEC4D4E4F78207B0070C2EA41
:10213C00B56F0040BCC0E01221C2D0F0D0E020014D
:10214C0004C4C0E0C4B201C0F0121E4BD0F0D5F0F4
:10215C00EB021E9B121E011F3853209F581F094C67
:10216C001F054220A34F20AB4420AB491F1E432028
:10217C00B1551FE2462040451FAC472277501F0D3A
:10218C002D1F112E1F342B1F15231F322022602AC6
:10219C001ECD4800001F2CE56FB4FF03756F0612AF
:1021AC001E27FC121E27FD121E27FE121E27FF786B
:1021BC0065021BF6790AA2D5200314300509B91063
:1021CC00020404B9080104A2D5200602500104201F
:1021DC0002689202B56E005034C0E07F20300319C3
:1021EC007F30A20272067205500F122219C202C26F
:1021FC0006C205C2087F30800F300503E9C0E0122B
:10220C001E62300503D0E0F9D0E0B56ECC30051776
:10221C007F30B9100C121E627F583004077F788013
:10222C0003B90803121E623002057F2D021E627F65
:10223C00202008F87F2B2006F322920280CF7F000B
:10224C00B4070050052465F8E6FF22286E756C6C07
:10225C002900D201121E273001F8C201786E30D548
:10226C000108F6021ECD2D50434958121E27240397
:10227C00B405004001E490227293121E53743A127A
:0A228C001E53D203756E0402209F5A
:102E1700D2008B548A558956122E53C0E0FF122FC9
:102E270036D0E040F31227B9400122ECC0E0EDC0F4
:102E3700E0EEC0E0EFC0E0122E53D0F0AFF0D0F0DC
:102E4700AEF0D0F0ADF0D0F0ACF080D9E475F00181
:082E57007854121DF1021D7AEE
:101B7D00E9D2E7C933E833F892D5EDD2E7CD33ECAE
:071B8D0033FC5002B2D52227
:101B9400EC30E7100FBF000C0EBE00080DBD0004B2
:101BA4000BEB6014A2D5EB13FCED92E7FD2274FF5E
:101BB400FCFDFEFF22E480F8A2D574FF13FC7D80B7
:031BC400E480EFCB
:101BC700F920E72824F950037907E4F42402FB18E5
:101BD700DBFDE624FB5014E9600DE4F618E604F695
:0F1BE700B40A08E4F6D9F57401F60A22C2D52231
:101BF600ED33EC3392D5FA602AB4FF33EDC2E77BBE
:101C0600FF60067A1C791BE4227A1C792420D5040D
:101C16007A1C791F224E614E002B494E46002D49F3
:101C26004E4600E47A08F608DAFC7B00740722E8E0
:101C3600C0E0ECC0E0EDC0E0EEC0E0EFC0E0EA7569
:101C4600F010A4CAABF075F04DA42BFBE435F0FC04
:101C5600EA2410FAEB34C5FBEC34D9FCEDC2E7FFFD
:101C660075F056A4F42411C5F0F434C58FF0A42AF7
:101C7600E5F03BE43CF620E714121D3AD0E0FFD035
:101C8600E0FED0E0FDD0E0FC121AA28014F40412AB
:101C96001D3AD0E0FFD0E0FED0E0FDD0E0FC121906
:101CA60099D0E0F8E6FAEDD2E7CD33EC332482FBA7
:101CB600E4C3CF33CFCE33CECD33CD33DBF37B0787
:101CC60075F00A846004F6081B0AE5F0F6088FF042
:101CD600740AA4FFACF08EF0740AA42CFEACF0508B
:101CE600010C8DF0740AA42CFDE435F0F608DBDE59
:031CF6007407224E
:1027A600C201C202C203C204F9E4F557F558FCFDA2
:1027B600FEFFE91000EA20030CB42D04D203D32255
:1027C600B42B02D32224D0504794095041240A3016
:1027D6000415F88558F0740AA42872E74051C5F02C
:1027E600704D85F058D322D202C0E0E4FBFA79207E
:1027F6007841121999ECF8EDF9EEFAEFFBD0E0FC0E
:10280600E4121B491218A83001B41557D322240A22
:10281600200420B4FE0720011AD201D32224EB6043
:102826000424E0700EA2039201D204C203D322C391
:10283600021BB2E430040BE558300302F404A20193
:1028460092033002EA255720D2E5A2E7920450020D
:10285600F404B4260050D8CCC0E0EDC0E0EEC0E0F1
:10286600EFC0E0EC121D3AD0E0FFD0E0FED0E0FD74
:10287600D0E0FC2004051219998003121AA2300335
:0628860003121CF9C3223D
:101CF900ED33EC33600A047003BD8004ECB2E7FCF9
:011D090022B7
:101D0A003F8000004120000042C80000447A0000E1
:101D1A00461C400047C35000497424004B18968063
:101D2A004CBEBC205A0E1BCA6753C21C749DC5AE5A
:101D3A00FB60065407601C2323121D68EB543860AD
:101D4A0009121D54121D63121999ECF8EDF9EEFAF5
:101D5A00EFCB22EB121D6380F1543803241C901D33
:101D6A000AFE93FC0EEE93FD0EEE930ECE93FF2227
:03000000022BD2FE
:0C2BD200787FE4F6D8FD758175022C199F
:101D7A00BB010689828A83E0225002E722BBFE0267
:091D8A00E32289828A83E493229A
:101D9300BB010CE58229F582E5833AF583E0225005
:101DA30006E92582F8E622BBFE06E92582F8E2224F
:0D1DB300E58229F582E5833AF583E4932269
:101DC000BB010689828A83F0225002F722BBFE0102
:021DD000F322FC
:0E1DD200C3E49FFFE49EFEE49DFDE49CFC2222
:101DE000EB9FF5F0EA9E42F0E99D42F0E89C45F059
:011DF00022D0
:101DF100FAE6FB0808E6F925F0F618E6CA3AF622F3
:101E0100D083D082F8E4937012740193700DA3A370
:101E110093F8740193F5828883E473740293686084
:061E2100EFA3A3A380DF84
:102E8E00EFB40A07740D122E99740A309811A8998E
:102E9E00B8130CC2983098FDA899C298B811F630A4
:072EAE0099FDC299F599227C
:102F3600EFC394094005EF940E4003BF2003D380EE
:032F460001C322A2
:102D2A008B3E8A3F89408B448A458946AB3E0540A3
:102D3A00E540AA3F7002053F14F9121D7A70ED743E
:102D4A00FF2540F54074FF353FF53FAB410543E5AC
:102D5A0043AA427002054214F9121D7AFFAB3E05DE
:102D6A0040E540AA3F7002053F14F9EF121DC070FA
:082D7A00DAAB44AA45A9462288
:102BDE0002288CE493A3F8E493A34003F68001F259
:102BEE0008DFF48029E493A3F85407240CC8C333F8
:102BFE00C4540F4420C8834004F456800146F6DFC7
:102C0E00E4800B0102040810204080902CC8E47E62
:102C1E00019360BCA3FF543F30E509541FFEE493BB
:102C2E00A360010ECF54C025E060A840B8E493A382
:102C3E00FAE493A3F8E493A3C8C582C8CAC583CAAD
:102C4E00F0A3C8C582C8CAC583CADFE9DEE780BE65
:012D290000A9
:00000001FF
