:102EC200252E306600252E316600252E326600251D
:042ED2002E33660035
:102C0E004600141010101010104A0031EDA0D9F823
:102C1E00B47C7DE0FDFC47002040C0E0E8E9EDFD1E
:102C2E0045002C004D45D500460040EDA200455D07
:102C3E00AD540000B55D0D0DED107C4DF50D000091
:102C4E00000000000000000046001A000000000016
:102C5E0000450027001DF5FD0045003BB4A2A00075
:0E2C6E000002080000020C00004200460002B6
:1022C400E4F522F5231229C67534007535057536F3
:1022D400007537027F007E007D007C0012250F8B85
:1022E4002D8A2E892F122AF2753400753506900036
:1022F40046E0F536A3E0F5377F007E007D007C00E4
:1023040012250F8B2D8A2E892F12291F122F089028
:10231400004F121E1390004F1224F48B2D8A2E8925
:102324002F122A621227118F247F0A7E00122E5840
:10233400E524644170030224EAE509640145087058
:1023440011FB7A007925122EADC3EF9406EE9400AA
:10235400404CE50945087023FB7A007925122EAD1F
:10236400900047E02FFF900046E03EFEC3EF940646
:10237400EE94005006E524640A6023E509450870DC
:1023840023FB7A007925122EAD900047E02FFF90B1
:102394000046E03EFEC3EF9405EE940050067E0036
:1023A4007F0080047E007F018E228F23AF247E0075
:1023B400C3EF940B748094805006E5234522600992
:1023C400EF640B4E60030224EAEF640B4E70107549
:1023D4002530F526F508F509F50CF50D022487C31B
:1023E400EF940AEE648094805008E5094508700271
:1023F400807BE524640A700EE50945087008F50839
:10240400750901022310C3E524940A748094805052
:1024140041E509640145087039E50D450C703375D3
:102424002C2EF53375340075352CFB7A0079251282
:102434002DC443243085242C753300753400753540
:102444002C7B007A007925122DC4750C00750D01C2
:102454008031C3E524940A748094805026E509648D
:10246400014508701EE50D6401450C7016432430C7
:1024740085242CF53375340075352CFB7A007925C9
:10248400122DC47B007A007925122D7C90005712FE
:102494001E1390004FE0FCA3E0FDA3E0FEA3E0FFC9
:1024A400900057E0F8A3E0F9A3E0FAA3E0FB1218C8
:1024B400A1900053121E139000571224F48B2D8AFE
:1024C4002E892F122AF2900053E0FCA3E0FDA3E032
:1024D400FEA3E0FF7534007535061225058B2D8AA1
:1024E4002E892F12291F7F0A7E00122E58022310D4
:102E950075911FD2A2D2A4D2A6D296D295C290C2C3
:082EA50091C292C293C2942273
:1024F400E0FCA3E0FDA3E0FEA3E0FF753400753526
:0B25040005900046E0F536A3E0F53737
:08250F008F338E328D318C30C8
:10251700E4F548F549F54AF54BF54CF54DE53745F2
:102527003670137553FF75542E7555C28F598E58D3
:102537008D578C56805BE5376401453670177553A8
:10254700FF75542E7555C7853359853258853157D0
:10255700853056803CE5376402453670177553FF62
:1025670075542E7555CC8533598532588531578525
:102577003056801DE53764034536701D7553FF756A
:10258700542E7555D1853359853258853157853045
:1025970056FB7A007938121EB1E4F54EF54F7B00F1
:1025A7007A007938122EADC3E54F9FE54E9E501C39
:1025B7007438254FF8E6642E60120549E549700224
:1025C7000548054FE54F70D6054E80D2E5492537BA
:1025D700FFE5483536FED3EF9535E5346480F8EEF0
:1025E70064809840077B017A007914227B007A0087
:1025F7007938122EADEF24FFF54FEE34FFF54ED3A9
:10260700E54F94FFE54E6480947F40317B007A006C
:102617007938122EADEF24FFFFEE34FFFEC3EF959E
:102627004FFFEE954EFE7438254FF8E6FD74402FA8
:10263700F8A605E54F154F70C6154E80C27B007A88
:10264700007938122EAD74402FF8E4F6F54EF54FA9
:10265700C3E54F9535E5346480F8E54E64809850BE
:10266700187448254FF5827400354EF583E4F0055C
:102677004FE54F70DB054E80D7E4F54EF54F7B00F5
:102687007A007940122EADC3E54F9FE54E9E5073F9
:102697007440254FF8E6FFB42E0E754A00754B01BE
:1026A700754C00754D018050EF540F7E002431F5B5
:1026B70082EE3400F583E0FFE54D6401454C702A56
:1026C700E54B6401454A70184307027447254FF5E7
:1026D700827400354EF583EFF0E4F54AF54B801828
:1026E7007447254FF582740080087448254FF5829A
:1026F7007400354EF583EFF0054FE54F7002054E38
:092707000226857B017A00794865
:0127100022A6
:1029C600122EFD122E95E4FF122E027F0A7E0012B1
:1029D6002E587B017A00791A122A627B017A0079D5
:1029E6001A122AF27B017A00791A12291F7B017AC0
:1029F60000792C122A62122C7D7B017A0079401212
:102A0600291F122C7D7B017A00791A12291F7B015E
:102A16007A00791A122A627B017A00791A122AF24E
:102A2600122C7D7B017A007900120003122C7D7B2B
:102A3600017A007920120E3B122C7D7B017A0079F7
:102A46001A12291F7B017A00791A122A627B017AEF
:0C2A560000791A122AF2122C7D022C7D4D
:102E02008F30D2A07F017E00122E58D2A1E5307001
:102E120007122E787F808010122E787F44122CF4B5
:0F2E2200122ED6122E787F8F122CF4122ED6225B
:102E7800D2A0D2A17F017E00122E58C2A07F017E6F
:0D2E880000122E58C2A17F017E00022E58BC
:0D2CE700900001AB30AA31A932121D93FFFD
:102CF4008F34C2A0C2A1E4F533C3E53394087480D1
:102D040094805027C2A17F017E00122E58E53430F2
:102D1400E004D2A08002C2A07F017E00122E58D20D
:0F2D2400A1E534C313F534053380CEC2A1C2A09C
:012D3300227D
:102ED600C2A0D2A17F017E00122E58D2A07F017E11
:042EE60000022E5860
:062D34008B0E8A0F8910CE
:102D3A00122E787F44122CF4122ED6122E787FCDC2
:102D4A00122CF4E4F511C3E51194017480948050B7
:102D5A0013AB0EAA0FA910851182758300122CF0ED
:102D6A00051180E2122ED6122E787F8B122CF402D5
:022D7A002ED653
:102A62008B308A318932122E787F44122CF4122E46
:102A7200D6122E787FC5122CF4AB30AA31A93212AD
:102A82001D7AFF122CF4122ED6122E787FC8122C29
:102A9200F4AB30AA31A932900001122CF0122ED6DA
:102AA200122E787FC7122CF4AB30AA31A9329000D3
:102AB20002122CF0122ED6122E787FCA122CF4ABF0
:102AC20030AA31A932900003122CF0122ED6122E07
:102AD200787FC9122CF4AB30AA31A93290000412CB
:102AE2002CF0122ED6122E787F8B122CF4022ED6B8
:102AF2008B308A318932122E787F44122CF4122EB6
:102B0200D6122E787FCB122CF4AB30AA31A9321216
:102B12001D7AFF122CF4122ED6122E787FC1122C9F
:102B2200F4AB30AA31A932900001122CF0122ED649
:102B3200122E787FC4122CF4AB30AA31A932900045
:102B420002122CF0122ED6122E787FC3122CF4AB66
:102B520030AA31A932900003122CF0122ED6122E76
:102B6200787FC6122CF4AB30AA31A932900004123D
:102B72002CF0122ED6122E787F8B122CF4022ED627
:100003008B308A318932122E787F44122CF4122ECF
:10001300D6122E787FCB122CF4AB30AA31A9321230
:100023001D7AFF122CF4122ED67F647E00122E58F6
:10003300122E787FCB122CF4122CE7122ED6122E0E
:10004300787FC1122CF4AB30AA31A932121D7AFF8A
:10005300122CF4122ED67F647E00122E58122E78A4
:100063007FCB122CF4900002122CEA122ED6122E01
:10007300787FC1122CF4122CE7122ED6122E787F21
:10008300C4122CF4AB30AA31A932121D7AFF122C00
:10009300F4122ED67F647E00122E58122E787FCB58
:1000A300122CF4AB30AA31A932900003122CF012B7
:1000B3002ED6122E787FC1122CF4AB30AA31A9327E
:1000C300900002122CF0122ED6122E787FC4122C1E
:1000D300F4122CE7122ED6122E787FC3122CF4AB17
:1000E30030AA31A932121D7AFF122CF4122ED67FB8
:1000F300647E00122E58122E787FCB122CF4AB3074
:10010300AA31A932900004122CF0122ED6122E78A6
:100113007FC1122CF4AB30AA31A932900003122C08
:10012300F0122ED6122E787FC4122CF4AB30AA31E3
:10013300A932900002122CF0122ED6122E787FC311
:10014300122CF4122CE7122ED6122E787FC6122C04
:10015300F4AB30AA31A932121D7AFF122CF4122EFD
:10016300D67F647E00122E58122E787FCB122CF489
:10017300AB30AA31A932900005122CF0122ED61200
:100183002E787FC1122CF4AB30AA31A9329000042F
:10019300122CF0122ED6122E787FC4122CF4AB3010
:1001A300AA31A932900003122CF0122ED6122E7807
:1001B3007FC3122CF4AB30AA31A932900002122C67
:1001C300F0122ED6122E787FC6122CF4122CE712C0
:1001D3002ED6122E787FC5122CF4AB30AA31A93259
:1001E300121D7AFF122CF4122ED67F647E00122E7B
:1001F30058122E787FCB122CF4AB30AA31A932904F
:100203000006122CF0122ED6122E787FC1122CF477
:10021300AB30AA31A932900005122CF0122ED6125F
:100223002E787FC4122CF4AB30AA31A9329000048B
:10023300122CF0122ED6122E787FC3122CF4AB3070
:10024300AA31A932900003122CF0122ED6122E7866
:100253007FC6122CF4AB30AA31A932900002122CC3
:10026300F0122ED6122E787FC5122CF4122CE71220
:100273002ED6122E787FC8122CF4AB30AA31A932B5
:10028300121D7AFF122CF4122ED67F647E00122EDA
:1002930058122E787FCB122CF4AB30AA31A93290AE
:1002A3000007122CF0122ED6122E787FC1122CF4D6
:1002B300AB30AA31A932900006122CF0122ED612BE
:1002C3002E787FC4122CF4AB30AA31A932900005EA
:1002D300122CF0122ED6122E787FC3122CF4AB30D0
:1002E300AA31A932900004122CF0122ED6122E78C5
:1002F3007FC6122CF4AB30AA31A932900003122C22
:10030300F0122ED6122E787FC5122CF4AB30AA3100
:10031300A932900002122CF0122ED6122E787FC82A
:10032300122CF4122CE7122ED6122E787FC7122C21
:10033300F4AB30AA31A932121D7AFF122CF4122E1B
:10034300D67F647E00122E58122E787FCB122CF4A7
:10035300AB30AA31A932900008122CF0122ED6121B
:100363002E787FC1122CF4AB30AA31A9329000074A
:10037300122CF0122ED6122E787FC4122CF4AB302E
:10038300AA31A932900006122CF0122ED6122E7822
:100393007FC3122CF4AB30AA31A932900005122C82
:1003A300F0122ED6122E787FC6122CF4AB30AA315F
:1003B300A932900004122CF0122ED6122E787FC58B
:1003C300122CF4AB30AA31A932900003122CF01294
:1003D3002ED6122E787FC8122CF4AB30AA31A93254
:1003E300900002122CF0122ED6122E787FC7122CF8
:1003F300F4122CE7122ED6122E787FCA122CF4ABED
:1004030030AA31A932121D7AFF122CF4122ED67F94
:10041300647E00122E58122E787FCB122CF4AB3050
:10042300AA31A932900009122CF0122ED6122E787E
:100433007FC1122CF4AB30AA31A932900008122CE0
:10044300F0122ED6122E787FC4122CF4AB30AA31C0
:10045300A932900007122CF0122ED6122E787FC3E9
:10046300122CF4AB30AA31A932900006122CF012F0
:100473002ED6122E787FC6122CF4AB30AA31A932B5
:10048300900005122CF0122ED6122E787FC5122C56
:10049300F4AB30AA31A932900004122CF0122ED6FC
:1004A300122E787FC8122CF4AB30AA31A9329000F7
:1004B30003122CF0122ED6122E787FC7122CF4AB17
:1004C30030AA31A932900002122CF0122ED6122E2D
:1004D300787FCA122CF4122CE7122ED6122E787FB4
:1004E300C9122CF4AB30AA31A932121D7AFF122C97
:1004F300F4122ED67F647E00122E58122E787FCBF4
:10050300122CF4AB30AA31A93290000A122CF0124B
:100513002ED6122E787FC1122CF4AB30AA31A93219
:10052300900009122CF0122ED6122E787FC4122CB2
:10053300F4AB30AA31A932900008122CF0122ED657
:10054300122E787FC3122CF4AB30AA31A93290005B
:1005530007122CF0122ED6122E787FC6122CF4AB73
:1005630030AA31A932900006122CF0122ED6122E88
:10057300787FC5122CF4AB30AA31A9329000051252
:100583002CF0122ED6122E787FC8122CF4AB30AA80
:1005930031A932900004122CF0122ED6122E787F3D
:1005A300C7122CF4AB30AA31A932900003122CF0FD
:1005B300122ED6122E787FCA122CF4AB30AA31A990
:1005C30032900002122CF0122ED6122E787FC9120E
:1005D3002CF4122CE7122ED67F647E00122E5812B2
:1005E3002E787FCB122CF4AB30AA31A93290000BBA
:1005F300122CF0122ED6122E787FC1122CF4AB30AF
:10060300AA31A93290000A122CF0122ED6122E789B
:100613007FC4122CF4AB30AA31A932900009122CFA
:10062300F0122ED6122E787FC3122CF4AB30AA31DF
:10063300A932900008122CF0122ED6122E787FC603
:10064300122CF4AB30AA31A932900007122CF0120D
:100653002ED6122E787FC5122CF4AB30AA31A932D4
:10066300900006122CF0122ED6122E787FC8122C70
:10067300F4AB30AA31A932900005122CF0122ED619
:10068300122E787FC7122CF4AB30AA31A932900016
:1006930004122CF0122ED6122E787FCA122CF4AB31
:1006A30030AA31A932900003122CF0122ED6122E4A
:1006B300787FC9122CF4AB30AA31A9329000021210
:1006C3002CF0122ED67F647E00122E58122E787FC5
:1006D300CB122CF4AB30AA31A93290000C122CF0BF
:1006E300122ED6122E787FC1122CF4AB30AA31A968
:1006F3003290000B122CF0122ED6122E787FC412D9
:100703002CF4AB30AA31A93290000A122CF0122E2D
:10071300D6122E787FC3122CF4AB30AA31A93290B3
:100723000009122CF0122ED6122E787FC6122CF44A
:10073300AB30AA31A932900008122CF0122ED61237
:100743002E787FC5122CF4AB30AA31A93290000762
:10075300122CF0122ED6122E787FC8122CF4AB3046
:10076300AA31A932900006122CF0122ED6122E783E
:100773007FC7122CF4AB30AA31A932900005122C9A
:10078300F0122ED6122E787FCA122CF4AB30AA3177
:10079300A932900004122CF0122ED6122E787FC9A3
:1007A300122CF4AB30AA31A932900003122CF012B0
:1007B3002ED67F647E00122E58122E787FCB122CF9
:1007C300F4AB30AA31A93290000D122CF0122ED6C0
:1007D300122E787FC1122CF4AB30AA31A9329000CB
:1007E3000C122CF0122ED6122E787FC4122CF4ABDE
:1007F30030AA31A93290000B122CF0122ED6122EF1
:10080300787FC3122CF4AB30AA31A93290000A12BC
:100813002CF0122ED6122E787FC6122CF4AB30AAEF
:1008230031A932900009122CF0122ED6122E787FA5
:10083300C5122CF4AB30AA31A932900008122CF067
:10084300122ED6122E787FC8122CF4AB30AA31A9FF
:1008530032900007122CF0122ED6122E787FC71278
:100863002CF4AB30AA31A932900006122CF0122ED0
:10087300D6122E787FCA122CF4AB30AA31A932904B
:100883000005122CF0122ED6122E787FC9122CF4EA
:10089300AB30AA31A932900004122CF0122ED67F6D
:1008A300647E00122E58122E787FCB122CF4AB30BC
:1008B300AA31A93290000E122CF0122ED6122E78E5
:1008C3007FC1122CF4AB30AA31A93290000D122C47
:1008D300F0122ED6122E787FC4122CF4AB30AA312C
:1008E300A93290000C122CF0122ED6122E787FC350
:1008F300122CF4AB30AA31A93290000B122CF01257
:100903002ED6122E787FC6122CF4AB30AA31A93220
:1009130090000A122CF0122ED6122E787FC5122CBC
:10092300F4AB30AA31A932900009122CF0122ED662
:10093300122E787FC8122CF4AB30AA31A932900062
:1009430008122CF0122ED6122E787FC7122CF4AB7D
:1009530030AA31A932900007122CF0122ED6122E93
:10096300787FCA122CF4AB30AA31A9329000061258
:100973002CF0122ED6122E787FC9122CF4AB30AA8B
:1009830031A932900005122CF0122ED67F647E001E
:10099300122E58122E787FCB122CF4AB30AA31A929
:1009A3003290000F122CF0122ED6122E787FC11225
:1009B3002CF4AB30AA31A93290000E122CF0122E77
:1009C300D6122E787FC4122CF4AB30AA31A9329000
:1009D300000D122CF0122ED6122E787FC3122CF497
:1009E300AB30AA31A93290000C122CF0122ED61281
:1009F3002E787FC6122CF4AB30AA31A93290000BAB
:100A0300122CF0122ED6122E787FC5122CF4AB3096
:100A1300AA31A93290000A122CF0122ED6122E7887
:100A23007FC8122CF4AB30AA31A932900009122CE2
:100A3300F0122ED6122E787FC7122CF4AB30AA31C7
:100A4300A932900008122CF0122ED6122E787FCAEB
:100A5300122CF4AB30AA31A932900007122CF012F9
:100A63002ED6122E787FC9122CF4AB30AA31A932BC
:100A7300900006122CF0122ED67F647E00122E58A0
:100A8300122E787FCB122CF4AB30AA31A93290000E
:100A930010122CF0122ED6122E787FC1122CF4AB2A
:100AA30030AA31A93290000F122CF0122ED6122E3A
:100AB300787FC4122CF4AB30AA31A93290000E1205
:100AC3002CF0122ED6122E787FC3122CF4AB30AA40
:100AD30031A93290000D122CF0122ED6122E787FEF
:100AE300C6122CF4AB30AA31A93290000C122CF0B0
:100AF300122ED6122E787FC5122CF4AB30AA31A950
:100B03003290000B122CF0122ED6122E787FC812C0
:100B13002CF4AB30AA31A93290000A122CF0122E19
:100B2300D6122E787FC7122CF4AB30AA31A932909B
:100B33000009122CF0122ED6122E787FCA122CF432
:100B4300AB30AA31A932900008122CF0122ED61223
:100B53002E787FC9122CF4AB30AA31A9329000074A
:100B6300122CF0122ED67F647E00122E58122E788D
:100B73007FCB122CF4AB30AA31A932900011122C86
:100B8300F0122ED6122E787FC1122CF4AB30AA317C
:100B9300A932900010122CF0122ED6122E787FC498
:100BA300122CF4AB30AA31A93290000F122CF012A0
:100BB3002ED6122E787FC3122CF4AB30AA31A93271
:100BC30090000E122CF0122ED6122E787FC6122C05
:100BD300F4AB30AA31A93290000D122CF0122ED6AC
:100BE300122E787FC5122CF4AB30AA31A9329000B3
:100BF3000C122CF0122ED6122E787FC8122CF4ABC6
:100C030030AA31A93290000B122CF0122ED6122EDC
:100C1300787FC7122CF4AB30AA31A93290000A12A4
:100C23002CF0122ED6122E787FCA122CF4AB30AAD7
:100C330031A932900009122CF0122ED6122E787F91
:100C4300C9122CF4AB30AA31A932900008122CF04F
:100C5300122ED67F647E00122E58122E787FCB126E
:100C63002CF4AB30AA31A932900012122CF0122EC0
:100C7300D6122E787FC1122CF4AB30AA31A9329050
:100C83000011122CF0122ED6122E787FC4122CF4DF
:100C9300AB30AA31A932900010122CF0122ED612CA
:100CA3002E787FC3122CF4AB30AA31A93290000FF7
:100CB300122CF0122ED6122E787FC6122CF4AB30E3
:100CC300AA31A93290000E122CF0122ED6122E78D1
:100CD3007FC5122CF4AB30AA31A93290000D122C2F
:100CE300F0122ED6122E787FC8122CF4AB30AA3114
:100CF300A93290000C122CF0122ED6122E787FC738
:100D0300122CF4AB30AA31A93290000B122CF01242
:100D13002ED6122E787FCA122CF4AB30AA31A93208
:100D230090000A122CF0122ED6122E787FC9122CA4
:100D3300F4AB30AA31A932900009122CF0122ED64E
:100D43007F647E00122E58122E787FCB122CF4ABC8
:100D530030AA31A932900013122CF0122ED6122E83
:100D6300787FC1122CF4AB30AA31A9329000121251
:100D73002CF0122ED6122E787FC4122CF4AB30AA8C
:100D830031A932900011122CF0122ED6122E787F38
:100D9300C3122CF4AB30AA31A932900010122CF0FC
:100DA300122ED6122E787FC6122CF4AB30AA31A99C
:100DB3003290000F122CF0122ED6122E787FC5120D
:100DC3002CF4AB30AA31A93290000E122CF0122E63
:100DD300D6122E787FC8122CF4AB30AA31A93290E8
:100DE300000D122CF0122ED6122E787FC7122CF47F
:100DF300AB30AA31A93290000C122CF0122ED6126D
:100E03002E787FCA122CF4AB30AA31A93290000B92
:100E1300122CF0122ED6122E787FC9122CF4AB307E
:100E2300AA31A93290000A122CF0122ED6122E7873
:080E33007F8B122CF4022ED675
:100E3B008B308A318932122E787F44122CF4122E89
:100E4B00D6122E787FC2122CF4AB30AA31A93212F3
:100E5B001D7AFF122CF4122ED6122E787FC0122C74
:100E6B00F4AB30AA31A932121D7AFF122CF4122ED8
:100E7B00D6122E787FCC122CF4AB30AA31A93212B9
:100E8B001D7AFF122CF4122ED6122E787FCE122C36
:100E9B00F4AB30AA31A932121D7AFF122CF4122EA8
:100EAB00D6122E787FCF122CF4AB30AA31A9321286
:100EBB001D7AFF122CF4122ED6122E787FCD122C07
:100ECB00F4AB30AA31A932121D7AFF122CF4122E78
:100EDB00D6122E787FCB122CF4AB30AA31A932125A
:100EEB001D7AFF122CF4122ED6122E787FC1122CE3
:100EFB00F4AB30AA31A932121D7AFF122CF4122E48
:100F0B00D6122E787FC4122CF4AB30AA31A9321230
:100F1B001D7AFF122CF4122ED6122E787FC3122CB0
:100F2B00F4AB30AA31A932121D7AFF122CF4122E17
:100F3B00D6122E787FC6122CF4AB30AA31A93212FE
:100F4B001D7AFF122CF4122ED6122E787FC5122C7E
:100F5B00F4AB30AA31A932121D7AFF122CF4122EE7
:100F6B00D6122E787FC8122CF4AB30AA31A93212CC
:100F7B001D7AFF122CF4122ED6122E787FC7122C4C
:100F8B00F4AB30AA31A932121D7AFF122CF4122EB7
:100F9B00D6122E787FCA122CF4AB30AA31A932129A
:100FAB001D7AFF122CF4122ED6122E787FC9122C1A
:100FBB00F4AB30AA31A932121D7AFF122CF4122E87
:100FCB00D67FF47E01122E58122E787FC2122CF48B
:100FDB00AB30AA31A932900001122CF0122ED6128E
:100FEB002E787FC0122CF4AB30AA31A932900001BD
:100FFB00122CF0122ED6122E787FCC122CF4AB3092
:10100B00AA31A932900001122CF0122ED6122E7892
:10101B007FCE122CF4AB30AA31A932900001122CE6
:10102B00F0122ED6122E787FCF122CF4AB30AA31C1
:10103B00A932900001122CF0122ED6122E787FCDF1
:10104B00122CF4AB30AA31A932900001122CF01201
:10105B002ED6122E787FCB122CF4AB30AA31A932BC
:10106B00900001122CF0122ED6122E787FC1122C6A
:10107B00F4AB30AA31A932900001122CF0122ED60B
:10108B00122E787FC4122CF4AB30AA31A932900007
:10109B0001122CF0122ED6122E787FC3122CF4AB29
:1010AB0030AA31A932900001122CF0122ED6122E3A
:1010BB00787FC6122CF4AB30AA31A9329000011202
:1010CB002CF0122ED6122E787FC5122CF4AB30AA30
:1010DB0031A932900001122CF0122ED6122E787FED
:1010EB00C8122CF4AB30AA31A932900001122CF0AB
:1010FB00122ED6122E787FC7122CF4AB30AA31A940
:10110B0032900001122CF0122ED6122E787FCA12BA
:10111B002CF4AB30AA31A932900001122CF0122E14
:10112B00D6122E787FC9122CF4AB30AA31A932908B
:10113B000001122CF0122ED67FF47E01122E5812C3
:10114B002E787FC2122CF4AB30AA31A93290000258
:10115B00122CF0122ED6122E787FC0122CF4AB303C
:10116B00AA31A932900002122CF0122ED6122E7830
:10117B007FCC122CF4AB30AA31A932900002122C86
:10118B00F0122ED6122E787FCE122CF4AB30AA3161
:10119B00A932900002122CF0122ED6122E787FCF8D
:1011AB00122CF4AB30AA31A932900002122CF0129F
:1011BB002ED6122E787FCD122CF4AB30AA31A93259
:1011CB00900002122CF0122ED6122E787FCB122CFE
:1011DB00F4AB30AA31A932900002122CF0122ED6A9
:1011EB00122E787FC1122CF4AB30AA31A9329000A9
:1011FB0002122CF0122ED6122E787FC4122CF4ABC6
:10120B0030AA31A932900002122CF0122ED6122ED7
:10121B00787FC3122CF4AB30AA31A93290000212A2
:10122B002CF0122ED6122E787FC6122CF4AB30AACD
:10123B0031A932900002122CF0122ED6122E787F8A
:10124B00C5122CF4AB30AA31A932900002122CF04B
:10125B00122ED6122E787FC8122CF4AB30AA31A9DD
:10126B0032900002122CF0122ED6122E787FC7125B
:10127B002CF4AB30AA31A932900002122CF0122EB2
:10128B00D6122E787FCA122CF4AB30AA31A9329029
:10129B000002122CF0122ED6122E787FC9122CF4CB
:1012AB00AB30AA31A932900002122CF0122ED67F4D
:1012BB00F47E01122E58122E787FC2122CF4AB3012
:1012CB00AA31A932900003122CF0122ED6122E78CE
:1012DB007FC0122CF4AB30AA31A932900003122C30
:1012EB00F0122ED6122E787FCC122CF4AB30AA3102
:1012FB00A932900003122CF0122ED6122E787FCE2C
:10130B00122CF4AB30AA31A932900003122CF0123C
:10131B002ED6122E787FCF122CF4AB30AA31A932F5
:10132B00900003122CF0122ED6122E787FCD122C99
:10133B00F4AB30AA31A932900003122CF0122ED646
:10134B00122E787FCB122CF4AB30AA31A93290003D
:10135B0003122CF0122ED6122E787FC1122CF4AB66
:10136B0030AA31A932900003122CF0122ED6122E75
:10137B00787FC4122CF4AB30AA31A932900003123F
:10138B002CF0122ED6122E787FC3122CF4AB30AA6F
:10139B0031A932900003122CF0122ED6122E787F28
:1013AB00C6122CF4AB30AA31A932900003122CF0E8
:1013BB00122ED6122E787FC5122CF4AB30AA31A97F
:1013CB0032900003122CF0122ED6122E787FC812F8
:1013DB002CF4AB30AA31A932900003122CF0122E50
:1013EB00D6122E787FC7122CF4AB30AA31A93290CB
:1013FB000003122CF0122ED6122E787FCA122CF468
:10140B00AB30AA31A932900003122CF0122ED61257
:10141B002E787FC9122CF4AB30AA31A9329000037D
:10142B00122CF0122ED67FF47E01122E58122E782B
:10143B007FC2122CF4AB30AA31A932900004122CCB
:10144B00F0122ED6122E787FC0122CF4AB30AA31AC
:10145B00A932900004122CF0122ED6122E787FCCCB
:10146B00122CF4AB30AA31A932900004122CF012DA
:10147B002ED6122E787FCE122CF4AB30AA31A93295
:10148B00900004122CF0122ED6122E787FCF122C35
:10149B00F4AB30AA31A932900004122CF0122ED6E4
:1014AB00122E787FCD122CF4AB30AA31A9329000DA
:1014BB0004122CF0122ED6122E787FCB122CF4ABFA
:1014CB0030AA31A932900004122CF0122ED6122E13
:1014DB00787FC1122CF4AB30AA31A93290000412E0
:1014EB002CF0122ED6122E787FC4122CF4AB30AA0D
:1014FB0031A932900004122CF0122ED6122E787FC6
:10150B00C3122CF4AB30AA31A932900004122CF088
:10151B00122ED6122E787FC6122CF4AB30AA31A91C
:10152B0032900004122CF0122ED6122E787FC51298
:10153B002CF4AB30AA31A932900004122CF0122EED
:10154B00D6122E787FC8122CF4AB30AA31A9329068
:10155B000004122CF0122ED6122E787FC7122CF408
:10156B00AB30AA31A932900004122CF0122ED612F5
:10157B002E787FCA122CF4AB30AA31A9329000041A
:10158B00122CF0122ED6122E787FC9122CF4AB30FF
:10159B00AA31A932900004122CF0122ED67FF47EC1
:1015AB0001122E58122E787FC2122CF4AB30AA31B6
:1015BB00A932900005122CF0122ED6122E787FC075
:1015CB00122CF4AB30AA31A932900005122CF01278
:1015DB002ED6122E787FCC122CF4AB30AA31A93236
:1015EB00900005122CF0122ED6122E787FCE122CD4
:1015FB00F4AB30AA31A932900005122CF0122ED682
:10160B00122E787FCF122CF4AB30AA31A932900076
:10161B0005122CF0122ED6122E787FCD122CF4AB95
:10162B0030AA31A932900005122CF0122ED6122EB0
:10163B00787FCB122CF4AB30AA31A9329000051273
:10164B002CF0122ED6122E787FC1122CF4AB30AAAE
:10165B0031A932900005122CF0122ED6122E787F63
:10166B00C4122CF4AB30AA31A932900005122CF025
:10167B00122ED6122E787FC3122CF4AB30AA31A9BE
:10168B0032900005122CF0122ED6122E787FC61235
:10169B002CF4AB30AA31A932900005122CF0122E8B
:1016AB00D6122E787FC5122CF4AB30AA31A932900A
:1016BB000005122CF0122ED6122E787FC8122CF4A5
:1016CB00AB30AA31A932900005122CF0122ED61293
:1016DB002E787FC7122CF4AB30AA31A932900005BB
:1016EB00122CF0122ED6122E787FCA122CF4AB309D
:1016FB00AA31A932900005122CF0122ED6122E7898
:10170B007FC9122CF4AB30AA31A932900005122CF0
:10171B00F0122ED67FF47E01122E58122E787FC235
:10172B00122CF4AB30AA31A932900006122CF01215
:10173B002ED6122E787FC0122CF4AB30AA31A932E0
:10174B00900006122CF0122ED6122E787FCC122C73
:10175B00F4AB30AA31A932900006122CF0122ED61F
:10176B00122E787FCE122CF4AB30AA31A932900016
:10177B0006122CF0122ED6122E787FCF122CF4AB31
:10178B0030AA31A932900006122CF0122ED6122E4E
:10179B00787FCD122CF4AB30AA31A932900006120F
:1017AB002CF0122ED6122E787FCB122CF4AB30AA43
:1017BB0031A932900006122CF0122ED6122E787F01
:1017CB00C1122CF4AB30AA31A932900006122CF0C6
:1017DB00122ED6122E787FC4122CF4AB30AA31A95C
:1017EB0032900006122CF0122ED6122E787FC312D6
:1017FB002CF4AB30AA31A932900006122CF0122E29
:10180B00D6122E787FC6122CF4AB30AA31A93290A7
:10181B000006122CF0122ED6122E787FC5122CF445
:10182B00AB30AA31A932900006122CF0122ED61230
:10183B002E787FC8122CF4AB30AA31A93290000657
:10184B00122CF0122ED6122E787FC7122CF4AB303E
:10185B00AA31A932900006122CF0122ED6122E7835
:10186B007FCA122CF4AB30AA31A932900006122C8D
:10187B00F0122ED6122E787FC9122CF4AB30AA316F
:10188B00A932900006122CF0122ED6122E787F8BD6
:06189B00122CF4022ED60F
:10291F008B308A318932122E787F44122CF4122E8A
:10292F00D6122E787FC2122CF4AB30AA31A93212F4
:10293F001D7AFF122CF4122ED6122E787FC0122C75
:10294F00F4AB30AA31A932900001122CF0122ED61E
:10295F00122E787FCC122CF4AB30AA31A932900012
:10296F0002122CF0122ED6122E787FCE122CF4AB30
:10297F0030AA31A932900003122CF0122ED6122E4B
:10298F00787FCF122CF4AB30AA31A9329000041209
:10299F002CF0122ED6122E787FCD122CF4AB30AA3B
:1029AF0031A932900005122CF0122ED6122E787FFC
:0729BF008B122CF4022ED64E
:0B2EFD00759503C2A0C2A1E4F5B42249
:102C7D00E4F533F532F531F530E47F32FEFDFCAB92
:102C8D0033AA32A931A830C3121E02504CE4F537D5
:102C9D00F536F535F534E47FE87E03FDFCAB37AA58
:102CAD0036A935A834C3121E025017E5372401F595
:102CBD0037E43536F536E43535F535E43534F53468
:102CCD0080D4E5332401F533E43532F532E4353182
:092CDD00F531E43530F53080A03A
:012CE60022CB
:102E5800E4FDFCC3ED9FEC9E5015E4FBFA0BBB00B0
:0F2E6800010ABA01F8BB4DF50DBD00010C80E465
:012E77002238
:062DC4008B308A318932D8
:102DCA00E4FFFEAB30AA31A9328F828E83121D93A3
:102DDA0060070FBF00010E80EAAB33AA34A935128F
:102DEA001D7AAB30AA31A9328F828E83121DD28FFF
:082DFA00828E83A3E4021DD2C6
:102711007F41E4FEEEFDC394057480948040030282
:102721002838ED7032D290C291C292C293C29430D5
:1027310095052095FD7F013096052096FD7F02309D
:10274100A20520A2FD7F0330A40520A4FD7F173040
:10275100A60520A6FD7F04EE64017032C290D291DD
:10276100C292C293C2943095052095FD7F043096A4
:10277100052096FD7F0530A20520A2FD7F0630A42D
:102781000520A4FD7F1530A60520A6FD7F16EE6469
:10279100027032C290C291D292C293C29430950516
:1027A1002095FD7F073096052096FD7F0830A20514
:1027B10020A2FD7F0930A40520A4FD7F1330A605CA
:1027C10020A6FD7F14EE64037032C290C291C292C2
:1027D100D293C2943095052095FDE4FF30960520F3
:1027E10096FD7F0A30A20520A2FD7F0B30A40520B3
:1027F100A4FD7F1130A60520A6FD7F12EE640470B2
:1028010032C290C291C292C293D294309505209562
:10281100FD7F0F3096052096FD7F0E30A20520A288
:10282100FD7F1030A40520A4FD7F0C30A60520A655
:07283100FD7F0D0E022715CB
:01283800227D
:092F08007F337E337D237C4022DF
:1018A100EC4D6011E8497017ED33EC3304600DE441
:1018B100FCFFFEFD22E933E8330470F80219DC1263
:1018C10019A758046009E4CC248150062850090264
:1018D10019E62840030219E3C0E0EB4A7044B980DD
:1018E10006D0E0FB0219D2EF4E701CBD8008EBFF61
:1018F100EAFEE9FD80EBE98DF0A4FEE5F002198A2C
:10190100E9CDF9EAFEEBFFEF89F0A4FCE5F0CE8921
:10191100F0A42EFFE435F0CD89F0A42DFEE435F0DE
:101921008067EF4E7005BD80D780C3EF8BF0A4AC0C
:10193100F0EE8BF0A42CFCE435F0F8EF8AF0A42C47
:10194100E5F038FCE433CB8DF0A42CFCE5F03BF85A
:10195100EE8AF0A42CFCE5F038F8E433CF89F0A44A
:101961002CFCE5F038CF3400CE89F0A42FFFE5F050
:101971003EFEE433C98DF0A42EFEE5F039CD8AF0A8
:10198100A42FFFE5F03EFEE43DFD33D0E0FB500720
:101991000BBB000F0219E6EC2CFCEF33FFEE33FE1C
:0619A100ED33FD0219BE4A
:101E5500E5672453F8E60567227850300702785382
:101E6500E475F001121E1F021D7A2000EB7F2ED2B1
:101E7500008018EF540F2490D43440D4FF30040B65
:101E8500EF24BFB41A0050032461FFE56860021512
:101E950068056BE56B7002056A30070D7850E475CF
:101EA500F001121E1FEF021DC0022E317403D2076E
:101EB5008003E4C207F5678B508A518952E4F568BF
:101EC500F56AF56BE56860077F20121E9080F57551
:101ED50069FFC201C200C202C203C205C206C2082E
:101EE500121E5EFF700D3007057F00121EA1AF6B3D
:101EF500AE6A22B4255FC2D5C204121E5EFF24D08D
:101F0500B40A00501A75F00A786830D50508B6FF8E
:101F15000106C6A426F620D5047002D20380D92472
:101F2500CFB41A00EF5004C2E5D20402218ED201CB
:101F350080C6D20080C0D20280BCD2D580BAD2057C
:101F450080B47F20121E902002077401B5680040FE
:101F5500F1121E55FF121E90021EC9D208D206802C
:101F650095121E55FB121E55FA121E55F94A4B7055
:101F75000679857A227BFF20022EE568602A7E009D
:101F85008E82758300121D9360060EEE656970F0F2
:101F9500C2D5EBC0E0EAC0E0E9C0E0EE1221EED028
:101FA500E0F9D0E0FAD0E0FB121D7AFF60AAEBC0A1
:101FB500E0EAC0E0E9C0E0121E90D0E02401F9D0CB
:101FC500E03400FAD0E0FBE5690460DCD569D9802E
:101FD50087D20280A21221D160F7E569700104124F
:101FE50019F1A969600DE569600914F5691222788E
:101FF500EF60F3EA30E702F404C3995077EAF42579
:10200500690430E701E404F569800D1221D160C14E
:10201500EA056925691219F1EA7866F630E701E4FF
:10202500256904D56904200501141221EEE4C0E0F8
:102035001222787866E6601320E70714F6121E78F8
:10204500802204F6D0E014C0E07F00121E78E56916
:102055006007121E6F1569800B300503121E6FD0C5
:10206500E0021EC9D0E00480C51221D160A0E56957
:10207500041219F17866EAF6E569200502600104A3
:0520850024041221EE0D
:10208A0074FF04C0E0122278121E78E56920050266
:10209A006003121E6FD0E0B569E87F45121E827890
:1020AA0066E67F2B30E7047F2DF404C0E0121E9011
:1020BA00D0E075F00A84C0F0121E79D0E0121E79C1
:1020CA00021EC9791080027908C206C2088008D2A5
:1020DA00D5790A8004790AC2D5E569047002F569DE
:1020EA00E4FAFDFEFF121E55FC7B08200113121EA6
:1020FA0055FD7B1030000A121E55FE121E55FF7B3D
:10210A0020EC3382D592D55013C3E43000069FFFEA
:10211A00E49EFEE42001039DFDE49CFCE4CBF8C2AE
:10212A0001EC700CCFCECDCCE824F8F870F3801710
:10213A00C3EF33FFEE33FEED33FDEC33FCEB33FB41
:10214A00994002FB0FD8E9EB300105F8D0E0C4480A
:10215A00B201C0E00AEC4D4E4F78207B0070C2EA13
:10216A00B5690040BCC0E01221F0D0F0D0E02001F7
:10217A0004C4C0E0C4B201C0F0121E79D0F0D5F098
:10218A00EB021EC9121E2F1F665320CD581F374C53
:10219A001F334220D14F20D94420D9491F4C432014
:1021AA00DF55201046206E451FDA4722A5501F3BF7
:1021BA002D1F3F2E1F622B1F43231F6020228E2AB2
:1021CA001EFB4800001F5AE569B4FF037569061231
:1021DA001E55FC121E55FD121E55FE121E55FF7885
:1021EA005F021A20790AA2D5200314300509B91012
:1021FA00020404B9080104A2D520060250010420F1
:10220A0002689202B568005034C0E07F203003199A
:10221A007F30A20272067205500F122247C202C212
:10222A0006C205C2087F30800F300503E9C0E012FC
:10223A001E90300503D0E0F9D0E0B568CC30051720
:10224A007F30B9100C121E907F583004077F7880B7
:10225A0003B90803121E903002057F2D021E907FDB
:10226A00202008F87F2B2006F322920280CF7F00DD
:10227A00B407005005245FF8E6FF22286E756C6CDF
:10228A002900D201121E553001F8C201786830D5F2
:10229A000108F6021EFB2D50434958121E5524030D
:1022AA00B405004001E49022A093121E81743A12F0
:0A22BA001E81D2037568040220CDD6
:102D7C00D2008B308A318932122DB8C0E0FF122E6E
:102D8C00EAD0E040F312284C400122ECC0E0EDC048
:102D9C00E0EEC0E0EFC0E0122DB8D0F0AFF0D0F014
:102DAC00AEF0D0F0ADF0D0F0ACF080D9E475F0011D
:082DBC007830121E1F021D7A7F
:1019A700E9D2E7C933E833F892D5EDD2E7CD33EC86
:0719B70033FC5002B2D522FF
:1019BE00EC30E7100FBF000C0EBE00080DBD00048A
:1019CE000BEB6014A2D5EB13FCED92E7FD2274FF36
:1019DE00FCFDFEFF22E480F8A2D574FF13FC7D808F
:0319EE00E480EFA3
:1019F100F920E72824F950037907E4F42402FB18BD
:101A0100DBFDE624FB5014E9600DE4F618E604F66C
:0F1A1100B40A08E4F6D9F57401F60A22C2D52208
:101A2000ED33EC3392D5FA602AB4FF33EDC2E77B95
:101A3000FF60067A1A7945E4227A1A794E20D50495
:101A40007A1A7949224E614E002B494E46002D49A3
:101A50004E4600E47A08F608DAFC7B00740722E8B8
:101A6000C0E0ECC0E0EDC0E0EEC0E0EFC0E0EA7541
:101A7000F010A4CAABF075F04DA42BFBE435F0FCDC
:101A8000EA2410FAEB34C5FBEC34D9FCEDC2E7FFD5
:101A900075F056A4F42411C5F0F434C58FF0A42ACF
:101AA000E5F03BE43CF620E714121D3AD0E0FFD00D
:101AB000E0FED0E0FDD0E0FC121C1E8014F4041205
:101AC0001D3AD0E0FFD0E0FED0E0FDD0E0FC1218DF
:101AD000A1D0E0F8E6FAEDD2E7CD33EC332482FB77
:101AE000E4C3CF33CFCE33CECD33CD33DBF37B075F
:101AF00075F00A846004F6081B0AE5F0F6088FF01A
:101B0000740AA4FFACF08EF0740AA42CFEACF05062
:101B1000010C8DF0740AA42CFDE435F0F608DBDE30
:031B200074072225
:10283900C201C202C203C204F9E4F533F534FCFD56
:10284900FEFFE91000EA20030CB42D04D203D322C1
:10285900B42B02D32224D0504794095041240A3082
:102869000415F88534F0740AA42872E74051C5F0BC
:10287900704D85F034D322D202C0E0E4FBFA79200E
:1028890078411218A1ECF8EDF9EEFAEFFBD0E0FC73
:10289900E4121CD6121B2A3001B41533D322240AA0
:1028A900200420B4FE0720011AD201D32224EB60B0
:1028B9000424E0700EA2039201D204C203D322C3FE
:1028C9000219DCE430040BE534300302F404A201FC
:1028D90092033002EA253320D2E5A2E7920450029E
:1028E900F404B4260050D8CCC0E0EDC0E0EEC0E05E
:1028F900EFC0E0EC121D3AD0E0FFD0E0FED0E0FDE1
:10290900D0E0FC2004051218A18003121C1E30031C
:0629190003121CBBC322E7
:101B23000219DCE86480F8E933E83360110460F0FB
:101B3300ED33EC337009E8FCE9FDEAFEEBFF220428
:101B430060DED3EB9FEA9EE99DE8C2E78CF0C2F723
:101B530095F0400CE8CCF8E9CDF9EACEFAEBCFFBEF
:101B63001219A785D0F05804700320D5B3E8047088
:101B7300075002B2D50219E692D5EC0460F7E4CC23
:101B8300C0E0C398F8603B94186008400DD0E0FBB8
:101B93000219BEE4FBFAC9FC8028E830E406E4C974
:101BA300FBE4CAFCE830E305E4C9CACBFCE854070C
:101BB3006010F8C3E913F9EA13FAEB13FBEC13FC17
:101BC300D8F130F52FC3E49CFCEF9BFFEE9AFEEDBA
:101BD30099FDD0E0FBEF4E4D4C701222DB0302194E
:101BE300E3EC2CFCEF33FFEE33FEED33FDED30E79A
:101BF300EB0219BEEF2BFFEE3AFEED39FDD0E0FB11
:101C030050130BBB00030219E6ED13FDEE13FEEFB9
:081C130013FFEC13FC0219BEE3
:101C1B000219E6EC5D046005E8590470030219DC57
:101C2B001219A7580460F6EC4860F2EC7004FDFE44
:101C3B00FF22C860DB2481C85009C398600250069C
:101C4B000219E39850CAF582E9294B4A7005AB8219
:101C5B000219D275F0007C1A7880C3EF9BEE9AEDD7
:101C6B0099400DC3EF9BFFEE9AFEED99FDE842F014
:101C7B00DC23ACF0D0E0FFD0E0FED0E0FDAB822067
:101C8B00E7101BEB60BAEC2CFCEF33FFEE33FEEDF1
:101C9B0033FD0219BEE803F830E705C0F075F0001C
:101CAB00EF2FFFEE33FEED33FD40B830E7C280AAD5
:101CBB00ED33EC33600A047003BD8004ECB2E7FC37
:011CCB0022F6
:101CCC0075F020800E75F010800575F0087D007E93
:101CDC00007F003392D530D503121DF4EC33401045
:101CEC00EF33FFEE33FEED33FDEC33FCD5F0ED229C
:0E1CFC00E5F0247EA2D513CC92E7CDCEFF22D8
:101D0A003F8000004120000042C80000447A0000E1
:101D1A00461C400047C35000497424004B18968063
:101D2A004CBEBC205A0E1BCA6753C21C749DC5AE5A
:101D3A00FB60065407601C2323121D68EB543860AD
:101D4A0009121D54121D631218A1ECF8EDF9EEFAEE
:101D5A00EFCB22EB121D6380F1543803241C901D33
:101D6A000AFE93FC0EEE93FD0EEE930ECE93FF2227
:03000000022B824E
:0C2B8200787FE4F6D8FD75816B022BC94A
:101D7A00BB010689828A83E0225002E722BBFE0267
:091D8A00E32289828A83E493229A
:101D9300BB010CE58229F582E5833AF583E0225005
:101DA30006E92582F8E622BBFE06E92582F8E2224F
:0D1DB300E58229F582E5833AF583E4932269
:101DC000BB010689828A83F0225002F722BBFE0102
:021DD000F322FC
:101DD200F8BB010DE58229F582E5833AF583E8F047
:101DE200225006E92582C8F622BBFE05E92582C8F3
:021DF200F222DB
:0E1DF400C3E49FFFE49EFEE49DFDE49CFC2200
:101E0200EB9FF5F0EA9E42F0E99D42F0E89C45F036
:011E120022AD
:0C1E1300ECF0A3EDF0A3EEF0A3EFF02242
:101E1F00FAE6FB0808E6F925F0F618E6CA3AF622C4
:101E2F00D083D082F8E4937012740193700DA3A342
:101E3F0093F8740193F5828883E473740293686056
:061E4F00EFA3A3A380DF56
:102E3100EFB40A07740D122E3C740A309811A89948
:102E4100B8130CC2983098FDA899C298B811F63001
:072E510099FDC299F59922D9
:102EEA00EFC394094005EF940E4003BF2003D3803B
:032EFA0001C322EF
:102EAD00E4FFFE121D7A600C0FEF70010E09E97040
:052EBD00F20A80EF2283
:102B8E000222C4E493A3F8E493A34003F68001F277
:102B9E0008DFF48029E493A3F85407240CC8C33348
:102BAE00C4540F4420C8834004F456800146F6DF17
:102BBE00E4800B0102040810204080902C0EE47E6D
:102BCE00019360BCA3FF543F30E509541FFEE4930C
:102BDE00A360010ECF54C025E060A840B8E493A3D3
:102BEE00FAE493A3F8E493A3C8C582C8CAC583CAFE
:102BFE00F0A3C8C582C8CAC583CADFE9DEE780BEB6
:012C7C000057
:00000001FF
