:102F6600252E306600252E316600252E3266002578
:042F76002E33660090
:102CA5004600141010101010104A0031EDA0D9F88C
:102CB500B47C7DE0FDFC47002040C0E0E8E9EDFD87
:102CC50045002C004D45D500460040EDA200455D70
:102CD500AD540000B55D0D0DED107C4DF50D0000FA
:102CE500000000000000000046001A00000000007F
:102CF50000450027001DF5FD0045003BB4A2A000DE
:0E2D05000002170000021B0000420046000200
:1024E600E4F522F523122A5D753400753505753637
:1024F600007537027F007E007D007C001222DF8B94
:102506002D8A2E892F122B89753400753506900079
:1025160046E0F536A3E0F5377F007E007D007C00BF
:102526001222DF8B2D8A2E892F1229B6122FAC90FC
:102536000053121E139000531222C48B2D8A2E892B
:102546002F122AF91226BB8F247F0A7E00122EFC38
:10255600E524644170030226B1E51864014517704D
:1025660011FB7A007925122F51C3EF9406EE9400E1
:102576004029E51845177029FB7A007925122F5155
:10258600900047E02FFF900046E03EFEC3EF940523
:10259600EE9400500CE524640A60067E007F0080FD
:1025A600047E007F018E228F23AF247E00C3EF942A
:1025B6000B7480948040030226B1E5234522600314
:1025C6000226B1C3EF940A748094805008E518453A
:1025D600177002806AE524640A700EE518451770C4
:1025E60008F517751801022532C3E524940A74808C
:1025F60094805030E518640145177028E51C451B8A
:102606007022752C2E122DCB43243085242C753345
:102616000075340075352C7B00122DD4751B0075A2
:102626001C018024C3E524940A748094805019E523
:1026360018640145177011E51C6401451B700943B8
:10264600243085242C122DCB7B007A007925122E7E
:102656005E90005B121E13900053E0FCA3E0FDA306
:10266600E0FEA3E0FF90005BE0F8A3E0F9A3E0FA48
:10267600A3E0FB121999900057121E1390005B12EB
:1026860022C48B2D8A2E892F122B89900057E0FCAD
:10269600A3E0FDA3E0FEA3E0FF7534007535061246
:1026A60022D58B2D8A2E892F1229B67F0A7E0012FB
:0526B6002EFC0225329C
:102F390075911FD2A2D2A4D2A6D296D295C290C21E
:082F490091C292C293C29422CE
:1022C400E0FCA3E0FDA3E0FEA3E0FF753400753558
:0B22D40005900046E0F536A3E0F5376A
:0822DF008F338E328D318C30FB
:1022E700E4F548F549F54AF54BF54CF54DE5374525
:1022F7003670137553FF75542F7555668F598E5861
:102307008D578C56805BE5376401453670177553DA
:10231700FF75542F75556B8533598532588531575D
:10232700853056803CE5376402453670177553FF94
:1023370075542F75557085335985325885315785B2
:102347003056801DE53764034536701D7553FF759C
:10235700542F7555758533598532588531578530D2
:1023670056FB7A007938121EB1E4F54EF54F7B0023
:102377007A007938122F51C3E54F9FE54E9E501CC6
:102387007438254FF8E6642E60120549E549700256
:102397000548054FE54F70D6054E80D2E5492537EC
:1023A700FFE5483536FED3EF9535E5346480F8EE22
:1023B70064809840077B017A007914227B007A00B9
:1023C7007938122F51EF24FFF54FEE34FFF54ED336
:1023D700E54F94FFE54E6480947F40317B007A009F
:1023E7007938122F51EF24FFFFEE34FFFEC3EF952C
:1023F7004FFFEE954EFE7438254FF8E6FD74402FDB
:10240700F8A605E54F154F70C6154E80C27B007ABA
:10241700007938122F5174402FF8E4F6F54EF54F36
:10242700C3E54F9535E5346480F8E54E64809850F0
:10243700187448254FF5827400354EF583E4F0058E
:102447004FE54F70DB054E80D7E4F54EF54F7B0027
:102457007A007940122F51C3E54F9FE54E9E507386
:102467007440254FF8E6FFB42E0E754A00754B01F0
:10247700754C00754D018050EF540F7E002431F5E7
:1024870082EE3400F583E0FFE54D6401454C702A88
:10249700E54B6401454A70184307027447254FF519
:1024A700827400354EF583EFF0E4F54AF54B80185A
:1024B7007447254FF582740080087448254FF582CC
:1024C7007400354EF583EFF0054FE54F7002054E6A
:0E24D700022455E490004EF07B017A00794813
:0124E50022D4
:0D2DCB00F53375340075352CFB7A00792541
:062DD8008B308A318932C4
:102DDE00E4FFFEAB30AA31A9328F828E83121D938F
:102DEE0060070FBF00010E80EAAB33AA34A935127B
:102DFE001D7AAB30AA31A9328F828E83121DD28FEB
:082E0E00828E83A3E4021DD2B1
:102A5D00122FA1122F39E4FF122EA67F0A7E00122B
:102A6D002EFC7B017A00791A122AF97B017A007902
:102A7D001A122B897B017A00791A1229B67B017AF9
:102A8D0000792C122AF9122D147B017A007940124B
:102A9D0029B6122D147B017A00791A1229B67B0101
:102AAD007A00791A122AF97B017A00791A122B8988
:102ABD00122D147B017A007900120003122D147B64
:102ACD00017A007920120E3B122D147B017A0079C8
:102ADD001A1229B67B017A00791A122AF97B017A2A
:0C2AED0000791A122B89122D14022D14EE
:102EA6008F30D2A07F017E00122EFCD2A1E53070B9
:102EB60007122F1C7F808010122F1C7F44122D8B2F
:0F2EC600122F7A122F1C7F8F122D8B122F7A2230
:102F1C00D2A0D2A17F017E00122EFCC2A07F017E26
:0D2F2C0000122EFCC2A17F017E00022EFCCF
:0D2D7E00900001AB30AA31A932121D93FF65
:102D8B008F34C2A0C2A1E4F533C3E5339408748039
:102D9B0094805027C2A17F017E00122EFCE53430B7
:102DAB00E004D2A08002C2A07F017E00122EFCD2D2
:0F2DBB00A1E534C313F534053380CEC2A1C2A005
:012DCA0022E6
:102F7A00C2A0D2A17F017E00122EFCD2A07F017EC8
:042F8A0000022EFC17
:062E16008B6C8A6D896ED1
:102E1C00122F1C7F44122D8B122F7A122F1C7FCD58
:102E2C00122D8BE4F56FC3E56F9401748094805080
:102E3C0013AB6CAA6DA96E856F82758300122D87FA
:102E4C00056F80E2122F7A122F1C7F8B122D8B02B2
:022E5C002F7ACB
:102AF9008B308A318932122F1C7F44122D8B122F71
:102B09007A122F1C7FC5122D8BAB30AA31A9321234
:102B19001D7AFF122D8B122F7A122F1C7FC8122DAE
:102B29008BAB30AA31A932900001122D87122F7A6E
:102B3900122F1C7FC7122D8BAB30AA31A9329000FE
:102B490002122D87122F7A122F1C7FCA122D8BABDE
:102B590030AA31A932900003122D87122F7A122F31
:102B69001C7FC9122D8BAB30AA31A93290000412F7
:102B79002D87122F7A122F1C7F8B122D8B022F7A01
:102B89008B308A318932122F1C7F44122D8B122FE0
:102B99007A122F1C7FCB122D8BAB30AA31A932129E
:102BA9001D7AFF122D8B122F7A122F1C7FC1122D25
:102BB9008BAB30AA31A932900001122D87122F7ADE
:102BC900122F1C7FC4122D8BAB30AA31A932900071
:102BD90002122D87122F7A122F1C7FC3122D8BAB55
:102BE90030AA31A932900003122D87122F7A122FA1
:102BF9001C7FC6122D8BAB30AA31A932900004126A
:102C09002D87122F7A122F1C7F8B122D8B022F7A70
:100003008B308A318932122F1C7F44122D8B122F91
:100013007A122F1C7FCB122D8BAB30AA31A932124F
:100023001D7AFF122D8B122F7A7F647E00122EFC15
:10003300122F1C7FCB122D8B122D7E122F7A122F93
:100043001C7FC1122D8BAB30AA31A932121D7AFF4E
:10005300122D8B122F7A7F647E00122EFC122F1C1E
:100063007FCB122D8B900002122D81122F7A122F2B
:100073001C7FC1122D8B122D7E122F7A122F1C7F03
:10008300C4122D8BAB30AA31A932121D7AFF122D67
:100093008B122F7A7F647E00122EFC122F1C7FCBD3
:1000A300122D8BAB30AA31A932900003122D871287
:1000B3002F7A122F1C7FC1122D8BAB30AA31A9329C
:1000C300900002122D87122F7A122F1C7FC4122D3B
:1000D3008B122D7E122F7A122F1C7FC3122D8BAB06
:1000E30030AA31A932121D7AFF122D8B122F7A7F7B
:1000F300647E00122EFC122F1C7FCB122D8BAB3093
:10010300AA31A932900004122D87122F7A122F1CC4
:100113007FC1122D8BAB30AA31A932900003122D6F
:1001230087122F7A122F1C7FC4122D8BAB30AA316A
:10013300A932900002122D87122F7A122F1C7FC32F
:10014300122D8B122D7E122F7A122F1C7FC6122D89
:100153008BAB30AA31A932121D7AFF122D8B122FCD
:100163007A7F647E00122EFC122F1C7FCB122D8B04
:10017300AB30AA31A932900005122D87122F7A12C3
:100183002F1C7FC1122D8BAB30AA31A932900004F2
:10019300122D87122F7A122F1C7FC4122D8BAB3096
:1001A300AA31A932900003122D87122F7A122F1C25
:1001B3007FC3122D8BAB30AA31A932900002122DCE
:1001C30087122F7A122F1C7FC6122D8B122D7E12AF
:1001D3002F7A122F1C7FC5122D8BAB30AA31A93277
:1001E300121D7AFF122D8B122F7A7F647E00122E3E
:1001F300FC122F1C7FCB122D8BAB30AA31A932906E
:100203000006122D87122F7A122F1C7FC1122D8BFD
:10021300AB30AA31A932900005122D87122F7A1222
:100223002F1C7FC4122D8BAB30AA31A9329000044E
:10023300122D87122F7A122F1C7FC3122D8BAB30F6
:10024300AA31A932900003122D87122F7A122F1C84
:100253007FC6122D8BAB30AA31A932900002122D2A
:1002630087122F7A122F1C7FC5122D8B122D7E120F
:100273002F7A122F1C7FC8122D8BAB30AA31A932D3
:10028300121D7AFF122D8B122F7A7F647E00122E9D
:10029300FC122F1C7FCB122D8BAB30AA31A93290CD
:1002A3000007122D87122F7A122F1C7FC1122D8B5C
:1002B300AB30AA31A932900006122D87122F7A1281
:1002C3002F1C7FC4122D8BAB30AA31A932900005AD
:1002D300122D87122F7A122F1C7FC3122D8BAB3056
:1002E300AA31A932900004122D87122F7A122F1CE3
:1002F3007FC6122D8BAB30AA31A932900003122D89
:1003030087122F7A122F1C7FC5122D8BAB30AA3187
:10031300A932900002122D87122F7A122F1C7FC848
:10032300122D8B122D7E122F7A122F1C7FC7122DA6
:100333008BAB30AA31A932121D7AFF122D8B122FEB
:100343007A7F647E00122EFC122F1C7FCB122D8B22
:10035300AB30AA31A932900008122D87122F7A12DE
:100363002F1C7FC1122D8BAB30AA31A9329000070D
:10037300122D87122F7A122F1C7FC4122D8BAB30B4
:10038300AA31A932900006122D87122F7A122F1C40
:100393007FC3122D8BAB30AA31A932900005122DE9
:1003A30087122F7A122F1C7FC6122D8BAB30AA31E6
:1003B300A932900004122D87122F7A122F1C7FC5A9
:1003C300122D8BAB30AA31A932900003122D871264
:1003D3002F7A122F1C7FC8122D8BAB30AA31A93272
:1003E300900002122D87122F7A122F1C7FC7122D15
:1003F3008B122D7E122F7A122F1C7FCA122D8BABDC
:1004030030AA31A932121D7AFF122D8B122F7A7F57
:10041300647E00122EFC122F1C7FCB122D8BAB306F
:10042300AA31A932900009122D87122F7A122F1C9C
:100433007FC1122D8BAB30AA31A932900008122D47
:1004430087122F7A122F1C7FC4122D8BAB30AA3147
:10045300A932900007122D87122F7A122F1C7FC307
:10046300122D8BAB30AA31A932900006122D8712C0
:100473002F7A122F1C7FC6122D8BAB30AA31A932D3
:10048300900005122D87122F7A122F1C7FC5122D73
:100493008BAB30AA31A932900004122D87122F7A28
:1004A300122F1C7FC8122D8BAB30AA31A9329000BA
:1004B30003122D87122F7A122F1C7FC7122D8BAB9D
:1004C30030AA31A932900002122D87122F7A122FEF
:1004D3001C7FCA122D8B122D7E122F7A122F1C7F96
:1004E300C9122D8BAB30AA31A932121D7AFF122DFE
:1004F3008B122F7A7F647E00122EFC122F1C7FCB6F
:10050300122D8BAB30AA31A93290000A122D87121B
:100513002F7A122F1C7FC1122D8BAB30AA31A93237
:10052300900009122D87122F7A122F1C7FC4122DCF
:100533008BAB30AA31A932900008122D87122F7A83
:10054300122F1C7FC3122D8BAB30AA31A93290001E
:1005530007122D87122F7A122F1C7FC6122D8BABF9
:1005630030AA31A932900006122D87122F7A122F4A
:100573001C7FC5122D8BAB30AA31A9329000051216
:100583002D87122F7A122F1C7FC8122D8BAB30AA06
:1005930031A932900004122D87122F7A122F1C7F5B
:1005A300C7122D8BAB30AA31A932900003122D87CD
:1005B300122F7A122F1C7FCA122D8BAB30AA31A9AE
:1005C30032900002122D87122F7A122F1C7FC9122C
:1005D3002D8B122D7E122F7A7F647E00122EFC1239
:1005E3002F1C7FCB122D8BAB30AA31A93290000B7D
:1005F300122D87122F7A122F1C7FC1122D8BAB3035
:10060300AA31A93290000A122D87122F7A122F1CB9
:100613007FC4122D8BAB30AA31A932900009122D61
:1006230087122F7A122F1C7FC3122D8BAB30AA3166
:10063300A932900008122D87122F7A122F1C7FC621
:10064300122D8BAB30AA31A932900007122D8712DD
:100653002F7A122F1C7FC5122D8BAB30AA31A932F2
:10066300900006122D87122F7A122F1C7FC8122D8D
:100673008BAB30AA31A932900005122D87122F7A45
:10068300122F1C7FC7122D8BAB30AA31A9329000D9
:1006930004122D87122F7A122F1C7FCA122D8BABB7
:1006A30030AA31A932900003122D87122F7A122F0C
:1006B3001C7FC9122D8BAB30AA31A93290000212D4
:1006C3002D87122F7A7F647E00122EFC122F1C7F3F
:1006D300CB122D8BAB30AA31A93290000C122D878F
:1006E300122F7A122F1C7FC1122D8BAB30AA31A986
:1006F3003290000B122D87122F7A122F1C7FC412F7
:100703002D8BAB30AA31A93290000A122D87122FFC
:100713007A122F1C7FC3122D8BAB30AA31A93290D2
:100723000009122D87122F7A122F1C7FC6122D8BD0
:10073300AB30AA31A932900008122D87122F7A12FA
:100743002F1C7FC5122D8BAB30AA31A93290000725
:10075300122D87122F7A122F1C7FC8122D8BAB30CC
:10076300AA31A932900006122D87122F7A122F1C5C
:100773007FC7122D8BAB30AA31A932900005122D01
:1007830087122F7A122F1C7FCA122D8BAB30AA31FE
:10079300A932900004122D87122F7A122F1C7FC9C1
:1007A300122D8BAB30AA31A932900003122D871280
:1007B3002F7A7F647E00122EFC122F1C7FCB122D0A
:1007C3008BAB30AA31A93290000D122D87122F7AEC
:1007D300122F1C7FC1122D8BAB30AA31A93290008E
:1007E3000C122D87122F7A122F1C7FC4122D8BAB64
:1007F30030AA31A93290000B122D87122F7A122FB3
:100803001C7FC3122D8BAB30AA31A93290000A1280
:100813002D87122F7A122F1C7FC6122D8BAB30AA75
:1008230031A932900009122D87122F7A122F1C7FC3
:10083300C5122D8BAB30AA31A932900008122D8737
:10084300122F7A122F1C7FC8122D8BAB30AA31A91D
:1008530032900007122D87122F7A122F1C7FC71296
:100863002D8BAB30AA31A932900006122D87122F9F
:100873007A122F1C7FCA122D8BAB30AA31A932906A
:100883000005122D87122F7A122F1C7FC9122D8B70
:10089300AB30AA31A932900004122D87122F7A7F30
:1008A300647E00122EFC122F1C7FCB122D8BAB30DB
:1008B300AA31A93290000E122D87122F7A122F1C03
:1008C3007FC1122D8BAB30AA31A93290000D122DAE
:1008D30087122F7A122F1C7FC4122D8BAB30AA31B3
:1008E300A93290000C122D87122F7A122F1C7FC36E
:1008F300122D8BAB30AA31A93290000B122D871227
:100903002F7A122F1C7FC6122D8BAB30AA31A9323E
:1009130090000A122D87122F7A122F1C7FC5122DD9
:100923008BAB30AA31A932900009122D87122F7A8E
:10093300122F1C7FC8122D8BAB30AA31A932900025
:1009430008122D87122F7A122F1C7FC7122D8BAB03
:1009530030AA31A932900007122D87122F7A122F55
:100963001C7FCA122D8BAB30AA31A932900006121C
:100973002D87122F7A122F1C7FC9122D8BAB30AA11
:1009830031A932900005122D87122F7A7F647E00E1
:10099300122EFC122F1C7FCB122D8BAB30AA31A948
:1009A3003290000F122D87122F7A122F1C7FC11243
:1009B3002D8BAB30AA31A93290000E122D87122F46
:1009C3007A122F1C7FC4122D8BAB30AA31A932901F
:1009D300000D122D87122F7A122F1C7FC3122D8B1D
:1009E300AB30AA31A93290000C122D87122F7A1244
:1009F3002F1C7FC6122D8BAB30AA31A93290000B6E
:100A0300122D87122F7A122F1C7FC5122D8BAB301C
:100A1300AA31A93290000A122D87122F7A122F1CA5
:100A23007FC8122D8BAB30AA31A932900009122D49
:100A330087122F7A122F1C7FC7122D8BAB30AA314E
:100A4300A932900008122D87122F7A122F1C7FCA09
:100A5300122D8BAB30AA31A932900007122D8712C9
:100A63002F7A122F1C7FC9122D8BAB30AA31A932DA
:100A7300900006122D87122F7A7F647E00122EFCBF
:100A8300122F1C7FCB122D8BAB30AA31A9329000D1
:100A930010122D87122F7A122F1C7FC1122D8BABB0
:100AA30030AA31A93290000F122D87122F7A122FFC
:100AB3001C7FC4122D8BAB30AA31A93290000E12C9
:100AC3002D87122F7A122F1C7FC3122D8BAB30AAC6
:100AD30031A93290000D122D87122F7A122F1C7F0D
:100AE300C6122D8BAB30AA31A93290000C122D8780
:100AF300122F7A122F1C7FC5122D8BAB30AA31A96E
:100B03003290000B122D87122F7A122F1C7FC812DE
:100B13002D8BAB30AA31A93290000A122D87122FE8
:100B23007A122F1C7FC7122D8BAB30AA31A93290BA
:100B33000009122D87122F7A122F1C7FCA122D8BB8
:100B4300AB30AA31A932900008122D87122F7A12E6
:100B53002F1C7FC9122D8BAB30AA31A9329000070D
:100B6300122D87122F7A7F647E00122EFC122F1C07
:100B73007FCB122D8BAB30AA31A932900011122DED
:100B830087122F7A122F1C7FC1122D8BAB30AA3103
:100B9300A932900010122D87122F7A122F1C7FC4B6
:100BA300122D8BAB30AA31A93290000F122D871270
:100BB3002F7A122F1C7FC3122D8BAB30AA31A9328F
:100BC30090000E122D87122F7A122F1C7FC6122D22
:100BD3008BAB30AA31A93290000D122D87122F7AD8
:100BE300122F1C7FC5122D8BAB30AA31A932900076
:100BF3000C122D87122F7A122F1C7FC8122D8BAB4C
:100C030030AA31A93290000B122D87122F7A122F9E
:100C13001C7FC7122D8BAB30AA31A93290000A1268
:100C23002D87122F7A122F1C7FCA122D8BAB30AA5D
:100C330031A932900009122D87122F7A122F1C7FAF
:100C4300C9122D8BAB30AA31A932900008122D871F
:100C5300122F7A7F647E00122EFC122F1C7FCB1280
:100C63002D8BAB30AA31A932900012122D87122F8F
:100C73007A122F1C7FC1122D8BAB30AA31A932906F
:100C83000011122D87122F7A122F1C7FC4122D8B65
:100C9300AB30AA31A932900010122D87122F7A128D
:100CA3002F1C7FC3122D8BAB30AA31A93290000FBA
:100CB300122D87122F7A122F1C7FC6122D8BAB3069
:100CC300AA31A93290000E122D87122F7A122F1CEF
:100CD3007FC5122D8BAB30AA31A93290000D122D96
:100CE30087122F7A122F1C7FC8122D8BAB30AA319B
:100CF300A93290000C122D87122F7A122F1C7FC756
:100D0300122D8BAB30AA31A93290000B122D871212
:100D13002F7A122F1C7FCA122D8BAB30AA31A93226
:100D230090000A122D87122F7A122F1C7FC9122DC1
:100D33008BAB30AA31A932900009122D87122F7A7A
:100D43007F647E00122EFC122F1C7FCB122D8BABE7
:100D530030AA31A932900013122D87122F7A122F45
:100D63001C7FC1122D8BAB30AA31A9329000121215
:100D73002D87122F7A122F1C7FC4122D8BAB30AA12
:100D830031A932900011122D87122F7A122F1C7F56
:100D9300C3122D8BAB30AA31A932900010122D87CC
:100DA300122F7A122F1C7FC6122D8BAB30AA31A9BA
:100DB3003290000F122D87122F7A122F1C7FC5122B
:100DC3002D8BAB30AA31A93290000E122D87122F32
:100DD3007A122F1C7FC8122D8BAB30AA31A9329007
:100DE300000D122D87122F7A122F1C7FC7122D8B05
:100DF300AB30AA31A93290000C122D87122F7A1230
:100E03002F1C7FCA122D8BAB30AA31A93290000B55
:100E1300122D87122F7A122F1C7FC9122D8BAB3004
:100E2300AA31A93290000A122D87122F7A122F1C91
:080E33007F8B122D8B022F7A38
:100E3B008B308A318932122F1C7F44122D8B122F4B
:100E4B007A122F1C7FC2122D8BAB30AA31A9321212
:100E5B001D7AFF122D8B122F7A122F1C7FC0122D91
:100E6B008BAB30AA31A932121D7AFF122D8B122FA8
:100E7B007A122F1C7FCC122D8BAB30AA31A93212D8
:100E8B001D7AFF122D8B122F7A122F1C7FCE122D53
:100E9B008BAB30AA31A932121D7AFF122D8B122F78
:100EAB007A122F1C7FCF122D8BAB30AA31A93212A5
:100EBB001D7AFF122D8B122F7A122F1C7FCD122D24
:100ECB008BAB30AA31A932121D7AFF122D8B122F48
:100EDB007A122F1C7FCB122D8BAB30AA31A9321279
:100EEB001D7AFF122D8B122F7A122F1C7FC1122D00
:100EFB008BAB30AA31A932121D7AFF122D8B122F18
:100F0B007A122F1C7FC4122D8BAB30AA31A932124F
:100F1B001D7AFF122D8B122F7A122F1C7FC3122DCD
:100F2B008BAB30AA31A932121D7AFF122D8B122FE7
:100F3B007A122F1C7FC6122D8BAB30AA31A932121D
:100F4B001D7AFF122D8B122F7A122F1C7FC5122D9B
:100F5B008BAB30AA31A932121D7AFF122D8B122FB7
:100F6B007A122F1C7FC8122D8BAB30AA31A93212EB
:100F7B001D7AFF122D8B122F7A122F1C7FC7122D69
:100F8B008BAB30AA31A932121D7AFF122D8B122F87
:100F9B007A122F1C7FCA122D8BAB30AA31A93212B9
:100FAB001D7AFF122D8B122F7A122F1C7FC9122D37
:100FBB008BAB30AA31A932121D7AFF122D8B122F57
:100FCB007A7FF47E01122EFC122F1C7FC2122D8B06
:100FDB00AB30AA31A932900001122D87122F7A1251
:100FEB002F1C7FC0122D8BAB30AA31A93290000180
:100FFB00122D87122F7A122F1C7FCC122D8BAB3018
:10100B00AA31A932900001122D87122F7A122F1CB0
:10101B007FCE122D8BAB30AA31A932900001122D4D
:10102B0087122F7A122F1C7FCF122D8BAB30AA3148
:10103B00A932900001122D87122F7A122F1C7FCD0F
:10104B00122D8BAB30AA31A932900001122D8712D1
:10105B002F7A122F1C7FCB122D8BAB30AA31A932DA
:10106B00900001122D87122F7A122F1C7FC1122D87
:10107B008BAB30AA31A932900001122D87122F7A37
:10108B00122F1C7FC4122D8BAB30AA31A9329000CA
:10109B0001122D87122F7A122F1C7FC3122D8BABAF
:1010AB0030AA31A932900001122D87122F7A122FFC
:1010BB001C7FC6122D8BAB30AA31A93290000112C6
:1010CB002D87122F7A122F1C7FC5122D8BAB30AAB6
:1010DB0031A932900001122D87122F7A122F1C7F0B
:1010EB00C8122D8BAB30AA31A932900001122D877B
:1010FB00122F7A122F1C7FC7122D8BAB30AA31A95E
:10110B0032900001122D87122F7A122F1C7FCA12D8
:10111B002D8BAB30AA31A932900001122D87122FE3
:10112B007A122F1C7FC9122D8BAB30AA31A93290AA
:10113B000001122D87122F7A7FF47E01122EFC12E2
:10114B002F1C7FC2122D8BAB30AA31A9329000021B
:10115B00122D87122F7A122F1C7FC0122D8BAB30C2
:10116B00AA31A932900002122D87122F7A122F1C4E
:10117B007FCC122D8BAB30AA31A932900002122DED
:10118B0087122F7A122F1C7FCE122D8BAB30AA31E8
:10119B00A932900002122D87122F7A122F1C7FCFAB
:1011AB00122D8BAB30AA31A932900002122D87126F
:1011BB002F7A122F1C7FCD122D8BAB30AA31A93277
:1011CB00900002122D87122F7A122F1C7FCB122D1B
:1011DB008BAB30AA31A932900002122D87122F7AD5
:1011EB00122F1C7FC1122D8BAB30AA31A93290006C
:1011FB0002122D87122F7A122F1C7FC4122D8BAB4C
:10120B0030AA31A932900002122D87122F7A122F99
:10121B001C7FC3122D8BAB30AA31A9329000021266
:10122B002D87122F7A122F1C7FC6122D8BAB30AA53
:10123B0031A932900002122D87122F7A122F1C7FA8
:10124B00C5122D8BAB30AA31A932900002122D871B
:10125B00122F7A122F1C7FC8122D8BAB30AA31A9FB
:10126B0032900002122D87122F7A122F1C7FC71279
:10127B002D8BAB30AA31A932900002122D87122F81
:10128B007A122F1C7FCA122D8BAB30AA31A9329048
:10129B000002122D87122F7A122F1C7FC9122D8B51
:1012AB00AB30AA31A932900002122D87122F7A7F10
:1012BB00F47E01122EFC122F1C7FC2122D8BAB3031
:1012CB00AA31A932900003122D87122F7A122F1CEC
:1012DB007FC0122D8BAB30AA31A932900003122D97
:1012EB0087122F7A122F1C7FCC122D8BAB30AA3189
:1012FB00A932900003122D87122F7A122F1C7FCE4A
:10130B00122D8BAB30AA31A932900003122D87120C
:10131B002F7A122F1C7FCF122D8BAB30AA31A93213
:10132B00900003122D87122F7A122F1C7FCD122DB6
:10133B008BAB30AA31A932900003122D87122F7A72
:10134B00122F1C7FCB122D8BAB30AA31A932900000
:10135B0003122D87122F7A122F1C7FC1122D8BABEC
:10136B0030AA31A932900003122D87122F7A122F37
:10137B001C7FC4122D8BAB30AA31A9329000031203
:10138B002D87122F7A122F1C7FC3122D8BAB30AAF5
:10139B0031A932900003122D87122F7A122F1C7F46
:1013AB00C6122D8BAB30AA31A932900003122D87B8
:1013BB00122F7A122F1C7FC5122D8BAB30AA31A99D
:1013CB0032900003122D87122F7A122F1C7FC81216
:1013DB002D8BAB30AA31A932900003122D87122F1F
:1013EB007A122F1C7FC7122D8BAB30AA31A93290EA
:1013FB000003122D87122F7A122F1C7FCA122D8BEE
:10140B00AB30AA31A932900003122D87122F7A121A
:10141B002F1C7FC9122D8BAB30AA31A93290000340
:10142B00122D87122F7A7FF47E01122EFC122F1CA5
:10143B007FC2122D8BAB30AA31A932900004122D32
:10144B0087122F7A122F1C7FC0122D8BAB30AA3133
:10145B00A932900004122D87122F7A122F1C7FCCE9
:10146B00122D8BAB30AA31A932900004122D8712AA
:10147B002F7A122F1C7FCE122D8BAB30AA31A932B3
:10148B00900004122D87122F7A122F1C7FCF122D52
:10149B008BAB30AA31A932900004122D87122F7A10
:1014AB00122F1C7FCD122D8BAB30AA31A93290009D
:1014BB0004122D87122F7A122F1C7FCB122D8BAB80
:1014CB0030AA31A932900004122D87122F7A122FD5
:1014DB001C7FC1122D8BAB30AA31A93290000412A4
:1014EB002D87122F7A122F1C7FC4122D8BAB30AA93
:1014FB0031A932900004122D87122F7A122F1C7FE4
:10150B00C3122D8BAB30AA31A932900004122D8758
:10151B00122F7A122F1C7FC6122D8BAB30AA31A93A
:10152B0032900004122D87122F7A122F1C7FC512B6
:10153B002D8BAB30AA31A932900004122D87122FBC
:10154B007A122F1C7FC8122D8BAB30AA31A9329087
:10155B000004122D87122F7A122F1C7FC7122D8B8E
:10156B00AB30AA31A932900004122D87122F7A12B8
:10157B002F1C7FCA122D8BAB30AA31A932900004DD
:10158B00122D87122F7A122F1C7FC9122D8BAB3085
:10159B00AA31A932900004122D87122F7A7FF47E84
:1015AB0001122EFC122F1C7FC2122D8BAB30AA31D5
:1015BB00A932900005122D87122F7A122F1C7FC093
:1015CB00122D8BAB30AA31A932900005122D871248
:1015DB002F7A122F1C7FCC122D8BAB30AA31A93254
:1015EB00900005122D87122F7A122F1C7FCE122DF1
:1015FB008BAB30AA31A932900005122D87122F7AAE
:10160B00122F1C7FCF122D8BAB30AA31A932900039
:10161B0005122D87122F7A122F1C7FCD122D8BAB1B
:10162B0030AA31A932900005122D87122F7A122F72
:10163B001C7FCB122D8BAB30AA31A9329000051237
:10164B002D87122F7A122F1C7FC1122D8BAB30AA34
:10165B0031A932900005122D87122F7A122F1C7F81
:10166B00C4122D8BAB30AA31A932900005122D87F5
:10167B00122F7A122F1C7FC3122D8BAB30AA31A9DC
:10168B0032900005122D87122F7A122F1C7FC61253
:10169B002D8BAB30AA31A932900005122D87122F5A
:1016AB007A122F1C7FC5122D8BAB30AA31A9329029
:1016BB000005122D87122F7A122F1C7FC8122D8B2B
:1016CB00AB30AA31A932900005122D87122F7A1256
:1016DB002F1C7FC7122D8BAB30AA31A9329000057E
:1016EB00122D87122F7A122F1C7FCA122D8BAB3023
:1016FB00AA31A932900005122D87122F7A122F1CB6
:10170B007FC9122D8BAB30AA31A932900005122D57
:10171B0087122F7A7FF47E01122EFC122F1C7FC2B0
:10172B00122D8BAB30AA31A932900006122D8712E5
:10173B002F7A122F1C7FC0122D8BAB30AA31A932FE
:10174B00900006122D87122F7A122F1C7FCC122D90
:10175B008BAB30AA31A932900006122D87122F7A4B
:10176B00122F1C7FCE122D8BAB30AA31A9329000D9
:10177B0006122D87122F7A122F1C7FCF122D8BABB7
:10178B0030AA31A932900006122D87122F7A122F10
:10179B001C7FCD122D8BAB30AA31A93290000612D3
:1017AB002D87122F7A122F1C7FCB122D8BAB30AAC9
:1017BB0031A932900006122D87122F7A122F1C7F1F
:1017CB00C1122D8BAB30AA31A932900006122D8796
:1017DB00122F7A122F1C7FC4122D8BAB30AA31A97A
:1017EB0032900006122D87122F7A122F1C7FC312F4
:1017FB002D8BAB30AA31A932900006122D87122FF8
:10180B007A122F1C7FC6122D8BAB30AA31A93290C6
:10181B000006122D87122F7A122F1C7FC5122D8BCB
:10182B00AB30AA31A932900006122D87122F7A12F3
:10183B002F1C7FC8122D8BAB30AA31A9329000061A
:10184B00122D87122F7A122F1C7FC7122D8BAB30C4
:10185B00AA31A932900006122D87122F7A122F1C53
:10186B007FCA122D8BAB30AA31A932900006122DF4
:10187B0087122F7A122F1C7FC9122D8BAB30AA31F6
:10188B00A932900006122D87122F7A122F1C7F8BF4
:06189B00122D8B022F7AD2
:1029B6008B308A318932122F1C7F44122D8B122FB5
:1029C6007A122F1C7FC2122D8BAB30AA31A932127C
:1029D6001D7AFF122D8B122F7A122F1C7FC0122DFB
:1029E6008BAB30AA31A932900001122D87122F7AB3
:1029F600122F1C7FCC122D8BAB30AA31A93290003E
:102A060002122D87122F7A122F1C7FCE122D8BAB1E
:102A160030AA31A932900003122D87122F7A122F75
:102A26001C7FCF122D8BAB30AA31A9329000041235
:102A36002D87122F7A122F1C7FCD122D8BAB30AA29
:102A460031A932900005122D87122F7A122F1C7F82
:072A56008B122D8B022F7A79
:0B2FA100759503C2A0C2A1E4F5B422A4
:102D1400E4F533F532F531F530E47F32FEFDFCABFA
:102D240033AA32A931A830C3121E02504CE4F5373D
:102D3400F536F535F534E47FE87E03FDFCAB37AAC0
:102D440036A935A834C3121E025017E5372401F5FD
:102D540037E43536F536E43535F535E43534F534D0
:102D640080D4E5332401F533E43532F532E43531EA
:092D7400F531E43530F53080A0A2
:012D7D002233
:102EFC00E4FDFCC3ED9FEC9E5015E4FBFA0BBB000C
:0F2F0C00010ABA01F8BB4DF50DBD00010C80E4C0
:012F1B002293
:0627E3008B088A09890A37
:1027E900E4F50EF50DF50CF50BF512F511751080E4
:1027F900750F3F121D7AB42D167401250AF50AE4E6
:102809003509F509E4F512F511751080750FBFE466
:10281900F513F514AB08AA09A90A121D7AFF70036A
:102829000228BDB42E087513007514018078EF33A2
:1028390095E0FEEF24D0F516EE34FFF515C364805C
:1028490094804062D3E5169409E51564809480501C
:1028590055E5144513601AAF12AE11AD10AC0FE473
:10286900FBFA79207841121AA28F128E118D108CE1
:102879000FAC15AD16EC121B44C004C005C006C050
:1028890007E4FFFE7D207C41AB0EAA0DA90CA80B25
:10289900121999D003D002D001D0001218A88F0EB6
:1028A9008E0D8D0C8C0B7401250AF50AE43509F59A
:1028B9000902281DAF12AE11AD10AC0FAB0EAA0D57
:0728C900A90CA80B021999EC
:1026BB007F41E4FEEEFDC3940574809480400302D9
:1026CB0027E2ED7032D290C291C292C293C2943083
:1026DB0095052095FD7F013096052096FD7F0230F4
:1026EB00A20520A2FD7F0330A40520A4FD7F173097
:1026FB00A60520A6FD7F04EE64017032C290D29134
:10270B00C292C293C2943095052095FD7F043096FA
:10271B00052096FD7F0530A20520A2FD7F0630A483
:10272B000520A4FD7F1530A60520A6FD7F16EE64BF
:10273B00027032C290C291D292C293C2943095056C
:10274B002095FD7F073096052096FD7F0830A2056A
:10275B0020A2FD7F0930A40520A4FD7F1330A60520
:10276B0020A6FD7F14EE64037032C290C291C29218
:10277B00D293C2943095052095FDE4FF3096052049
:10278B0096FD7F0A30A20520A2FD7F0B30A4052009
:10279B00A4FD7F1130A60520A6FD7F12EE64047008
:1027AB0032C290C291C292C293D2943095052095B9
:1027BB00FD7F0F3096052096FD7F0E30A20520A2DF
:1027CB00FD7F1030A40520A4FD7F0C30A60520A6AC
:0727DB00FD7F0D0E0226BF79
:0127E20022D4
:092FAC007F337E337D237C40223B
:1018A100021BB2E86480F8E933E83360110460F0A8
:1018B100ED33EC337009E8FCE9FDEAFEEBFF2204AD
:1018C10060DED3EB9FEA9EE99DE8C2E78CF0C2F7A8
:1018D10095F0400CE8CCF8E9CDF9EACEFAEBCFFB74
:1018E100121B7D85D0F05804700320D5B3E8047035
:1018F100075002B2D5021BBC92D5EC0460F7E4CCD0
:10190100C0E0C398F8603B94186008400DD0E0FB3C
:10191100021B94E4FBFAC9FC8028E830E406E4C920
:10192100FBE4CAFCE830E305E4C9CACBFCE8540790
:101931006010F8C3E913F9EA13FAEB13FBEC13FC9B
:10194100D8F130F52FC3E49CFCEF9BFFEE9AFEED3E
:1019510099FDD0E0FBEF4E4D4C701222DB03021BD0
:10196100B9EC2CFCEF33FFEE33FEED33FDED30E748
:10197100EB021B94EF2BFFEE3AFEED39FDD0E0FBBD
:1019810050130BBB0003021BBCED13FDEE13FEEF66
:0819910013FFEC13FC021B9490
:10199900EC4D6011E8497017ED33EC3304600DE448
:1019A900FCFFFEFD22E933E8330470F8021BB21292
:1019B9001B7D58046009E4CC248150062850090293
:1019C9001BBC284003021BB9C0E0EB4A7044B98034
:1019D90006D0E0FB021BA8EF4E701CBD8008EBFF90
:1019E900EAFEE9FD80EBE98DF0A4FEE5F0021A823A
:1019F900E9CDF9EAFEEBFFEF89F0A4FCE5F0CE8929
:101A0900F0A42EFFE435F0CD89F0A42DFEE435F0E5
:101A19008067EF4E7005BD80D780C3EF8BF0A4AC13
:101A2900F0EE8BF0A42CFCE435F0F8EF8AF0A42C4E
:101A3900E5F038FCE433CB8DF0A42CFCE5F03BF861
:101A4900EE8AF0A42CFCE5F038F8E433CF89F0A451
:101A59002CFCE5F038CF3400CE89F0A42FFFE5F057
:101A69003EFEE433C98DF0A42EFEE5F039CD8AF0AF
:101A7900A42FFFE5F03EFEE43DFD33D0E0FB500727
:101A89000BBB000F021BBCEC2CFCEF33FFEE33FE4B
:061A9900ED33FD021B9479
:101A9F00021BBCEC5D046005E859047003021BB225
:101AAF00121B7D580460F6EC4860F2EC7004FDFEEA
:101ABF00FF22C860DB2481C85009C398600250061A
:101ACF00021BB99850CAF582E9294B4A7005AB82BF
:101ADF00021BA875F0007C1A7880C3EF9BEE9AED7D
:101AEF0099400DC3EF9BFFEE9AFEED99FDE842F092
:101AFF00DC23ACF0D0E0FFD0E0FED0E0FDAB8220E5
:101B0F00E7101BEB60BAEC2CFCEF33FFEE33FEED6E
:101B1F0033FD021B94E803F830E705C0F075F000C1
:101B2F00EF2FFFEE33FEED33FD40B830E7C280AA52
:101B3F0075F020800E75F010800575F0087D007E21
:101B4F00007F003392D530D503121DF4EC334010D3
:101B5F00EF33FFEE33FEED33FDEC33FCD5F0ED222A
:0E1B6F00E5F0247EA2D513CC92E7CDCEFF2266
:101E5500E5672453F8E60567227850300702785382
:101E6500E475F001121E1F021D7A2000EB7F2ED2B1
:101E7500008018EF540F2490D43440D4FF30040B65
:101E8500EF24BFB41A0050032461FFE56860021512
:101E950068056BE56B7002056A30070D7850E475CF
:101EA500F001121E1FEF021DC0022ED57403D207CA
:101EB5008003E4C207F5678B508A518952E4F568BF
:101EC500F56AF56BE56860077F20121E9080F57551
:101ED50069FFC201C200C202C203C205C206C2082E
:101EE500121E5EFF700D3007057F00121EA1AF6B3D
:101EF500AE6A22B4255FC2D5C204121E5EFF24D08D
:101F0500B40A00501A75F00A786830D50508B6FF8E
:101F15000106C6A426F620D5047002D20380D92472
:101F2500CFB41A00EF5004C2E5D20402218ED201CB
:101F350080C6D20080C0D20280BCD2D580BAD2057C
:101F450080B47F20121E902002077401B5680040FE
:101F5500F1121E55FF121E90021EC9D208D206802C
:101F650095121E55FB121E55FA121E55F94A4B7055
:101F75000679857A227BFF20022EE568602A7E009D
:101F85008E82758300121D9360060EEE656970F0F2
:101F9500C2D5EBC0E0EAC0E0E9C0E0EE1221EED028
:101FA500E0F9D0E0FAD0E0FB121D7AFF60AAEBC0A1
:101FB500E0EAC0E0E9C0E0121E90D0E02401F9D0CB
:101FC500E03400FAD0E0FBE5690460DCD569D9802E
:101FD50087D20280A21221D160F7E569700104124F
:101FE5001BC7A969600DE569600914F569122278B6
:101FF500EF60F3EA30E702F404C3995077EAF42579
:10200500690430E701E404F569800D1221D160C14E
:10201500EA05692569121BC7EA7866F630E701E427
:10202500256904D56904200501141221EEE4C0E0F8
:102035001222787866E6601320E70714F6121E78F8
:10204500802204F6D0E014C0E07F00121E78E56916
:102055006007121E6F1569800B300503121E6FD0C5
:10206500E0021EC9D0E00480C51221D160A0E56957
:1020750004121BC77866EAF6E569200502600104CB
:0520850024041221EE0D
:10208A0074FF04C0E0122278121E78E56920050266
:10209A006003121E6FD0E0B569E87F45121E827890
:1020AA0066E67F2B30E7047F2DF404C0E0121E9011
:1020BA00D0E075F00A84C0F0121E79D0E0121E79C1
:1020CA00021EC9791080027908C206C2088008D2A5
:1020DA00D5790A8004790AC2D5E569047002F569DE
:1020EA00E4FAFDFEFF121E55FC7B08200113121EA6
:1020FA0055FD7B1030000A121E55FE121E55FF7B3D
:10210A0020EC3382D592D55013C3E43000069FFFEA
:10211A00E49EFEE42001039DFDE49CFCE4CBF8C2AE
:10212A0001EC700CCFCECDCCE824F8F870F3801710
:10213A00C3EF33FFEE33FEED33FDEC33FCEB33FB41
:10214A00994002FB0FD8E9EB300105F8D0E0C4480A
:10215A00B201C0E00AEC4D4E4F78207B0070C2EA13
:10216A00B5690040BCC0E01221F0D0F0D0E02001F7
:10217A0004C4C0E0C4B201C0F0121E79D0F0D5F098
:10218A00EB021EC9121E2F1F665320CD581F374C53
:10219A001F334220D14F20D94420D9491F4C432014
:1021AA00DF55201046206E451FDA4722A5501F3BF7
:1021BA002D1F3F2E1F622B1F43231F6020228E2AB2
:1021CA001EFB4800001F5AE569B4FF037569061231
:1021DA001E55FC121E55FD121E55FE121E55FF7885
:1021EA005F021BF6790AA2D5200314300509B9103B
:1021FA00020404B9080104A2D520060250010420F1
:10220A0002689202B568005034C0E07F203003199A
:10221A007F30A20272067205500F122247C202C212
:10222A0006C205C2087F30800F300503E9C0E012FC
:10223A001E90300503D0E0F9D0E0B568CC30051720
:10224A007F30B9100C121E907F583004077F7880B7
:10225A0003B90803121E903002057F2D021E907FDB
:10226A00202008F87F2B2006F322920280CF7F00DD
:10227A00B407005005245FF8E6FF22286E756C6CDF
:10228A002900D201121E553001F8C201786830D5F2
:10229A000108F6021EFB2D50434958121E5524030D
:1022AA00B405004001E49022A093121E81743A12F0
:0A22BA001E81D2037568040220CDD6
:102E5E00D2008B308A318932122E9AC0E0FF122FA7
:102E6E008ED0E040F31228E3400122ECC0E0EDC02A
:102E7E00E0EEC0E0EFC0E0122E9AD0F0AFF0D0F04E
:102E8E00AEF0D0F0ADF0D0F0ACF080D9E475F0013A
:082E9E007830121E1F021D7A9C
:101B7D00E9D2E7C933E833F892D5EDD2E7CD33ECAE
:071B8D0033FC5002B2D52227
:101B9400EC30E7100FBF000C0EBE00080DBD0004B2
:101BA4000BEB6014A2D5EB13FCED92E7FD2274FF5E
:101BB400FCFDFEFF22E480F8A2D574FF13FC7D80B7
:031BC400E480EFCB
:101BC700F920E72824F950037907E4F42402FB18E5
:101BD700DBFDE624FB5014E9600DE4F618E604F695
:0F1BE700B40A08E4F6D9F57401F60A22C2D52231
:101BF600ED33EC3392D5FA602AB4FF33EDC2E77BBE
:101C0600FF60067A1C791BE4227A1C792420D5040D
:101C16007A1C791F224E614E002B494E46002D49F3
:101C26004E4600E47A08F608DAFC7B00740722E8E0
:101C3600C0E0ECC0E0EDC0E0EEC0E0EFC0E0EA7569
:101C4600F010A4CAABF075F04DA42BFBE435F0FC04
:101C5600EA2410FAEB34C5FBEC34D9FCEDC2E7FFFD
:101C660075F056A4F42411C5F0F434C58FF0A42AF7
:101C7600E5F03BE43CF620E714121D3AD0E0FFD035
:101C8600E0FED0E0FDD0E0FC121AA28014F40412AB
:101C96001D3AD0E0FFD0E0FED0E0FDD0E0FC121906
:101CA60099D0E0F8E6FAEDD2E7CD33EC332482FBA7
:101CB600E4C3CF33CFCE33CECD33CD33DBF37B0787
:101CC60075F00A846004F6081B0AE5F0F6088FF042
:101CD600740AA4FFACF08EF0740AA42CFEACF0508B
:101CE600010C8DF0740AA42CFDE435F0F608DBDE59
:031CF6007407224E
:1028D000C201C202C203C204F9E4F533F534FCFDBF
:1028E000FEFFE91000EA20030CB42D04D203D3222A
:1028F000B42B02D32224D0504794095041240A30EB
:102900000415F88534F0740AA42872E74051C5F024
:10291000704D85F034D322D202C0E0E4FBFA792076
:102920007841121999ECF8EDF9EEFAEFFBD0E0FCE2
:10293000E4121B491218A83001B41533D322240A1B
:10294000200420B4FE0720011AD201D32224EB6018
:102950000424E0700EA2039201D204C203D322C366
:10296000021BB2E430040BE534300302F404A2018C
:1029700092033002EA253320D2E5A2E79204500206
:10298000F404B4260050D8CCC0E0EDC0E0EEC0E0C6
:10299000EFC0E0EC121D3AD0E0FFD0E0FED0E0FD49
:1029A000D0E0FC2004051219998003121AA230030A
:0629B00003121CF9C32212
:101CF900ED33EC33600A047003BD8004ECB2E7FCF9
:011D090022B7
:101D0A003F8000004120000042C80000447A0000E1
:101D1A00461C400047C35000497424004B18968063
:101D2A004CBEBC205A0E1BCA6753C21C749DC5AE5A
:101D3A00FB60065407601C2323121D68EB543860AD
:101D4A0009121D54121D63121999ECF8EDF9EEFAF5
:101D5A00EFCB22EB121D6380F1543803241C901D33
:101D6A000AFE93FC0EEE93FD0EEE930ECE93FF2227
:03000000022C19B6
:0C2C1900787FE4F6D8FD75816F022C6016
:101D7A00BB010689828A83E0225002E722BBFE0267
:091D8A00E32289828A83E493229A
:101D9300BB010CE58229F582E5833AF583E0225005
:101DA30006E92582F8E622BBFE06E92582F8E2224F
:0D1DB300E58229F582E5833AF583E4932269
:101DC000BB010689828A83F0225002F722BBFE0102
:021DD000F322FC
:101DD200F8BB010DE58229F582E5833AF583E8F047
:101DE200225006E92582C8F622BBFE05E92582C8F3
:021DF200F222DB
:0E1DF400C3E49FFFE49EFEE49DFDE49CFC2200
:101E0200EB9FF5F0EA9E42F0E99D42F0E89C45F036
:011E120022AD
:0C1E1300ECF0A3EDF0A3EEF0A3EFF02242
:101E1F00FAE6FB0808E6F925F0F618E6CA3AF622C4
:101E2F00D083D082F8E4937012740193700DA3A342
:101E3F0093F8740193F5828883E473740293686056
:061E4F00EFA3A3A380DF56
:102ED500EFB40A07740D122EE0740A309811A89900
:102EE500B8130CC2983098FDA899C298B811F6305D
:072EF50099FDC299F5992235
:102F8E00EFC394094005EF940E4003BF2003D38096
:032F9E0001C3224A
:102F5100E4FFFE121D7A600C0FEF70010E09E9709B
:052F6100F20A80EF22DE
:102C25000224E6E493A3F8E493A34003F68001F2BB
:102C350008DFF48029E493A3F85407240CC8C333B0
:102C4500C4540F4420C8834004F456800146F6DF7F
:102C5500E4800B0102040810204080902CA5E47E3E
:102C6500019360BCA3FF543F30E509541FFEE49374
:102C7500A360010ECF54C025E060A840B8E493A33B
:102C8500FAE493A3F8E493A3C8C582C8CAC583CA66
:102C9500F0A3C8C582C8CAC583CADFE9DEE780BE1E
:012D130000BF
:00000001FF
