:102F7700252E306600252E316600252E3266002567
:042F87002E3366007F
:102CBC0046001E1010101010104A004EEDA0D9F84E
:102CCC00B47C7DE0FDFC47003A40C0E0E8E9EDFD56
:102CDC00450049004D45D500460060EDA200455D1C
:102CEC00AD54000AB55D0D0DED107C4DF50D0000D9
:102CFC00000000000000000046003400000000004E
:102D0C0000450042001DF5FD00450058B4A2A0008E
:102D1C0000420008000042005D0000420066000214
:052D2C0042003200002E
:1027AA00122899122FBD900004121E1390000412D1
:1027BA0022F590002FEBF0A3EAF0A3E9F0122B1018
:1027CA0012268290005FEFF07F0A7E00122F0D9092
:1027DA00005FE06441700302288F900008E07004F3
:1027EA00A3E0640170127B017A007928122F62C378
:1027FA00EF9406EE94004058900008E07002A3E0BF
:10280A0070267B017A007928122F62900067E02FE8
:10281A00FF900066E03EFEC3EF9406EE9400500877
:10282A0090005FE0640A6028900008E07002A3E06C
:10283A0070247B017A007928122F62900067E02FBA
:10284A00FF900066E03EFEC3EF9405EE940050064A
:10285A007E007F0080047E007F01900032EEF0A3AC
:10286A00EFF090005FE0FF7E00C3940B74809480C9
:10287A00500A900032E07002A3E06006EF640B4E4B
:0F288A0070031225127F0A7E00122F0D0227AD58
:1025120090005FE0F9FB7A00640B701D900028F0D8
:10252200900008F0A3F090005DF0A3F0900000127C
:102532001E1F00000000022623C3EB940AEA6480F7
:102542009480500E900008E07002A3E07004E9024B
:1025520025F890005FE0640A7012900008E07002B3
:10256200A3E07008900008F0A304F02290005FE05E
:10257200C3940A748094805056900008E07004A3BB
:10258200E06401704A90005DE07002A3E070409048
:102592000041742EF07525017526007527417B01D7
:1025A2007A007928122E7990005FE04430F0900092
:1025B20041F07525017526007527417B017A007966
:1025C20028122E7990005DE4F0A304F0FB80459080
:1025D200005FE0FFC3940A74809480504490000826
:1025E200E07004A3E06401703890005DE07004A321
:1025F200E06401702CEF443090005FF0900041F0F5
:102602007525017526007527417B017A007928120C
:102612002E797B017A007928122E31900000121E49
:1026220013900004E0FCA3E0FDA3E0FEA3E0FF9012
:102632000000E0F8A3E0F9A3E0FAA3E0FB1218A17E
:10264200900024121E139000001222F590002FEB2E
:10265200F0A3EAF0A3E9F0122BA0900024E0FCA37F
:10266200E0FDA3E0FEA3E0FF752600752706122316
:102672000690002FEBF0A3EAF0A3E9F0122A6922F8
:102F4A0075911FD2A2D2A4D2A6D296D295C290C20D
:082F5A0091C292C293C29422BD
:1022F500E0FCA3E0FDA3E0FEA3E0FF752600752743
:0B23050005900066E0F528A3E0F52934
:082310008F258E248D238C2201
:10231800E4F53AF53BF53CF53DF53EF53FE5294555
:102328002870137545FF75462F7547778F4B8E4A72
:102338008D498C48805BE5296401452870177545EF
:10234800FF75462F75477C85254B85244A8523498B
:10235800852248803CE5296402452870177545FFA9
:1023680075462F75478185254B85244A85234985E0
:102378002248801DE52964034528701D7545FF75B1
:10238800462F75478685254B85244A85234985220E
:1023980048FB7A00792A121EE2E4F540F5417B00F9
:1023A8007A00792A122F62C3E5419FE5409E501CAE
:1023B800742A2541F8E6642E6012053BE53B70025D
:1023C800053A0541E54170D6054080D2E53B25290F
:1023D800FFE53A3528FED3EF9527E5266480F8EE29
:1023E80064809840077B017A00791E227B007A007E
:1023F800792A122F62EF24FFF541EE34FFF540D31E
:10240800E54194FFE5406480947F40317B007A0089
:10241800792A122F62EF24FFFFEE34FFFEC3EF95F7
:1024280041FFEE9540FE742A2541F8E6FD74322FEF
:10243800F8A605E541154170C6154080C27B007AB3
:1024480000792A122F6274322FF8E4F6F540F5412C
:10245800C3E5419527E5266480F8E54064809850F7
:102468001874682541F58274003540F583E4F00559
:1024780041E54170DB054080D7E4F540F5417B003C
:102488007A007932122F62C3E5419FE5409E50736E
:1024980074322541F8E6FFB42E0E753C00753D01F7
:1024A800753E00753F018050EF540F7E00244EF5B5
:1024B80082EE3400F583E0FFE53F6401453E702A73
:1024C800E53D6401453C701843070274672541F5F2
:1024D8008274003540F583EFF0E4F53CF53D801853
:1024E80074672541F5827400800874682541F58277
:1024F80074003540F583EFF00541E5417002054071
:092508000224867B017A00796847
:0125110022A7
:10289900122FB2122F4AE4FF122EB77F0A7E0012BE
:1028A9002F0D7B017A007934122B107B017A007984
:1028B90034122BA07B017A007934122A697B017AC0
:1028C900007949122B10122D327B017A007960129E
:1028D9002A69122D327B017A007934122A697B0127
:1028E9007A007934122B107B017A007934122BA0EB
:1028F900122D327B017A00790A120003122D327BE4
:10290900017A00793A120E3B122D327B017A007955
:1029190034122A697B017A007934122B107B017AEF
:10292900007934122BA0122D32122D327526007522
:1029390027057528007529027F007E007D007C002F
:1029490012231090002FEBF0A3EAF0A3E9F0122B69
:10295900A0752600752706900066E0F528A3E0F526
:10296900297F007E007D007C0012231090002FEB50
:0A297900F0A3EAF0A3E9F0022A69D6
:102EB7008F22D2A07F017E00122F0DD2A1E52270B2
:102EC70007122F2D7F808010122F2D7F44122DA9DE
:0F2ED700122F8B122F2D7F8F122DA9122F8B22CE
:102F2D00D2A0D2A17F017E00122F0DC2A07F017E03
:0D2F3D0000122F0DC2A17F017E00022F0D9A
:0D2D9C00900001AB22AA23A924121D93FF71
:102DA9008F26C2A0C2A1E4F525C3E5259408748045
:102DB90094805027C2A17F017E00122F0DE5263095
:102DC900E004D2A08002C2A07F017E00122F0DD2A2
:0F2DD900A1E526C313F526052580CEC2A1C2A011
:012DE80022C8
:102F8B00C2A0D2A17F017E00122F0DD2A07F017EA5
:042F9B0000022F0DF4
:062DE9008B088A09890A2B
:102DEF00122F2D7F44122DA9122F8B122F2D7FCD35
:102DFF00122DA9E4F50BC3E50B9401748094805058
:102E0F0013AB08AA09A90A850B82758300122DA599
:102E1F00050B80E2122F8B122F2D7F8B122DA90203
:022E2F002F8BE7
:102B10008B228A238924122F2D7F44122DA9122F54
:102B20008B122F2D7FC5122DA9AB22AA23A9241207
:102B30001D7AFF122DA9122F8B122F2D7FC8122D57
:102B4000A9AB22AA23A924900001122DA5122F8B34
:102B5000122F2D7FC7122DA9AB22AA23A9249000E2
:102B600002122DA5122F8B122F2D7FCA122DA9AB69
:102B700022AA23A924900003122DA5122F8B122F15
:102B80002D7FC9122DA9AB22AA23A92490000412DB
:102B90002DA5122F8B122F2D7F8B122DA9022F8B7B
:102BA0008B228A238924122F2D7F44122DA9122FC4
:102BB0008B122F2D7FCB122DA9AB22AA23A9241271
:102BC0001D7AFF122DA9122F8B122F2D7FC1122DCE
:102BD000A9AB22AA23A924900001122DA5122F8BA4
:102BE000122F2D7FC4122DA9AB22AA23A924900055
:102BF00002122DA5122F8B122F2D7FC3122DA9ABE0
:102C000022AA23A924900003122DA5122F8B122F84
:102C10002D7FC6122DA9AB22AA23A924900004124D
:102C20002DA5122F8B122F2D7F8B122DA9022F8BEA
:100003008B228A238924122F2D7F44122DA9122F8C
:100013008B122F2D7FCB122DA9AB22AA23A9241239
:100023001D7AFF122DA9122F8B7F647E00122F0DD4
:10003300122F2D7FCB122DA9122D9C122F8B122F35
:100043002D7FC1122DA9AB22AA23A924121D7AFF49
:10005300122DA9122F8B7F647E00122F0D122F2DCC
:100063007FCB122DA9900002122D9F122F8B122FDE
:100073002D7FC1122DA9122D9C122F8B122F2D7F94
:10008300C4122DA9AB22AA23A924121D7AFF122D73
:10009300A9122F8B7F647E00122F0D122F2D7FCB81
:1000A300122DA9AB22AA23A924900003122DA51275
:1000B3002F8B122F2D7FC1122DA9AB22AA23A92486
:1000C300900002122DA5122F8B122F2D7FC4122DFB
:1000D300A9122D9C122F8B122F2D7FC3122DA9AB8A
:1000E30022AA23A924121D7AFF122DA9122F8B7F76
:1000F300647E00122F0D122F2D7FCB122DA9AB2260
:10010300AA23A924900004122DA5122F8B122F2DA0
:100113007FC1122DA9AB22AA23A924900003122D7B
:10012300A5122F8B122F2D7FC4122DA9AB22AA2328
:10013300A924900002122DA5122F8B122F2D7FC3FD
:10014300122DA9122D9C122F8B122F2D7FC6122D2B
:10015300A9AB22AA23A924121D7AFF122DA9122FBB
:100163008B7F647E00122F0D122F2D7FCB122DA9B2
:10017300AB22AA23A924900005122DA5122F8B12BE
:100183002F2D7FC1122DA9AB22AA23A924900004ED
:10019300122DA5122F8B122F2D7FC4122DA9AB2246
:1001A300AA23A924900003122DA5122F8B122F2D01
:1001B3007FC3122DA9AB22AA23A924900002122DDA
:1001C300A5122F8B122F2D7FC6122DA9122D9C1233
:1001D3002F8B122F2D7FC5122DA9AB22AA23A92461
:1001E300121D7AFF122DA9122F8B7F647E00122F0E
:1001F3000D122F2D7FCB122DA9AB22AA23A9249058
:100203000006122DA5122F8B122F2D7FC1122DA99F
:10021300AB22AA23A924900005122DA5122F8B121D
:100223002F2D7FC4122DA9AB22AA23A92490000449
:10023300122DA5122F8B122F2D7FC3122DA9AB22A6
:10024300AA23A924900003122DA5122F8B122F2D60
:100253007FC6122DA9AB22AA23A924900002122D36
:10026300A5122F8B122F2D7FC5122DA9122D9C1293
:100273002F8B122F2D7FC8122DA9AB22AA23A924BD
:10028300121D7AFF122DA9122F8B7F647E00122F6D
:100293000D122F2D7FCB122DA9AB22AA23A92490B7
:1002A3000007122DA5122F8B122F2D7FC1122DA9FE
:1002B300AB22AA23A924900006122DA5122F8B127C
:1002C3002F2D7FC4122DA9AB22AA23A924900005A8
:1002D300122DA5122F8B122F2D7FC3122DA9AB2206
:1002E300AA23A924900004122DA5122F8B122F2DBF
:1002F3007FC6122DA9AB22AA23A924900003122D95
:10030300A5122F8B122F2D7FC5122DA9AB22AA2345
:10031300A924900002122DA5122F8B122F2D7FC816
:10032300122DA9122D9C122F8B122F2D7FC7122D48
:10033300A9AB22AA23A924121D7AFF122DA9122FD9
:100343008B7F647E00122F0D122F2D7FCB122DA9D0
:10035300AB22AA23A924900008122DA5122F8B12D9
:100363002F2D7FC1122DA9AB22AA23A92490000708
:10037300122DA5122F8B122F2D7FC4122DA9AB2264
:10038300AA23A924900006122DA5122F8B122F2D1C
:100393007FC3122DA9AB22AA23A924900005122DF5
:1003A300A5122F8B122F2D7FC6122DA9AB22AA23A4
:1003B300A924900004122DA5122F8B122F2D7FC577
:1003C300122DA9AB22AA23A924900003122DA51252
:1003D3002F8B122F2D7FC8122DA9AB22AA23A9245C
:1003E300900002122DA5122F8B122F2D7FC7122DD5
:1003F300A9122D9C122F8B122F2D7FCA122DA9AB60
:1004030022AA23A924121D7AFF122DA9122F8B7F52
:10041300647E00122F0D122F2D7FCB122DA9AB223C
:10042300AA23A924900009122DA5122F8B122F2D78
:100433007FC1122DA9AB22AA23A924900008122D53
:10044300A5122F8B122F2D7FC4122DA9AB22AA2305
:10045300A924900007122DA5122F8B122F2D7FC3D5
:10046300122DA9AB22AA23A924900006122DA512AE
:100473002F8B122F2D7FC6122DA9AB22AA23A924BD
:10048300900005122DA5122F8B122F2D7FC5122D33
:10049300A9AB22AA23A924900004122DA5122F8B05
:1004A300122F2D7FC8122DA9AB22AA23A9249000B5
:1004B30003122DA5122F8B122F2D7FC7122DA9AB3F
:1004C30022AA23A924900002122DA5122F8B122FEA
:1004D3002D7FCA122DA9122D9C122F8B122F2D7F27
:1004E300C9122DA9AB22AA23A924121D7AFF122D0A
:1004F300A9122F8B7F647E00122F0D122F2D7FCB1D
:10050300122DA9AB22AA23A92490000A122DA51209
:100513002F8B122F2D7FC1122DA9AB22AA23A92421
:10052300900009122DA5122F8B122F2D7FC4122D8F
:10053300A9AB22AA23A924900008122DA5122F8B60
:10054300122F2D7FC3122DA9AB22AA23A924900019
:1005530007122DA5122F8B122F2D7FC6122DA9AB9B
:1005630022AA23A924900006122DA5122F8B122F45
:100573002D7FC5122DA9AB22AA23A9249000051211
:100583002DA5122F8B122F2D7FC8122DA9AB22AAB6
:1005930023A924900004122DA5122F8B122F2D7F37
:1005A300C7122DA9AB22AA23A924900003122DA5BB
:1005B300122F8B122F2D7FCA122DA9AB22AA23A98A
:1005C30024900002122DA5122F8B122F2D7FC912FA
:1005D3002DA9122D9C122F8B7F647E00122F0D12DA
:1005E3002F2D7FCB122DA9AB22AA23A92490000B78
:1005F300122DA5122F8B122F2D7FC1122DA9AB22E5
:10060300AA23A92490000A122DA5122F8B122F2D95
:100613007FC4122DA9AB22AA23A924900009122D6D
:10062300A5122F8B122F2D7FC3122DA9AB22AA2324
:10063300A924900008122DA5122F8B122F2D7FC6EF
:10064300122DA9AB22AA23A924900007122DA512CB
:100653002F8B122F2D7FC5122DA9AB22AA23A924DC
:10066300900006122DA5122F8B122F2D7FC8122D4D
:10067300A9AB22AA23A924900005122DA5122F8B22
:10068300122F2D7FC7122DA9AB22AA23A9249000D4
:1006930004122DA5122F8B122F2D7FCA122DA9AB59
:1006A30022AA23A924900003122DA5122F8B122F07
:1006B3002D7FC9122DA9AB22AA23A92490000212CF
:1006C3002DA5122F8B7F647E00122F0D122F2D7FED
:1006D300CB122DA9AB22AA23A92490000C122DA57D
:1006E300122F8B122F2D7FC1122DA9AB22AA23A962
:1006F3002490000B122DA5122F8B122F2D7FC412C5
:100703002DA9AB22AA23A92490000A122DA5122FEA
:100713008B122F2D7FC3122DA9AB22AA23A92490BC
:100723000009122DA5122F8B122F2D7FC6122DA972
:10073300AB22AA23A924900008122DA5122F8B12F5
:100743002F2D7FC5122DA9AB22AA23A92490000720
:10075300122DA5122F8B122F2D7FC8122DA9AB227C
:10076300AA23A924900006122DA5122F8B122F2D38
:100773007FC7122DA9AB22AA23A924900005122D0D
:10078300A5122F8B122F2D7FCA122DA9AB22AA23BC
:10079300A924900004122DA5122F8B122F2D7FC98F
:1007A300122DA9AB22AA23A924900003122DA5126E
:1007B3002F8B7F647E00122F0D122F2D7FCB122DD6
:1007C300A9AB22AA23A92490000D122DA5122F8BC9
:1007D300122F2D7FC1122DA9AB22AA23A924900089
:1007E3000C122DA5122F8B122F2D7FC4122DA9AB06
:1007F30022AA23A92490000B122DA5122F8B122FAE
:100803002D7FC3122DA9AB22AA23A92490000A127B
:100813002DA5122F8B122F2D7FC6122DA9AB22AA25
:1008230023A924900009122DA5122F8B122F2D7F9F
:10083300C5122DA9AB22AA23A924900008122DA525
:10084300122F8B122F2D7FC8122DA9AB22AA23A9F9
:1008530024900007122DA5122F8B122F2D7FC71264
:100863002DA9AB22AA23A924900006122DA5122F8D
:100873008B122F2D7FCA122DA9AB22AA23A9249054
:100883000005122DA5122F8B122F2D7FC9122DA912
:10089300AB22AA23A924900004122DA5122F8B7F2B
:1008A300647E00122F0D122F2D7FCB122DA9AB22A8
:1008B300AA23A92490000E122DA5122F8B122F2DDF
:1008C3007FC1122DA9AB22AA23A92490000D122DBA
:1008D300A5122F8B122F2D7FC4122DA9AB22AA2371
:1008E300A92490000C122DA5122F8B122F2D7FC33C
:1008F300122DA9AB22AA23A92490000B122DA51215
:100903002F8B122F2D7FC6122DA9AB22AA23A92428
:1009130090000A122DA5122F8B122F2D7FC5122D99
:10092300A9AB22AA23A924900009122DA5122F8B6B
:10093300122F2D7FC8122DA9AB22AA23A924900020
:1009430008122DA5122F8B122F2D7FC7122DA9ABA5
:1009530022AA23A924900007122DA5122F8B122F50
:100963002D7FCA122DA9AB22AA23A9249000061217
:100973002DA5122F8B122F2D7FC9122DA9AB22AAC1
:1009830023A924900005122DA5122F8B7F647E00CE
:10099300122F0D122F2D7FCB122DA9AB22AA23A923
:1009A3002490000F122DA5122F8B122F2D7FC11211
:1009B3002DA9AB22AA23A92490000E122DA5122F34
:1009C3008B122F2D7FC4122DA9AB22AA23A9249009
:1009D300000D122DA5122F8B122F2D7FC3122DA9BF
:1009E300AB22AA23A92490000C122DA5122F8B123F
:1009F3002F2D7FC6122DA9AB22AA23A92490000B69
:100A0300122DA5122F8B122F2D7FC5122DA9AB22CC
:100A1300AA23A92490000A122DA5122F8B122F2D81
:100A23007FC8122DA9AB22AA23A924900009122D55
:100A3300A5122F8B122F2D7FC7122DA9AB22AA230C
:100A4300A924900008122DA5122F8B122F2D7FCAD7
:100A5300122DA9AB22AA23A924900007122DA512B7
:100A63002F8B122F2D7FC9122DA9AB22AA23A924C4
:100A7300900006122DA5122F8B7F647E00122F0D7E
:100A8300122F2D7FCB122DA9AB22AA23A9249000CC
:100A930010122DA5122F8B122F2D7FC1122DA9AB52
:100AA30022AA23A92490000F122DA5122F8B122FF7
:100AB3002D7FC4122DA9AB22AA23A92490000E12C4
:100AC3002DA5122F8B122F2D7FC3122DA9AB22AA76
:100AD30023A92490000D122DA5122F8B122F2D7FE9
:100AE300C6122DA9AB22AA23A92490000C122DA56E
:100AF300122F8B122F2D7FC5122DA9AB22AA23A94A
:100B03002490000B122DA5122F8B122F2D7FC812AC
:100B13002DA9AB22AA23A92490000A122DA5122FD6
:100B23008B122F2D7FC7122DA9AB22AA23A92490A4
:100B33000009122DA5122F8B122F2D7FCA122DA95A
:100B4300AB22AA23A924900008122DA5122F8B12E1
:100B53002F2D7FC9122DA9AB22AA23A92490000708
:100B6300122DA5122F8B7F647E00122F0D122F2DB5
:100B73007FCB122DA9AB22AA23A924900011122DF9
:100B8300A5122F8B122F2D7FC1122DA9AB22AA23C1
:100B9300A924900010122DA5122F8B122F2D7FC484
:100BA300122DA9AB22AA23A92490000F122DA5125E
:100BB3002F8B122F2D7FC3122DA9AB22AA23A92479
:100BC30090000E122DA5122F8B122F2D7FC6122DE2
:100BD300A9AB22AA23A92490000D122DA5122F8BB5
:100BE300122F2D7FC5122DA9AB22AA23A924900071
:100BF3000C122DA5122F8B122F2D7FC8122DA9ABEE
:100C030022AA23A92490000B122DA5122F8B122F99
:100C13002D7FC7122DA9AB22AA23A92490000A1263
:100C23002DA5122F8B122F2D7FCA122DA9AB22AA0D
:100C330023A924900009122DA5122F8B122F2D7F8B
:100C4300C9122DA9AB22AA23A924900008122DA50D
:100C5300122F8B7F647E00122F0D122F2D7FCB124C
:100C63002DA9AB22AA23A924900012122DA5122F7D
:100C73008B122F2D7FC1122DA9AB22AA23A9249059
:100C83000011122DA5122F8B122F2D7FC4122DA907
:100C9300AB22AA23A924900010122DA5122F8B1288
:100CA3002F2D7FC3122DA9AB22AA23A92490000FB5
:100CB300122DA5122F8B122F2D7FC6122DA9AB2219
:100CC300AA23A92490000E122DA5122F8B122F2DCB
:100CD3007FC5122DA9AB22AA23A92490000D122DA2
:100CE300A5122F8B122F2D7FC8122DA9AB22AA2359
:100CF300A92490000C122DA5122F8B122F2D7FC724
:100D0300122DA9AB22AA23A92490000B122DA51200
:100D13002F8B122F2D7FCA122DA9AB22AA23A92410
:100D230090000A122DA5122F8B122F2D7FC9122D81
:100D3300A9AB22AA23A924900009122DA5122F8B57
:100D43007F647E00122F0D122F2D7FCB122DA9ABA6
:100D530022AA23A924900013122DA5122F8B122F40
:100D63002D7FC1122DA9AB22AA23A9249000121210
:100D73002DA5122F8B122F2D7FC4122DA9AB22AAC2
:100D830023A924900011122DA5122F8B122F2D7F32
:100D9300C3122DA9AB22AA23A924900010122DA5BA
:100DA300122F8B122F2D7FC6122DA9AB22AA23A996
:100DB3002490000F122DA5122F8B122F2D7FC512F9
:100DC3002DA9AB22AA23A92490000E122DA5122F20
:100DD3008B122F2D7FC8122DA9AB22AA23A92490F1
:100DE300000D122DA5122F8B122F2D7FC7122DA9A7
:100DF300AB22AA23A92490000C122DA5122F8B122B
:100E03002F2D7FCA122DA9AB22AA23A92490000B50
:100E1300122DA5122F8B122F2D7FC9122DA9AB22B4
:100E2300AA23A92490000A122DA5122F8B122F2D6D
:080E33007F8B122DA9022F8B09
:100E3B008B228A238924122F2D7F44122DA9122F46
:100E4B008B122F2D7FC2122DA9AB22AA23A92412FC
:100E5B001D7AFF122DA9122F8B122F2D7FC0122D51
:100E6B00A9AB22AA23A924121D7AFF122DA9122F96
:100E7B008B122F2D7FCC122DA9AB22AA23A92412C2
:100E8B001D7AFF122DA9122F8B122F2D7FCE122D13
:100E9B00A9AB22AA23A924121D7AFF122DA9122F66
:100EAB008B122F2D7FCF122DA9AB22AA23A924128F
:100EBB001D7AFF122DA9122F8B122F2D7FCD122DE4
:100ECB00A9AB22AA23A924121D7AFF122DA9122F36
:100EDB008B122F2D7FCB122DA9AB22AA23A9241263
:100EEB001D7AFF122DA9122F8B122F2D7FC1122DC0
:100EFB00A9AB22AA23A924121D7AFF122DA9122F06
:100F0B008B122F2D7FC4122DA9AB22AA23A9241239
:100F1B001D7AFF122DA9122F8B122F2D7FC3122D8D
:100F2B00A9AB22AA23A924121D7AFF122DA9122FD5
:100F3B008B122F2D7FC6122DA9AB22AA23A9241207
:100F4B001D7AFF122DA9122F8B122F2D7FC5122D5B
:100F5B00A9AB22AA23A924121D7AFF122DA9122FA5
:100F6B008B122F2D7FC8122DA9AB22AA23A92412D5
:100F7B001D7AFF122DA9122F8B122F2D7FC7122D29
:100F8B00A9AB22AA23A924121D7AFF122DA9122F75
:100F9B008B122F2D7FCA122DA9AB22AA23A92412A3
:100FAB001D7AFF122DA9122F8B122F2D7FC9122DF7
:100FBB00A9AB22AA23A924121D7AFF122DA9122F45
:100FCB008B7FF47E01122F0D122F2D7FC2122DA9B4
:100FDB00AB22AA23A924900001122DA5122F8B124C
:100FEB002F2D7FC0122DA9AB22AA23A9249000017B
:100FFB00122DA5122F8B122F2D7FCC122DA9AB22C8
:10100B00AA23A924900001122DA5122F8B122F2D8C
:10101B007FCE122DA9AB22AA23A924900001122D59
:10102B00A5122F8B122F2D7FCF122DA9AB22AA2306
:10103B00A924900001122DA5122F8B122F2D7FCDDD
:10104B00122DA9AB22AA23A924900001122DA512BF
:10105B002F8B122F2D7FCB122DA9AB22AA23A924C4
:10106B00900001122DA5122F8B122F2D7FC1122D47
:10107B00A9AB22AA23A924900001122DA5122F8B14
:10108B00122F2D7FC4122DA9AB22AA23A9249000C5
:10109B0001122DA5122F8B122F2D7FC3122DA9AB51
:1010AB0022AA23A924900001122DA5122F8B122FF7
:1010BB002D7FC6122DA9AB22AA23A92490000112C1
:1010CB002DA5122F8B122F2D7FC5122DA9AB22AA66
:1010DB0023A924900001122DA5122F8B122F2D7FE7
:1010EB00C8122DA9AB22AA23A924900001122DA569
:1010FB00122F8B122F2D7FC7122DA9AB22AA23A93A
:10110B0024900001122DA5122F8B122F2D7FCA12A6
:10111B002DA9AB22AA23A924900001122DA5122FD1
:10112B008B122F2D7FC9122DA9AB22AA23A9249094
:10113B000001122DA5122F8B7FF47E01122F0D12A1
:10114B002F2D7FC2122DA9AB22AA23A92490000216
:10115B00122DA5122F8B122F2D7FC0122DA9AB2272
:10116B00AA23A924900002122DA5122F8B122F2D2A
:10117B007FCC122DA9AB22AA23A924900002122DF9
:10118B00A5122F8B122F2D7FCE122DA9AB22AA23A6
:10119B00A924900002122DA5122F8B122F2D7FCF79
:1011AB00122DA9AB22AA23A924900002122DA5125D
:1011BB002F8B122F2D7FCD122DA9AB22AA23A92461
:1011CB00900002122DA5122F8B122F2D7FCB122DDB
:1011DB00A9AB22AA23A924900002122DA5122F8BB2
:1011EB00122F2D7FC1122DA9AB22AA23A924900067
:1011FB0002122DA5122F8B122F2D7FC4122DA9ABEE
:10120B0022AA23A924900002122DA5122F8B122F94
:10121B002D7FC3122DA9AB22AA23A9249000021261
:10122B002DA5122F8B122F2D7FC6122DA9AB22AA03
:10123B0023A924900002122DA5122F8B122F2D7F84
:10124B00C5122DA9AB22AA23A924900002122DA509
:10125B00122F8B122F2D7FC8122DA9AB22AA23A9D7
:10126B0024900002122DA5122F8B122F2D7FC71247
:10127B002DA9AB22AA23A924900002122DA5122F6F
:10128B008B122F2D7FCA122DA9AB22AA23A9249032
:10129B000002122DA5122F8B122F2D7FC9122DA9F3
:1012AB00AB22AA23A924900002122DA5122F8B7F0B
:1012BB00F47E01122F0D122F2D7FC2122DA9AB22FE
:1012CB00AA23A924900003122DA5122F8B122F2DC8
:1012DB007FC0122DA9AB22AA23A924900003122DA3
:1012EB00A5122F8B122F2D7FCC122DA9AB22AA2347
:1012FB00A924900003122DA5122F8B122F2D7FCE18
:10130B00122DA9AB22AA23A924900003122DA512FA
:10131B002F8B122F2D7FCF122DA9AB22AA23A924FD
:10132B00900003122DA5122F8B122F2D7FCD122D76
:10133B00A9AB22AA23A924900003122DA5122F8B4F
:10134B00122F2D7FCB122DA9AB22AA23A9249000FB
:10135B0003122DA5122F8B122F2D7FC1122DA9AB8E
:10136B0022AA23A924900003122DA5122F8B122F32
:10137B002D7FC4122DA9AB22AA23A92490000312FE
:10138B002DA5122F8B122F2D7FC3122DA9AB22AAA5
:10139B0023A924900003122DA5122F8B122F2D7F22
:1013AB00C6122DA9AB22AA23A924900003122DA5A6
:1013BB00122F8B122F2D7FC5122DA9AB22AA23A979
:1013CB0024900003122DA5122F8B122F2D7FC812E4
:1013DB002DA9AB22AA23A924900003122DA5122F0D
:1013EB008B122F2D7FC7122DA9AB22AA23A92490D4
:1013FB000003122DA5122F8B122F2D7FCA122DA990
:10140B00AB22AA23A924900003122DA5122F8B1215
:10141B002F2D7FC9122DA9AB22AA23A9249000033B
:10142B00122DA5122F8B7FF47E01122F0D122F2D53
:10143B007FC2122DA9AB22AA23A924900004122D3E
:10144B00A5122F8B122F2D7FC0122DA9AB22AA23F1
:10145B00A924900004122DA5122F8B122F2D7FCCB7
:10146B00122DA9AB22AA23A924900004122DA51298
:10147B002F8B122F2D7FCE122DA9AB22AA23A9249D
:10148B00900004122DA5122F8B122F2D7FCF122D12
:10149B00A9AB22AA23A924900004122DA5122F8BED
:1014AB00122F2D7FCD122DA9AB22AA23A924900098
:1014BB0004122DA5122F8B122F2D7FCB122DA9AB22
:1014CB0022AA23A924900004122DA5122F8B122FD0
:1014DB002D7FC1122DA9AB22AA23A924900004129F
:1014EB002DA5122F8B122F2D7FC4122DA9AB22AA43
:1014FB0023A924900004122DA5122F8B122F2D7FC0
:10150B00C3122DA9AB22AA23A924900004122DA546
:10151B00122F8B122F2D7FC6122DA9AB22AA23A916
:10152B0024900004122DA5122F8B122F2D7FC51284
:10153B002DA9AB22AA23A924900004122DA5122FAA
:10154B008B122F2D7FC8122DA9AB22AA23A9249071
:10155B000004122DA5122F8B122F2D7FC7122DA930
:10156B00AB22AA23A924900004122DA5122F8B12B3
:10157B002F2D7FCA122DA9AB22AA23A924900004D8
:10158B00122DA5122F8B122F2D7FC9122DA9AB2235
:10159B00AA23A924900004122DA5122F8B7FF47E71
:1015AB0001122F0D122F2D7FC2122DA9AB22AA23B0
:1015BB00A924900005122DA5122F8B122F2D7FC061
:1015CB00122DA9AB22AA23A924900005122DA51236
:1015DB002F8B122F2D7FCC122DA9AB22AA23A9243E
:1015EB00900005122DA5122F8B122F2D7FCE122DB1
:1015FB00A9AB22AA23A924900005122DA5122F8B8B
:10160B00122F2D7FCF122DA9AB22AA23A924900034
:10161B0005122DA5122F8B122F2D7FCD122DA9ABBD
:10162B0022AA23A924900005122DA5122F8B122F6D
:10163B002D7FCB122DA9AB22AA23A9249000051232
:10164B002DA5122F8B122F2D7FC1122DA9AB22AAE4
:10165B0023A924900005122DA5122F8B122F2D7F5D
:10166B00C4122DA9AB22AA23A924900005122DA5E3
:10167B00122F8B122F2D7FC3122DA9AB22AA23A9B8
:10168B0024900005122DA5122F8B122F2D7FC61221
:10169B002DA9AB22AA23A924900005122DA5122F48
:1016AB008B122F2D7FC5122DA9AB22AA23A9249013
:1016BB000005122DA5122F8B122F2D7FC8122DA9CD
:1016CB00AB22AA23A924900005122DA5122F8B1251
:1016DB002F2D7FC7122DA9AB22AA23A92490000579
:1016EB00122DA5122F8B122F2D7FCA122DA9AB22D3
:1016FB00AA23A924900005122DA5122F8B122F2D92
:10170B007FC9122DA9AB22AA23A924900005122D63
:10171B00A5122F8B7FF47E01122F0D122F2D7FC25E
:10172B00122DA9AB22AA23A924900006122DA512D3
:10173B002F8B122F2D7FC0122DA9AB22AA23A924E8
:10174B00900006122DA5122F8B122F2D7FCC122D50
:10175B00A9AB22AA23A924900006122DA5122F8B28
:10176B00122F2D7FCE122DA9AB22AA23A9249000D4
:10177B0006122DA5122F8B122F2D7FCF122DA9AB59
:10178B0022AA23A924900006122DA5122F8B122F0B
:10179B002D7FCD122DA9AB22AA23A92490000612CE
:1017AB002DA5122F8B122F2D7FCB122DA9AB22AA79
:1017BB0023A924900006122DA5122F8B122F2D7FFB
:1017CB00C1122DA9AB22AA23A924900006122DA584
:1017DB00122F8B122F2D7FC4122DA9AB22AA23A956
:1017EB0024900006122DA5122F8B122F2D7FC312C2
:1017FB002DA9AB22AA23A924900006122DA5122FE6
:10180B008B122F2D7FC6122DA9AB22AA23A92490B0
:10181B000006122DA5122F8B122F2D7FC5122DA96D
:10182B00AB22AA23A924900006122DA5122F8B12EE
:10183B002F2D7FC8122DA9AB22AA23A92490000615
:10184B00122DA5122F8B122F2D7FC7122DA9AB2274
:10185B00AA23A924900006122DA5122F8B122F2D2F
:10186B007FCA122DA9AB22AA23A924900006122D00
:10187B00A5122F8B122F2D7FC9122DA9AB22AA23B4
:10188B00A924900006122DA5122F8B122F2D7F8BC2
:06189B00122DA9022F8BA3
:102A69008B228A238924122F2D7F44122DA9122FFC
:102A79008B122F2D7FC2122DA9AB22AA23A92412B2
:102A89001D7AFF122DA9122F8B122F2D7FC0122D07
:102A9900A9AB22AA23A924900001122DA5122F8BDC
:102AA900122F2D7FCC122DA9AB22AA23A924900085
:102AB90002122DA5122F8B122F2D7FCE122DA9AB0D
:102AC90022AA23A924900003122DA5122F8B122FBD
:102AD9002D7FCF122DA9AB22AA23A924900004127D
:102AE9002DA5122F8B122F2D7FCD122DA9AB22AA26
:102AF90023A924900005122DA5122F8B122F2D7FAB
:072B09008B122DA9022F8B96
:0B2FB200759503C2A0C2A1E4F5B42293
:102D3200E4F525F524F523F522E47F32FEFDFCAB14
:102D420025AA24A923A822C3121E02504CE4F52965
:102D5200F528F527F526E47FE87E03FDFCAB29AADA
:102D620028A927A826C3121E025017E5292401F517
:102D720029E43528F528E43527F527E43526F52614
:102D820080D4E5252401F525E43524F524E4352312
:092D9200F523E43522F52280A0AE
:012D9B002215
:102F0D00E4FDFCC3ED9FEC9E5015E4FBFA0BBB00FA
:0F2F1D00010ABA01F8BB4DF50DBD00010C80E4AF
:012F2C002282
:062E79008B228A2389244C
:102E7F00E4FFFEAB22AA23A9248F828E83121D9317
:102E8F0060070FBF00010E80EAAB25AA26A9271203
:102E9F001D7AAB22AA23A9248F828E83121DD28F73
:082EAF00828E83A3E4021DD210
:102682007F41E4FEEEFDC394057480948040030212
:1026920027A9ED7032D290C291C292C293C29430F5
:1026A20095052095FD7F013096052096FD7F02302D
:1026B200A20520A2FD7F0330A40520A4FD7F1730D0
:1026C200A60520A6FD7F04EE64017032C290D2916D
:1026D200C292C293C2943095052095FD7F04309634
:1026E200052096FD7F0530A20520A2FD7F0630A4BD
:1026F2000520A4FD7F1530A60520A6FD7F16EE64F9
:10270200027032C290C291D292C293C294309505A5
:102712002095FD7F073096052096FD7F0830A205A3
:1027220020A2FD7F0930A40520A4FD7F1330A60559
:1027320020A6FD7F14EE64037032C290C291C29251
:10274200D293C2943095052095FDE4FF3096052082
:1027520096FD7F0A30A20520A2FD7F0B30A4052042
:10276200A4FD7F1130A60520A6FD7F12EE64047041
:1027720032C290C291C292C293D2943095052095F2
:10278200FD7F0F3096052096FD7F0E30A20520A218
:10279200FD7F1030A40520A4FD7F0C30A60520A6E5
:0727A200FD7F0D0E022686EB
:0127A900220D
:092FBD007FA47E707DCC7C4122D2
:1018A100EC4D6011E8497017ED33EC3304600DE441
:1018B100FCFFFEFD22E933E8330470F80219DC1263
:1018C10019A758046009E4CC248150062850090264
:1018D10019E62840030219E3C0E0EB4A7044B980DD
:1018E10006D0E0FB0219D2EF4E701CBD8008EBFF61
:1018F100EAFEE9FD80EBE98DF0A4FEE5F002198A2C
:10190100E9CDF9EAFEEBFFEF89F0A4FCE5F0CE8921
:10191100F0A42EFFE435F0CD89F0A42DFEE435F0DE
:101921008067EF4E7005BD80D780C3EF8BF0A4AC0C
:10193100F0EE8BF0A42CFCE435F0F8EF8AF0A42C47
:10194100E5F038FCE433CB8DF0A42CFCE5F03BF85A
:10195100EE8AF0A42CFCE5F038F8E433CF89F0A44A
:101961002CFCE5F038CF3400CE89F0A42FFFE5F050
:101971003EFEE433C98DF0A42EFEE5F039CD8AF0A8
:10198100A42FFFE5F03EFEE43DFD33D0E0FB500720
:101991000BBB000F0219E6EC2CFCEF33FFEE33FE1C
:0619A100ED33FD0219BE4A
:101E8600E5592445F8E60559227842300702784597
:101E9600E475F001121E50021D7A2000EB7F2ED24F
:101EA600008018EF540F2490D43440D4FF30040B34
:101EB600EF24BFB41A0050032461FFE55A600215EF
:101EC6005A055DE55D7002055C30070D7842E475E4
:101ED600F001121E50EF021DC0022EE67403D20757
:101EE6008003E4C207F5598B428A438944E4F55AD4
:101EF600F55CF55DE55A60077F20121EC180F57519
:101F06005BFFC201C200C202C203C205C206C2080A
:101F1600121E8FFF700D3007057F00121ED2AF5DB7
:101F2600AE5C22B4255FC2D5C204121E8FFF24D038
:101F3600B40A00501A75F00A785A30D50508B6FF6B
:101F46000106C6A426F620D5047002D20380D92441
:101F5600CFB41A00EF5004C2E5D2040221BFD20169
:101F660080C6D20080C0D20280BCD2D580BAD2054B
:101F760080B47F20121EC12002077401B55A0040AA
:101F8600F1121E86FF121EC1021EFAD208D2068068
:101F960095121E86FB121E86FA121E86F94A4B7091
:101FA6000679B67A227BFF20022EE55A602A7E0049
:101FB6008E82758300121D9360060EEE655B70F0CF
:101FC600C2D5EBC0E0EAC0E0E9C0E0EE12221FD0C5
:101FD600E0F9D0E0FAD0E0FB121D7AFF60AAEBC070
:101FE600E0EAC0E0E9C0E0121EC1D0E02401F9D069
:101FF600E03400FAD0E0FBE55B0460DCD55BD98019
:1020060087D20280A212220260F7E55B70010412F9
:1020160019F1A95B600DE55B600914F55B1222A955
:10202600EF60F3EA30E702F404C3995077EAF42547
:102036005B0430E701E404F55B800D12220260C107
:10204600EA055B255B1219F1EA7858F630E701E4F8
:10205600255B04D55B042005011412221FE4C0E0B1
:102066001222A97858E6601320E70714F6121EA973
:10207600802204F6D0E014C0E07F00121EA9E55BC2
:102086006007121EA0155B800B300503121EA0D040
:10209600E0021EFAD0E00480C512220260A0E55BD1
:1020A600041219F17858EAF6E55B2005026001048E
:0520B600240412221FAA
:1020BB0074FF04C0E01222A9121EA9E55B200502E1
:1020CB006003121EA0D0E0B55BE87F45121EB3780B
:1020DB0058E67F2B30E7047F2DF404C0E0121EC1BD
:1020EB00D0E075F00A84C0F0121EAAD0E0121EAA2E
:1020FB00021EFA791080027908C206C2088008D243
:10210B00D5790A8004790AC2D5E55B047002F55BC8
:10211B00E4FAFDFEFF121E86FC7B08200113121E43
:10212B0086FD7B1030000A121E86FE121E86FF7B78
:10213B0020EC3382D592D55013C3E43000069FFFB9
:10214B00E49EFEE42001039DFDE49CFCE4CBF8C27D
:10215B0001EC700CCFCECDCCE824F8F870F38017DF
:10216B00C3EF33FFEE33FEED33FDEC33FCEB33FB10
:10217B00994002FB0FD8E9EB300105F8D0E0C448D9
:10218B00B201C0E00AEC4D4E4F78207B0070C2EAE2
:10219B00B55B0040BCC0E0122221D0F0D0E02001A2
:1021AB0004C4C0E0C4B201C0F0121EAAD0F0D5F036
:1021BB00EB021EFA121E601F975320FE581F684C2D
:1021CB001F644221024F210A44210A491F7D4321EA
:1021DB001055204146209F45200B4722D6501F6C9F
:1021EB002D1F702E1F932B1F74231F912022BF2A8C
:1021FB001F2C4800001F8BE55BB4FF03755B0612B9
:10220B001E86FC121E86FD121E86FE121E86FF788F
:10221B0051021A20790AA2D5200314300509B910EE
:10222B00020404B9080104A2D520060250010420BF
:10223B0002689202B55A005034C0E07F2030031977
:10224B007F30A20272067205500F122278C202C2B0
:10225B0006C205C2087F30800F300503E9C0E012CB
:10226B001EC1300503D0E0F9D0E0B55ACC300517CC
:10227B007F30B9100C121EC17F583004077F788055
:10228B0003B90803121EC13002057F2D021EC17F48
:10229B00202008F87F2B2006F322920280CF7F00AC
:1022AB00B4070050052451F8E6FF22286E756C6CBC
:1022BB002900D201121E863001F8C201785A30D59E
:1022CB000108F6021F2C2D50434958121E86240379
:1022DB00B405004001E49022D193121EB2743A125D
:0A22EB001EB2D203755A040220FE51
:102E3100D2008B228A238924122E6DC0E0FF122F2B
:102E41009FD0E040F3122996400122ECC0E0EDC092
:102E5100E0EEC0E0EFC0E0122E6DD0F0AFF0D0F0A8
:102E6100AEF0D0F0ADF0D0F0ACF080D9E475F00167
:082E71007822121E50021D7AA6
:1019A700E9D2E7C933E833F892D5EDD2E7CD33EC86
:0719B70033FC5002B2D522FF
:1019BE00EC30E7100FBF000C0EBE00080DBD00048A
:1019CE000BEB6014A2D5EB13FCED92E7FD2274FF36
:1019DE00FCFDFEFF22E480F8A2D574FF13FC7D808F
:0319EE00E480EFA3
:1019F100F920E72824F950037907E4F42402FB18BD
:101A0100DBFDE624FB5014E9600DE4F618E604F66C
:0F1A1100B40A08E4F6D9F57401F60A22C2D52208
:101A2000ED33EC3392D5FA602AB4FF33EDC2E77B95
:101A3000FF60067A1A7945E4227A1A794E20D50495
:101A40007A1A7949224E614E002B494E46002D49A3
:101A50004E4600E47A08F608DAFC7B00740722E8B8
:101A6000C0E0ECC0E0EDC0E0EEC0E0EFC0E0EA7541
:101A7000F010A4CAABF075F04DA42BFBE435F0FCDC
:101A8000EA2410FAEB34C5FBEC34D9FCEDC2E7FFD5
:101A900075F056A4F42411C5F0F434C58FF0A42ACF
:101AA000E5F03BE43CF620E714121D3AD0E0FFD00D
:101AB000E0FED0E0FDD0E0FC121C1E8014F4041205
:101AC0001D3AD0E0FFD0E0FED0E0FDD0E0FC1218DF
:101AD000A1D0E0F8E6FAEDD2E7CD33EC332482FB77
:101AE000E4C3CF33CFCE33CECD33CD33DBF37B075F
:101AF00075F00A846004F6081B0AE5F0F6088FF01A
:101B0000740AA4FFACF08EF0740AA42CFEACF05062
:101B1000010C8DF0740AA42CFDE435F0F608DBDE30
:031B200074072225
:10298300C201C202C203C204F9E4F525F526FCFD27
:10299300FEFFE91000EA20030CB42D04D203D32276
:1029A300B42B02D32224D0504794095041240A3037
:1029B3000415F88526F0740AA42872E74051C5F07F
:1029C300704D85F026D322D202C0E0E4FBFA7920D1
:1029D30078411218A1ECF8EDF9EEFAEFFBD0E0FC28
:1029E300E4121CD6121B2A3001B41525D322240A63
:1029F300200420B4FE0720011AD201D32224EB6065
:102A03000424E0700EA2039201D204C203D322C3B2
:102A13000219DCE430040BE526300302F404A201BE
:102A230092033002EA252520D2E5A2E79204500260
:102A3300F404B4260050D8CCC0E0EDC0E0EEC0E012
:102A4300EFC0E0EC121D3AD0E0FFD0E0FED0E0FD95
:102A5300D0E0FC2004051218A18003121C1E3003D1
:062A630003121CBBC3229C
:101B23000219DCE86480F8E933E83360110460F0FB
:101B3300ED33EC337009E8FCE9FDEAFEEBFF220428
:101B430060DED3EB9FEA9EE99DE8C2E78CF0C2F723
:101B530095F0400CE8CCF8E9CDF9EACEFAEBCFFBEF
:101B63001219A785D0F05804700320D5B3E8047088
:101B7300075002B2D50219E692D5EC0460F7E4CC23
:101B8300C0E0C398F8603B94186008400DD0E0FBB8
:101B93000219BEE4FBFAC9FC8028E830E406E4C974
:101BA300FBE4CAFCE830E305E4C9CACBFCE854070C
:101BB3006010F8C3E913F9EA13FAEB13FBEC13FC17
:101BC300D8F130F52FC3E49CFCEF9BFFEE9AFEEDBA
:101BD30099FDD0E0FBEF4E4D4C701222DB0302194E
:101BE300E3EC2CFCEF33FFEE33FEED33FDED30E79A
:101BF300EB0219BEEF2BFFEE3AFEED39FDD0E0FB11
:101C030050130BBB00030219E6ED13FDEE13FEEFB9
:081C130013FFEC13FC0219BEE3
:101C1B000219E6EC5D046005E8590470030219DC57
:101C2B001219A7580460F6EC4860F2EC7004FDFE44
:101C3B00FF22C860DB2481C85009C398600250069C
:101C4B000219E39850CAF582E9294B4A7005AB8219
:101C5B000219D275F0007C1A7880C3EF9BEE9AEDD7
:101C6B0099400DC3EF9BFFEE9AFEED99FDE842F014
:101C7B00DC23ACF0D0E0FFD0E0FED0E0FDAB822067
:101C8B00E7101BEB60BAEC2CFCEF33FFEE33FEEDF1
:101C9B0033FD0219BEE803F830E705C0F075F0001C
:101CAB00EF2FFFEE33FEED33FD40B830E7C280AAD5
:101CBB00ED33EC33600A047003BD8004ECB2E7FC37
:011CCB0022F6
:101CCC0075F020800E75F010800575F0087D007E93
:101CDC00007F003392D530D503121DF4EC33401045
:101CEC00EF33FFEE33FEED33FDEC33FCD5F0ED229C
:0E1CFC00E5F0247EA2D513CC92E7CDCEFF22D8
:101D0A003F8000004120000042C80000447A0000E1
:101D1A00461C400047C35000497424004B18968063
:101D2A004CBEBC205A0E1BCA6753C21C749DC5AE5A
:101D3A00FB60065407601C2323121D68EB543860AD
:101D4A0009121D54121D631218A1ECF8EDF9EEFAEE
:101D5A00EFCB22EB121D6380F1543803241C901D33
:101D6A000AFE93FC0EEE93FD0EEE930ECE93FF2227
:03000000022C309F
:0C2C3000787FE4F6D8FD75815D022C77FA
:101D7A00BB010689828A83E0225002E722BBFE0267
:091D8A00E32289828A83E493229A
:101D9300BB010CE58229F582E5833AF583E0225005
:101DA30006E92582F8E622BBFE06E92582F8E2224F
:0D1DB300E58229F582E5833AF583E4932269
:101DC000BB010689828A83F0225002F722BBFE0102
:021DD000F322FC
:101DD200F8BB010DE58229F582E5833AF583E8F047
:101DE200225006E92582C8F622BBFE05E92582C8F3
:021DF200F222DB
:0E1DF400C3E49FFFE49EFEE49DFDE49CFC2200
:101E0200EB9FF5F0EA9E42F0E99D42F0E89C45F036
:011E120022AD
:0C1E1300ECF0A3EDF0A3EEF0A3EFF02242
:101E1F00A8828583F0D083D082121E36121E36120E
:101E2F001E36121E36E473E493A3C583C5F0C58333
:101E3F00C8C582C8F0A3C583C5F0C583C8C582C80D
:011E4F002270
:101E5000FAE6FB0808E6F925F0F618E6CA3AF62293
:101E6000D083D082F8E4937012740193700DA3A311
:101E700093F8740193F5828883E473740293686025
:061E8000EFA3A3A380DF25
:102EE600EFB40A07740D122EF1740A309811A899DE
:102EF600B8130CC2983098FDA899C298B811F6304C
:072F060099FDC299F5992223
:102F9F00EFC394094005EF940E4003BF2003D38085
:032FAF0001C32239
:102F6200E4FFFE121D7A600C0FEF70010E09E9708A
:052F7200F20A80EF22CD
:102C3C000227AAE493A3F8E493A34003F68001F2DD
:102C4C0008DFF48029E493A3F85407240CC8C33399
:102C5C00C4540F4420C8834004F456800146F6DF68
:102C6C00E4800B0102040810204080902CBCE47E10
:102C7C00019360BCA3FF543F30E509541FFEE4935D
:102C8C00A360010ECF54C025E060A840B8E493A324
:102C9C00FAE493A3F8E493A3C8C582C8CAC583CA4F
:102CAC00F0A3C8C582C8CAC583CADFE9DEE780BE07
:012D310000A1
:00000001FF
