:102C1E00252E306600252E316600252E32660025C3
:042C2E002E336600DB
:102A0E004600141010101010104A0031EDA0D9F825
:102A1E00B47C7DE0FDFC47002040C0E0E8E9EDFD20
:102A2E0045002C004D45D500460040EDA200455D09
:102A3E00AD540000B55D0D0DED107C4DF50D000093
:102A4E00000000000000000046001A000000000018
:102A5E0000450027001DF5FD0045003BB4A2A00077
:012A6E000067
:102A7000753900753A021226A3753F007540057539
:102A800041007542037F607E767DB47C41122285D1
:102A90001227F8753F007540057541007542027FA9
:102AA000CD7ED87D117C45122285122888753F0085
:102AB0007540067541007542017FF37E4F7DC37CF2
:092AC0004712228512275180FE05
:102BF10075911FD2A2D2A4D2A6D296D295C290C26A
:082C010091C292C293C2942219
:082285008F3E8E3D8D3C8C3B29
:10228D00E4F553F554F555F556F557F558E5424532
:10229D00417013755EFF755F2C75601E8F648E63C4
:1022AD008D628C61805BE542640145417017755EFE
:1022BD00FF755F2C756023853E64853D63853C62AB
:1022CD00853B61803CE542640245417017755EFFB8
:1022DD00755F2C756028853E64853D63853C628500
:1022ED003B61801DE54264034541701D755EFF75C0
:1022FD005F2C75602D853E64853D63853C62853B15
:10230D0061FB7A007943121E727FE87E03122BB4B3
:10231D00E4F559F55A7B007A007943122C09C3E58F
:10232D005A9FE5599E501C7443255AF8E6642E6059
:10233D00120554E55470020553055AE55A70D60539
:10234D005980D2E5542542FFE5533541FED3EF9533
:10235D0040E53F6480F8EE64809840077B017A0089
:10236D007914227B007A007943122C09EF24FFF5B2
:10237D005AEE34FFF559D3E55A94FFE5596480942C
:10238D007F40317B007A007943122C09EF24FFFF47
:10239D00EE34FFFEC3EF955AFFEE9559FE744325BB
:1023AD005AF8E6FD744B2FF8A605E55A155A70C676
:1023BD00155980C27B007A007943122C09744B2F7A
:1023CD00F8E4F6F559F55AC3E55A9540E53F6480B2
:1023DD00F8E55964809850187446255AF5827400B2
:1023ED003559F583E4F0055AE55A70DB055980D768
:1023FD00E4F559F55A7B007A00794B122C09C3E5A7
:10240D005A9FE5599E5073744B255AF8E6FFB42E2A
:10241D000E7555007556017557007558018050EFB2
:10242D00540F7E002431F582EE3400F583E0FFE594
:10243D005864014557702AE5566401455570184397
:10244D0007027445255AF58274003559F583EFF06E
:10245D00E4F555F55680187445255AF582740080BB
:10246D00087446255AF58274003559F583EFF00549
:10247D005AE55A700205590224027B017A00794609
:01248D00222C
:1026A300122C46122BF1E4FF122B5E7F0A7E0012DE
:1026B3002BB47B017A00791A1227F87B017A00790F
:1026C3001A1228887B017A00791A1227517B017A22
:1026D30000792C1227F81229A47B017A0079401281
:1026E30027511229A47B017A00791A1227517B0101
:1026F3007A00791A1227F87B017A00791A1228884E
:102703001229A47B017A0079001200031229A47B09
:10271300017A007920120E3B1229A47B017A0079F9
:102723001A1227517B017A00791A1227F87B017A52
:1027330000791A1228881229A47B017A00792712BA
:0E27430027F87B017A00793B1228880229A42E
:102B5E008F3BD2A07F017E00122BB4D2A1E53B7039
:102B6E0007122BD47F808010122BD47F44122AD6CA
:0F2B7E00122C32122BD47F8F122AD6122C322215
:102BD400D2A0D2A17F017E00122BB4C2A07F017EBD
:0D2BE40000122BB4C2A17F017E00022BB4B1
:0D2AC900900001AB3BAA3CA93D121D82FF0D
:102AD6008F3FC2A0C2A1E4F53EC3E53E94087480D0
:102AE60094805027C2A17F017E00122BB4E53F30AF
:102AF600E004D2A08002C2A07F017E00122BB4D2D5
:0F2B0600A1E53FC313F53F053E80CEC2A1C2A09B
:012B1500229D
:102C3200C2A0D2A17F017E00122BB4D2A07F017E5E
:042C420000022BB4AD
:062B16008B178A188919D3
:102B1C00122BD47F44122AD6122C32122BD47FCDF6
:102B2C00122AD6E4F51AC3E51A94017480948050E5
:102B3C0013AB17AA18A919851A82758300122AD209
:102B4C00051A80E2122C32122BD47F8B122AD60259
:022B5C002C3219
:1027F8008B3B8A3C893D122BD47F44122AD6122C5B
:1028080032122BD47FC5122AD6AB3BAA3CA93D1263
:102818001D69FF122AD6122C32122BD47FC8122A15
:10282800D6AB3BAA3CA93D900001122AD2122C3209
:10283800122BD47FC7122AD6AB3BAA3CA93D9000E5
:1028480002122AD2122C32122BD47FCA122AD6ABE9
:102858003BAA3CA93D900003122AD2122C32122B1B
:10286800D47FC9122AD6AB3BAA3CA93D90000412DA
:102878002AD2122C32122BD47F8B122AD6022C3257
:102888008B3B8A3C893D122BD47F44122AD6122CCA
:1028980032122BD47FCB122AD6AB3BAA3CA93D12CD
:1028A8001D69FF122AD6122C32122BD47FC1122A8C
:1028B800D6AB3BAA3CA93D900001122AD2122C3279
:1028C800122BD47FC4122AD6AB3BAA3CA93D900058
:1028D80002122AD2122C32122BD47FC3122AD6AB60
:1028E8003BAA3CA93D900003122AD2122C32122B8B
:1028F800D47FC6122AD6AB3BAA3CA93D900004124D
:102908002AD2122C32122BD47F8B122AD6022C32C6
:100003008B3B8A3C893D122BD47F44122AD6122C77
:1000130032122BD47FCB122AD6AB3BAA3CA93D127A
:100023001D69FF122AD6122C327F647E00122BB474
:10003300122BD47FCB122AD6122AC9122C32122B9E
:10004300D47FC1122AD6AB3BAA3CA93D121D69FF3E
:10005300122AD6122C327F647E00122BB4122BD4B8
:100063007FCB122AD6900002122ACC122C32122BEA
:10007300D47FC1122AD6122AC9122C32122BD47F52
:10008300C4122AD6AB3BAA3CA93D121D69FF122A12
:10009300D6122C327F647E00122BB4122BD47FCB6A
:1000A300122AD6AB3BAA3CA93D900003122AD212D6
:1000B3002C32122BD47FC1122AD6AB3BAA3CA93DCA
:1000C300900002122AD2122C32122BD47FC4122A8D
:1000D300D6122AC9122C32122BD47FC3122AD6ABC2
:1000E3003BAA3CA93D121D69FF122AD6122C327F6E
:1000F300647E00122BB4122BD47FCB122AD6AB3BD7
:10010300AA3CA93D900004122AD2122C32122BD4FD
:100113007FC1122AD6AB3BAA3CA93D900003122A09
:10012300D2122C32122BD47FC4122AD6AB3BAA3C58
:10013300A93D900002122AD2122C32122BD47FC373
:10014300122AD6122AC9122C32122BD47FC6122A93
:10015300D6AB3BAA3CA93D121D69FF122AD6122C2D
:10016300327F647E00122BB4122BD47FCB122AD69B
:10017300AB3BAA3CA93D900005122AD2122C3212A5
:100183002BD47FC1122AD6AB3BAA3CA93D900004D5
:10019300122AD2122C32122BD47FC4122AD6AB3B92
:1001A300AA3CA93D900003122AD2122C32122BD45E
:1001B3007FC3122AD6AB3BAA3CA93D900002122A68
:1001C300D2122C32122BD47FC6122AD6122AC9126B
:1001D3002C32122BD47FC5122AD6AB3BAA3CA93DA5
:1001E300121D69FF122AD6122C327F647E00122B55
:1001F300B4122BD47FCB122AD6AB3BAA3CA93D9099
:100203000006122AD2122C32122BD47FC1122AD604
:10021300AB3BAA3CA93D900005122AD2122C321204
:100223002BD47FC4122AD6AB3BAA3CA93D90000431
:10023300122AD2122C32122BD47FC3122AD6AB3BF2
:10024300AA3CA93D900003122AD2122C32122BD4BD
:100253007FC6122AD6AB3BAA3CA93D900002122AC4
:10026300D2122C32122BD47FC5122AD6122AC912CB
:100273002C32122BD47FC8122AD6AB3BAA3CA93D01
:10028300121D69FF122AD6122C327F647E00122BB4
:10029300B4122BD47FCB122AD6AB3BAA3CA93D90F8
:1002A3000007122AD2122C32122BD47FC1122AD663
:1002B300AB3BAA3CA93D900006122AD2122C321263
:1002C3002BD47FC4122AD6AB3BAA3CA93D90000590
:1002D300122AD2122C32122BD47FC3122AD6AB3B52
:1002E300AA3CA93D900004122AD2122C32122BD41C
:1002F3007FC6122AD6AB3BAA3CA93D900003122A23
:10030300D2122C32122BD47FC5122AD6AB3BAA3C75
:10031300A93D900002122AD2122C32122BD47FC88C
:10032300122AD6122AC9122C32122BD47FC7122AB0
:10033300D6AB3BAA3CA93D121D69FF122AD6122C4B
:10034300327F647E00122BB4122BD47FCB122AD6B9
:10035300AB3BAA3CA93D900008122AD2122C3212C0
:100363002BD47FC1122AD6AB3BAA3CA93D900007F0
:10037300122AD2122C32122BD47FC4122AD6AB3BB0
:10038300AA3CA93D900006122AD2122C32122BD479
:100393007FC3122AD6AB3BAA3CA93D900005122A83
:1003A300D2122C32122BD47FC6122AD6AB3BAA3CD4
:1003B300A93D900004122AD2122C32122BD47FC5ED
:1003C300122AD6AB3BAA3CA93D900003122AD212B3
:1003D3002C32122BD47FC8122AD6AB3BAA3CA93DA0
:1003E300900002122AD2122C32122BD47FC7122A67
:1003F300D6122AC9122C32122BD47FCA122AD6AB98
:100403003BAA3CA93D121D69FF122AD6122C327F4A
:10041300647E00122BB4122BD47FCB122AD6AB3BB3
:10042300AA3CA93D900009122AD2122C32122BD4D5
:100433007FC1122AD6AB3BAA3CA93D900008122AE1
:10044300D2122C32122BD47FC4122AD6AB3BAA3C35
:10045300A93D900007122AD2122C32122BD47FC34B
:10046300122AD6AB3BAA3CA93D900006122AD2120F
:100473002C32122BD47FC6122AD6AB3BAA3CA93D01
:10048300900005122AD2122C32122BD47FC5122AC5
:10049300D6AB3BAA3CA93D900004122AD2122C32BF
:1004A300122BD47FC8122AD6AB3BAA3CA93D90009D
:1004B30003122AD2122C32122BD47FC7122AD6ABA4
:1004C3003BAA3CA93D900002122AD2122C32122BD5
:1004D300D47FCA122AD6122AC9122C32122BD47FE5
:1004E300C9122AD6AB3BAA3CA93D121D69FF122AA9
:1004F300D6122C327F647E00122BB4122BD47FCB06
:10050300122AD6AB3BAA3CA93D90000A122AD2126A
:100513002C32122BD47FC1122AD6AB3BAA3CA93D65
:10052300900009122AD2122C32122BD47FC4122A21
:10053300D6AB3BAA3CA93D900008122AD2122C321A
:10054300122BD47FC3122AD6AB3BAA3CA93D900001
:1005530007122AD2122C32122BD47FC6122AD6AB00
:100563003BAA3CA93D900006122AD2122C32122B30
:10057300D47FC5122AD6AB3BAA3CA93D90000512F5
:100583002AD2122C32122BD47FC8122AD6AB3BAA02
:100593003CA93D900004122AD2122C32122BD47F94
:1005A300C7122AD6AB3BAA3CA93D900003122AD21C
:1005B300122C32122BD47FCA122AD6AB3BAA3CA9E7
:1005C3003D900002122AD2122C32122BD47FC91270
:1005D3002AD6122AC9122C327F647E00122BB4123F
:1005E3002BD47FCB122AD6AB3BAA3CA93D90000B60
:1005F300122AD2122C32122BD47FC1122AD6AB3B31
:10060300AA3CA93D90000A122AD2122C32122BD4F2
:100613007FC4122AD6AB3BAA3CA93D900009122AFB
:10062300D2122C32122BD47FC3122AD6AB3BAA3C54
:10063300A93D900008122AD2122C32122BD47FC665
:10064300122AD6AB3BAA3CA93D900007122AD2122C
:100653002C32122BD47FC5122AD6AB3BAA3CA93D20
:10066300900006122AD2122C32122BD47FC8122ADF
:10067300D6AB3BAA3CA93D900005122AD2122C32DC
:10068300122BD47FC7122AD6AB3BAA3CA93D9000BC
:1006930004122AD2122C32122BD47FCA122AD6ABBE
:1006A3003BAA3CA93D900003122AD2122C32122BF2
:1006B300D47FC9122AD6AB3BAA3CA93D90000212B3
:1006C3002AD2122C327F647E00122BB4122BD47FD9
:1006D300CB122AD6AB3BAA3CA93D90000C122AD2DE
:1006E300122C32122BD47FC1122AD6AB3BAA3CA9BF
:1006F3003D90000B122AD2122C32122BD47FC4123B
:100703002AD6AB3BAA3CA93D90000A122AD2122C4E
:1007130032122BD47FC3122AD6AB3BAA3CA93D90FD
:100723000009122AD2122C32122BD47FC6122AD6D7
:10073300AB3BAA3CA93D900008122AD2122C3212DC
:100743002BD47FC5122AD6AB3BAA3CA93D90000708
:10075300122AD2122C32122BD47FC8122AD6AB3BC8
:10076300AA3CA93D900006122AD2122C32122BD495
:100773007FC7122AD6AB3BAA3CA93D900005122A9B
:10078300D2122C32122BD47FCA122AD6AB3BAA3CEC
:10079300A93D900004122AD2122C32122BD47FC905
:1007A300122AD6AB3BAA3CA93D900003122AD212CF
:1007B3002C327F647E00122BB4122BD47FCB122AEF
:1007C300D6AB3BAA3CA93D90000D122AD2122C3283
:1007D300122BD47FC1122AD6AB3BAA3CA93D900071
:1007E3000C122AD2122C32122BD47FC4122AD6AB6B
:1007F3003BAA3CA93D90000B122AD2122C32122B99
:10080300D47FC3122AD6AB3BAA3CA93D90000A125F
:100813002AD2122C32122BD47FC6122AD6AB3BAA71
:100823003CA93D900009122AD2122C32122BD47FFC
:10083300C5122AD6AB3BAA3CA93D900008122AD286
:10084300122C32122BD47FC8122AD6AB3BAA3CA956
:100853003D900007122AD2122C32122BD47FC712DA
:100863002AD6AB3BAA3CA93D900006122AD2122CF1
:1008730032122BD47FCA122AD6AB3BAA3CA93D9095
:100883000005122AD2122C32122BD47FC9122AD677
:10089300AB3BAA3CA93D900004122AD2122C327F12
:1008A300647E00122BB4122BD47FCB122AD6AB3B1F
:1008B300AA3CA93D90000E122AD2122C32122BD43C
:1008C3007FC1122AD6AB3BAA3CA93D90000D122A48
:1008D300D2122C32122BD47FC4122AD6AB3BAA3CA1
:1008E300A93D90000C122AD2122C32122BD47FC3B2
:1008F300122AD6AB3BAA3CA93D90000B122AD21276
:100903002C32122BD47FC6122AD6AB3BAA3CA93D6C
:1009130090000A122AD2122C32122BD47FC5122A2B
:10092300D6AB3BAA3CA93D900009122AD2122C3225
:10093300122BD47FC8122AD6AB3BAA3CA93D900008
:1009430008122AD2122C32122BD47FC7122AD6AB0A
:100953003BAA3CA93D900007122AD2122C32122B3B
:10096300D47FCA122AD6AB3BAA3CA93D90000612FB
:100973002AD2122C32122BD47FC9122AD6AB3BAA0D
:100983003CA93D900005122AD2122C327F647E00CE
:10099300122BB4122BD47FCB122AD6AB3BAA3CA981
:1009A3003D90000F122AD2122C32122BD47FC11287
:1009B3002AD6AB3BAA3CA93D90000E122AD2122C98
:1009C30032122BD47FC4122AD6AB3BAA3CA93D904A
:1009D300000D122AD2122C32122BD47FC3122AD624
:1009E300AB3BAA3CA93D90000C122AD2122C321226
:1009F3002BD47FC6122AD6AB3BAA3CA93D90000B51
:100A0300122AD2122C32122BD47FC5122AD6AB3B18
:100A1300AA3CA93D90000A122AD2122C32122BD4DE
:100A23007FC8122AD6AB3BAA3CA93D900009122AE3
:100A3300D2122C32122BD47FC7122AD6AB3BAA3C3C
:100A4300A93D900008122AD2122C32122BD47FCA4D
:100A5300122AD6AB3BAA3CA93D900007122AD21218
:100A63002C32122BD47FC9122AD6AB3BAA3CA93D08
:100A7300900006122AD2122C327F647E00122BB40D
:100A8300122BD47FCB122AD6AB3BAA3CA93D9000B4
:100A930010122AD2122C32122BD47FC1122AD6ABB7
:100AA3003BAA3CA93D90000F122AD2122C32122BE2
:100AB300D47FC4122AD6AB3BAA3CA93D90000E12A8
:100AC3002AD2122C32122BD47FC3122AD6AB3BAAC2
:100AD3003CA93D90000D122AD2122C32122BD47F46
:100AE300C6122AD6AB3BAA3CA93D90000C122AD2CF
:100AF300122C32122BD47FC5122AD6AB3BAA3CA9A7
:100B03003D90000B122AD2122C32122BD47FC81222
:100B13002AD6AB3BAA3CA93D90000A122AD2122C3A
:100B230032122BD47FC7122AD6AB3BAA3CA93D90E5
:100B33000009122AD2122C32122BD47FCA122AD6BF
:100B4300AB3BAA3CA93D900008122AD2122C3212C8
:100B53002BD47FC9122AD6AB3BAA3CA93D900007F0
:100B6300122AD2122C327F647E00122BB4122BD4A1
:100B73007FCB122AD6AB3BAA3CA93D900011122A87
:100B8300D2122C32122BD47FC1122AD6AB3BAA3CF1
:100B9300A93D900010122AD2122C32122BD47FC4FA
:100BA300122AD6AB3BAA3CA93D90000F122AD212BF
:100BB3002C32122BD47FC3122AD6AB3BAA3CA93DBD
:100BC30090000E122AD2122C32122BD47FC6122A74
:100BD300D6AB3BAA3CA93D90000D122AD2122C326F
:100BE300122BD47FC5122AD6AB3BAA3CA93D900059
:100BF3000C122AD2122C32122BD47FC8122AD6AB53
:100C03003BAA3CA93D90000B122AD2122C32122B84
:100C1300D47FC7122AD6AB3BAA3CA93D90000A1247
:100C23002AD2122C32122BD47FCA122AD6AB3BAA59
:100C33003CA93D900009122AD2122C32122BD47FE8
:100C4300C9122AD6AB3BAA3CA93D900008122AD26E
:100C5300122C327F647E00122BB4122BD47FCB1262
:100C63002AD6AB3BAA3CA93D900012122AD2122CE1
:100C730032122BD47FC1122AD6AB3BAA3CA93D909A
:100C83000011122AD2122C32122BD47FC4122AD66C
:100C9300AB3BAA3CA93D900010122AD2122C32126F
:100CA3002BD47FC3122AD6AB3BAA3CA93D90000F9D
:100CB300122AD2122C32122BD47FC6122AD6AB3B65
:100CC300AA3CA93D90000E122AD2122C32122BD428
:100CD3007FC5122AD6AB3BAA3CA93D90000D122A30
:100CE300D2122C32122BD47FC8122AD6AB3BAA3C89
:100CF300A93D90000C122AD2122C32122BD47FC79A
:100D0300122AD6AB3BAA3CA93D90000B122AD21261
:100D13002C32122BD47FCA122AD6AB3BAA3CA93D54
:100D230090000A122AD2122C32122BD47FC9122A13
:100D3300D6AB3BAA3CA93D900009122AD2122C3211
:100D43007F647E00122BB4122BD47FCB122AD6AB36
:100D53003BAA3CA93D900013122AD2122C32122B2B
:100D6300D47FC1122AD6AB3BAA3CA93D90001212F4
:100D73002AD2122C32122BD47FC4122AD6AB3BAA0E
:100D83003CA93D900011122AD2122C32122BD47F8F
:100D9300C3122AD6AB3BAA3CA93D900010122AD21B
:100DA300122C32122BD47FC6122AD6AB3BAA3CA9F3
:100DB3003D90000F122AD2122C32122BD47FC5126F
:100DC3002AD6AB3BAA3CA93D90000E122AD2122C84
:100DD30032122BD47FC8122AD6AB3BAA3CA93D9032
:100DE300000D122AD2122C32122BD47FC7122AD60C
:100DF300AB3BAA3CA93D90000C122AD2122C321212
:100E03002BD47FCA122AD6AB3BAA3CA93D90000B38
:100E1300122AD2122C32122BD47FC9122AD6AB3B00
:100E2300AA3CA93D90000A122AD2122C32122BD4CA
:080E33007F8B122AD6022C323B
:100E3B008B3B8A3C893D122BD47F44122AD6122C31
:100E4B0032122BD47FC2122AD6AB3BAA3CA93D123D
:100E5B001D69FF122AD6122C32122BD47FC0122AF4
:100E6B00D6AB3BAA3CA93D121D69FF122AD6122C08
:100E7B0032122BD47FCC122AD6AB3BAA3CA93D1203
:100E8B001D69FF122AD6122C32122BD47FCE122AB6
:100E9B00D6AB3BAA3CA93D121D69FF122AD6122CD8
:100EAB0032122BD47FCF122AD6AB3BAA3CA93D12D0
:100EBB001D69FF122AD6122C32122BD47FCD122A87
:100ECB00D6AB3BAA3CA93D121D69FF122AD6122CA8
:100EDB0032122BD47FCB122AD6AB3BAA3CA93D12A4
:100EEB001D69FF122AD6122C32122BD47FC1122A63
:100EFB00D6AB3BAA3CA93D121D69FF122AD6122C78
:100F0B0032122BD47FC4122AD6AB3BAA3CA93D127A
:100F1B001D69FF122AD6122C32122BD47FC3122A30
:100F2B00D6AB3BAA3CA93D121D69FF122AD6122C47
:100F3B0032122BD47FC6122AD6AB3BAA3CA93D1248
:100F4B001D69FF122AD6122C32122BD47FC5122AFE
:100F5B00D6AB3BAA3CA93D121D69FF122AD6122C17
:100F6B0032122BD47FC8122AD6AB3BAA3CA93D1216
:100F7B001D69FF122AD6122C32122BD47FC7122ACC
:100F8B00D6AB3BAA3CA93D121D69FF122AD6122CE7
:100F9B0032122BD47FCA122AD6AB3BAA3CA93D12E4
:100FAB001D69FF122AD6122C32122BD47FC9122A9A
:100FBB00D6AB3BAA3CA93D121D69FF122AD6122CB7
:100FCB00327FF47E01122BB4122BD47FC2122AD69D
:100FDB00AB3BAA3CA93D900001122AD2122C321233
:100FEB002BD47FC0122AD6AB3BAA3CA93D90000163
:100FFB00122AD2122C32122BD47FCC122AD6AB3B14
:10100B00AA3CA93D900001122AD2122C32122BD4E9
:10101B007FCE122AD6AB3BAA3CA93D900001122AE7
:10102B00D2122C32122BD47FCF122AD6AB3BAA3C36
:10103B00A93D900001122AD2122C32122BD47FCD53
:10104B00122AD6AB3BAA3CA93D900001122AD21220
:10105B002C32122BD47FCB122AD6AB3BAA3CA93D08
:10106B00900001122AD2122C32122BD47FC1122AD9
:10107B00D6AB3BAA3CA93D900001122AD2122C32CE
:10108B00122BD47FC4122AD6AB3BAA3CA93D9000AD
:10109B0001122AD2122C32122BD47FC3122AD6ABB6
:1010AB003BAA3CA93D900001122AD2122C32122BE2
:1010BB00D47FC6122AD6AB3BAA3CA93D90000112A5
:1010CB002AD2122C32122BD47FC5122AD6AB3BAAB2
:1010DB003CA93D900001122AD2122C32122BD47F44
:1010EB00C8122AD6AB3BAA3CA93D900001122AD2CA
:1010FB00122C32122BD47FC7122AD6AB3BAA3CA997
:10110B003D900001122AD2122C32122BD47FCA121C
:10111B002AD6AB3BAA3CA93D900001122AD2122C35
:10112B0032122BD47FC9122AD6AB3BAA3CA93D90D5
:10113B000001122AD2122C327FF47E01122BB41230
:10114B002BD47FC2122AD6AB3BAA3CA93D900002FE
:10115B00122AD2122C32122BD47FC0122AD6AB3BBE
:10116B00AA3CA93D900002122AD2122C32122BD487
:10117B007FCC122AD6AB3BAA3CA93D900002122A87
:10118B00D2122C32122BD47FCE122AD6AB3BAA3CD6
:10119B00A93D900002122AD2122C32122BD47FCFEF
:1011AB00122AD6AB3BAA3CA93D900002122AD212BE
:1011BB002C32122BD47FCD122AD6AB3BAA3CA93DA5
:1011CB00900002122AD2122C32122BD47FCB122A6D
:1011DB00D6AB3BAA3CA93D900002122AD2122C326C
:1011EB00122BD47FC1122AD6AB3BAA3CA93D90004F
:1011FB0002122AD2122C32122BD47FC4122AD6AB53
:10120B003BAA3CA93D900002122AD2122C32122B7F
:10121B00D47FC3122AD6AB3BAA3CA93D9000021245
:10122B002AD2122C32122BD47FC6122AD6AB3BAA4F
:10123B003CA93D900002122AD2122C32122BD47FE1
:10124B00C5122AD6AB3BAA3CA93D900002122AD26A
:10125B00122C32122BD47FC8122AD6AB3BAA3CA934
:10126B003D900002122AD2122C32122BD47FC712BD
:10127B002AD6AB3BAA3CA93D900002122AD2122CD3
:10128B0032122BD47FCA122AD6AB3BAA3CA93D9073
:10129B000002122AD2122C32122BD47FC9122AD658
:1012AB00AB3BAA3CA93D900002122AD2122C327FF2
:1012BB00F47E01122BB4122BD47FC2122AD6AB3B75
:1012CB00AA3CA93D900003122AD2122C32122BD425
:1012DB007FC0122AD6AB3BAA3CA93D900003122A31
:1012EB00D2122C32122BD47FCC122AD6AB3BAA3C77
:1012FB00A93D900003122AD2122C32122BD47FCE8E
:10130B00122AD6AB3BAA3CA93D900003122AD2125B
:10131B002C32122BD47FCF122AD6AB3BAA3CA93D41
:10132B00900003122AD2122C32122BD47FCD122A08
:10133B00D6AB3BAA3CA93D900003122AD2122C3209
:10134B00122BD47FCB122AD6AB3BAA3CA93D9000E3
:10135B0003122AD2122C32122BD47FC1122AD6ABF3
:10136B003BAA3CA93D900003122AD2122C32122B1D
:10137B00D47FC4122AD6AB3BAA3CA93D90000312E2
:10138B002AD2122C32122BD47FC3122AD6AB3BAAF1
:10139B003CA93D900003122AD2122C32122BD47F7F
:1013AB00C6122AD6AB3BAA3CA93D900003122AD207
:1013BB00122C32122BD47FC5122AD6AB3BAA3CA9D6
:1013CB003D900003122AD2122C32122BD47FC8125A
:1013DB002AD6AB3BAA3CA93D900003122AD2122C71
:1013EB0032122BD47FC7122AD6AB3BAA3CA93D9015
:1013FB000003122AD2122C32122BD47FCA122AD6F5
:10140B00AB3BAA3CA93D900003122AD2122C3212FC
:10141B002BD47FC9122AD6AB3BAA3CA93D90000323
:10142B00122AD2122C327FF47E01122BB4122BD43F
:10143B007FC2122AD6AB3BAA3CA93D900004122ACC
:10144B00D2122C32122BD47FC0122AD6AB3BAA3C21
:10145B00A93D900004122AD2122C32122BD47FCC2D
:10146B00122AD6AB3BAA3CA93D900004122AD212F9
:10147B002C32122BD47FCE122AD6AB3BAA3CA93DE1
:10148B00900004122AD2122C32122BD47FCF122AA4
:10149B00D6AB3BAA3CA93D900004122AD2122C32A7
:1014AB00122BD47FCD122AD6AB3BAA3CA93D900080
:1014BB0004122AD2122C32122BD47FCB122AD6AB87
:1014CB003BAA3CA93D900004122AD2122C32122BBB
:1014DB00D47FC1122AD6AB3BAA3CA93D9000041283
:1014EB002AD2122C32122BD47FC4122AD6AB3BAA8F
:1014FB003CA93D900004122AD2122C32122BD47F1D
:10150B00C3122AD6AB3BAA3CA93D900004122AD2A7
:10151B00122C32122BD47FC6122AD6AB3BAA3CA973
:10152B003D900004122AD2122C32122BD47FC512FA
:10153B002AD6AB3BAA3CA93D900004122AD2122C0E
:10154B0032122BD47FC8122AD6AB3BAA3CA93D90B2
:10155B000004122AD2122C32122BD47FC7122AD695
:10156B00AB3BAA3CA93D900004122AD2122C32129A
:10157B002BD47FCA122AD6AB3BAA3CA93D900004C0
:10158B00122AD2122C32122BD47FC9122AD6AB3B81
:10159B00AA3CA93D900004122AD2122C327FF47E71
:1015AB0001122BB4122BD47FC2122AD6AB3BAA3C0E
:1015BB00A93D900005122AD2122C32122BD47FC0D7
:1015CB00122AD6AB3BAA3CA93D900005122AD21297
:1015DB002C32122BD47FCC122AD6AB3BAA3CA93D82
:1015EB00900005122AD2122C32122BD47FCE122A43
:1015FB00D6AB3BAA3CA93D900005122AD2122C3245
:10160B00122BD47FCF122AD6AB3BAA3CA93D90001C
:10161B0005122AD2122C32122BD47FCD122AD6AB22
:10162B003BAA3CA93D900005122AD2122C32122B58
:10163B00D47FCB122AD6AB3BAA3CA93D9000051216
:10164B002AD2122C32122BD47FC1122AD6AB3BAA30
:10165B003CA93D900005122AD2122C32122BD47FBA
:10166B00C4122AD6AB3BAA3CA93D900005122AD244
:10167B00122C32122BD47FC3122AD6AB3BAA3CA915
:10168B003D900005122AD2122C32122BD47FC61297
:10169B002AD6AB3BAA3CA93D900005122AD2122CAC
:1016AB0032122BD47FC5122AD6AB3BAA3CA93D9054
:1016BB000005122AD2122C32122BD47FC8122AD632
:1016CB00AB3BAA3CA93D900005122AD2122C321238
:1016DB002BD47FC7122AD6AB3BAA3CA93D90000561
:1016EB00122AD2122C32122BD47FCA122AD6AB3B1F
:1016FB00AA3CA93D900005122AD2122C32122BD4EF
:10170B007FC9122AD6AB3BAA3CA93D900005122AF1
:10171B00D2122C327FF47E01122BB4122BD47FC247
:10172B00122AD6AB3BAA3CA93D900006122AD21234
:10173B002C32122BD47FC0122AD6AB3BAA3CA93D2C
:10174B00900006122AD2122C32122BD47FCC122AE2
:10175B00D6AB3BAA3CA93D900006122AD2122C32E2
:10176B00122BD47FCE122AD6AB3BAA3CA93D9000BC
:10177B0006122AD2122C32122BD47FCF122AD6ABBE
:10178B003BAA3CA93D900006122AD2122C32122BF6
:10179B00D47FCD122AD6AB3BAA3CA93D90000612B2
:1017AB002AD2122C32122BD47FCB122AD6AB3BAAC5
:1017BB003CA93D900006122AD2122C32122BD47F58
:1017CB00C1122AD6AB3BAA3CA93D900006122AD2E5
:1017DB00122C32122BD47FC4122AD6AB3BAA3CA9B3
:1017EB003D900006122AD2122C32122BD47FC31238
:1017FB002AD6AB3BAA3CA93D900006122AD2122C4A
:10180B0032122BD47FC6122AD6AB3BAA3CA93D90F1
:10181B000006122AD2122C32122BD47FC5122AD6D2
:10182B00AB3BAA3CA93D900006122AD2122C3212D5
:10183B002BD47FC8122AD6AB3BAA3CA93D900006FD
:10184B00122AD2122C32122BD47FC7122AD6AB3BC0
:10185B00AA3CA93D900006122AD2122C32122BD48C
:10186B007FCA122AD6AB3BAA3CA93D900006122A8E
:10187B00D2122C32122BD47FC9122AD6AB3BAA3CE4
:10188B00A93D900006122AD2122C32122BD47F8B38
:06189B00122AD6022C32D5
:102751008B3B8A3C893D122BD47F44122AD6122C02
:1027610032122BD47FC2122AD6AB3BAA3CA93D120E
:102771001D69FF122AD6122C32122BD47FC0122AC5
:10278100D6AB3BAA3CA93D900001122AD2122C32B1
:10279100122BD47FCC122AD6AB3BAA3CA93D900088
:1027A10002122AD2122C32122BD47FCE122AD6AB8D
:1027B1003BAA3CA93D900003122AD2122C32122BC3
:1027C100D47FCF122AD6AB3BAA3CA93D900004127C
:1027D1002AD2122C32122BD47FCD122AD6AB3BAA8D
:1027E1003CA93D900005122AD2122C32122BD47F23
:0727F1008B122AD6022C32E4
:0B2C4600759503C2A0C2A1E4F5B42202
:1029A400E4F53EF53DF53CF53BE47F32FEFDFCAB42
:1029B4003EAA3DA93CA83BC3121DCF504CE4F542AE
:1029C400F541F540F53FE47FE87E03FDFCAB42AA08
:1029D40041A940A83FC3121DCF5017E5422401F579
:1029E40042E43541F541E43540F540E4353FF53FF7
:1029F40080D4E53E2401F53EE4353DF53DE4353C27
:092A0400F53CE4353BF53B80A0F4
:012A0D0022A6
:102BB400E4FDFCC3ED9FEC9E5015E4FBFA0BBB0057
:0F2BC400010ABA01F8BB4DF50DBD00010C80E40C
:012BD30022DF
:0625B6008B088A09890A66
:1025BC00E4F50EF50DF50CF50BF512F51175108013
:1025CC00750F3F121D69B42D167401250AF50AE426
:1025DC003509F509E4F512F511751080750FBFE496
:1025EC00F513F514AB08AA09A90A121D69FF7003AB
:1025FC00022690B42E087513007514018078EF3301
:10260C0095E0FEEF24D0F516EE34FFF515C364808B
:10261C0094804062D3E5169409E51564809480504B
:10262C0055E5144513601AAF12AE11AD10AC0FE4A2
:10263C00FBFA79207841121AA28F128E118D108C10
:10264C000FAC15AD16EC121B44C004C005C006C07F
:10265C0007E4FFFE7D207C41AB0EAA0DA90CA80B54
:10266C00121999D003D002D001D0001218A88F0EE5
:10267C008E0D8D0C8C0B7401250AF50AE43509F5C9
:10268C00090225F0AF12AE11AD10AC0FAB0EAA0DB6
:07269C00A90CA80B0219991B
:10248E007F41E4FEEEFDC394057480948040030208
:10249E0025B5ED7032D290C291C292C293C29430E1
:1024AE0095052095FD7F013096052096FD7F023023
:1024BE00A20520A2FD7F0330A40520A4FD7F1730C6
:1024CE00A60520A6FD7F04EE64017032C290D29163
:1024DE00C292C293C2943095052095FD7F0430962A
:1024EE00052096FD7F0530A20520A2FD7F0630A4B3
:1024FE000520A4FD7F1530A60520A6FD7F16EE64EF
:10250E00027032C290C291D292C293C2943095059B
:10251E002095FD7F073096052096FD7F0830A20599
:10252E0020A2FD7F0930A40520A4FD7F1330A6054F
:10253E0020A6FD7F14EE64037032C290C291C29247
:10254E00D293C2943095052095FDE4FF3096052078
:10255E0096FD7F0A30A20520A2FD7F0B30A4052038
:10256E00A4FD7F1130A60520A6FD7F12EE64047037
:10257E0032C290C291C292C293D2943095052095E8
:10258E00FD7F0F3096052096FD7F0E30A20520A20E
:10259E00FD7F1030A40520A4FD7F0C30A60520A6DB
:0725AE00FD7F0D0E022492D7
:0125B5002203
:092C51007F337E337D237C402299
:1018A100021BB2E86480F8E933E83360110460F0A8
:1018B100ED33EC337009E8FCE9FDEAFEEBFF2204AD
:1018C10060DED3EB9FEA9EE99DE8C2E78CF0C2F7A8
:1018D10095F0400CE8CCF8E9CDF9EACEFAEBCFFB74
:1018E100121B7D85D0F05804700320D5B3E8047035
:1018F100075002B2D5021BBC92D5EC0460F7E4CCD0
:10190100C0E0C398F8603B94186008400DD0E0FB3C
:10191100021B94E4FBFAC9FC8028E830E406E4C920
:10192100FBE4CAFCE830E305E4C9CACBFCE8540790
:101931006010F8C3E913F9EA13FAEB13FBEC13FC9B
:10194100D8F130F52FC3E49CFCEF9BFFEE9AFEED3E
:1019510099FDD0E0FBEF4E4D4C701222DB03021BD0
:10196100B9EC2CFCEF33FFEE33FEED33FDED30E748
:10197100EB021B94EF2BFFEE3AFEED39FDD0E0FBBD
:1019810050130BBB0003021BBCED13FDEE13FEEF66
:0819910013FFEC13FC021B9490
:10199900EC4D6011E8497017ED33EC3304600DE448
:1019A900FCFFFEFD22E933E8330470F8021BB21292
:1019B9001B7D58046009E4CC248150062850090293
:1019C9001BBC284003021BB9C0E0EB4A7044B98034
:1019D90006D0E0FB021BA8EF4E701CBD8008EBFF90
:1019E900EAFEE9FD80EBE98DF0A4FEE5F0021A823A
:1019F900E9CDF9EAFEEBFFEF89F0A4FCE5F0CE8929
:101A0900F0A42EFFE435F0CD89F0A42DFEE435F0E5
:101A19008067EF4E7005BD80D780C3EF8BF0A4AC13
:101A2900F0EE8BF0A42CFCE435F0F8EF8AF0A42C4E
:101A3900E5F038FCE433CB8DF0A42CFCE5F03BF861
:101A4900EE8AF0A42CFCE5F038F8E433CF89F0A451
:101A59002CFCE5F038CF3400CE89F0A42FFFE5F057
:101A69003EFEE433C98DF0A42EFEE5F039CD8AF0AF
:101A7900A42FFFE5F03EFEE43DFD33D0E0FB500727
:101A89000BBB000F021BBCEC2CFCEF33FFEE33FE4B
:061A9900ED33FD021B9479
:101A9F00021BBCEC5D046005E859047003021BB225
:101AAF00121B7D580460F6EC4860F2EC7004FDFEEA
:101ABF00FF22C860DB2481C85009C398600250061A
:101ACF00021BB99850CAF582E9294B4A7005AB82BF
:101ADF00021BA875F0007C1A7880C3EF9BEE9AED7D
:101AEF0099400DC3EF9BFFEE9AFEED99FDE842F092
:101AFF00DC23ACF0D0E0FFD0E0FED0E0FDAB8220E5
:101B0F00E7101BEB60BAEC2CFCEF33FFEE33FEED6E
:101B1F0033FD021B94E803F830E705C0F075F000C1
:101B2F00EF2FFFEE33FEED33FD40B830E7C280AA52
:101B3F0075F020800E75F010800575F0087D007E21
:101B4F00007F003392D530D503121DC1EC33401006
:101B5F00EF33FFEE33FEED33FDEC33FCD5F0ED222A
:0E1B6F00E5F0247EA2D513CC92E7CDCEFF2266
:101E1600E572245EF8E6057222785B300702785E8A
:101E2600E475F001121DE0021D692000EB7F2ED241
:101E3600008018EF540F2490D43440D4FF30040BA4
:101E4600EF24BFB41A0050032461FFE57360021546
:101E5600730576E5767002057530070D785BE475D7
:101E6600F001121DE0EF021DAF022B8D7403D207A5
:101E76008003E4C207F5728B5B8A5C895DE4F573C7
:101E8600F575F576E57360077F20121E5180F575AE
:101E960074FFC201C200C202C203C205C206C20862
:101EA600121E1FFF700D3007057F00121E62AF76EF
:101EB600AE7522B4255FC2D5C204121E1FFF24D000
:101EC600B40A00501A75F00A787330D50508B6FFC3
:101ED6000106C6A426F620D5047002D20380D924B2
:101EE600CFB41A00EF5004C2E5D20402214FD2014A
:101EF60080C6D20080C0D20280BCD2D580BAD205BC
:101F060080B47F20121E512002077401B573004071
:101F1600F1121E16FF121E51021E8AD208D2068028
:101F260095121E16FB121E16FA121E16F94A4B7051
:101F36000679467A227BFF20022EE573602A7E0010
:101F46008E82758300121D8260060EEE657470F037
:101F5600C2D5EBC0E0EAC0E0E9C0E0EE1221AFD0A6
:101F6600E0F9D0E0FAD0E0FB121D69FF60AAEBC0F1
:101F7600E0EAC0E0E9C0E0121E51D0E02401F9D049
:101F8600E03400FAD0E0FBE5740460DCD574D98057
:101F960087D20280A212219260F7E57470010412C2
:101FA6001BC7A974600DE574600914F57412223913
:101FB600EF60F3EA30E702F404C3995077EAF425B8
:101FC600740430E701E404F574800D12219260C1B7
:101FD600EA05742574121BC7EA7871F630E701E446
:101FE600257404D57404200501141221AFE4C0E061
:101FF6001222397871E6601320E70714F6121E39AB
:10200600802204F6D0E014C0E07F00121E39E57489
:102016006007121E301574800B300503121E30D077
:10202600E0021E8AD0E00480C512219260A0E57409
:1020360004121BC77871EAF6E574200502600104F4
:0520460024041221AF8B
:10204B0074FF04C0E0122239121E39E57420050218
:10205B006003121E30D0E0B574E87F45121E437842
:10206B0071E67F2B30E7047F2DF404C0E0121E5184
:10207B00D0E075F00A84C0F0121E3AD0E0121E3A7E
:10208B00021E8A791080027908C206C2088008D223
:10209B00D5790A8004790AC2D5E574047002F57407
:1020AB00E4FAFDFEFF121E16FC7B08200113121E24
:1020BB0016FD7B1030000A121E16FE121E16FF7B39
:1020CB0020EC3382D592D55013C3E43000069FFF2A
:1020DB00E49EFEE42001039DFDE49CFCE4CBF8C2EE
:1020EB0001EC700CCFCECDCCE824F8F870F3801750
:1020FB00C3EF33FFEE33FEED33FDEC33FCEB33FB81
:10210B00994002FB0FD8E9EB300105F8D0E0C44849
:10211B00B201C0E00AEC4D4E4F78207B0070C2EA52
:10212B00B5740040BCC0E01221B1D0F0D0E020016A
:10213B0004C4C0E0C4B201C0F0121E3AD0F0D5F016
:10214B00EB021E8A121DF01F2753208E581EF84CCF
:10215B001EF44220924F209A44209A491F0D43208F
:10216B00A0551FD146202F451F9B472266501EFCB2
:10217B002D1F002E1F232B1F04231F2120224F2A2C
:10218B001EBC4800001F1BE574B4FF0375740612D8
:10219B001E16FC121E16FD121E16FE121E16FF78C0
:1021AB006A021BF6790AA2D5200314300509B9106F
:1021BB00020404B9080104A2D52006025001042030
:1021CB0002689202B573005034C0E07F20300319CF
:1021DB007F30A20272067205500F122208C202C291
:1021EB0006C205C2087F30800F300503E9C0E0123C
:1021FB001E51300503D0E0F9D0E0B573CC30051794
:10220B007F30B9100C121E517F583004077F788035
:10221B0003B90803121E513002057F2D021E517F98
:10222B00202008F87F2B2006F322920280CF7F001C
:10223B00B407005005246AF8E6FF22286E756C6C13
:10224B002900D201121E163001F8C201787330D565
:10225B000108F6021EBC2D50434958121E162403CA
:10226B00B405004001E490226193121E42743A12AD
:0A227B001E42D20375730402208E88
:101B7D00E9D2E7C933E833F892D5EDD2E7CD33ECAE
:071B8D0033FC5002B2D52227
:101B9400EC30E7100FBF000C0EBE00080DBD0004B2
:101BA4000BEB6014A2D5EB13FCED92E7FD2274FF5E
:101BB400FCFDFEFF22E480F8A2D574FF13FC7D80B7
:031BC400E480EFCB
:101BC700F920E72824F950037907E4F42402FB18E5
:101BD700DBFDE624FB5014E9600DE4F618E604F695
:0F1BE700B40A08E4F6D9F57401F60A22C2D52231
:101BF600ED33EC3392D5FA602AB4FF33EDC2E77BBE
:101C0600FF60067A1C791BE4227A1C792420D5040D
:101C16007A1C791F224E614E002B494E46002D49F3
:101C26004E4600E47A08F608DAFC7B00740722E8E0
:101C3600C0E0ECC0E0EDC0E0EEC0E0EFC0E0EA7569
:101C4600F010A4CAABF075F04DA42BFBE435F0FC04
:101C5600EA2410FAEB34C5FBEC34D9FCEDC2E7FFFD
:101C660075F056A4F42411C5F0F434C58FF0A42AF7
:101C7600E5F03BE43CF620E714121D29D0E0FFD046
:101C8600E0FED0E0FDD0E0FC121AA28014F40412AB
:101C96001D29D0E0FFD0E0FED0E0FDD0E0FC121917
:101CA60099D0E0F8E6FAEDD2E7CD33EC332482FBA7
:101CB600E4C3CF33CFCE33CECD33CD33DBF37B0787
:101CC60075F00A846004F6081B0AE5F0F6088FF042
:101CD600740AA4FFACF08EF0740AA42CFEACF0508B
:101CE600010C8DF0740AA42CFDE435F0F608DBDE59
:031CF6007407224E
:101CF9003F8000004120000042C80000447A0000F3
:101D0900461C400047C35000497424004B18968074
:101D19004CBEBC205A0E1BCA6753C21C749DC5AE6B
:101D2900FB60065407601C2323121D57EB543860CF
:101D390009121D43121D52121999ECF8EDF9EEFA28
:101D4900EFCB22EB121D5280F1543803241C901C56
:101D5900F9FE93FC0EEE93FD0EEE930ECE93FF2249
:03000000022918BA
:0C291800787FE4F6D8FD75817602295F17
:101D6900BB010689828A83E0225002E722BBFE0278
:091D7900E32289828A83E49322AB
:101D8200BB010CE58229F582E5833AF583E0225016
:101D920006E92582F8E622BBFE06E92582F8E22260
:0D1DA200E58229F582E5833AF583E493227A
:101DAF00BB010689828A83F0225002F722BBFE0113
:021DBF00F3220D
:0E1DC100C3E49FFFE49EFEE49DFDE49CFC2233
:101DCF00EB9FF5F0EA9E42F0E99D42F0E89C45F06A
:011DDF0022E1
:101DE000FAE6FB0808E6F925F0F618E6CA3AF62204
:101DF000D083D082F8E4937012740193700DA3A382
:101E000093F8740193F5828883E473740293686095
:061E1000EFA3A3A380DF95
:102B8D00EFB40A07740D122B98740A309811A89996
:102B9D00B8130CC2983098FDA899C298B811F630A8
:072BAD0099FDC299F5992280
:102C0900E4FFFE121D69600C0FEF70010E09E970F7
:052C1900F20A80EF2229
:10292400022A70E493A3F8E493A34003F68001F22F
:1029340008DFF48029E493A3F85407240CC8C333B4
:10294400C4540F4420C8834004F456800146F6DF83
:10295400E4800B0102040810204080902A0EE47EDB
:10296400019360BCA3FF543F30E509541FFEE49378
:10297400A360010ECF54C025E060A840B8E493A33F
:10298400FAE493A3F8E493A3C8C582C8CAC583CA6A
:10299400F0A3C8C582C8CAC583CADFE9DEE780BE22
:012A6F000066
:00000001FF
