:101D5E000A42EDA0D9F8B47C7DE0FDFC072F40C00F
:101D6E00E0E8E9EDFD053D004D45D5000651EDA23B
:101D7E0000455DAD140DB55D0D0DED107C4DF50DF1
:101D8E000000000000000000000005080000000038
:101D9E000006290000000000000536001DF5FD00BC
:071DAE00054CB4A2A00000E7
:1019C900121F96121F6AE4FF121ED37F0A7E0012AD
:1019D9001F2D7B007A007908121B487B007A007959
:1019E90008121BD87B007A007929121AA17B007A88
:1019F90000793D121B48121CF47B007A00795112C0
:101A09001AA1121CF47B007A007929121AA17B0011
:101A19007A007908121B487B007A007908121BD8D2
:101A2900121CF47B007A00790D120003121CF47B5E
:101A3900007A00792F120E3B121CF47B007A007990
:101A490029121AA17B007A007908121B487B007AB7
:101A5900007908121BD8121CF47B007A007936121F
:101A69001B487B007A00794C121BD8121CF41218FF
:101A7900A18F577F0A7E00121F2DE557644160052B
:101A8900AF57121EA27F0A7E00121F2D121F027F5E
:081A9900887E13121F2D80D678
:101F6A0075911FD2A2D2A4D2A6D296D295C290C2FD
:081F7A0091C292C293C29422AD
:101F0200121F4D7F44121E1A121F82121F4D7FC2D2
:101F1200121E1AAF3C121E1A121F82121F4D7FC0D0
:0B1F2200121E1AAF3B121E1A021F8293
:1018A1007F41E4FEEEFDC394057480948040030201
:1018B10019C8ED7032D290C291C292C293C29430D3
:1018C10095052095FD7F153096052096FD7F1830F2
:1018D100A20520A2FD7F1330A40520A4FD7F0E30B8
:1018E100A60520A6FD7F04EE64017032C290D2915C
:1018F100C292C293C2943095052095FD7F12309615
:10190100052096FD7F0D30A20520A2FD7F1630A493
:101911000520A4FD7F1130A60520A6FD7F0CEE64F5
:10192100027032C290C291D292C293C29430950594
:101931002095FD7F0A3096052096FD7F0B30A2058C
:1019410020A2FD7F0930A40520A4FD7F0630A60555
:1019510020A6FD7F03EE64037032C290C291C29251
:10196100D293C2943095052095FD7F0F30960520C6
:1019710096FD7F1030A20520A2FD7F0830A405202E
:10198100A4FD7F0530A60520A6FD7F02EE6404704C
:1019910032C290C291C292C293D2943095052095E1
:1019A100FD7F143096052096FDE4FF30A20520A2AC
:1019B100FD7F0730A40520A4FD7F0430A60520A6E5
:0719C100FD7F010E0218A5D5
:0119C80022FC
:101EA200EFC3940A748094805007E4F53B8F3C8022
:101EB2000FEF75F00A84F53BEF75F00A8485F03C6C
:101EC2007442253BF8E6F53B7442253CF8E6F53CC6
:011ED20022ED
:101ED3008F58D2A07F017E00121F2DD2A1E558702A
:101EE30007121F4D7F808010121F4D7F44121E1A50
:0F1EF300121F82121F4D7F8F121E1A121F822282
:101F4D00D2A0D2A17F017E00121F2DC2A07F017EE3
:0D1F5D0000121F2DC2A17F017E00021F2D6A
:0D1E0D00900001AB58AA59A95A121DCFFF31
:101E1A008F5CC2A0C2A1E4F55BC3E55B9408748041
:101E2A0094805027C2A17F017E00121F2DE55C30ED
:101E3A00E004D2A08002C2A07F017E00121F2DD230
:0F1E4A00A1E55CC313F55C055B80CEC2A1C2A00D
:011E59002266
:101F8200C2A0D2A17F017E00121F2DD2A07F017EAE
:041F920000021F2DFD
:061E5A008B608A618962C1
:101E6000121F4D7F44121E1A121F82121F4D7FCD6A
:101E7000121E1AE4F563C3E56394017480948050E4
:101E800013AB60AA61A962856382758300121E1676
:101E9000056380E2121F82121F4D7F8B121E1A02F1
:021EA0001F829F
:101B48008B588A59895A121F4D7F44121E1A121F28
:101B580082121F4D7FC5121E1AAB58AA59A95A12D4
:101B68001DB6FF121E1A121F82121F4D7FC8121EA9
:101B78001AAB58AA59A95A900001121E16121F82B0
:101B8800121F4D7FC7121E1AAB58AA59A95A9000A6
:101B980002121E16121F82121F4D7FCA121E1AAB86
:101BA80058AA59A95A900003121E16121F82121F12
:101BB8004D7FC9121E1AAB58AA59A95A900004128F
:101BC8001E16121F82121F4D7F8B121E1A021F82B1
:101BD8008B588A59895A121F4D7F44121E1A121F98
:101BE80082121F4D7FCB121E1AAB58AA59A95A123E
:101BF8001DB6FF121E1A121F82121F4D7FC1121E20
:101C08001AAB58AA59A95A900001121E16121F821F
:101C1800121F4D7FC4121E1AAB58AA59A95A900018
:101C280002121E16121F82121F4D7FC3121E1AABFC
:101C380058AA59A95A900003121E16121F82121F81
:101C48004D7FC6121E1AAB58AA59A95A9000041201
:101C58001E16121F82121F4D7F8B121E1A021F8220
:100003008B588A59895A121F4D7F44121E1A121F88
:1000130082121F4D7FCB121E1AAB58AA59A95A122E
:100023001DB6FF121E1A121F827F647E00121F2D3F
:10003300121F4D7FCB121E1A121E0D121F82121F8A
:100043004D7FC1121E1AAB58AA59A95A121DB6FFE9
:10005300121E1A121F827F647E00121F2D121F4D63
:100063007FCB121E1A900002121E10121F82121F43
:100073004D7FC1121E1A121E0D121F82121F4D7FB9
:10008300C4121E1AAB58AA59A95A121DB6FF121E42
:100093001A121F827F647E00121F2D121F4D7FCB09
:1000A300121E1AAB58AA59A95A900003121E16120F
:1000B3001F82121F4D7FC1121E1AAB58AA59A95A8B
:1000C300900002121E16121F82121F4D7FC4121EB1
:1000D3001A121E0D121F82121F4D7FC3121E1AAB5E
:1000E30058AA59A95A121DB6FF121E1A121F827F4F
:1000F300647E00121F2D121F4D7FCB121E1AAB58A8
:10010300AA59A95A900004121E16121F82121F4DDB
:100113007FC1121E1AAB58AA59A95A900003121E86
:1001230016121F82121F4D7FC4121E1AAB58AA59F2
:10013300A95A900002121E16121F82121F4D7FC36E
:10014300121E1A121E0D121F82121F4D7FC6121E7F
:100153001AAB58AA59A95A121DB6FF121E1A121F1A
:10016300827F647E00121F2D121F4D7FCB121E1A39
:10017300AB58AA59A95A900005121E16121F8212D3
:100183001F4D7FC1121E1AAB58AA59A95A900004D9
:10019300121E16121F82121F4D7FC4121E1AAB5855
:1001A300AA59A95A900003121E16121F82121F4D3C
:1001B3007FC3121E1AAB58AA59A95A900002121EE5
:1001C30016121F82121F4D7FC6121E1A121E0D1207
:1001D3001F82121F4D7FC5121E1AAB58AA59A95A66
:1001E300121DB6FF121E1A121F827F647E00121F99
:1001F3002D121F4D7FCB121E1AAB58AA59A95A9024
:100203000006121E16121F82121F4D7FC1121E1AE4
:10021300AB58AA59A95A900005121E16121F821232
:100223001F4D7FC4121E1AAB58AA59A95A90000435
:10023300121E16121F82121F4D7FC3121E1AAB58B5
:10024300AA59A95A900003121E16121F82121F4D9B
:100253007FC6121E1AAB58AA59A95A900002121E41
:1002630016121F82121F4D7FC5121E1A121E0D1267
:100273001F82121F4D7FC8121E1AAB58AA59A95AC2
:10028300121DB6FF121E1A121F827F647E00121FF8
:100293002D121F4D7FCB121E1AAB58AA59A95A9083
:1002A3000007121E16121F82121F4D7FC1121E1A43
:1002B300AB58AA59A95A900006121E16121F821291
:1002C3001F4D7FC4121E1AAB58AA59A95A90000594
:1002D300121E16121F82121F4D7FC3121E1AAB5815
:1002E300AA59A95A900004121E16121F82121F4DFA
:1002F3007FC6121E1AAB58AA59A95A900003121EA0
:1003030016121F82121F4D7FC5121E1AAB58AA590F
:10031300A95A900002121E16121F82121F4D7FC887
:10032300121E1A121E0D121F82121F4D7FC7121E9C
:100333001AAB58AA59A95A121DB6FF121E1A121F38
:10034300827F647E00121F2D121F4D7FCB121E1A57
:10035300AB58AA59A95A900008121E16121F8212EE
:100363001F4D7FC1121E1AAB58AA59A95A900007F4
:10037300121E16121F82121F4D7FC4121E1AAB5873
:10038300AA59A95A900006121E16121F82121F4D57
:100393007FC3121E1AAB58AA59A95A900005121E00
:1003A30016121F82121F4D7FC6121E1AAB58AA596E
:1003B300A95A900004121E16121F82121F4D7FC5E8
:1003C300121E1AAB58AA59A95A900003121E1612EC
:1003D3001F82121F4D7FC8121E1AAB58AA59A95A61
:1003E300900002121E16121F82121F4D7FC7121E8B
:1003F3001A121E0D121F82121F4D7FCA121E1AAB34
:1004030058AA59A95A121DB6FF121E1A121F827F2B
:10041300647E00121F2D121F4D7FCB121E1AAB5884
:10042300AA59A95A900009121E16121F82121F4DB3
:100433007FC1121E1AAB58AA59A95A900008121E5E
:1004430016121F82121F4D7FC4121E1AAB58AA59CF
:10045300A95A900007121E16121F82121F4D7FC346
:10046300121E1AAB58AA59A95A900006121E161248
:100473001F82121F4D7FC6121E1AAB58AA59A95AC2
:10048300900005121E16121F82121F4D7FC5121EE9
:100493001AAB58AA59A95A900004121E16121F82A9
:1004A300121F4D7FC8121E1AAB58AA59A95A9000A1
:1004B30003121E16121F82121F4D7FC7121E1AAB84
:1004C30058AA59A95A900002121E16121F82121F0F
:1004D3004D7FCA121E1A121E0D121F82121F4D7F4C
:1004E300C9121E1AAB58AA59A95A121DB6FF121ED9
:1004F3001A121F827F647E00121F2D121F4D7FCBA5
:10050300121E1AAB58AA59A95A90000A121E1612A3
:100513001F82121F4D7FC1121E1AAB58AA59A95A26
:10052300900009121E16121F82121F4D7FC4121E45
:100533001AAB58AA59A95A900008121E16121F8204
:10054300121F4D7FC3121E1AAB58AA59A95A900005
:1005530007121E16121F82121F4D7FC6121E1AABE0
:1005630058AA59A95A900006121E16121F82121F6A
:100573004D7FC5121E1AAB58AA59A95A90000512ED
:100583001E16121F82121F4D7FC8121E1AAB58AAC5
:1005930059A95A900004121E16121F82121F4D7F72
:1005A300C7121E1AAB58AA59A95A900003121E1655
:1005B300121F82121F4D7FCA121E1AAB58AA59A9C5
:1005C3005A900002121E16121F82121F4D7FC9126B
:1005D3001E1A121E0D121F827F647E00121F2D121F
:1005E3001F4D7FCB121E1AAB58AA59A95A90000B64
:1005F300121E16121F82121F4D7FC1121E1AAB58F4
:10060300AA59A95A90000A121E16121F82121F4DD0
:100613007FC4121E1AAB58AA59A95A900009121E78
:1006230016121F82121F4D7FC3121E1AAB58AA59EE
:10063300A95A900008121E16121F82121F4D7FC660
:10064300121E1AAB58AA59A95A900007121E161265
:100653001F82121F4D7FC5121E1AAB58AA59A95AE1
:10066300900006121E16121F82121F4D7FC8121E03
:100673001AAB58AA59A95A900005121E16121F82C6
:10068300121F4D7FC7121E1AAB58AA59A95A9000C0
:1006930004121E16121F82121F4D7FCA121E1AAB9E
:1006A30058AA59A95A900003121E16121F82121F2C
:1006B3004D7FC9121E1AAB58AA59A95A90000212AB
:1006C3001E16121F827F647E00121F2D121F4D7F84
:1006D300CB121E1AAB58AA59A95A90000C121E1617
:1006E300121F82121F4D7FC1121E1AAB58AA59A99D
:1006F3005A90000B121E16121F82121F4D7FC41236
:100703001E1AAB58AA59A95A90000A121E16121F94
:1007130082121F4D7FC3121E1AAB58AA59A95A90B1
:100723000009121E16121F82121F4D7FC6121E1AB7
:10073300AB58AA59A95A900008121E16121F82120A
:100743001F4D7FC5121E1AAB58AA59A95A9000070C
:10075300121E16121F82121F4D7FC8121E1AAB588B
:10076300AA59A95A900006121E16121F82121F4D73
:100773007FC7121E1AAB58AA59A95A900005121E18
:1007830016121F82121F4D7FCA121E1AAB58AA5986
:10079300A95A900004121E16121F82121F4D7FC900
:1007A300121E1AAB58AA59A95A900003121E161208
:1007B3001F827F647E00121F2D121F4D7FCB121EDE
:1007C3001AAB58AA59A95A90000D121E16121F826D
:1007D300121F4D7FC1121E1AAB58AA59A95A900075
:1007E3000C121E16121F82121F4D7FC4121E1AAB4B
:1007F30058AA59A95A90000B121E16121F82121FD3
:100803004D7FC3121E1AAB58AA59A95A90000A1257
:100813001E16121F82121F4D7FC6121E1AAB58AA34
:1008230059A95A900009121E16121F82121F4D7FDA
:10083300C5121E1AAB58AA59A95A900008121E16BF
:10084300121F82121F4D7FC8121E1AAB58AA59A934
:100853005A900007121E16121F82121F4D7FC712D5
:100863001E1AAB58AA59A95A900006121E16121F37
:1008730082121F4D7FCA121E1AAB58AA59A95A9049
:100883000005121E16121F82121F4D7FC9121E1A57
:10089300AB58AA59A95A900004121E16121F827F40
:1008A300647E00121F2D121F4D7FCB121E1AAB58F0
:1008B300AA59A95A90000E121E16121F82121F4D1A
:1008C3007FC1121E1AAB58AA59A95A90000D121EC5
:1008D30016121F82121F4D7FC4121E1AAB58AA593B
:1008E300A95A90000C121E16121F82121F4D7FC3AD
:1008F300121E1AAB58AA59A95A90000B121E1612AF
:100903001F82121F4D7FC6121E1AAB58AA59A95A2D
:1009130090000A121E16121F82121F4D7FC5121E4F
:100923001AAB58AA59A95A900009121E16121F820F
:10093300121F4D7FC8121E1AAB58AA59A95A90000C
:1009430008121E16121F82121F4D7FC7121E1AABEA
:1009530058AA59A95A900007121E16121F82121F75
:100963004D7FCA121E1AAB58AA59A95A90000612F3
:100973001E16121F82121F4D7FC9121E1AAB58AAD0
:1009830059A95A900005121E16121F827F647E0019
:10099300121F2D121F4D7FCB121E1AAB58AA59A935
:1009A3005A90000F121E16121F82121F4D7FC11282
:1009B3001E1AAB58AA59A95A90000E121E16121FDE
:1009C30082121F4D7FC4121E1AAB58AA59A95A90FE
:1009D300000D121E16121F82121F4D7FC3121E1A04
:1009E300AB58AA59A95A90000C121E16121F821254
:1009F3001F4D7FC6121E1AAB58AA59A95A90000B55
:100A0300121E16121F82121F4D7FC5121E1AAB58DB
:100A1300AA59A95A90000A121E16121F82121F4DBC
:100A23007FC8121E1AAB58AA59A95A900009121E60
:100A330016121F82121F4D7FC7121E1AAB58AA59D6
:100A4300A95A900008121E16121F82121F4D7FCA48
:100A5300121E1AAB58AA59A95A900007121E161251
:100A63001F82121F4D7FC9121E1AAB58AA59A95AC9
:100A7300900006121E16121F827F647E00121F2D25
:100A8300121F4D7FCB121E1AAB58AA59A95A9000B8
:100A930010121E16121F82121F4D7FC1121E1AAB97
:100AA30058AA59A95A90000F121E16121F82121F1C
:100AB3004D7FC4121E1AAB58AA59A95A90000E12A0
:100AC3001E16121F82121F4D7FC3121E1AAB58AA85
:100AD30059A95A90000D121E16121F82121F4D7F24
:100AE300C6121E1AAB58AA59A95A90000C121E1608
:100AF300121F82121F4D7FC5121E1AAB58AA59A985
:100B03005A90000B121E16121F82121F4D7FC8121D
:100B13001E1AAB58AA59A95A90000A121E16121F80
:100B230082121F4D7FC7121E1AAB58AA59A95A9099
:100B33000009121E16121F82121F4D7FCA121E1A9F
:100B4300AB58AA59A95A900008121E16121F8212F6
:100B53001F4D7FC9121E1AAB58AA59A95A900007F4
:100B6300121E16121F827F647E00121F2D121F4D4C
:100B73007FCB121E1AAB58AA59A95A900011121E04
:100B830016121F82121F4D7FC1121E1AAB58AA598B
:100B9300A95A900010121E16121F82121F4D7FC4F5
:100BA300121E1AAB58AA59A95A90000F121E1612F8
:100BB3001F82121F4D7FC3121E1AAB58AA59A95A7E
:100BC30090000E121E16121F82121F4D7FC6121E98
:100BD3001AAB58AA59A95A90000D121E16121F8259
:100BE300121F4D7FC5121E1AAB58AA59A95A90005D
:100BF3000C121E16121F82121F4D7FC8121E1AAB33
:100C030058AA59A95A90000B121E16121F82121FBE
:100C13004D7FC7121E1AAB58AA59A95A90000A123F
:100C23001E16121F82121F4D7FCA121E1AAB58AA1C
:100C330059A95A900009121E16121F82121F4D7FC6
:100C4300C9121E1AAB58AA59A95A900008121E16A7
:100C5300121F827F647E00121F2D121F4D7FCB1245
:100C63001E1AAB58AA59A95A900012121E16121F27
:100C730082121F4D7FC1121E1AAB58AA59A95A904E
:100C83000011121E16121F82121F4D7FC4121E1A4C
:100C9300AB58AA59A95A900010121E16121F82129D
:100CA3001F4D7FC3121E1AAB58AA59A95A90000FA1
:100CB300121E16121F82121F4D7FC6121E1AAB5828
:100CC300AA59A95A90000E121E16121F82121F4D06
:100CD3007FC5121E1AAB58AA59A95A90000D121EAD
:100CE30016121F82121F4D7FC8121E1AAB58AA5923
:100CF300A95A90000C121E16121F82121F4D7FC795
:100D0300121E1AAB58AA59A95A90000B121E16129A
:100D13001F82121F4D7FCA121E1AAB58AA59A95A15
:100D230090000A121E16121F82121F4D7FC9121E37
:100D33001AAB58AA59A95A900009121E16121F82FB
:100D43007F647E00121F2D121F4D7FCB121E1AAB24
:100D530058AA59A95A900013121E16121F82121F65
:100D63004D7FC1121E1AAB58AA59A95A90001212EC
:100D73001E16121F82121F4D7FC4121E1AAB58AAD1
:100D830059A95A900011121E16121F82121F4D7F6D
:100D9300C3121E1AAB58AA59A95A900010121E1654
:100DA300121F82121F4D7FC6121E1AAB58AA59A9D1
:100DB3005A90000F121E16121F82121F4D7FC5126A
:100DC3001E1AAB58AA59A95A90000E121E16121FCA
:100DD30082121F4D7FC8121E1AAB58AA59A95A90E6
:100DE300000D121E16121F82121F4D7FC7121E1AEC
:100DF300AB58AA59A95A90000C121E16121F821240
:100E03001F4D7FCA121E1AAB58AA59A95A90000B3C
:100E1300121E16121F82121F4D7FC9121E1AAB58C3
:100E2300AA59A95A90000A121E16121F82121F4DA8
:080E33007F8B121E1A021F82C0
:100E3B008B588A59895A121F4D7F44121E1A121F42
:100E4B0082121F4D7FC2121E1AAB58AA59A95A12F1
:100E5B001DB6FF121E1A121F82121F4D7FC0121ECB
:100E6B001AAB58AA59A95A121DB6FF121E1A121FF5
:100E7B0082121F4D7FCC121E1AAB58AA59A95A12B7
:100E8B001DB6FF121E1A121F82121F4D7FCE121E8D
:100E9B001AAB58AA59A95A121DB6FF121E1A121FC5
:100EAB0082121F4D7FCF121E1AAB58AA59A95A1284
:100EBB001DB6FF121E1A121F82121F4D7FCD121E5E
:100ECB001AAB58AA59A95A121DB6FF121E1A121F95
:100EDB0082121F4D7FCB121E1AAB58AA59A95A1258
:100EEB001DB6FF121E1A121F82121F4D7FC1121E3A
:100EFB001AAB58AA59A95A121DB6FF121E1A121F65
:100F0B0082121F4D7FC4121E1AAB58AA59A95A122E
:100F1B001DB6FF121E1A121F82121F4D7FC3121E07
:100F2B001AAB58AA59A95A121DB6FF121E1A121F34
:100F3B0082121F4D7FC6121E1AAB58AA59A95A12FC
:100F4B001DB6FF121E1A121F82121F4D7FC5121ED5
:100F5B001AAB58AA59A95A121DB6FF121E1A121F04
:100F6B0082121F4D7FC8121E1AAB58AA59A95A12CA
:100F7B001DB6FF121E1A121F82121F4D7FC7121EA3
:100F8B001AAB58AA59A95A121DB6FF121E1A121FD4
:100F9B0082121F4D7FCA121E1AAB58AA59A95A1298
:100FAB001DB6FF121E1A121F82121F4D7FC9121E71
:100FBB001AAB58AA59A95A121DB6FF121E1A121FA4
:100FCB00827FF47E01121F2D121F4D7FC2121E1A3B
:100FDB00AB58AA59A95A900001121E16121F821261
:100FEB001F4D7FC0121E1AAB58AA59A95A90000167
:100FFB00121E16121F82121F4D7FCC121E1AAB58D7
:10100B00AA59A95A900001121E16121F82121F4DC7
:10101B007FCE121E1AAB58AA59A95A900001121E64
:10102B0016121F82121F4D7FCF121E1AAB58AA59D0
:10103B00A95A900001121E16121F82121F4D7FCD4E
:10104B00121E1AAB58AA59A95A900001121E161259
:10105B001F82121F4D7FCB121E1AAB58AA59A95AC9
:10106B00900001121E16121F82121F4D7FC1121EFD
:10107B001AAB58AA59A95A900001121E16121F82B8
:10108B00121F4D7FC4121E1AAB58AA59A95A9000B1
:10109B0001121E16121F82121F4D7FC3121E1AAB96
:1010AB0058AA59A95A900001121E16121F82121F1C
:1010BB004D7FC6121E1AAB58AA59A95A900001129D
:1010CB001E16121F82121F4D7FC5121E1AAB58AA75
:1010DB0059A95A900001121E16121F82121F4D7F22
:1010EB00C8121E1AAB58AA59A95A900001121E1603
:1010FB00121F82121F4D7FC7121E1AAB58AA59A975
:10110B005A900001121E16121F82121F4D7FCA1217
:10111B001E1AAB58AA59A95A900001121E16121F7B
:10112B0082121F4D7FC9121E1AAB58AA59A95A9089
:10113B000001121E16121F827FF47E01121F2D1248
:10114B001F4D7FC2121E1AAB58AA59A95A90000202
:10115B00121E16121F82121F4D7FC0121E1AAB5881
:10116B00AA59A95A900002121E16121F82121F4D65
:10117B007FCC121E1AAB58AA59A95A900002121E04
:10118B0016121F82121F4D7FCE121E1AAB58AA5970
:10119B00A95A900002121E16121F82121F4D7FCFEA
:1011AB00121E1AAB58AA59A95A900002121E1612F7
:1011BB001F82121F4D7FCD121E1AAB58AA59A95A66
:1011CB00900002121E16121F82121F4D7FCB121E91
:1011DB001AAB58AA59A95A900002121E16121F8256
:1011EB00121F4D7FC1121E1AAB58AA59A95A900053
:1011FB0002121E16121F82121F4D7FC4121E1AAB33
:10120B0058AA59A95A900002121E16121F82121FB9
:10121B004D7FC3121E1AAB58AA59A95A900002123D
:10122B001E16121F82121F4D7FC6121E1AAB58AA12
:10123B0059A95A900002121E16121F82121F4D7FBF
:10124B00C5121E1AAB58AA59A95A900002121E16A3
:10125B00121F82121F4D7FC8121E1AAB58AA59A912
:10126B005A900002121E16121F82121F4D7FC712B8
:10127B001E1AAB58AA59A95A900002121E16121F19
:10128B0082121F4D7FCA121E1AAB58AA59A95A9027
:10129B000002121E16121F82121F4D7FC9121E1A38
:1012AB00AB58AA59A95A900002121E16121F827F20
:1012BB00F47E01121F2D121F4D7FC2121E1AAB5846
:1012CB00AA59A95A900003121E16121F82121F4D03
:1012DB007FC0121E1AAB58AA59A95A900003121EAE
:1012EB0016121F82121F4D7FCC121E1AAB58AA5911
:1012FB00A95A900003121E16121F82121F4D7FCE89
:10130B00121E1AAB58AA59A95A900003121E161294
:10131B001F82121F4D7FCF121E1AAB58AA59A95A02
:10132B00900003121E16121F82121F4D7FCD121E2C
:10133B001AAB58AA59A95A900003121E16121F82F3
:10134B00121F4D7FCB121E1AAB58AA59A95A9000E7
:10135B0003121E16121F82121F4D7FC1121E1AABD3
:10136B0058AA59A95A900003121E16121F82121F57
:10137B004D7FC4121E1AAB58AA59A95A90000312DA
:10138B001E16121F82121F4D7FC3121E1AAB58AAB4
:10139B0059A95A900003121E16121F82121F4D7F5D
:1013AB00C6121E1AAB58AA59A95A900003121E1640
:1013BB00121F82121F4D7FC5121E1AAB58AA59A9B4
:1013CB005A900003121E16121F82121F4D7FC81255
:1013DB001E1AAB58AA59A95A900003121E16121FB7
:1013EB0082121F4D7FC7121E1AAB58AA59A95A90C9
:1013FB000003121E16121F82121F4D7FCA121E1AD5
:10140B00AB58AA59A95A900003121E16121F82122A
:10141B001F4D7FC9121E1AAB58AA59A95A90000327
:10142B00121E16121F827FF47E01121F2D121F4DEA
:10143B007FC2121E1AAB58AA59A95A900004121E49
:10144B0016121F82121F4D7FC0121E1AAB58AA59BB
:10145B00A95A900004121E16121F82121F4D7FCC28
:10146B00121E1AAB58AA59A95A900004121E161232
:10147B001F82121F4D7FCE121E1AAB58AA59A95AA2
:10148B00900004121E16121F82121F4D7FCF121EC8
:10149B001AAB58AA59A95A900004121E16121F8291
:1014AB00121F4D7FCD121E1AAB58AA59A95A900084
:1014BB0004121E16121F82121F4D7FCB121E1AAB67
:1014CB0058AA59A95A900004121E16121F82121FF5
:1014DB004D7FC1121E1AAB58AA59A95A900004127B
:1014EB001E16121F82121F4D7FC4121E1AAB58AA52
:1014FB0059A95A900004121E16121F82121F4D7FFB
:10150B00C3121E1AAB58AA59A95A900004121E16E0
:10151B00121F82121F4D7FC6121E1AAB58AA59A951
:10152B005A900004121E16121F82121F4D7FC512F5
:10153B001E1AAB58AA59A95A900004121E16121F54
:10154B0082121F4D7FC8121E1AAB58AA59A95A9066
:10155B000004121E16121F82121F4D7FC7121E1A75
:10156B00AB58AA59A95A900004121E16121F8212C8
:10157B001F4D7FCA121E1AAB58AA59A95A900004C4
:10158B00121E16121F82121F4D7FC9121E1AAB5844
:10159B00AA59A95A900004121E16121F827FF47EBC
:1015AB0001121F2D121F4D7FC2121E1AAB58AA59C2
:1015BB00A95A900005121E16121F82121F4D7FC0D2
:1015CB00121E1AAB58AA59A95A900005121E1612D0
:1015DB001F82121F4D7FCC121E1AAB58AA59A95A43
:1015EB00900005121E16121F82121F4D7FCE121E67
:1015FB001AAB58AA59A95A900005121E16121F822F
:10160B00121F4D7FCF121E1AAB58AA59A95A900020
:10161B0005121E16121F82121F4D7FCD121E1AAB02
:10162B0058AA59A95A900005121E16121F82121F92
:10163B004D7FCB121E1AAB58AA59A95A900005120E
:10164B001E16121F82121F4D7FC1121E1AAB58AAF3
:10165B0059A95A900005121E16121F82121F4D7F98
:10166B00C4121E1AAB58AA59A95A900005121E167D
:10167B00121F82121F4D7FC3121E1AAB58AA59A9F3
:10168B005A900005121E16121F82121F4D7FC61292
:10169B001E1AAB58AA59A95A900005121E16121FF2
:1016AB0082121F4D7FC5121E1AAB58AA59A95A9008
:1016BB000005121E16121F82121F4D7FC8121E1A12
:1016CB00AB58AA59A95A900005121E16121F821266
:1016DB001F4D7FC7121E1AAB58AA59A95A90000565
:1016EB00121E16121F82121F4D7FCA121E1AAB58E2
:1016FB00AA59A95A900005121E16121F82121F4DCD
:10170B007FC9121E1AAB58AA59A95A900005121E6E
:10171B0016121F827FF47E01121F2D121F4D7FC2E6
:10172B00121E1AAB58AA59A95A900006121E16126D
:10173B001F82121F4D7FC0121E1AAB58AA59A95AED
:10174B00900006121E16121F82121F4D7FCC121E06
:10175B001AAB58AA59A95A900006121E16121F82CC
:10176B00121F4D7FCE121E1AAB58AA59A95A9000C0
:10177B0006121E16121F82121F4D7FCF121E1AAB9E
:10178B0058AA59A95A900006121E16121F82121F30
:10179B004D7FCD121E1AAB58AA59A95A90000612AA
:1017AB001E16121F82121F4D7FCB121E1AAB58AA88
:1017BB0059A95A900006121E16121F82121F4D7F36
:1017CB00C1121E1AAB58AA59A95A900006121E161E
:1017DB00121F82121F4D7FC4121E1AAB58AA59A991
:1017EB005A900006121E16121F82121F4D7FC31233
:1017FB001E1AAB58AA59A95A900006121E16121F90
:10180B0082121F4D7FC6121E1AAB58AA59A95A90A5
:10181B000006121E16121F82121F4D7FC5121E1AB2
:10182B00AB58AA59A95A900006121E16121F821203
:10183B001F4D7FC8121E1AAB58AA59A95A90000601
:10184B00121E16121F82121F4D7FC7121E1AAB5883
:10185B00AA59A95A900006121E16121F82121F4D6A
:10186B007FCA121E1AAB58AA59A95A900006121E0B
:10187B0016121F82121F4D7FC9121E1AAB58AA597E
:10188B00A95A900006121E16121F82121F4D7F8B33
:06189B00121E1A021F825A
:101AA1008B588A59895A121F4D7F44121E1A121FD0
:101AB10082121F4D7FC2121E1AAB58AA59A95A127F
:101AC1001DB6FF121E1A121F82121F4D7FC0121E59
:101AD1001AAB58AA59A95A900001121E16121F8258
:101AE100121F4D7FCC121E1AAB58AA59A95A900049
:101AF10002121E16121F82121F4D7FCE121E1AAB2A
:101B010058AA59A95A900003121E16121F82121FB9
:101B11004D7FCF121E1AAB58AA59A95A9000041230
:101B21001E16121F82121F4D7FCD121E1AAB58AA0C
:101B310059A95A900005121E16121F82121F4D7FBD
:071B41008B121E1A021F8225
:0B1F9600759503C2A0C2A1E4F5B422BF
:101CF400E4F55BF55AF559F558E47F32FEFDFCAB8B
:101D04005BAA5AA959A858C3121DFC504CE4F55FAC
:101D1400F55EF55DF55CE47FE87E03FDFCAB5FAA50
:101D24005EA95DA85CC3121DFC5017E55F2401F594
:101D34005FE4355EF55EE4355DF55DE4355CF55CE8
:101D440080D4E55B2401F55BE4355AF55AE4355952
:091D5400F559E43558F55880A05A
:011D5D002263
:101F2D00E4FDFCC3ED9FEC9E5015E4FBFA0BBB00EA
:0F1F3D00010ABA01F8BB4DF50DBD00010C80E49F
:011F4C002272
:03000000021C6877
:0C1C6800787FE4F6D8FD758163021CAFA4
:101DB600BB010689828A83E0225002E722BBFE022B
:091DC600E32289828A83E493225E
:101DCF00BB010CE58229F582E5833AF583E02250C9
:101DDF0006E92582F8E622BBFE06E92582F8E22213
:0D1DEF00E58229F582E5833AF583E493222D
:101DFC00EB9FF5F0EA9E42F0E99D42F0E89C45F03D
:011E0C0022B3
:101C74000219C9E493A3F8E493A34003F68001F2A4
:101C840008DFF48029E493A3F85407240CC8C33371
:101C9400C4540F4420C8834004F456800146F6DF40
:101CA400E4800B0102040810204080901D5EE47E55
:101CB400019360BCA3FF543F30E509541FFEE49335
:101CC400A360010ECF54C025E060A840B8E493A3FC
:101CD400FAE493A3F8E493A3C8C582C8CAC583CA27
:101CE400F0A3C8C582C8CAC583CADFE9DEE780BEDF
:011DB500002D
:00000001FF
